S0180000476363426F61726450726F6A656374312E737265630F
S113000037C0000045C0000043C0000041C00000EC
S11300103FC000003DC000003BC0000039C00000EC
S113002037C0000035C0000033C0000031C00000FC
S11300302FC000002DC000002BC0000029C000000C
S113004038C0000025C0000023C0000021C000000B
S11300501FC000001DC000001BC0000019C000002C
S113006017C0000015C0000013C0000011C000003C
S113007011241FBECFEFD0E1DEBFCDBF21E0A0E051
S1130080B1E001C01D92A230B207E1F702D03FC037
S1130090B7CF8FEF8AB911B887B992E094BD91E0D8
S11300A095BDEEE6F0E090819260908387BD7894F0
S11300B0FFCF1F920F920FB60F9211242F938F939D
S11300C09F93809100019091010101969093010109
S11300D0809300018FEF87BD809100019091010111
S11300E08B3C924060F08FEF87BD1092010110921B
S11300F0000188B1809588B98BB180958BB99F91A7
S11301008F912F910F900FBE0F901F901895F89418
S1050110FFCF1B
S9030000FC
