S0180000476363426F61726450726F6A656374312E737265630F
S113000037C0000050C000004EC000004CC00000CB
S11300104AC0000048C0000046C0000044C00000C0
S113002042C00000DBC100003EC000003CC0000034
S11300303AC0000038C0000036C0000034C00000E0
S113004095C0000030C000002EC000002CC000008D
S11300502AC0000028C0000026C0000024C0000000
S113006022C0000020C000001EC000001CC0000010
S113007011241FBECFEFD0E1DEBFCDBF11E0A0E061
S1130080B1E0EAEDF4E002C005900D92AC30B107A6
S1130090D9F721E0ACE0B1E001C01D92A134B20770
S11300A0E1F766D118C2ACCF0F931F93CF93DF93C0
S11300B0EC01042F641708F04FC0262F30E0220F04
S11300C0331F280F391F142F862F25C08F5FE82F69
S11300D0F0E0EE0FFF1FEC0FFD1F4081941750F46A
S11300E0A12FB0E0AA0FBB1FAC0FBD1F5C919517E9
S11300F020F00DC0801750F3F3CF1150A12FB0E0C2
S1130100AA0FBB1FAC0FBD1F5C919517B0F38117ED
S113011080F450834C93E82FF0E0EE0FFF1FEC0FB8
S1130120FD1F4081D9019C919417D0F2801770F281
S1130130D7CFE12FF0E0EE0FFF1FEC0FFD1F808102
S1130140D9018C9390834FEF410FCE01ADDF61E075
S1130150610F402FCE01A8DFCE01DF91CF911F9117
S11301600F91089545E060E09FCF08951F920F928C
S11301700FB60F9211242F933F938F939F93EF9376
S1130180FF93809127019091280101969093280173
S1130190809327018FEF87BDE0912401F0E0EE0FFB
S11301A0FF1FEE0FFF1FE75DFE4F2081318180911D
S11301B02701909128012817390788F5E091240137
S11301C0F0E0EE0FFF1FEE0FFF1FE75DFE4F828191
S11301D087BDE0912401F0E0EE0FFF1FEE0FFF1F3B
S11301E0E75DFE4F338128B181E090E002C0880FC3
S11301F0991F3A95E2F780959095822388B91092D9
S113020028011092270180912401853018F0109262
S1130210240105C0809124018F5F8093240188B15B
S1130220811103C085B58E7F85BDFF91EF919F91AC
S11302308F913F912F910F900FBE0F901F901895A3
S113024024E6829FC00111246FEF70E01DD16C5928
S11302507F4F20EA269FC001279F900D1124692F0C
S113026070E008959F92AF92BF92CF92DF92EF9287
S1130270FF920F931F93CF93DF93CDB7DEB72C97E5
S11302800FB6F894DEBF0FBECDBF8CE0E0E0F1E026
S1130290DE01119601900D928A95E1F7CE01019647
S11302A061DFDC01FE0131969E01235F3F4F8D919A
S11302B09D9181939193E217F307C9F78E01015041
S11302C011090F2EFCE0AF2EF1E0BF2EF02D992482
S11302D09394C12CD12C09C04FEFC41AD40A93941F
S11302E00E5F1F4F54E0A50EB11CF8018281CC2093
S11302F0C1F09601220F331F220F331FA901445F5F
S11303005E4F7A019081891B9BDFF70160837183C3
S11303108283F8018381F5018383F5E0F915E0F622
S113032013C09601220F331F220F331FA901445F0C
S11303305E4F7A0185DFF701608371838283F80160
S11303408381F5018383C8CF8CE091E02C960FB6AE
S1130350F894DEBF0FBECDBFDF91CF911F910F91F7
S1130360FF90EF90DF90CF90BF90AF909F90089553
S11303708FEF84B985B911B810B887B922E02093FA
S1130380B00091E09093B100E0E7F0E090819260DA
S113039090838093B30024BD15BCEEE6F0E0908119
S11303A09260908387BD78945DDF20E030E0F901AE
S11303B0EE0FFF1FEE0FFF1FE75DFE4FDC014D91B7
S11303C05D916D917D91CD014083518362837383EF
S11303D02F5F3F4F2630310551F7FFCF1F920F9209
S11303E00FB60F9211242F933F934F935F936F9304
S11303F07F938F939F93AF93BF93EF93FF938091DA
S11304002501909126010196909326018093250160
S11304108FEF8093B3008091250190912601823E55
S1130420944008F185B5816085BD10922601109233
S113043025018FE388B916DFDC0120E030E0F90103
S1130440EE0FFF1FEE0FFF1FE75DFE4F4D915D9115
S11304506D917D9140835183628373832F5F3F4FFE
S11304602630310561F7FF91EF91BF91AF919F91D4
S11304708F917F916F915F914F913F912F910F9049
S11304800FBE0F901F90189597FB072E16F400943B
S113049006D077FD08D00BD007FC05D03EF490952C
S11304A081959F4F0895709561957F4F0895AA1B7C
S11304B0BB1B51E107C0AA1FBB1FA617B70710F04B
S11304C0A61BB70B881F991F5A95A9F7809590957D
S10D04D0BC01CD010895F894FFCF9C
S10F04DAF0003701500264030A046405BA
S9030000FC
