S0180000476363426F61726450726F6A656374312E737265630F
S11300007BC0000096C0000094C0000092C00000B5
S113001090C000008EC000008CC000008AC00000A8
S113002088C000000C941F1B84C0000082C0000024
S113003080C000007EC000007CC000007AC00000C8
S11300400C94651B76C0000074C0000072C00000F0
S11300500C94E7146EC000006CC000006AC000007D
S113006068C0000066C0000064C0000062C00000F8
S1130070036EDB363D9A9999993DABAAAA2A3E00B4
S11300800000803F084AD73B3BCE016E84BCBFFDD5
S1130090C12F3D6C74319ABD56833DDA3D00C77F54
S11300A011BED9E4BB4C3E916BAAAABE00000080ED
S11300B03F072C7AA5BA6CC590DA3B9365FC8BBCE0
S11300C053F810FD3C5692834DBD879D3AB63DCB07
S11300D0C9BF5BBE73DA0FC93F05A84CCDB2D44E7D
S11300E0B93836A9020C50B9918688083CA6AAAA48
S11300F02ABE000000803F0011241FBECFEFD0E1D4
S1130100DEBFCDBF11E0A0E0B1E0ECEDF2E402C04F
S113011005900D92A831B107D9F722E0A8E1B1E02A
S113012001C01D92A437B207E1F70E9499190C94FB
S11301306C2166CF6F927F928F929F92AF92BF9203
S1130140CF92DF92EF92FF920F931F93CF93DF939F
S1130150CDB7DEB7CA55D1090FB6F894DEBF0FBECE
S1130160CDBFFE01EF5AFF4F91838083CE018D5A9C
S11301709F4FFC014083518362837383CE01895A6C
S11301809F4FFC010083118322833383CE018D5A58
S11301909F4FFC0180819181A281B3818DA39EA395
S11301A0AFA3B8A7CE01895A9F4FFC0180819181EA
S11301B0A281B38189A79AA7ABA7BCA71DA61EA637
S11301C01FA618AAEDA0FEA00FA118A529A53AA55F
S11301D04BA55CA56DA57EA58FA598A90E94EB17DC
S11301E0DC01CB0189839A83AB83BC8327E939EF94
S11301F04DED50E469817A818B819C810E94772046
S1130200181604F529813A814B815C8167E979EFFD
S11302108DED90E40E94E41EDC01CB019C01AD0154
S1130220CE01859649015A01CDA0DEA0EFA0F8A425
S113023009A51AA52BA53CA54DA55EA56FA578A972
S11302400E941C168DA19EA1AFA1B8A5BC01CD0131
S1130250B7D0DC01CB018D839E83AF83B88789A59A
S11302609AA5ABA5BCA5BC01CD01AAD0DC01CB01EC
S113027089879A87AB87BC87198E1A8E1B8E1C8E32
S113028080E090E0A0E8BFE38D8F9E8FAF8FB8A38E
S113029019A21AA21BA21CA2FE01F1968D819E81B5
S11302A0AF81B8854C015D01C98CDA8CEB8CFC8C78
S11302B00D8D1E8D2F8D38A149A15AA16BA17CA152
S11302C0CF010E94DF1080E090E0A0E8BFE38D87BB
S11302D09E87AF87B88B198A1A8A1B8A1C8A1D8A43
S11302E01E8A1F8A188EFE01EF5BFF4F89859A854F
S11302F0AB85BC854C015D01CD84DE84EF84F88838
S113030009891A892B893C894D895E896F89788D81
S1130310CF010E94DF10CE018F5A9F4FFC016080F5
S113032071808DB79EB740970FB6F8949EBF0FBEED
S11303308DBF8DB79EB7019620E1FE01EF5BFF4FA5
S1130340DC0101900D922A95E1F789A89AA8ABA83F
S1130350BCA8CDA8DEA8EFA8F8AC09AD1AAD2BADAA
S11303603CAD4DAD5EAD6FADCE01805C9F4FFC01E9
S11303707081C3010E94F0118DB79EB740960FB6ED
S1130380F894DEBF0FBECDBFCE018F5A9F4FFC0144
S113039080819181C65ADF4F0FB6F894DEBF0FBE3D
S11303A0CDBFDF91CF911F910F91FF90EF90DF9020
S11303B0CF90BF90AF909F908F907F906F90089553
S11303C0EF92FF920F931F93CF93DF93CDB7DEB7D6
S11303D02D970FB6F894DEBF0FBECDBF6A877B871B
S11303E08C879D8720E030E0A9016A857B858C8518
S11303F09D850E94772018162CF48A859B85AC85F0
S1130400BD8505C08A859B85AC85BD85B05889832B
S11304109A83AB83BC8311E020E030E0A9016A85B4
S11304207B858C859D850E94772018160CF010E042
S11304301D8323EC35EF4CE151E469817A818B8192
S11304409C810E94E41EDC01CB018E839F83A887DC
S1130450B9878E819F81A885B985BC01CD010E9491
S1130460641E7B018C018D81813029F480E090E051
S1130470A0E8BFE304C080E090E0A0E8BFEB9C01EB
S1130480AD01C801B7010E948220DC01CB01BC018F
S1130490CD012D960FB6F894DEBF0FBECDBFDF9110
S11304A0CF911F910F91FF90EF900895AF92BF925B
S11304B0CF92DF92EF92FF920F931F93CF93DF932C
S11304C0CDB7DEB760970FB6F894DEBF0FBECDBFD1
S11304D069837A838B839C832D833E834F835887E0
S11304E0E986FA860B871C87AD86BE86CF86D88AB6
S11304F089819A81AB81BC81809366019093670165
S1130500A0936801B09369018D819E81AF81B88504
S11305108093EE019093EF01A093F001B093F10169
S113052089859A85AB85BC85809346029093470262
S1130530A0934802B09349028D859E85AF85B88902
S11305408093420190934301A0934401B0934501E9
S11305508D8D9E8DAF8DB8A18093460190934701F8
S1130560A0934801B093490189A19AA1ABA1BCA170
S113057080934A0190934B01A0934C01B0934D0199
S1130580D3D712D45FD012D0000060960FB6F8947F
S1130590DEBF0FBECDBFDF91CF911F910F91FF90B2
S11305A0EF90DF90CF90BF90AF900895CF93DF93FB
S11305B0CDB7DEB78BED9FE0A9E4B0E480934E01A4
S11305C090934F01A0935001B093510110925201A6
S11305D010925301109254011092550182E99AE04D
S11305E0A6E8BFE38093560190935701A093580166
S11305F0B093590182E99AE0A6E0B0EC80935A01E5
S113060090935B01A0935C01B0935D0182E99AE051
S1130610A6E8BFEB80935E0190935F01A093600115
S1130620B093610182E99AE0A6E0B0E480936201AC
S113063090936301A0936401B09365010000DF917E
S1130640CF9108958F929F92AF92BF92CF92DF92F3
S1130650EF92FF920F931F93CF93DF93CDB7DEB743
S1130660CC57D1090FB6F894DEBF0FBECDBF809131
S11306704A0190914B01A0914C01B0914D019C0114
S1130680AD0160E070E080E89FE30E94FF1DDC01A3
S1130690CB0189839A83AB83BC835E018DE4A80E6E
S11306A0B11CADB7BEB71C970FB6F894BEBF0FBE52
S11306B0ADBF8DB79EB701962CE0E2E8F1E0DC0116
S11306C001900D922A95E1F7C090D601D090D70100
S11306D0E090D801F090D9010091DA011091DB018A
S11306E02091DC013091DD014091DE015091DF0168
S11306F06091E0017091E101C5010E9407178DB777
S11307009EB70C960FB6F894DEBF0FBECDBF5E0148
S113071099E5A90EB11CADB7BEB71C970FB6F894F6
S1130720BEBF0FBEADBF8DB79EB701962CE0E6ED00
S1130730F1E0DC0101900D922A95E1F7C090F201FD
S1130740D090F301E090F401F090F5010091F601EE
S11307501091F7012091F8013091F9014091FA01CB
S11307605091FB016091FC017091FD01C5010E9453
S113077007178DB79EB70C960FB6F894DEBF0FBE61
S1130780CDBF5E0195E6A90EB11CADB7BEB71C97EF
S11307900FB6F894BEBF0FBEADBF8DB79EB701961E
S11307A02CE0E2EFF1E0DC0101900D922A95E1F7F3
S11307B0C0908201D0908301E0908401F090850183
S11307C0009186011091870120918801309189015F
S11307D040918A0150918B0160918C0170918D013F
S11307E0C5010E9407178DB79EB70C960FB6F894F3
S11307F0DEBF0FBECDBF20914A0130914B01409125
S11308004C0150914D01FE01EF5BFF4FCE01835B24
S11308109F4F49015A01DC01CC90DC011196DC9018
S1130820DC011296EC90DC011396FC90DC0114962A
S11308300C91DC0115961C91DC0116962C91DC01BF
S113084017963C91DC0118964C91DC0119965C9149
S1130850DC011A966C91DC011B967C91CF010E94FD
S11308601C165E01B1E7AB0EB11C8DB79EB70C9799
S11308700FB6F8949EBF0FBE8DBF8DB79EB701967D
S11308802CE0FE01EF5BFF4FDC0101900D922A95F5
S1130890E1F7C0908201D0908301E0908401F09050
S11308A08501009186011091870120918801309182
S11308B0890140918A0150918B0160918C01709162
S11308C08D01C5010E949916ADB7BEB71C960FB62F
S11308D0F894DEBF0FBECDBFCE018F589F4F2CE0E2
S11308E0FC01AEEFB1E001900D922A95E1F7FE0113
S11308F0F59629813A814B815C81CE018B599F4FBA
S113090049015A01DC01CC90DC011196DC90DC0138
S11309101296EC90DC011396FC90DC0114960C9179
S1130920DC0115961C91DC0116962C91DC011796BE
S11309303C91DC0118964C91DC0119965C91DC0128
S11309401A966C91DC011B967C91CF010E941C16B7
S11309505E01B1E7AB0EB11C8DB79EB70C970FB615
S1130960F8949EBF0FBE8DBF8DB79EB701962CE045
S1130970FE01F596DC0101900D922A95E1F7C090F5
S1130980F201D090F301E090F401F090F5010091B0
S1130990F6011091F7012091F8013091F90140918D
S11309A0FA015091FB016091FC017091FD01C501B8
S11309B00E949916ADB7BEB71C960FB6F894DEBF69
S11309C00FBECDBFCE018F589F4F2CE0FC01AAE093
S11309D0B2E001900D922A95E1F720914A013091FD
S11309E04B0140914C0150914D01FE01B996CE014D
S11309F08B599F4F49015A01DC01CC90DC011196BF
S1130A00DC90DC011296EC90DC011396FC90DC0186
S1130A1014960C91DC0115961C91DC0116962C9110
S1130A20DC0117963C91DC0118964C91DC01199677
S1130A305C91DC011A966C91DC011B967C91CF01D0
S1130A400E941C165E01B1E7AB0EB11C8DB79EB7B8
S1130A500C970FB6F8949EBF0FBE8DBF8DB79EB78F
S1130A6001962CE0FE01B996DC0101900D922A95C5
S1130A70E1F7C090F201D090F301E090F401F0901E
S1130A80F5010091F6011091F7012091F8013091E0
S1130A90F9014091FA015091FB016091FC017091C0
S1130AA0FD01C5010E949916ADB7BEB71C960FB6DD
S1130AB0F894DEBF0FBECDBFCE018F589F4F2CE000
S1130AC0FC01A6E1B2E001900D922A95E1F7FE0146
S1130AD07D9629813A814B815C81CE01875A9F4F53
S1130AE049015A01DC01CC90DC011196DC90DC0157
S1130AF01296EC90DC011396FC90DC0114960C9198
S1130B00DC0115961C91DC0116962C91DC011796DC
S1130B103C91DC0118964C91DC0119965C91DC0146
S1130B201A966C91DC011B967C91CF010E941C16D5
S1130B305E01B1E7AB0EB11C8DB79EB70C970FB633
S1130B40F8949EBF0FBE8DBF8DB79EB701962CE063
S1130B50FE017D96DC0101900D922A95E1F7C0908B
S1130B60D601D090D701E090D801F090D90100913E
S1130B70DA011091DB012091DC013091DD0140911B
S1130B80DE015091DF016091E0017091E101C50146
S1130B900E949916ADB7BEB71C960FB6F894DEBF87
S1130BA00FBECDBFCE018F589F4F2CE0FC01A2E2B7
S1130BB0B2E001900D922A95E1F720914A0130911B
S1130BC04B0140914C0150914D01FE017196CE01B3
S1130BD0875A9F4F49015A01DC01CC90DC011196E0
S1130BE0DC90DC011296EC90DC011396FC90DC01A5
S1130BF014960C91DC0115961C91DC0116962C912F
S1130C00DC0117963C91DC0118964C91DC01199695
S1130C105C91DC011A966C91DC011B967C91CF01EE
S1130C200E941C165E01B1E7AB0EB11C8DB79EB7D6
S1130C300C970FB6F8949EBF0FBE8DBF8DB79EB7AD
S1130C4001962CE0FE017196DC0101900D922A952B
S1130C50E1F7C090D601D090D701E090D801F09090
S1130C60D9010091DA011091DB012091DC0130916E
S1130C70DD014091DE015091DF016091E00170914E
S1130C80E101C5010E949916ADB7BEB71C960FB617
S1130C90F894DEBF0FBECDBFCE018F589F4F2CE01E
S1130CA0FC01AEE2B2E001900D922A95E1F7FE015B
S1130CB0359689819A81AB81BC814C015D01C090DC
S1130CC0E201D090E301E090E401F090E5010091AD
S1130CD0E6011091E7012091E8013091E90140918A
S1130CE0EA015091EB016091EC017091ED01CF01AB
S1130CF00E941C165E01B1E7AB0EB11C8DB79EB706
S1130D000C970FB6F8949EBF0FBE8DBF8DB79EB7DC
S1130D1001962CE0FE013596DC0101900D922A9596
S1130D20E1F7C0908201D0908301E0908401F090BB
S1130D3085010091860110918701209188013091ED
S1130D40890140918A0150918B0160918C017091CD
S1130D508D01C5010E949916ADB7BEB71C960FB69A
S1130D60F894DEBF0FBECDBFCE018F589F4F2CE04D
S1130D70FC01AAE3B2E001900D922A95E1F700008C
S1130D80C458DF4F0FB6F894DEBF0FBECDBFDF915E
S1130D90CF911F910F91FF90EF90DF90CF90BF9074
S1130DA0AF909F908F9008958F929F92AF92BF9231
S1130DB0CF92DF92EF92FF920F931F93CF93DF9323
S1130DC0CDB7DEB7CC57D1090FB6F894DEBF0FBE4E
S1130DD0CDBF8091460190914701A0914801B09107
S1130DE049019C01AD0160E070E080E89FE30E944E
S1130DF0FF1DDC01CB0189839A83AB83BC835E0135
S1130E008DE4A80EB11CADB7BEB71C970FB6F8940D
S1130E10BEBF0FBEADBF8DB79EB701962CE0E2EE0C
S1130E20F1E0DC0101900D922A95E1F7C0906A018E
S1130E30D0906B01E0906C01F0906D0100916E0117
S1130E4010916F01209170013091710140917201F4
S1130E50509173016091740170917501C5010E94F4
S1130E6007178DB79EB70C960FB6F894DEBF0FBE6A
S1130E70CDBF5E0199E5A90EB11CADB7BEB71C97F5
S1130E800FB6F894BEBF0FBEADBF8DB79EB7019627
S1130E902CE0EAE6F1E0DC0101900D922A95E1F7FD
S1130EA0C0907601D0907701E0907801F0907901BC
S1130EB000917A0110917B0120917C0130917D0198
S1130EC040917E0150917F01609180017091810178
S1130ED0C5010E9407178DB79EB70C960FB6F894FC
S1130EE0DEBF0FBECDBF5E0195E6A90EB11CADB746
S1130EF0BEB71C970FB6F894BEBF0FBEADBF8DB77B
S1130F009EB701962CE0E6E7F1E0DC0101900D923A
S1130F102A95E1F7C090E201D090E301E090E4016A
S1130F20F090E5010091E6011091E7012091E801BC
S1130F303091E9014091EA015091EB016091EC019B
S1130F407091ED01C5010E9407178DB79EB70C96ED
S1130F500FB6F894DEBF0FBECDBFFE01EF5BFF4FAF
S1130F6029813A814B815C81CE01835B9F4F49018A
S1130F705A01DC01CC90DC011196DC90DC01129664
S1130F80EC90DC011396FC90DC0114960C91DC01CE
S1130F9015961C91DC0116962C91DC0117963C9158
S1130FA0DC0118964C91DC0119965C91DC011A96CF
S1130FB06C91DC011B967C91CF010E941C165E0192
S1130FC0B1E7AB0EB11C8DB79EB70C970FB6F89472
S1130FD09EBF0FBE8DBF8DB79EB701962CE0FE015C
S1130FE0EF5BFF4FDC0101900D922A95E1F7C09071
S1130FF0E201D090E301E090E401F090E50100917A
S1131000E6011091E7012091E8013091E901409156
S1131010EA015091EB016091EC017091ED01C50181
S11310200E949916ADB7BEB71C960FB6F894DEBFF2
S11310300FBECDBFCE018F589F4F2CE0FC01AEE810
S1131040B1E001900D922A95E1F72091460130918B
S113105047014091480150914901FE01F596CE01A6
S1131060835B9F4F49015A01DC01CC90DC0111964E
S1131070DC90DC011296EC90DC011396FC90DC0110
S113108014960C91DC0115961C91DC0116962C919A
S1131090DC0117963C91DC0118964C91DC01199601
S11310A05C91DC011A966C91DC011B967C91CF015A
S11310B00E941C165E01B1E7AB0EB11C8DB79EB742
S11310C00C970FB6F8949EBF0FBE8DBF8DB79EB719
S11310D001962CE0FE01F596DC0101900D922A9513
S11310E0E1F7C090E201D090E301E090E401F090D8
S11310F0E5010091E6011091E7012091E8013091AA
S1131100E9014091EA015091EB016091EC01709189
S1131110ED01C5010E949916ADB7BEB71C960FB676
S1131120F894DEBF0FBECDBFCE018F589F4F2CE089
S1131130FC01AAE9B1E001900D922A95E1F7FE01C4
S1131140B99629813A814B815C81CE018B599F4F9D
S113115049015A01DC01CC90DC011196DC90DC01E0
S11311601296EC90DC011396FC90DC0114960C9121
S1131170DC0115961C91DC0116962C91DC01179666
S11311803C91DC0118964C91DC0119965C91DC01D0
S11311901A966C91DC011B967C91CF010E941C165F
S11311A05E01B1E7AB0EB11C8DB79EB70C970FB6BD
S11311B0F8949EBF0FBE8DBF8DB79EB701962CE0ED
S11311C0FE01B996DC0101900D922A95E1F7C090D9
S11311D07601D0907701E0907801F0907901009148
S11311E07A0110917B0120917C0130917D01409125
S11311F07E0150917F016091800170918101C50150
S11312000E949916ADB7BEB71C960FB6F894DEBF10
S11312100FBECDBFCE018F589F4F2CE0FC01A6EA34
S1131220B1E001900D922A95E1F7209146013091A9
S113123047014091480150914901FE017D96CE013C
S11312408B599F4F49015A01DC01CC90DC01119666
S1131250DC90DC011296EC90DC011396FC90DC012E
S113126014960C91DC0115961C91DC0116962C91B8
S1131270DC0117963C91DC0118964C91DC0119961F
S11312805C91DC011A966C91DC011B967C91CF0178
S11312900E941C165E01B1E7AB0EB11C8DB79EB760
S11312A00C970FB6F8949EBF0FBE8DBF8DB79EB737
S11312B001962CE0FE017D96DC0101900D922A95A9
S11312C0E1F7C0907601D0907701E0907801F0903A
S11312D0790100917A0110917B0120917C01309178
S11312E07D0140917E0150917F0160918001709158
S11312F08101C5010E949916ADB7BEB71C960FB601
S1131300F894DEBF0FBECDBFCE018F589F4F2CE0A7
S1131310FC01A2EBB1E001900D922A95E1F7FE01E8
S1131320719629813A814B815C81CE01875A9F4F06
S113133049015A01DC01CC90DC011196DC90DC01FE
S11313401296EC90DC011396FC90DC0114960C913F
S1131350DC0115961C91DC0116962C91DC01179684
S11313603C91DC0118964C91DC0119965C91DC01EE
S11313701A966C91DC011B967C91CF010E941C167D
S11313805E01B1E7AB0EB11C8DB79EB70C970FB6DB
S1131390F8949EBF0FBE8DBF8DB79EB701962CE00B
S11313A0FE017196DC0101900D922A95E1F7C0903F
S11313B06A01D0906B01E0906C01F0906D01009196
S11313C06E0110916F012091700130917101409173
S11313D07201509173016091740170917501C5019E
S11313E00E949916ADB7BEB71C960FB6F894DEBF2F
S11313F00FBECDBFCE018F589F4F2CE0FC01AEEB4A
S1131400B1E001900D922A95E1F7209146013091C7
S113141047014091480150914901FE013596CE01A2
S1131420875A9F4F49015A01DC01CC90DC01119687
S1131430DC90DC011296EC90DC011396FC90DC014C
S113144014960C91DC0115961C91DC0116962C91D6
S1131450DC0117963C91DC0118964C91DC0119963D
S11314605C91DC011A966C91DC011B967C91CF0196
S11314700E941C165E01B1E7AB0EB11C8DB79EB77E
S11314800C970FB6F8949EBF0FBE8DBF8DB79EB755
S113149001962CE0FE013596DC0101900D922A950F
S11314A0E1F7C0906A01D0906B01E0906C01F0907C
S11314B06D0100916E0110916F01209170013091C6
S11314C071014091720150917301609174017091A6
S11314D07501C5010E949916ADB7BEB71C960FB62B
S11314E0F894DEBF0FBECDBFCE018F589F4F2CE0C6
S11314F0FC01AAECB1E001900D922A95E1F70000FD
S1131500C458DF4F0FB6F894DEBF0FBECDBFDF91D6
S1131510CF911F910F91FF90EF90DF90CF90BF90EC
S1131520AF909F908F900895EF92FF920F931F9327
S1131530CF93DF93CDB7DEB760970FB6F894DEBFD5
S11315400FBECDBF8091000190910101A0910201D5
S1131550B091030120E030E040EC50E4BC01CD0147
S11315600E94E41EDC01CB017C018D0180916601A7
S113157090916701A0916801B09169019C01AD014E
S1131580C801B7010E948220DC01CB0189839A83C0
S1131590AB83BC8389819A81AB81BC819C01AD0101
S11315A0BC01CD010E94001EDC01CB018D839E8312
S11315B0AF83B8878091660190916701A09168011B
S11315C0B0916901B05820E030E040E050E4BC0143
S11315D0CD010E94E41EDC01CB019C01AD01898197
S11315E09A81AB81BC81B0582093E2013093E3012E
S11315F04093E4015093E5018093E6019093E70161
S1131600A093E801B093E9011092EA011092EB0172
S11316101092EC011092ED018091660190916701A6
S1131620A0916801B091690120E030E040E050E40D
S1131630BC01CD010E94E41EDC01CB019C01AD0183
S113164089819A81AB81BC81B05820936A0130931F
S11316506B0140936C0150936D0180936E019093E4
S11316606F01A0937001B0937101109272011092F6
S11316707301109274011092750110927601109208
S1131680770110927801109279018D819E81AF814A
S1131690B88580937A0190937B01A0937C01B093E9
S11316A07D0110927E0110927F01109280011092B0
S11316B081018091000190910101A0910201B091FA
S11316C0030120E030E040EC50E4BC01CD010E9475
S11316D0E41EDC01CB017C018D018091EE0190912F
S11316E0EF01A091F001B091F1019C01AD01C8019D
S11316F0B7010E948220DC01CB0189879A87AB87DE
S1131700BC8789859A85AB85BC859C01AD01BC01EC
S1131710CD010E94001EDC01CB018D879E87AF871F
S1131720B88B2D853E854F85588960E070E0CB01EC
S11317300E94FF1DDC01CB014CE022E831E0F901FD
S1131740542F11925A95E9F7809382019093830163
S1131750A0938401B09385018091EE019091EF01F3
S1131760A091F001B091F10120E030E040E050E4BC
S1131770BC01CD010E94E41EDC01CB018093D601A3
S11317809093D701A093D801B093D90189859A8504
S1131790AB85BC858093DA019093DB01A093DC01D7
S11317A0B093DD011092DE011092DF011092E0018E
S11317B01092E1018091EE019091EF01A091F0016E
S11317C0B091F101B05820E030E040E050E4BC01B9
S11317D0CD010E94E41EDC01CB018093F2019093C1
S11317E0F301A093F401B093F50189859A85AB8543
S11317F0BC858093F6019093F701A093F801B09310
S1131800F9011092FA011092FB011092FC0110925E
S1131810FD01000060960FB6F894DEBF0FBECDBF89
S1131820DF91CF911F910F91FF90EF900895AF92A8
S1131830BF92CF92DF92EF92FF920F931F93CF93B9
S1131840DF93CDB7DEB7E2970FB6F894DEBF0FBED5
S1131850CDBFEFA2F8A609A71AA72BA73CA74DA7AF
S11318605EA76FA778AB89AB9AAB1A821982CAC0FC
S11318705E012BE1A20EB11C29813A81C901880FB6
S1131880991F820F931F880F991F880F991F9C011E
S113189022503E4F8DB79EB70C970FB6F8949EBF5B
S11318A00FBE8DBF8DB79EB701964CE0F901DC01E8
S11318B001900D924A95E1F729813A81C901880F77
S11318C0991F820F931F880F991F880F991F9C01DE
S11318D022573E4FEDB7FEB73C970FB6F894FEBFC4
S11318E00FBEEDBF8DB79EB701964CE0F901DC0148
S11318F001900D924A95E1F72DB73EB72051310979
S11319000FB6F8943EBF0FBE2DBF8DB79EB701969C
S113191020E1FE01FF96DC0101900D922A95E1F78A
S1131920CFA0D8A4E9A4FAA40BA51CA52DA53EA577
S11319304FA558A969A97AA9C5011BD38DB79EB72C
S113194088960FB6F894DEBF0FBECDBF89819A8109
S1131950880F991F880F991F825B9E4FFC0120817D
S11319603181428153818091420190914301A09140
S11319704401B0914501E0904602F0904702009185
S1131980480210914902652F6F93642F6F93632F60
S11319906F932F932B2F2F932A2F2F93292F2F932E
S11319A08F9357016801EB8CFC8C0D8D1E8D2F8D50
S11319B038A149A15AA16BA17CA18DA19EA13AD0C5
S11319C02DB73EB7285F3F4F0FB6F894DEBF0FBE6A
S11319D0CDBFDC01CB0129813A81220F331F220FB5
S11319E0331FAE014F5F5F4F240F351F2E5F3F4FF4
S11319F0F90180839183A283B38389819A810196BB
S1131A009A83898389819A8106970CF431CF80E087
S1131A1090E0E2960FB6F894DEBF0FBECDBFDF9123
S1131A20CF911F910F91FF90EF90DF90CF90BF90D7
S1131A30AF900895AF92BF92CF92DF92EF92FF9250
S1131A400F931F93CF93DF93CDB7DEB76C970FB689
S1131A50F894DEBF0FBECDBFED86FE860F87188BD0
S1131A60298B3A8B4B8B5C8B6D8B7E8B8F8B988FFA
S1131A70A98EBA8ECB8EDC8E89A59AA5ABA5BCA502
S1131A80AD84BE84CF84D888E988FA880B891C8900
S1131A902D893E894F89588DBC01CD0174D0DC015C
S1131AA0CB0189839A83AB83BC8389A59AA5ABA513
S1131AB0BCA528A92F932FA52F932EA52F932DA531
S1131AC02F93AD84BE84CF84D888E988FA880B89A3
S1131AD01C892D893E894F89588DBC01CD01A2D026
S1131AE00F900F900F900F90DC01CB018D839E839C
S1131AF0AF83B88789A59AA5ABA5BCA52C8D2F93D8
S1131B002B8D2F932A8D2F93298D2F93AD84BE84F3
S1131B10CF84D888E988FA880B891C892D893E8965
S1131B204F89588DBC01CD010AD10F900F900F90B1
S1131B300F90DC01CB0189879A87AB87BC87E98446
S1131B40FA840B851C852D813E814F8158858981BE
S1131B509A81AB81BC81BC01CD0188D1DC01CB0170
S1131B60BC01CD016C960FB6F894DEBF0FBECDBF9D
S1131B70DF91CF911F910F91FF90EF90DF90CF9065
S1131B80BF90AF900895AF92BF92CF92DF92EF9241
S1131B90FF920F931F93CF93DF93CDB7DEB7609778
S1131BA00FB6F894DEBF0FBECDBF69837A838B83F3
S1131BB09C83AD82BE82CF82D886E986FA860B8763
S1131BC01C872D873E874F87588B89819A81AB81EB
S1131BD0BC819C01AD01BC01CD010E94001EDC0151
S1131BE0CB017C018D018D859E85AF85B8899C01D3
S1131BF0AD01C801B7010E948220DC01CB01BC0108
S1131C00CD0160960FB6F894DEBF0FBECDBFDF9155
S1131C10CF911F910F91FF90EF90DF90CF90BF90E5
S1131C20AF9008954F925F926F927F928F929F929E
S1131C30AF92BF92CF92DF92EF92FF920F931F93D6
S1131C40CF93DF93CDB7DEB760970FB6F894DEBFBE
S1131C500FBECDBF69837A838B839C83AD82BE82A2
S1131C60CF82D886E986FA860B871C872D873E8724
S1131C704F87588B89819A81AB81BC819C01AD01CE
S1131C80BC01CD010E94001EDC01CB016C017D0171
S1131C908BA19CA1ADA1BEA1BC01CD010E94E11EFE
S1131CA04B015C018D819E81AF81B8859C01AD01A2
S1131CB0C501B4010E948220DC01CB014C015D010D
S1131CC08BA19CA1ADA1BEA1BC01CD010E94E520C8
S1131CD02B013C0189859A85AB85BC859C01AD01AE
S1131CE0C301B2010E948220DC01CB019C01AD0141
S1131CF0C501B4010E94001EDC01CB019C01AD01B1
S1131D00C701B6010E948220DC01CB01BC01CD01D8
S1131D1060960FB6F894DEBF0FBECDBFDF91CF91B2
S1131D201F910F91FF90EF90DF90CF90BF90AF90F5
S1131D309F908F907F906F905F904F900895AF9297
S1131D40BF92CF92DF92EF92FF920F931F93CF93A4
S1131D50DF93CDB7DEB76C970FB6F894DEBF0FBE36
S1131D60CDBF6D877E878F87988BA98ABA8ACB8AE5
S1131D70DC8AED8AFE8A0F8B188F298F3A8F4B8F5E
S1131D805C8FE988FA880B891C892D893E894F89E3
S1131D90588D698D7A8D8B8D9C8D0E94EB175B011C
S1131DA06C01E988FA880B891C892D893E894F8941
S1131DB0588D698D7A8D8B8D9C8D0E94EB17DC017B
S1131DC0CB019C01AD01C601B5010E948220DC015A
S1131DD0CB0189839A83AB83BC8329A53AA54BA500
S1131DE05CA569A57AA58BA59CA50E948220DC012F
S1131DF0CB018D839E83AF83B8872D853E854F8528
S1131E0058896D857E858F8598890E948220DC01A2
S1131E10CB0189879A87AB87BC8729853A854B850F
S1131E205C856D817E818F8198850E94FF1DDC0118
S1131E30CB019C01AD0169817A818B819C810E94D7
S1131E40FF1DDC01CB01BC01CD016C960FB6F894EB
S1131E50DEBF0FBECDBFDF91CF911F910F91FF90D9
S1131E60EF90DF90CF90BF90AF900895CF92DF9224
S1131E70EF92FF920F931F93CF93DF93CDB7DEB70B
S1131E8060970FB6F894DEBF0FBECDBF6D837E831F
S1131E908F83988729873A874B875C87ED86FE86F0
S1131EA00F87188B2D813E814F8158856D817E81EE
S1131EB08F8198850E948220DC01CB016C017D0119
S1131EC029853A854B855C8569857A858B859C85D2
S1131ED00E948220DC01CB019C01AD01C701B60147
S1131EE00E94001EDC01CB01BC01CD010E94EF2049
S1131EF0DC01CB019C01AD016D857E858F859889C0
S1131F000E94E41EDC01CB01BC01CD010E94641ED1
S1131F106B017C012D813E814F81588589859A858D
S1131F20AB85BC85BC01CD010E948A1EDC01CB01BE
S1131F309C01AD01C701B6010E94FF1DDC01CB016C
S1131F4089839A83AB83BC8389819A81AB81BC8169
S1131F50BC01CD0160960FB6F894DEBF0FBECDBFB5
S1131F60DF91CF911F910F91FF90EF90DF90CF9071
S1131F700895AF92BF92CF92DF92EF92FF920F93A8
S1131F801F93CF93DF93CDB7DEB7A6970FB6F89420
S1131F90DEBF0FBECDBF9A8F898FCB8EDC8EED8EC8
S1131FA0FE8E0F8F18A329A33AA34BA35CA36DA3A2
S1131FB07EA35E018DE0A80EB11C8DB79EB740973D
S1131FC00FB6F8949EBF0FBE8DBF8DB79EB7019616
S1131FD020E1FE01F396DC0101900D922A95E1F7D0
S1131FE06096CFAC60976196DFAC61976296EFAC78
S1131FF062976396FFAC639764960FAD649765969A
S11320001FAD659766962FAD669767963FAD679748
S113201068964FAD689769965FAD69976A966FAD9C
S11320206A976B967FAD6B97C5010E9448188DB770
S11320309EB740960FB6F894DEBF0FBECDBF8DB7E6
S11320409EB70C970FB6F8949EBF0FBE8DBF8DB789
S11320509EB701962CE0FE013D96DC0101900D92A5
S11320602A95E1F7CB8CDC8CED8CFE8C0F8D18A1BE
S113207029A13AA14BA15CA16DA17EA1CE0101963B
S113208058D68DB79EB70C960FB6F894DEBF0FBE28
S1132090CDBFA98CBA8C8DB79EB70C970FB6F894A8
S11320A09EBF0FBE8DBF8DB79EB701962CE0FE017B
S11320B0ED5BFF4FDC0101900D922A95E1F7C98099
S11320C0DA80EB80FC800D811E812F813885498563
S11320D05A856B857C85C5019AD68DB79EB70C96BB
S11320E00FB6F894DEBF0FBECDBF898D9A8DA6962C
S11320F00FB6F894DEBF0FBECDBFDF91CF911F9115
S11321000F91FF90EF90DF90CF90BF90AF90089524
S1132110CF92DF92EF92FF920F931F93CF93DF93AF
S1132120CDB7DEB76E970FB6F894DEBF0FBECDBF46
S11321309A8B898BCB8ADC8AED8AFE8A0F8B188F67
S1132140298F3A8F4B8F5C8F6D8F7E8F19821A8205
S11321501B821C828B899C89AD89BE898D839E8359
S1132160AF83B8878F89988DA98DBA8D89879A870F
S1132170AB87BC878B8D9C8DAD8DBE8D8D879E87E7
S1132180AF87B88B89899A8940E19E012F5F3F4FC1
S1132190F901DC0101900D924A95E1F789899A8948
S11321A06E960FB6F894DEBF0FBECDBFDF91CF9110
S11321B01F910F91FF90EF90DF90CF9008958F9231
S11321C09F92AF92BF92CF92DF92EF92FF920F93C2
S11321D01F93CF93DF93CDB7DEB7AA970FB6F894CA
S11321E0DEBF0FBECDBF9A8F898FCB8EDC8EED8E76
S11321F0FE8E0F8F18A329A33AA34BA35CA36DA350
S11322007EA38FA298A6A9A6BAA620E030E040E05B
S113221050E46FA178A589A59AA50E94E41EDC016B
S1132220CB0189839A83AB83BC8389819A81AB81F7
S1132230BC81BC01CD010E94E520DC01CB018D8372
S11322409E83AF83B88789819A81AB81BC81BC01AD
S1132250CD010E94E11EDC01CB0189879A87AB87FF
S1132260BC878B8D9C8DAD8DBE8D2D813E814F8124
S11322705885BC01CD010E948220DC01CB018D87F1
S11322809E87AF87B88B8F8D98A1A9A1BAA12D8104
S11322903E814F815885BC01CD010E948220DC0122
S11322A0CB01898B9A8BAB8BBC8B8BA19CA1ADA1F1
S11322B0BEA12D813E814F815885BC01CD010E9474
S11322C08220DC01CB018D8B9E8BAF8BB88F898DE7
S11322D09A8D20E1FE013996DC0101900D922A9538
S11322E0E1F7898D9A8DAA960FB6F894DEBF0FBEDA
S11322F0CDBFDF91CF911F910F91FF90EF90DF90B1
S1132300CF90BF90AF909F908F9008958F929F929F
S1132310AF92BF92CF92DF92EF92FF920F931F93EF
S1132320CF93DF93CDB7DEB7A2970FB6F894DEBF95
S11323300FBECDBF9A8B898B8B8A9C8AAD8ABE8A4D
S1132340CF8AD88EE98EFA8E0B8F1C8F2D8F3E8FFD
S11323504F8F58A369A37AA38B899C89AD89BE89C1
S113236089839A83AB83BC838F89988DA98DBA8D19
S1132370B0588D839E83AF83B8878B8D9C8DAD8D34
S1132380BE8DB05889879A87AB87BC878F8D98A1FB
S1132390A9A1BAA1B0588D879E87AF87B88B8989C8
S11323A09A8940E19E012F5F3F4FF901DC010190C2
S11323B00D924A95E1F789899A89A2960FB6F89405
S11323C0DEBF0FBECDBFDF91CF911F910F91FF9064
S11323D0EF90DF90CF90BF90AF909F908F90089533
S11323E08F929F92AF92BF92CF92DF92EF92FF9221
S11323F00F931F93CF93DF93CDB7DEB7A2970FB69A
S1132400F894DEBF0FBECDBF9A8B898B8B8A9C8AD2
S1132410AD8ABE8ACF8AD88EE98EFA8E0B8F1C8F36
S11324202D8F3E8F4F8F58A369A37AA38B899C89E4
S1132430AD89BE8929A93AA94BA95CA9BC01CD01E2
S11324400E948220DC01CB016C017D018F89988D73
S1132450A98DBA8D2DA93EA94FA958ADBC01CD01B6
S11324600E948220DC01CB019C01AD01C701B601B1
S11324700E94FF1DDC01CB016C017D018B8D9C8DC5
S1132480AD8DBE8D29AD3AAD4BAD5CADBC01CD017A
S11324900E948220DC01CB019C01AD01C701B60181
S11324A00E94FF1DDC01CB016C017D018F8D98A181
S11324B0A9A1BAA121962CAD3DAD4EAD5FAD21973A
S11324C0BC01CD010E948220DC01CB019C01AD0145
S11324D0C701B6010E94FF1DDC01CB0189839A83E9
S11324E0AB83BC838B899C89AD89BE892DA93EA908
S11324F04FA958ADBC01CD010E948220DC01CB0163
S11325006C017D018F89988DA98DBA8D29A93AA96D
S11325104BA95CA9BC01CD010E948220DC01CB0146
S11325209C01AD01C701B6010E94001EDC01CB0174
S11325306C017D018B8D9C8DAD8DBE8D21962CAD56
S11325403DAD4EAD5FAD2197BC01CD010E9482200F
S1132550DC01CB019C01AD01C701B6010E94001E44
S1132560DC01CB016C017D018F8D98A1A9A1BAA1D9
S113257029AD3AAD4BAD5CADBC01CD010E948220CA
S1132580DC01CB019C01AD01C701B6010E94FF1D16
S1132590DC01CB018D839E83AF83B8878B899C89B3
S11325A0AD89BE8929AD3AAD4BAD5CADBC01CD0161
S11325B00E948220DC01CB016C017D018F89988D02
S11325C0A98DBA8D21962CAD3DAD4EAD5FAD219751
S11325D0BC01CD010E948220DC01CB019C01AD0134
S11325E0C701B6010E94FF1DDC01CB016C017D0116
S11325F08B8D9C8DAD8DBE8D29A93AA94BA95CA963
S1132600BC01CD010E948220DC01CB019C01AD0103
S1132610C701B6010E94001EDC01CB016C017D01E3
S11326208F8D98A1A9A1BAA12DA93EA94FA958ADF2
S1132630BC01CD010E948220DC01CB019C01AD01D3
S1132640C701B6010E94001EDC01CB0189879A876D
S1132650AB87BC878B899C89AD89BE8921962CADBB
S11326603DAD4EAD5FAD2197BC01CD010E948220EE
S1132670DC01CB016C017D018F89988DA98DBA8D08
S113268029AD3AAD4BAD5CADBC01CD010E948220B9
S1132690DC01CB019C01AD01C701B6010E94001E03
S11326A0DC01CB016C017D018B8D9C8DAD8DBE8DCC
S11326B02DA93EA94FA958ADBC01CD010E9482208D
S11326C0DC01CB019C01AD01C701B6010E94FF1DD5
S11326D0DC01CB016C017D018F8D98A1A9A1BAA168
S11326E029A93AA94BA95CA9BC01CD010E94822069
S11326F0DC01CB019C01AD01C701B6010E94001EA3
S1132700DC01CB018D879E87AF87B88B89899A8935
S113271040E19E012F5F3F4FF901DC0101900D92D2
S11327204A95E1F789899A89A2960FB6F894DEBF93
S11327300FBECDBFDF91CF911F910F91FF90EF900E
S1132740DF90CF90BF90AF909F908F900895CF93DC
S1132750DF93CDB7DEB728970FB6F894DEBF0FBE70
S1132760CDBF9E838D836F8348879F81888598170B
S113277008F0B7C08F818B838F81898388858A8392
S11327806DC089818F5F89838981882F90E0880F4C
S1132790991F2D813E81820F931FFC0140818B8103
S11327A0882F90E0880F991F2D813E81820F931FFF
S11327B0FC018081841740F099818885981708F37B
S11327C003C08A8181508A838A81882F90E0880F90
S11327D0991F2D813E81820F931FFC0140818B81C3
S11327E0882F90E0880F991F2D813E81820F931FBF
S11327F0FC018081841728F399818A81981770F5E8
S11328008981882F90E0880F991F2D813E81820F46
S1132810931FFC0180818C838981882F90E0880F2D
S1132820991F2D813E81820F931F2A81222F30E030
S1132830220F331F4D815E81240F351FF901208142
S1132840FC0120838A81882F90E0880F991F2D81B5
S11328503E81820F931F2C81FC01208399818A8100
S1132860981708F491CF8B81882F90E0880F991FD7
S11328702D813E81820F931FFC0180818C838B818B
S1132880882F90E0880F991F2D813E81820F931F1E
S11328902A81222F30E0220F331F4D815E81240FC5
S11328A0351FF9012081FC0120838A81882F90E063
S11328B0880F991F2D813E81820F931F2C81FC016B
S11328C020838A812FEF280F8D819E81422F6F8173
S11328D03EDF8A8121E0280F8D819E814885622F09
S11328E036DF8D819E8128960FB6F894DEBF0FBE29
S11328F0CDBFDF91CF910895CF93DF9300D0CDB7B3
S1132900DEB79A83898389819A8145E060E01FDF7D
S11329100F900F90DF91CF910895CF93DF93CDB7B0
S1132920DEB786E0E5E0F1E0AAE4B2E001900D92C2
S11329308A95E1F785EC90E0FC01108284EC90E04C
S113294027E6FC01208381EC90E028E1FC01208350
S113295081EC90E021EC30E0F90120812068FC0159
S1132960208380EC90E020EC30E0F90120812068A5
S1132970FC01208382EC90E026E0FC0120838AE2C3
S113298090E02AE230E0F90120812E7FFC012083CF
S11329908AE290E02AE230E0F90120812260FC0121
S11329A020830000DF91CF910895CF93DF93CDB7BB
S11329B0DEB7000080EC90E0FC0180818823D4F72E
S11329C086EC90E0FC018081DF91CF9108951F9205
S11329D00F9200905F000F9211242F933F934F9317
S11329E05F936F937F938F939F93AF93BF93EF9373
S11329F0FF93CF93DF93CDB7DEB78091180188237F
S1132A0079F4D3DF8093510229D080915B0287301F
S1132A1038F081E08093520281E08093180178D0ED
S1132A200000DF91CF91FF91EF91BF91AF919F9102
S1132A308F917F916F915F914F913F912F910F9063
S1132A4000925F000F901F901895CF93DF93CDB73E
S1132A50DEB780910401DF91CF910895CF93DF9386
S1132A60CDB7DEB780915B02882F90E020915102B0
S1132A70BC01822F1CD0809350028091500281307F
S1132A8081F480915B02882F90E0209151028D5A4D
S1132A909D4FFC01208380915B028F5F80935B02DA
S1132AA002C010925B020000DF91CF910895CF9392
S1132AB0DF9300D01F92CDB7DEB789837B836A830F
S1132AC08A819B81892B39F48981833511F481E0D2
S1132AD019C080E017C08A819B811816190634F446
S1132AE08A819B81079714F481E00CC08A819B81C1
S1132AF0079739F48981853411F481E003C080E0BB
S1132B0001C080E00F900F900F90DF91CF91089556
S1132B10CF93DF9300D0CDB7DEB7809152028130DE
S1132B2031F51092040181E090E09A83898312C008
S1132B3089819A81019729813A812D5A3D4FF90162
S1132B402081865B9D4FFC01208389819A810196B7
S1132B509A83898389819A81079754F310925B023F
S1132B6081E0809304011092520210921801000037
S1132B700F900F90DF91CF9108958F929F92AF9213
S1132B80BF92CF92DF92EF92FF920F931F93CF9356
S1132B90DF93CDB7DEB76E970FB6F894DEBF0FBEE6
S1132BA0CDBF9E878D878F86988AA98ABA8ACB8A59
S1132BB0DC8AED8AFE8A0F8B188F298F3A8F4B8F10
S1132BC05C8F6D8F7E8F8B899C89AD89BE8989834B
S1132BD09A83AB83BC838F89988DA98DBA8D8D839D
S1132BE09E83AF83B8878B8D9C8DAD8DBE8D898779
S1132BF09A87AB87BC878D859E854CE09E012F5FAD
S1132C003F4FF901DC0101900D924A95E1F78D8562
S1132C109E856E960FB6F894DEBF0FBECDBFDF91D2
S1132C20CF911F910F91FF90EF90DF90CF90BF90C5
S1132C30AF909F908F9008958F929F92AF92BF9282
S1132C40CF92DF92EF92FF920F931F93CF93DF9374
S1132C50CDB7DEB76E970FB6F894DEBF0FBECDBF0B
S1132C609E878D87CF86D88AE98AFA8A0B8B1C8B3C
S1132C702D8B3E8B4F8B588F698F7A8F8B8E9C8ECA
S1132C80AD8EBE8E8F859889A989BA892B8D3C8D8E
S1132C904D8D5E8DBC01CD010E948220DC01CB01F3
S1132CA089839A83AB83BC838B899C89AD89BE89D4
S1132CB02B8D3C8D4D8D5E8DBC01CD010E948220FB
S1132CC0DC01CB018D839E83AF83B8878F89988D78
S1132CD0A98DBA8D2B8D3C8D4D8D5E8DBC01CD01A2
S1132CE00E948220DC01CB0189879A87AB87BC874D
S1132CF08D859E854CE09E012F5F3F4FF901DC01DD
S1132D0001900D924A95E1F78D859E856E960FB6DA
S1132D10F894DEBF0FBECDBFDF91CF911F910F910D
S1132D20FF90EF90DF90CF90BF90AF909F908F90E7
S1132D300895CF92DF92EF92FF920F931F93CF9358
S1132D40DF93CDB7DEB76A970FB6F894DEBF0FBE38
S1132D50CDBF9E878D87CF86D88AE98AFA8A0B8B66
S1132D601C8B2D8B3E8B4F8B588F698F7A8F8F8561
S1132D709889A989BA892DA13EA14FA158A5BC0162
S1132D80CD013ED7DC01CB0189839A83AB83BC831D
S1132D908B899C89AD89BE8929A53AA54BA55CA5DB
S1132DA0BC01CD012DD7DC01CB018D839E83AF8384
S1132DB0B8878F89988DA98DBA8D2DA53EA54FA56D
S1132DC058A9BC01CD011CD7DC01CB0189879A87A6
S1132DD0AB87BC878D859E854CE09E012F5F3F4F5E
S1132DE0F901DC0101900D924A95E1F78D859E85EC
S1132DF06A960FB6F894DEBF0FBECDBFDF91CF91B8
S1132E001F910F91FF90EF90DF90CF9008958F92D4
S1132E109F92AF92BF92CF92DF92EF92FF920F9365
S1132E201F93CF93DF93CDB7DEB76A970FB6F894AD
S1132E30DEBF0FBECDBF9E878D87CF86D88AE98A35
S1132E40FA8A0B8B1C8B2D8B3E8B4F8B588F698F83
S1132E507A8F0F2E812C912CF0E8AF2EFFEBBF2E32
S1132E60F02DC9A4DAA4EBA4FCA40DA51EA52FA5DE
S1132E7038A949A95AA96BA97CA9CE010196DCDE1F
S1132E80AD84BE848DB79EB70C970FB6F8949EBFE1
S1132E900FBE8DBF8DB79EB701964CE09E012F5F8C
S1132EA03F4FF901DC0101900D924A95E1F7CF847F
S1132EB0D888E988FA880B891C892D893E894F892D
S1132EC0588D698D7A8DC50134DF8DB79EB70C9608
S1132ED00FB6F894DEBF0FBECDBF8D859E856A9672
S1132EE00FB6F894DEBF0FBECDBFDF91CF911F9117
S1132EF00F91FF90EF90DF90CF90BF90AF909F9095
S1132F008F900895CF92DF92EF92FF920F931F93C9
S1132F10CF93DF93CDB7DEB72C970FB6F894DEBF0F
S1132F200FBECDBFE982FA820B831C832D833E83BF
S1132F304F83588769877A878B879C8789819A8191
S1132F40AB81BC812F89388D498D5A8DBC01CD014F
S1132F500E948220DC01CB016C017D018D819E8168
S1132F60AF81B8852B8D3C8D4D8D5E8DBC01CD011F
S1132F700E948220DC01CB019C01AD01C701B60196
S1132F803FD6DC01CB016C017D0189859A85AB8537
S1132F90BC852F8D38A149A15AA1BC01CD010E9445
S1132FA08220DC01CB019C01AD01C701B60128D60A
S1132FB0DC01CB01BC01CD012C960FB6F894DEBF29
S1132FC00FBECDBFDF91CF911F910F91FF90EF9076
S1132FD0DF90CF900895EF92FF920F931F93CF93BA
S1132FE0DF93CDB7DEB72C970FB6F894DEBF0FBED4
S1132FF0CDBFE982FA820B831C832D833E834F83EA
S1133000588769877A878B879C872DB73EB72C5062
S113301031090FB6F8943EBF0FBE2DBF8DB79EB7D2
S113302001964CE09E012F5F3F4FF901DC010190B6
S11330300D924A95E1F7E980FA800B811C812D817C
S11330403E814F81588569857A858B859C855ADFB9
S11330502DB73EB7245F3F4F0FB6F894DEBF0FBEC7
S1133060CDBFDC01CB01BC01CD010E94EF20DC010E
S1133070CB01BC01CD012C960FB6F894DEBF0FBE78
S1133080CDBFDF91CF911F910F91FF90EF900895E5
S11330906F927F928F929F92AF92BF92CF92DF9264
S11330A0EF92FF920F931F93CF93DF93CDB7DEB7C9
S11330B0CE54D1090FB6F894DEBF0FBECDBFFE01CA
S11330C0EF5BFF4F91838083CE018D5B9F4FDC01CB
S11330D0CC92FC01D182DC011296EC92FC01F382C9
S11330E0DC0114960C93FC011583DC0116962C93D9
S11330F0FC013783DC0118964C93FC015187DC01F9
S11331001A966C93FC017387FE01B196CE018D5B18
S11331109F4FDC01CC90DC011196DC90DC0112960F
S1133120EC90DC011396FC90DC0114960C91DC010C
S113313015961C91DC0116962C91DC0117963C9196
S1133140DC0118964C91DC0119965C91DC011A960D
S11331506C91DC011B967C91CF010E948810CE01FA
S11331604196A0968FACA097A1969FACA197A296EA
S1133170AFACA297A396BFACA397A496CFACA497E9
S1133180A596DFACA597A696EFACA697A796FFAC3D
S1133190A797A8960FADA897A9961FADA997AA9629
S11331A02FADAA97AB963FADAB97AC964FADAC970E
S11331B0AD965FADAD97AE966FADAE97AF967FAD62
S11331C0AF97A4D8EDB7FEB770970FB6F894FEBFCB
S11331D00FBEEDBF8DB79EB7019620E1FE01B196FB
S11331E0DC0101900D922A95E1F7A0968FACA0978F
S11331F0A1969FACA197A296AFACA297A396BFACA1
S1133200A397A496CFACA497A596DFACA597A69652
S1133210EFACA697A796FFACA797A8960FADA89773
S1133220A9961FADA997AA962FADAA97AB963FADC5
S1133230AB97AC964FADAC97AD965FADAD97AE96F0
S11332406FADAE97AF967FADAF97CE010196C8D85C
S11332508DB79EB740960FB6F894DEBF0FBECDBFB4
S11332603E0191E3690E711CADB7BEB750970FB61E
S1133270F894BEBF0FBEADBF8DB79EB7019620E1D7
S1133280FE017196DC0101900D922A95E1F7898087
S11332909A80AB80BC80CD80DE80EF80F884098585
S11332A01A852B853C854D855E856F857889C3019C
S11332B097D8EDB7FEB770960FB6F894DEBF0FBE81
S11332C0CDBFCE018F5B9F4FDC01ED91FC9189A8AE
S11332D09AA8ABA8BCA8CDA8DEA8EFA8F8AC09AD05
S11332E01AAD2BAD3CAD4DAD5EAD6FADCE01805C86
S11332F09F4FDC017C91CF0140DCCE018F5B9F4F5F
S1133300FC0180819181C25BDF4F0FB6F894DEBF70
S11333100FBECDBFDF91CF911F910F91FF90EF9022
S1133320DF90CF90BF90AF909F908F907F906F90E1
S11333300895AF92BF92CF92DF92EF92FF920F93D4
S11333401F93CF93DF93CDB7DEB7EC970FB6F89406
S1133350DEBF0FBECDBF80E090E0A8ECB2E48F8763
S1133360988BA98BBA8B20E030E04AE755E46F854F
S1133370788989899A89C6D6DC01CB018B8B9C8B91
S1133380AD8BBE8B20E030E040E85FE36B897C8945
S11333908D899E8912D588232CF481E090E0988F42
S11333A08F8B3BC020E03FEF4FE757E46B897C896C
S11333B08D899E899CD618163CF520E030E040E2C9
S11333C051E46F85788989899A899CD6DC01CB017F
S11333D0BC01CD0161D5DC01CB01988F8F8B0FC06F
S11333E080E991E09A8F898F898D9A8D0197F1F701
S11333F09A8F898F8F89988D0197988F8F8B8F895A
S1133400988D892B69F713C06B897C898D899E8976
S113341043D5DC01CB01988F8F8B8F89988D9C8F3E
S11334208B8F8B8D9C8D0197F1F79C8F8B8F75DA29
S113343084E290E02FEFFC01208385E290E02FEFFF
S1133440FC01208380EB90E022E0FC01208381EBEF
S113345090E021E0FC01208380E790E020E730E069
S1133460F90120812260FC01208383EB90E02FEF9F
S1133470FC01208384E490E022E0FC01208385E4C5
S113348090E0FC0110828EE690E02EE630E0F90137
S113349020812260FC01208387E490E02FEFFC016F
S11334A0208378948FE38F931F921F921F928FE350
S11334B08F931F921F921F920F2EA12CB12CF0E814
S11334C0CF2EFFE3DF2EF02DE12CF12C00E81FE3DB
S11334D020E030E040E85FE360E070E080E89FE3F4
S11334E00E9456028DB79EB708960FB6F894DEBFB9
S11334F00FBECDBF80E090E0A0E8BFE38DA79EA7FC
S1133500AFA7B8AB19AA1AAA1BAA1CAA1DAA1EAA5D
S11335101FAA18AE19AE1AAE1BAE1CAEADA4BEA443
S1133520CFA4D8A8E9A8FAA80BA91CA92DA93EA93B
S11335304FA958AD69AD7AAD8BAD9CADFDD19C83DF
S11335408B83198221C08981282F30E08981882FBB
S113355090E0880F991F880F991F4B815C81840F1D
S1133560951F220F331F220F331F245A3D4FFC0196
S113357080819181A281B381F90180839183A283A7
S1133580B38389818F5F898389818630E0F25DDA34
S113359087E999EFADEDB0E48D839E83AF83B8875F
S11335A019861A861B861C86FE017D9629853A8516
S11335B04B855C858D819E81AF81B88589019A0197
S11335C0AC01BD01CF010E949A00AD8CBE8CCF8CA2
S11335D0D8A0E9A0FAA00BA11CA12DA13EA14FA146
S11335E058A569A57AA58BA59CA5A6D19E878D878C
S11335F01A8221C08A81282F30E08A81882F90E0A6
S1133600880F991F880F991F4D855E85840F951F1C
S1133610220F331F220F331F245A3D4FFC01808198
S11336209181A281B381F90180839183A283B383C1
S11336308A818F5F8A838A818630E0F2A8CF1F92C5
S11336400F9200905F000F9211242F933F938F935A
S11336509F93EF93FF93CF93DF93CDB7DEB7809122
S11336601B0190911C01019690931C0180931B01F6
S113367083EB90E02FEFFC01208380911B0190915C
S11336801C0185339C4090F085E490E025E430E013
S1133690F90120812160FC01208310921C01109209
S11336A01B0182E290E02FEFFC0120830000DF91F8
S11336B0CF91FF91EF919F918F913F912F910F9017
S11336C000925F000F901F9018951F920F92009028
S11336D05F000F9211242F933F934F935F938F9327
S11336E09F93EF93FF93CF93DF93CDB7DEB7809192
S11336F0190190911A01019690931A01809319016E
S113370087E490E02FEFFC01208380911D01882F36
S113371090E0880F991F880F991F845A9D4FFC01D0
S1133720208131818091190190911A01281739075C
S113373008F097C087E490E020911D01222F30E02B
S1133740220F331F220F331F225A3D4FF9012081CC
S1133750FC01208380911D01882F90E0880F991F20
S1133760880F991F815A9D4FFC018081282F30E0DA
S113377081E090E002C0880F991F2A95E2F7AC011E
S11337804095509582E290E022E230E0F9012081F8
S1133790322F242F2323FC01208310921A0110922C
S11337A0190129C080911D01882F90E00196880F8E
S11337B0991F880F991F815A9D4FFC018081282FE2
S11337C030E081E090E002C0880F991F2A95E2F76B
S11337D0AC014095509582E290E022E230E0F9019C
S11337E02081322F242F2323FC01208380911D016B
S11337F08F5F80931D0180911D01882F90E0880FB9
S1133800991F880F991F845A9D4FFC012081318193
S113381080911D01882F90E00196880F991F880FD1
S1133820991F845A9D4FFC01808191812817390783
S113383029F480911D01853008F4B4CF80911D01D5
S11338408F5F80931D0180911D01853050F010928F
S11338501D0182E290E0FC01108285E490E0FC010D
S113386010820000DF91CF91FF91EF919F918F9192
S11338705F914F913F912F910F9000925F000F90B5
S11338801F901895CF93DF93CDB7DEB72C970FB663
S1133890F894DEBF0FBECDBF8B876C871A82198266
S11338A08B85882F90E024E6289FA001299F500D46
S11338B011242FEF30E0CA01B901E7D4CB019A8378
S11338C089838C85882331F089819A818C599F4F13
S11338D09A83898329813A8140EA429FC001439FA8
S11338E0900D11249C838B838B819C81992314F4E8
S11338F081509F4F892F990F990B9E838D838B81C4
S11339009C81907899231CF401979F6F01968F8373
S11339108D819E81998788878F818A8788859985FB
S1133920AA85BC018A2F2C960FB6F894DEBF0FBE71
S1133930CDBFDF91CF910895AF92BF92CF92DF9226
S1133940EF92FF920F931F93CF93DF93CDB7DEB720
S11339506F970FB6F894DEBF0FBECDBFA88AB98AA1
S1133960CA8ADB8AEC8AFD8A0E8B1F8B288F398FDB
S11339704A8F5B8F6C8F7D8F8E8F9F8F2DB73EB755
S1133980205131090FB6F8943EBF0FBE2DBF8DB73D
S11339909EB7019620E1FE017096DC0101900D9224
S11339A02A95E1F7E0900B01F0900C0100910D01D4
S11339B010910E0120910F013091100140911101DD
S11339C050911201609113017091140180911501BD
S11339D0909116010E94170CEDB7FEB770960FB6C2
S11339E0F894DEBF0FBECDBF9F838E8319824CC077
S11339F08981882F90E0880F991F880F991F2E8145
S1133A003F81820F931FFC0180819181A281B38148
S1133A1088879987AA87BB872BED3FE049E450E468
S1133A20688579858A859B85EBD0DC01CB012BEDFC
S1133A303FE049EC50E4BC01CD01C6D1DC01CB012F
S1133A4020E030E04FE753E4BC01CD015BD3DC015F
S1133A50CB01BC01CD0120D2DC01CB018C87898153
S1133A60882F90E09C01220F331F225E3E4F4C852D
S1133A70F9014083880F991F815E9E4F2981FC01C3
S1133A80208389818F5F89838981863008F4B0CF50
S1133A9081E090E09B838A8317C08A819B81880F91
S1133AA0991F825E9E4FFC018081282F20958A8178
S1133AB09B81880F991F825E9E4FFC0120838A811F
S1133AC09B8102969B838A838A819B8106972CF330
S1133AD08EE191E00E947C149E878D871C8219C020
S1133AE08C81882F90E02C81222F30E0220F331F0D
S1133AF04D855E85240F351F880F991F825E9E4F6A
S1133B00F90120813181FC01318320838C818F5F15
S1133B108C838C81863020F31D825AC08D81882F3E
S1133B2090E0880F991F825E9E4FFC0180818F87F1
S1133B308D81882319F18D81882F90E00197880F5A
S1133B40991F825E9E4FFC0180819F85F92FF81B8F
S1133B508F2F8F878D81882F90E0880F991F880F72
S1133B60991F8C01065D1E4F60E08F858BDEA82FA8
S1133B70CB01F80180839183A28313C08D81882FA8
S1133B8090E0880F991F880F991F8C01065D1E4FC6
S1133B9061E08F8577DEA82FCB01F80180839183C4
S1133BA0A2838D81882F90E02D81222F30E0220F77
S1133BB0331F215E3E4FF9012081880F991F880F22
S1133BC0991F835D9E4FFC0120838D818F5F8D83C0
S1133BD08D81863008F4A2CF8AE291E06F960FB609
S1133BE0F894DEBF0FBECDBFDF91CF911F910F912F
S1133BF0FF90EF90DF90CF90BF90AF900895505812
S1133C00BB27AA270ED028C2F1D130F0F6D120F07C
S1133C1031F49F3F11F41EF4B0C10EF4E095E7FBBC
S1133C20A6C1E92F3BD280F3BA1762077307840752
S1133C30950718F071F49EF553C20EF4E0950B2E1F
S1133C40BA2FA02D0B01B90190010C01CA01A001EA
S1133C501124FF27591B99F0593F50F4503E68F145
S1133C601A16F040A22F232F342F4427585FF3CF86
S1133C70469537952795A795F0405395C9F77EF457
S1133C801F16BA0B620B730B840BBAF09150A1F0A0
S1133C90FF0FBB1F661F771F881FC2F70EC0BA0F26
S1133CA0621F731F841F48F4879577956795B795AE
S1133CB0F7959E3F08F0B3CF9395880F08F09927A6
S1133CC0EE0F9795879508959F939F77EEE3893735
S1133CD09E0720F4E0E7F0E078D109C009D19058BC
S1133CE0A2EA2AED3FE049EC5FE39BDFB5D10F90F8
S1133CF007FC905808957AD158F080E891E009F4CF
S1133D009EEF7BD128F040E851E059F45EEF09C002
S1133D1034C1E6C1E92FE078C1D168F3092E052A40
S1133D20C1F3261737074807590738F00E2E07F84E
S1133D30E02569F0E025E0640AC0EF6307F8009429
S1133D4007FADB01B9019D01DC01CA01AD01EF9362
S1133D504AD082D10AD05F91552331F02BED3FE058
S1133D6049E450FD49EC4CCF0895DF93DD27B92F8A
S1133D70BF7740E85FE31616170648075B0710F4A1
S1133D80D92FB9D19F938F937F936F9366D2E4E831
S1133D90F0E0F6D061D12F913F914F915F91BED168
S1133DA0DD2349F09058A2EA2AED3FE049EC5FE3B5
S1133DB0D0785D2736DFDF914FC1B5D008F481E0BC
S1133DC0089523D1E39559C10CD046C116D140F0D2
S1133DD00DD130F021F45F3F19F0C9C0511181C1F8
S1133DE0CCC05CD198F39923C9F35523B1F3951B47
S1133DF0550BBB27AA2762177307840738F09F5F08
S1133E005F4F220F331F441FAA1FA9F333D00E2E76
S1133E103AF0E0E830D091505040E695001CCAF7E3
S1133E2029D0FE2F27D0660F771F881FBB1F2617A8
S1133E3037074807AB07B0E809F0BB0B802DBF017B
S1133E40FF2793585F4F2AF09E3F510568F08FC0BB
S1133E5048C15F3FECF3983EDCF386957795679510
S1133E60B795F7959F5FC9F7880F911D969587952C
S1133E7097F90895E1E0660F771F881FBB1F62174B
S1133E8073078407BA0720F0621B730B840BBA0B09
S1133E90EE1F88F7E095089509D188F09F5790F0B8
S1133EA0B92F9927B751A0F0D1F0660F771F881F5B
S1133EB0991F1AF0BA95C9F712C0B13081F010D128
S1133EC0B1E008950DC1672F782F8827B85F39F0C6
S1133ED0B93FCCF3869577956795B395D9F73EF4BA
S1133EE090958095709561957F4F8F4F9F4F089562
S1133EF0DF93CF931F930F938B01EC01E1EBF0E081
S1133F003FD0AAD09801AE018B01EC0160E070E0D3
S1133F1080E89FE374DE63D19801AE010F911F9195
S1133F20CF91DF91FBC0990F0008550FAA0BE0E871
S1133F30FEEF16161706E807F907C0F01216130667
S1133F40E407F50798F0621B730B840B950B39F4A7
S1133F500A2661F0232B242B252B21F408950A260D
S1133F6009F4A140A6958FEF811D811D089597F94D
S1133F709F6780E870E060E008959FEF80EC08950B
S1133F80DF93CF931F930F93FF92EF92DF927B0106
S1133F908C01689405C0DA2EEF01C0D0FE01E894CC
S1133FA0A5912591359145915591AEF3EF0139DEF7
S1133FB0FE019701A801DA9479F7DF90EF90FF9062
S1133FC00F911F91CF91DF9108959F938F937F93CA
S1133FD06F93FF93EF939B01AC0194D0EF91FF910A
S1133FE0CFDF2F913F914F915F918CC000240A94B1
S1133FF01616170618060906089500240A941216C0
S11340001306140605060895B8CF50D0E8F3E894D3
S1134010E0E0BB279F57F0F02AED3FE049EC06C0F3
S1134020EE0FBB0F661F771F881F28F0B23A620796
S11340307307840728F0B25A620B730B840BE39561
S11340409A9572F7803830F49A95BB0F661F771FE4
S1134050881FD2F7904806C1092E0394000C11F46E
S1134060882352F0BB0F40F4BF2B11F460FF04C04F
S11340706F5F7F4F8F4F9F4F0895EF93E0FF06C010
S1134080A2EA2AED3FE049EC5FEBCBDDE5DF0F90E0
S1134090039401FC9058E9EDF0E097CF57FD905858
S11340A0440F551F59F05F3F71F04795880F97FBF8
S11340B0991F61F09F3F79F08795089512161306B2
S11340C01406551FF2CF4695F1DF08C016161706E1
S11340D01806991FF1CF8695710561050894089516
S11340E0E894BB2766277727CB0197F908951BDF50
S11340F008F48FEF08959B01AC0160E070E080E864
S11341009FE362CE0BD0A8CF71DF28F076DF18F0E2
S1134110952309F02CCF31CF1124E3CFBFDFA0F3D7
S1134120959FD1F3950F50E0551F629FF001729F48
S1134130BB27F00DB11D639FAA27F00DB11DAA1F67
S1134140649F6627B00DA11D661F829F2227B00DB4
S1134150A11D621F739FB00DA11D621F839FA00D3F
S1134160611D221F749F3327A00D611D231F849F8F
S1134170600D211D822F762F6A2F11249F575040E6
S11341808AF0E1F088234AF0EE0FFF1FBB1F661F81
S1134190771F881F91505040A9F79E3F510570F03A
S11341A0E6CE9FCF5F3FECF3983EDCF386957795A0
S11341B06795B795F795E7959F5FC1F7FE2B880F35
S11341C0911D9695879597F908959F931EDF0F90FB
S11341D007FCEE5F52CF11F40EF4CFCE41C066DF80
S11341E0D0F39923D9F3CEF39F57550B87FF46D0CD
S11341F00024A0E640EA900180585695979528F44B
S1134200805C660F771F881F20F026173707480742
S113421030F4621B730B840B202931294A2BA69599
S113422017940794202531254A2758F7660F771FDE
S1134230881F20F026173707480730F4620B730BEA
S1134240840B200D311D411DA09581F7B901842FE8
S11342509158880F9695879508959B01AC0152CF8C
S11342609F3F31F0915020F4879577956795B795E6
S1134270880F911D9695879597F908959150504010
S1134280660F771F881FD2F7089597FB072E16F441
S1134290009406D077FD08D00BD007FC05D03EF47F
S11342A0909581959F4F0895709561957F4F0895DE
S11342B0AA1BBB1B51E107C0AA1FBB1FA617B70748
S11342C010F0A61BB70B881F991F5A95A9F7809564
S10F42D09095BC01CD010895F894FFCF37
S11342DCD7B3DD3F017F7F7F7F7F7F00000000002D
S10B42EC0000003480B73D001E
S9030000FC
