S0180000476363426F61726450726F6A656374312E737265630F
S11300007BC0000096C0000094C0000092C00000B5
S113001090C000008EC000008CC000008AC00000A8
S113002088C000000C94131B84C0000082C0000030
S113003080C000007EC000007CC000007AC00000C8
S11300400C94581B76C0000074C0000072C00000FD
S11300500C940C156EC000006CC000006AC0000057
S113006068C0000066C0000064C0000062C00000F8
S1130070036EDB363D9A9999993DABAAAA2A3E00B4
S11300800000803F084AD73B3BCE016E84BCBFFDD5
S1130090C12F3D6C74319ABD56833DDA3D00C77F54
S11300A011BED9E4BB4C3E916BAAAABE00000080ED
S11300B03F072C7AA5BA6CC590DA3B9365FC8BBCE0
S11300C053F810FD3C5692834DBD879D3AB63DCB07
S11300D0C9BF5BBE73DA0FC93F05A84CCDB2D44E7D
S11300E0B93836A9020C50B9918688083CA6AAAA48
S11300F02ABE000000803F0011241FBECFEFD0E1D4
S1130100DEBFCDBF11E0A0E0B1E0E6EBF3E402C056
S113011005900D92A831B107D9F722E0A8E1B1E02A
S113012001C01D92AC35B207E1F70E94CF190C94BF
S1130130D92166CF6F927F928F929F92AF92BF9296
S1130140CF92DF92EF92FF920F931F93CF93DF939F
S1130150CDB7DEB7CA55D1090FB6F894DEBF0FBECE
S1130160CDBFFE01EF5AFF4F91838083CE018D5A9C
S11301709F4FFC014083518362837383CE01895A6C
S11301809F4FFC010083118322833383CE018D5A58
S11301909F4FFC0180819181A281B3818DA39EA395
S11301A0AFA3B8A7CE01895A9F4FFC0180819181EA
S11301B0A281B38189A79AA7ABA7BCA71DA61EA637
S11301C01FA618AAEDA0FEA00FA118A529A53AA55F
S11301D04BA55CA56DA57EA58FA598A90E942118A5
S11301E0DC01CB0189839A83AB83BC8328E037ECA1
S11301F047EC50E469817A818B819C810E94E420E0
S1130200181604F529813A814B815C8168E077EC0A
S113021087EC90E40E94141FDC01CB019C01AD012A
S1130220CE01859649015A01CDA0DEA0EFA0F8A425
S113023009A51AA52BA53CA54DA55EA56FA578A972
S11302400E9452168DA19EA1AFA1B8A5BC01CD01FB
S1130250B7D0DC01CB018D839E83AF83B88789A59A
S11302609AA5ABA5BCA5BC01CD01AAD0DC01CB01EC
S113027089879A87AB87BC87198E1A8E1B8E1C8E32
S113028080E090E0A0E8BFE38D8F9E8FAF8FB8A38E
S113029019A21AA21BA21CA2FE01F1968D819E81B5
S11302A0AF81B8854C015D01C98CDA8CEB8CFC8C78
S11302B00D8D1E8D2F8D38A149A15AA16BA17CA152
S11302C0CF010E94F21080E090E0A0E8BFE38D87A8
S11302D09E87AF87B88B198A1A8A1B8A1C8A1D8A43
S11302E01E8A1F8A188EFE01EF5BFF4F89859A854F
S11302F0AB85BC854C015D01CD84DE84EF84F88838
S113030009891A892B893C894D895E896F89788D81
S1130310CF010E94F210CE018F5A9F4FFC016080E2
S113032071808DB79EB740970FB6F8949EBF0FBEED
S11303308DBF8DB79EB7019620E1FE01EF5BFF4FA5
S1130340DC0101900D922A95E1F789A89AA8ABA83F
S1130350BCA8CDA8DEA8EFA8F8AC09AD1AAD2BADAA
S11303603CAD4DAD5EAD6FADCE01805C9F4FFC01E9
S11303707081C3010E9403128DB79EB740960FB6D9
S1130380F894DEBF0FBECDBFCE018F5A9F4FFC0144
S113039080819181C65ADF4F0FB6F894DEBF0FBE3D
S11303A0CDBFDF91CF911F910F91FF90EF90DF9020
S11303B0CF90BF90AF909F908F907F906F90089553
S11303C0EF92FF920F931F93CF93DF93CDB7DEB7D6
S11303D02D970FB6F894DEBF0FBECDBF6A877B871B
S11303E08C879D8720E030E0A9016A857B858C8518
S11303F09D850E94E42018162CF48A859B85AC8583
S1130400BD8505C08A859B85AC85BD85B05889832B
S11304109A83AB83BC8311E020E030E0A9016A85B4
S11304207B858C859D850E94E42018160CF010E0D5
S11304301D8323EC35EF4CE151E469817A818B8192
S11304409C810E94141FDC01CB018E839F83A887AB
S1130450B9878E819F81A885B985BC01CD010E9491
S1130460941E7B018C018D81813029F480E090E021
S1130470A0E8BFE304C080E090E0A0E8BFEB9C01EB
S1130480AD01C801B7010E94EF20DC01CB01BC0122
S1130490CD012D960FB6F894DEBF0FBECDBFDF9110
S11304A0CF911F910F91FF90EF900895AF92BF925B
S11304B0CF92DF92EF92FF920F931F93CF93DF932C
S11304C0CDB7DEB760970FB6F894DEBF0FBECDBFD1
S11304D069837A838B839C832D833E834F835887E0
S11304E0E986FA860B871C87AD86BE86CF86D88AB6
S11304F089819A81AB81BC8180934E0190934F0195
S1130500A0935001B09351018D819E81AF81B88534
S11305108093D6019093D701A093D801B093D901C9
S113052089859A85AB85BC8580932E0290932F0292
S1130530A0933002B09331028D859E85AF85B88932
S113054080932A0190932B01A0932C01B0932D0149
S11305508D8D9E8DAF8DB8A180932E0190932F0128
S1130560A0933001B093310189A19AA1ABA1BCA1A0
S11305708093320190933301A0933401B0933501F9
S1130580E1D720D45FD012D0000060960FB6F89463
S1130590DEBF0FBECDBFDF91CF911F910F91FF90B2
S11305A0EF90DF90CF90BF90AF900895CF93DF93FB
S11305B0CDB7DEB78BED9FE0A9E4B0E480933601BC
S11305C090933701A0933801B093390110923A0106
S11305D010923B0110923C0110923D0182E99AE095
S11305E0A6E8BFE380933E0190933F01A0934001AE
S11305F0B093410182E99AE0A6E0B0EC8093420115
S113060090934301A0934401B093450182E99AE099
S1130610A6E8BFEB8093460190934701A09348015D
S1130620B093490182E99AE0A6E0B0E480934A01DC
S113063090934B01A0934C01B0934D010000DF91C6
S1130640CF9108958F929F92AF92BF92CF92DF92F3
S1130650EF92FF920F931F93CF93DF93CDB7DEB743
S1130660CC57D1090FB6F894DEBF0FBECDBF809131
S1130670320190913301A0913401B09135019C0174
S1130680AD0160E070E080E89FE30E942F1EDC0172
S1130690CB0189839A83AB83BC835E018DE4A80E6E
S11306A0B11CADB7BEB71C970FB6F894BEBF0FBE52
S11306B0ADBF8DB79EB701962CE0EAE6F1E0DC0110
S11306C001900D922A95E1F7C090BE01D090BF0130
S11306D0E090C001F090C1010091C2011091C301EA
S11306E02091C4013091C5014091C6015091C701C8
S11306F06091C8017091C901C5010E943D178DB771
S11307009EB70C960FB6F894DEBF0FBECDBF5E0148
S113071099E5A90EB11CADB7BEB71C970FB6F894F6
S1130720BEBF0FBEADBF8DB79EB701962CE0EEEBFA
S1130730F1E0DC0101900D922A95E1F7C090DA0115
S1130740D090DB01E090DC01F090DD010091DE014E
S11307501091DF012091E0013091E1014091E2012B
S11307605091E3016091E4017091E501C5010E949B
S11307703D178DB79EB70C960FB6F894DEBF0FBE2B
S1130780CDBF5E0195E6A90EB11CADB7BEB71C97EF
S11307900FB6F894BEBF0FBEADBF8DB79EB701961E
S11307A02CE0EAEDF1E0DC0101900D922A95E1F7ED
S11307B0C0906A01D0906B01E0906C01F0906D01E3
S11307C000916E0110916F012091700130917101BF
S11307D0409172015091730160917401709175019F
S11307E0C5010E943D178DB79EB70C960FB6F894BD
S11307F0DEBF0FBECDBF2091320130913301409155
S1130800340150913501FE01EF5BFF4FCE01835B54
S11308109F4F49015A01DC01CC90DC011196DC9018
S1130820DC011296EC90DC011396FC90DC0114962A
S11308300C91DC0115961C91DC0116962C91DC01BF
S113084017963C91DC0118964C91DC0119965C9149
S1130850DC011A966C91DC011B967C91CF010E94FD
S113086052165E01B1E7AB0EB11C8DB79EB70C9763
S11308700FB6F8949EBF0FBE8DBF8DB79EB701967D
S11308802CE0FE01EF5BFF4FDC0101900D922A95F5
S1130890E1F7C0906A01D0906B01E0906C01F09098
S11308A06D0100916E0110916F01209170013091E2
S11308B071014091720150917301609174017091C2
S11308C07501C5010E94CF16ADB7BEB71C960FB611
S11308D0F894DEBF0FBECDBFCE018F589F4F2CE0E2
S11308E0FC01A6EEB1E001900D922A95E1F7FE011C
S11308F0F59629813A814B815C81CE018B599F4FBA
S113090049015A01DC01CC90DC011196DC90DC0138
S11309101296EC90DC011396FC90DC0114960C9179
S1130920DC0115961C91DC0116962C91DC011796BE
S11309303C91DC0118964C91DC0119965C91DC0128
S11309401A966C91DC011B967C91CF010E94521681
S11309505E01B1E7AB0EB11C8DB79EB70C970FB615
S1130960F8949EBF0FBE8DBF8DB79EB701962CE045
S1130970FE01F596DC0101900D922A95E1F7C090F5
S1130980DA01D090DB01E090DC01F090DD01009110
S1130990DE011091DF012091E0013091E1014091ED
S11309A0E2015091E3016091E4017091E501C50118
S11309B00E94CF16ADB7BEB71C960FB6F894DEBF33
S11309C00FBECDBFCE018F589F4F2CE0FC01A2EF8C
S11309D0B1E001900D922A95E1F720913201309116
S11309E033014091340150913501FE01B996CE0195
S11309F08B599F4F49015A01DC01CC90DC011196BF
S1130A00DC90DC011296EC90DC011396FC90DC0186
S1130A1014960C91DC0115961C91DC0116962C9110
S1130A20DC0117963C91DC0118964C91DC01199677
S1130A305C91DC011A966C91DC011B967C91CF01D0
S1130A400E9452165E01B1E7AB0EB11C8DB79EB782
S1130A500C970FB6F8949EBF0FBE8DBF8DB79EB78F
S1130A6001962CE0FE01B996DC0101900D922A95C5
S1130A70E1F7C090DA01D090DB01E090DC01F09066
S1130A80DD010091DE011091DF012091E001309140
S1130A90E1014091E2015091E3016091E401709120
S1130AA0E501C5010E94CF16ADB7BEB71C960FB6BF
S1130AB0F894DEBF0FBECDBFCE018F589F4F2CE000
S1130AC0FC01AEEFB1E001900D922A95E1F7FE0131
S1130AD07D9629813A814B815C81CE01875A9F4F53
S1130AE049015A01DC01CC90DC011196DC90DC0157
S1130AF01296EC90DC011396FC90DC0114960C9198
S1130B00DC0115961C91DC0116962C91DC011796DC
S1130B103C91DC0118964C91DC0119965C91DC0146
S1130B201A966C91DC011B967C91CF010E9452169F
S1130B305E01B1E7AB0EB11C8DB79EB70C970FB633
S1130B40F8949EBF0FBE8DBF8DB79EB701962CE063
S1130B50FE017D96DC0101900D922A95E1F7C0908B
S1130B60BE01D090BF01E090C001F090C10100919E
S1130B70C2011091C3012091C4013091C50140917B
S1130B80C6015091C7016091C8017091C901C501A6
S1130B900E94CF16ADB7BEB71C960FB6F894DEBF51
S1130BA00FBECDBFCE018F589F4F2CE0FC01AAE0B1
S1130BB0B2E001900D922A95E1F720913201309133
S1130BC033014091340150913501FE017196CE01FB
S1130BD0875A9F4F49015A01DC01CC90DC011196E0
S1130BE0DC90DC011296EC90DC011396FC90DC01A5
S1130BF014960C91DC0115961C91DC0116962C912F
S1130C00DC0117963C91DC0118964C91DC01199695
S1130C105C91DC011A966C91DC011B967C91CF01EE
S1130C200E9452165E01B1E7AB0EB11C8DB79EB7A0
S1130C300C970FB6F8949EBF0FBE8DBF8DB79EB7AD
S1130C4001962CE0FE017196DC0101900D922A952B
S1130C50E1F7C090BE01D090BF01E090C001F090D8
S1130C60C1010091C2011091C3012091C4013091CE
S1130C70C5014091C6015091C7016091C8017091AE
S1130C80C901C5010E94CF16ADB7BEB71C960FB6F9
S1130C90F894DEBF0FBECDBFCE018F589F4F2CE01E
S1130CA0FC01A6E1B2E001900D922A95E1F7FE0164
S1130CB0359629813A814B815C81CE01835B9F4FBC
S1130CC049015A01DC01CC90DC011196DC90DC0175
S1130CD01296EC90DC011396FC90DC0114960C91B6
S1130CE0DC0115961C91DC0116962C91DC011796FB
S1130CF03C91DC0118964C91DC0119965C91DC0165
S1130D001A966C91DC011B967C91CF010E945216BD
S1130D105E01B1E7AB0EB11C8DB79EB70C970FB651
S1130D20F8949EBF0FBE8DBF8DB79EB701962CE081
S1130D30FE013596DC0101900D922A95E1F7C090F1
S1130D406A01D0906B01E0906C01F0906D0100910C
S1130D506E0110916F0120917001309171014091E9
S1130D607201509173016091740170917501C50114
S1130D700E94CF16ADB7BEB71C960FB6F894DEBF6F
S1130D800FBECDBFCE018F589F4F2CE0FC01A2E2D5
S1130D90B2E001900D922A95E1F70000C458DF4FAC
S1130DA00FB6F894DEBF0FBECDBFDF91CF911F9178
S1130DB00F91FF90EF90DF90CF90BF90AF909F90F6
S1130DC08F9008958F929F92AF92BF92CF92DF92AD
S1130DD0EF92FF920F931F93CF93DF93CDB7DEB7BC
S1130DE0CC57D1090FB6F894DEBF0FBECDBF8091AA
S1130DF02E0190912F01A0913001B09131019C01FD
S1130E00AD0160E070E080E89FE30E942F1EDC01EA
S1130E10CB0189839A83AB83BC835E018DE4A80EE6
S1130E20B11CADB7BEB71C970FB6F894BEBF0FBECA
S1130E30ADBF8DB79EB701962CE0EAECF1E0DC0182
S1130E4001900D922A95E1F7C0905201D090530180
S1130E50E0905401F0905501009156011091570112
S1130E60209158013091590140915A0150915B01F0
S1130E7060915C0170915D01C5010E943D178DB7C1
S1130E809EB70C960FB6F894DEBF0FBECDBF5E01C1
S1130E9099E5A90EB11CADB7BEB71C970FB6F8946F
S1130EA0BEBF0FBEADBF8DB79EB701962CE0E2E585
S1130EB0F1E0DC0101900D922A95E1F7C0905E010A
S1130EC0D0905F01E0906001F090610100916201B7
S1130ED01091630120916401309165014091660194
S1130EE0509167016091680170916901C5010E9488
S1130EF03D178DB79EB70C960FB6F894DEBF0FBEA4
S1130F00CDBF5E0195E6A90EB11CADB7BEB71C9767
S1130F100FB6F894BEBF0FBEADBF8DB79EB7019696
S1130F202CE0EEE5F1E0DC0101900D922A95E1F769
S1130F30C090CA01D090CB01E090CC01F090CD01DB
S1130F400091CE011091CF012091D0013091D101B7
S1130F504091D2015091D3016091D4017091D50197
S1130F60C5010E943D178DB79EB70C960FB6F89435
S1130F70DEBF0FBECDBFFE01EF5BFF4F29813A817B
S1130F804B815C81CE01835B9F4F49015A01DC0197
S1130F90CC90DC011196DC90DC011296EC90DC0123
S1130FA01396FC90DC0114960C91DC0115961C91AF
S1130FB0DC0116962C91DC0117963C91DC01189605
S1130FC04C91DC0119965C91DC011A966C91DC0160
S1130FD01B967C91CF010E9452165E01B1E7AB0EC5
S1130FE0B11C8DB79EB70C970FB6F8949EBF0FBE79
S1130FF08DBF8DB79EB701962CE0FE01EF5BFF4FCE
S1131000DC0101900D922A95E1F7C090CA01D090BD
S1131010CB01E090CC01F090CD010091CE01109174
S1131020CF012091D0013091D1014091D201509152
S1131030D3016091D4017091D501C5010E94CF16EE
S1131040ADB7BEB71C960FB6F894DEBF0FBECDBFCA
S1131050CE018F589F4F2CE0FC01A6E7B1E0019030
S11310600D922A95E1F720912E0130912F014091A4
S1131070300150913101FE01F596CE01835B9F4F03
S113108049015A01DC01CC90DC011196DC90DC01B1
S11310901296EC90DC011396FC90DC0114960C91F2
S11310A0DC0115961C91DC0116962C91DC01179637
S11310B03C91DC0118964C91DC0119965C91DC01A1
S11310C01A966C91DC011B967C91CF010E945216FA
S11310D05E01B1E7AB0EB11C8DB79EB70C970FB68E
S11310E0F8949EBF0FBE8DBF8DB79EB701962CE0BE
S11310F0FE01F596DC0101900D922A95E1F7C0906E
S1131100CA01D090CB01E090CC01F090CD010091C8
S1131110CE011091CF012091D0013091D1014091A5
S1131120D2015091D3016091D4017091D501C501D0
S11311300E94CF16ADB7BEB71C960FB6F894DEBFAB
S11311400FBECDBFCE018F589F4F2CE0FC01A2E80B
S1131150B1E001900D922A95E1F7FE01B99629813B
S11311603A814B815C81CE018B599F4F49015A01D1
S1131170DC01CC90DC011196DC90DC011296EC9041
S1131180DC011396FC90DC0114960C91DC0115969D
S11311901C91DC0116962C91DC0117963C91DC0124
S11311A018964C91DC0119965C91DC011A966C91AD
S11311B0DC011B967C91CF010E9452165E01B1E7BF
S11311C0AB0EB11C8DB79EB70C970FB6F8949EBFAB
S11311D00FBE8DBF8DB79EB701962CE0FE01B99668
S11311E0DC0101900D922A95E1F7C0905E01D09048
S11311F05F01E0906001F090610100916201109143
S11312006301209164013091650140916601509120
S113121067016091680170916901C5010E94CF1650
S1131220ADB7BEB71C960FB6F894DEBF0FBECDBFE8
S1131230CE018F589F4F2CE0FC01AEE8B1E0019045
S11312400D922A95E1F720912E0130912F014091C2
S1131250300150913101FE017D96CE018B599F4F93
S113126049015A01DC01CC90DC011196DC90DC01CF
S11312701296EC90DC011396FC90DC0114960C9110
S1131280DC0115961C91DC0116962C91DC01179655
S11312903C91DC0118964C91DC0119965C91DC01BF
S11312A01A966C91DC011B967C91CF010E94521618
S11312B05E01B1E7AB0EB11C8DB79EB70C970FB6AC
S11312C0F8949EBF0FBE8DBF8DB79EB701962CE0DC
S11312D0FE017D96DC0101900D922A95E1F7C09004
S11312E05E01D0905F01E0906001F0906101009197
S11312F06201109163012091640130916501409174
S11313006601509167016091680170916901C5019E
S11313100E94CF16ADB7BEB71C960FB6F894DEBFC9
S11313200FBECDBFCE018F589F4F2CE0FC01AAE920
S1131330B1E001900D922A95E1F7FE0171962981A1
S11313403A814B815C81CE01875A9F4F49015A01F2
S1131350DC01CC90DC011196DC90DC011296EC905F
S1131360DC011396FC90DC0114960C91DC011596BB
S11313701C91DC0116962C91DC0117963C91DC0142
S113138018964C91DC0119965C91DC011A966C91CB
S1131390DC011B967C91CF010E9452165E01B1E7DD
S11313A0AB0EB11C8DB79EB70C970FB6F8949EBFC9
S11313B00FBE8DBF8DB79EB701962CE0FE017196CE
S11313C0DC0101900D922A95E1F7C0905201D09072
S11313D05301E0905401F090550100915601109191
S11313E05701209158013091590140915A0150916F
S11313F05B0160915C0170915D01C5010E94CF1693
S1131400ADB7BEB71C960FB6F894DEBF0FBECDBF06
S1131410CE018F589F4F2CE0FC01A6EAB1E0019069
S11314200D922A95E1F720912E0130912F014091E0
S1131430300150913101FE013596CE01875A9F4FFC
S113144049015A01DC01CC90DC011196DC90DC01ED
S11314501296EC90DC011396FC90DC0114960C912E
S1131460DC0115961C91DC0116962C91DC01179673
S11314703C91DC0118964C91DC0119965C91DC01DD
S11314801A966C91DC011B967C91CF010E94521636
S11314905E01B1E7AB0EB11C8DB79EB70C970FB6CA
S11314A0F8949EBF0FBE8DBF8DB79EB701962CE0FA
S11314B0FE013596DC0101900D922A95E1F7C0906A
S11314C05201D0905301E0905401F09055010091E5
S11314D056011091570120915801309159014091C2
S11314E05A0150915B0160915C0170915D01C501ED
S11314F00E94CF16ADB7BEB71C960FB6F894DEBFE8
S11315000FBECDBFCE018F589F4F2CE0FC01A2EB44
S1131510B1E001900D922A95E1F70000C458DF4F25
S11315200FB6F894DEBF0FBECDBFDF91CF911F91F0
S11315300F91FF90EF90DF90CF90BF90AF909F906E
S11315408F900895EF92FF920F931F93CF93DF93A1
S1131550CDB7DEB760970FB6F894DEBF0FBECDBF30
S11315608091000190910101A0910201B0910301C9
S113157020E030E040EC50E4BC01CD010E94141F97
S1131580DC01CB017C018D0180914E0190914F01D2
S1131590A0915001B09151019C01AD01C801B70166
S11315A00E94EF20DC01CB0189839A83AB83BC8347
S11315B089819A81AB81BC819C01AD01BC01CD01C3
S11315C00E94301EDC01CB018D839E83AF83B887DC
S11315D080914E0190914F01A0915001B091510121
S11315E0B05820E030E040E050E4BC01CD010E945E
S11315F0141FDC01CB019C01AD0189819A81AB816F
S1131600BC81B0582093CA013093CB014093CC01E4
S11316105093CD018093CE019093CF01A093D0013C
S1131620B093D1011092D2011092D3011092D4013F
S11316301092D50180914E0190914F01A0915001DB
S1131640B091510120E030E040E050E4BC01CD0114
S11316500E94141FDC01CB019C01AD0189819A8198
S1131660AB81BC81B0582093520130935301409315
S11316705401509355018093560190935701A093C0
S11316805801B093590110925A0110925B011092C3
S11316905C0110925D0110925E0110925F01109244
S11316A06001109261018D819E81AF81B885809324
S11316B0620190936301A0936401B0936501109259
S11316C0660110926701109268011092690180917D
S11316D0000190910101A0910201B091030120E069
S11316E030E040EC50E4BC01CD010E94141FDC0149
S11316F0CB017C018D018091D6019091D701A091FD
S1131700D801B091D9019C01AD01C801B7010E9473
S1131710EF20DC01CB0189879A87AB87BC87898559
S11317209A85AB85BC859C01AD01BC01CD010E94AD
S1131730301EDC01CB018D879E87AF87B88B8D85EA
S11317409E85AF85B889B05810926A0110926B01DA
S113175010926C0110926D0180936E0190936F0151
S1131760A0937001B09371011092720110927301F1
S113177010927401109275018091D6019091D70155
S1131780A091D801B091D90120E030E040E050E4CC
S1131790BC01CD010E94141FDC01CB018093BE016A
S11317A09093BF01A093C001B093C10189859A852C
S11317B0AB85BC858093C2019093C301A093C401FF
S11317C0B093C5011092C6011092C7011092C801CE
S11317D01092C9018091D6019091D701A091D801AE
S11317E0B091D901B05820E030E040E050E4BC01B1
S11317F0CD010E94141FDC01CB018093DA01909388
S1131800DB01A093DC01B093DD0189859A85AB856A
S1131810BC858093DE019093DF01A093E001B09337
S1131820E1011092E2011092E3011092E40110929E
S1131830E501000060960FB6F894DEBF0FBECDBF81
S1131840DF91CF911F910F91FF90EF9008958F92A8
S11318509F92AF92BF92CF92DF92EF92FF920F933B
S11318601F93CF93DF93CDB7DEB76C970FB6F89481
S1131870DEBF0FBECDBF988B8F87C98ADA8AEB8A09
S1131880FC8A0D8B1E8B2F8B388F498F5A8F6B8F51
S11318907C8F1A821982C8C05E0123E0A20EB11C9B
S11318A029813A81C901880F991F820F931F880FDC
S11318B0991F880F991F9C012A513E4F8DB79EB7DF
S11318C00C970FB6F8949EBF0FBE8DBF8DB79EB711
S11318D001964CE0F901DC0101900D924A95E1F783
S11318E029813A81C901880F991F820F931F880F9C
S11318F0991F880F991F9C012A583E4FEDB7FEB7D8
S11319003C970FB6F894FEBF0FBEEDBF8DB79EB7E0
S113191001964CE0F901DC0101900D924A95E1F742
S11319202DB73EB7205131090FB6F8943EBF0FBE14
S11319302DBF8DB79EB7019620E1FE01BB96DC0159
S113194001900D922A95E1F7C988DA88EB88FC8822
S11319500D891E892F89388D498D5A8D6B8D7C8D0B
S1131960C5011AD38DB79EB788960FB6F894DEBF1B
S11319700FBECDBF89819A81880F991F880F991F47
S11319802F8538894901880E991E89819A81880F8B
S1131990991F880F991F8A5C9E4FFC012081318119
S11319A04281538180912A0190912B01A0912C01B5
S11319B0B0912D01E0902E02F0902F0200913002A0
S11319C010913102652F6F93642F6F93632F6F9380
S11319D02F932B2F2F932A2F2F93292F2F938F93CE
S11319E057016801EB80FC800D811E812F813885B1
S11319F049855A856B857C858D859E852ED02DB72E
S1131A003EB7285F3F4F0FB6F894DEBF0FBECDBF81
S1131A10DC01CB01F40180839183A283B3838981A8
S1131A209A8101969A83898389819A8106970CF415
S1131A3033CF00006C960FB6F894DEBF0FBECDBF57
S1131A40DF91CF911F910F91FF90EF90DF90CF9096
S1131A50BF90AF909F908F900895AF92BF92CF9216
S1131A60DF92EF92FF920F931F93CF93DF93CDB743
S1131A70DEB76C970FB6F894DEBF0FBECDBFED8610
S1131A80FE860F87188B298B3A8B4B8B5C8B6D8B67
S1131A907E8B8F8B988FA98EBA8ECB8EDC8E89A588
S1131AA09AA5ABA5BCA5AD84BE84CF84D888E988AB
S1131AB0FA880B891C892D893E894F89588DBC0170
S1131AC0CD0174D0DC01CB0189839A83AB83BC83C1
S1131AD089A59AA5ABA5BCA528A92F932FA52F93BB
S1131AE02EA52F932DA52F93AD84BE84CF84D888A3
S1131AF0E988FA880B891C892D893E894F89588D7C
S1131B00BC01CD01A2D00F900F900F900F90DC017B
S1131B10CB018D839E83AF83B88789A59AA5ABA596
S1131B20BCA52C8D2F932B8D2F932A8D2F93298D2C
S1131B302F93AD84BE84CF84D888E988FA880B8932
S1131B401C892D893E894F89588DBC01CD010AD14C
S1131B500F900F900F900F90DC01CB0189879A872B
S1131B60AB87BC87E984FA840B851C852D813E8173
S1131B704F81588589819A81AB81BC81BC01CD019B
S1131B8088D1DC01CB01BC01CD016C960FB6F89471
S1131B90DEBF0FBECDBFDF91CF911F910F91FF909C
S1131BA0EF90DF90CF90BF90AF900895AF92BF9227
S1131BB0CF92DF92EF92FF920F931F93CF93DF9315
S1131BC0CDB7DEB760970FB6F894DEBF0FBECDBFBA
S1131BD069837A838B839C83AD82BE82CF82D886CD
S1131BE0E986FA860B871C872D873E874F87588B9B
S1131BF089819A81AB81BC819C01AD01BC01CD017D
S1131C000E94301EDC01CB017C018D018D859E85F7
S1131C10AF85B8899C01AD01C801B7010E94EF20CE
S1131C20DC01CB01BC01CD0160960FB6F894DEBF98
S1131C300FBECDBFDF91CF911F910F91FF90EF9019
S1131C40DF90CF90BF90AF9008954F925F926F92C4
S1131C507F928F929F92AF92BF92CF92DF92EF9238
S1131C60FF920F931F93CF93DF93CDB7DEB76097A7
S1131C700FB6F894DEBF0FBECDBF69837A838B8322
S1131C809C83AD82BE82CF82D886E986FA860B8792
S1131C901C872D873E874F87588B89819A81AB811A
S1131CA0BC819C01AD01BC01CD010E94301EDC0150
S1131CB0CB016C017D018BA19CA1ADA1BEA1BC0196
S1131CC0CD010E94111F4B015C018D819E81AF816A
S1131CD0B8859C01AD01C501B4010E94EF20DC016F
S1131CE0CB014C015D018BA19CA1ADA1BEA1BC01A6
S1131CF0CD010E9452212B013C0189859A85AB8537
S1131D00BC859C01AD01C301B2010E94EF20DC013E
S1131D10CB019C01AD01C501B4010E94301EDC0160
S1131D20CB019C01AD01C701B6010E94EF20DC018B
S1131D30CB01BC01CD0160960FB6F894DEBF0FBE97
S1131D40CDBFDF91CF911F910F91FF90EF90DF9066
S1131D50CF90BF90AF909F908F907F906F905F9047
S1131D604F900895AF92BF92CF92DF92EF92FF927D
S1131D700F931F93CF93DF93CDB7DEB76C970FB656
S1131D80F894DEBF0FBECDBF6D877E878F87988B9B
S1131D90A98ABA8ACB8ADC8AED8AFE8A0F8B188FCD
S1131DA0298F3A8F4B8F5C8FE988FA880B891C89BD
S1131DB02D893E894F89588D698D7A8D8B8D9C8DA7
S1131DC00E9421185B016C01E988FA880B891C893F
S1131DD02D893E894F89588D698D7A8D8B8D9C8D87
S1131DE00E942118DC01CB019C01AD01C601B501A3
S1131DF00E94EF20DC01CB0189839A83AB83BC83EF
S1131E0029A53AA54BA55CA569A57AA58BA59CA592
S1131E100E94EF20DC01CB018D839E83AF83B887C2
S1131E202D853E854F8558896D857E858F8598895A
S1131E300E94EF20DC01CB0189879A87AB87BC879E
S1131E4029853A854B855C856D817E818F81988556
S1131E500E942F1EDC01CB019C01AD0169817A81B6
S1131E608B819C810E942F1EDC01CB01BC01CD0122
S1131E706C960FB6F894DEBF0FBECDBFDF91CF9145
S1131E801F910F91FF90EF90DF90CF90BF90AF9094
S1131E900895CF92DF92EF92FF920F931F93CF9307
S1131EA0DF93CDB7DEB760970FB6F894DEBF0FBEF1
S1131EB0CDBF6D837E838F83988729873A874B872D
S1131EC05C87ED86FE860F87188B2D813E814F81BE
S1131ED058856D817E818F8198850E94EF20DC0179
S1131EE0CB016C017D0129853A854B855C8569852B
S1131EF07A858B859C850E94EF20DC01CB019C01B7
S1131F00AD01C701B6010E94301EDC01CB01BC014A
S1131F10CD010E945C21DC01CB019C01AD016D85EA
S1131F207E858F8598890E94141FDC01CB01BC013A
S1131F30CD010E94941E6B017C012D813E814F8155
S1131F40588589859A85AB85BC85BC01CD010E94E5
S1131F50BA1EDC01CB019C01AD01C701B6010E9490
S1131F602F1EDC01CB0189839A83AB83BC838981D7
S1131F709A81AB81BC81BC01CD0160960FB6F89407
S1131F80DEBF0FBECDBFDF91CF911F910F91FF90A8
S1131F90EF90DF90CF900895AF92BF92CF92DF92EF
S1131FA0EF92FF920F931F93CF93DF93CDB7DEB7DA
S1131FB0A6970FB6F894DEBF0FBECDBF9A8F898F58
S1131FC0CB8EDC8EED8EFE8E0F8F18A329A33AA341
S1131FD04BA35CA36DA37EA35E018DE0A80EB11C90
S1131FE08DB79EB740970FB6F8949EBF0FBE8DBFB6
S1131FF08DB79EB7019620E1FE01F396DC010190B6
S11320000D922A95E1F76096CFAC60976196DFACAC
S113201061976296EFAC62976396FFAC63976496A0
S11320200FAD649765961FAD659766962FAD66975D
S113203067963FAD679768964FAD689769965FADB1
S113204069976A966FAD6A976B967FAD6B97C5017A
S11320500E947E188DB79EB740960FB6F894DEBFE7
S11320600FBECDBF8DB79EB70C970FB6F8949EBF29
S11320700FBE8DBF8DB79EB701962CE0FE013D9635
S1132080DC0101900D922A95E1F7CB8CDC8CED8C70
S1132090FE8C0F8D18A129A13AA14BA15CA16DA1C1
S11320A07EA1CE0101967BD68DB79EB70C960FB656
S11320B0F894DEBF0FBECDBFA98CBA8C8DB79EB786
S11320C00C970FB6F8949EBF0FBE8DBF8DB79EB709
S11320D001962CE0FE01ED5BFF4FDC0101900D92B7
S11320E02A95E1F7C980DA80EB80FC800D811E819E
S11320F02F81388549855A856B857C85C501BDD678
S11321008DB79EB70C960FB6F894DEBF0FBECDBF49
S1132110898D9A8DA6960FB6F894DEBF0FBECDBFFB
S1132120DF91CF911F910F91FF90EF90DF90CF90AF
S1132130BF90AF900895CF92DF92EF92FF920F93EA
S11321401F93CF93DF93CDB7DEB76E970FB6F89496
S1132150DEBF0FBECDBF9A8B898BCB8ADC8AED8A1A
S1132160FE8A0F8B188F298F3A8F4B8F5C8F6D8F60
S11321707E8F19821A821B821C828B899C89AD896D
S1132180BE898D839E83AF83B8878F89988DA98DEF
S1132190BA8D89879A87AB87BC878B8D9C8DAD8DD3
S11321A0BE8D8D879E87AF87B88B89899A8940E1D8
S11321B09E012F5F3F4FF901DC0101900D924A957A
S11321C0E1F789899A896E960FB6F894DEBF0FBE3F
S11321D0CDBFDF91CF911F910F91FF90EF90DF90D2
S11321E0CF9008958F929F92AF92BF92CF92DF9239
S11321F0EF92FF920F931F93CF93DF93CDB7DEB788
S1132200AA970FB6F894DEBF0FBECDBF9A8F898F01
S1132210CB8EDC8EED8EFE8E0F8F18A329A33AA3EE
S11322204BA35CA36DA37EA38FA298A6A9A6BAA66E
S113223020E030E040E050E46FA178A589A59AA59C
S11322400E94141FDC01CB0189839A83AB83BC8376
S113225089819A81AB81BC81BC01CD010E9452214C
S1132260DC01CB018D839E83AF83B88789819A81FA
S1132270AB81BC81BC01CD010E94111FDC01CB01EB
S113228089879A87AB87BC878B8D9C8DAD8DBE8DDE
S11322902D813E814F815885BC01CD010E94EF20E4
S11322A0DC01CB018D879E87AF87B88B8F8D98A17A
S11322B0A9A1BAA12D813E814F815885BC01CD01D0
S11322C00E94EF20DC01CB01898B9A8BAB8BBC8BFA
S11322D08BA19CA1ADA1BEA12D813E814F815885CA
S11322E0BC01CD010E94EF20DC01CB018D8B9E8BC4
S11322F0AF8BB88F898D9A8D20E1FE013996DC0170
S113230001900D922A95E1F7898D9A8DAA960FB6C0
S1132310F894DEBF0FBECDBFDF91CF911F910F9117
S1132320FF90EF90DF90CF90BF90AF909F908F90F1
S113233008958F929F92AF92BF92CF92DF92EF92C5
S1132340FF920F931F93CF93DF93CDB7DEB7A2977E
S11323500FB6F894DEBF0FBECDBF9A8B898B8B8AE4
S11323609C8AAD8ABE8ACF8AD88EE98EFA8E0B8F6C
S11323701C8F2D8F3E8F4F8F58A369A37AA38B890F
S11323809C89AD89BE8989839A83AB83BC838F89F9
S1132390988DA98DBA8DB0588D839E83AF83B887ED
S11323A08B8D9C8DAD8DBE8DB05889879A87AB87F8
S11323B0BC878F8D98A1A9A1BAA1B0588D879E879B
S11323C0AF87B88B89899A8940E19E012F5F3F4F7F
S11323D0F901DC0101900D924A95E1F789899A8906
S11323E0A2960FB6F894DEBF0FBECDBFDF91CF919A
S11323F01F910F91FF90EF90DF90CF90BF90AF901F
S11324009F908F9008958F929F92AF92BF92CF9298
S1132410DF92EF92FF920F931F93CF93DF93CDB789
S1132420DEB7A2970FB6F894DEBF0FBECDBF9A8B6E
S1132430898B8B8A9C8AAD8ABE8ACF8AD88EE98E94
S1132440FA8E0B8F1C8F2D8F3E8F4F8F58A369A34D
S11324507AA38B899C89AD89BE8929A93AA94BA9FC
S11324605CA9BC01CD010E94EF20DC01CB016C0111
S11324707D018F89988DA98DBA8D2DA93EA94FA96B
S113248058ADBC01CD010E94EF20DC01CB019C01C1
S1132490AD01C701B6010E942F1EDC01CB016C0106
S11324A07D018B8D9C8DAD8DBE8D29AD3AAD4BAD2F
S11324B05CADBC01CD010E94EF20DC01CB019C018D
S11324C0AD01C701B6010E942F1EDC01CB016C01D6
S11324D07D018F8D98A1A9A1BAA121962CAD3DAD06
S11324E04EAD5FAD2197BC01CD010E94EF20DC0110
S11324F0CB019C01AD01C701B6010E942F1EDC0176
S1132500CB0189839A83AB83BC838B899C89AD89F6
S1132510BE892DA93EA94FA958ADBC01CD010E9489
S1132520EF20DC01CB016C017D018F89988DA98D91
S1132530BA8D29A93AA94BA95CA9BC01CD010E9475
S1132540EF20DC01CB019C01AD01C701B6010E9463
S1132550301EDC01CB016C017D018B8D9C8DAD8D1A
S1132560BE8D21962CAD3DAD4EAD5FAD2197BC0126
S1132570CD010E94EF20DC01CB019C01AD01C7011C
S1132580B6010E94301EDC01CB016C017D018F8DF0
S113259098A1A9A1BAA129AD3AAD4BAD5CADBC01DE
S11325A0CD010E94EF20DC01CB019C01AD01C701EC
S11325B0B6010E942F1EDC01CB018D839E83AF8365
S11325C0B8878B899C89AD89BE8929AD3AAD4BAD5D
S11325D05CADBC01CD010E94EF20DC01CB016C019C
S11325E07D018F89988DA98DBA8D21962CAD3DAD35
S11325F04EAD5FAD2197BC01CD010E94EF20DC01FF
S1132600CB019C01AD01C701B6010E942F1EDC0164
S1132610CB016C017D018B8D9C8DAD8DBE8D29A967
S11326203AA94BA95CA9BC01CD010E94EF20DC01B1
S1132630CB019C01AD01C701B6010E94301EDC0133
S1132640CB016C017D018F8D98A1A9A1BAA12DA9FF
S11326503EA94FA958ADBC01CD010E94EF20DC0179
S1132660CB019C01AD01C701B6010E94301EDC0103
S1132670CB0189879A87AB87BC878B899C89AD8975
S1132680BE8921962CAD3DAD4EAD5FAD2197BC0109
S1132690CD010E94EF20DC01CB016C017D018F890B
S11326A0988DA98DBA8D29AD3AAD4BAD5CADBC0109
S11326B0CD010E94EF20DC01CB019C01AD01C701DB
S11326C0B6010E94301EDC01CB016C017D018B8DB3
S11326D09C8DAD8DBE8D2DA93EA94FA958ADBC01D1
S11326E0CD010E94EF20DC01CB019C01AD01C701AB
S11326F0B6010E942F1EDC01CB016C017D018F8D80
S113270098A1A9A1BAA129A93AA94BA95CA9BC017C
S1132710CD010E94EF20DC01CB019C01AD01C7017A
S1132720B6010E94301EDC01CB018D879E87AF87E6
S1132730B88B89899A8940E19E012F5F3F4FF90147
S1132740DC0101900D924A95E1F789899A89A29654
S11327500FB6F894DEBF0FBECDBFDF91CF911F91AE
S11327600F91FF90EF90DF90CF90BF90AF909F902C
S11327708F900895CF93DF93CDB7DEB729970FB627
S1132780F894DEBF0FBECDBF9F838E8368874987D1
S11327909885898598170CF0C9C088858B838885AE
S11327A0898389858A8379C089818F5F89838981B7
S11327B0882F90E0880F991F2E813F81820F931FED
S11327C0FC0140818B81882F90E0880F991F2E8116
S11327D03F81820F931FFC018081841770F08981EF
S11327E0282F30E08985082E000C990B281739070B
S11327F0DCF203C08A8181508A838A81882F90E029
S1132800880F991F2E813F81820F931FFC01408105
S11328108B81882F90E0880F991F2E813F81820F32
S1132820931FFC018081841728F399818A8198176A
S1132830A0F58981882F90E0880F991F2E813F8110
S1132840820F931FFC01808191819D838C838981F8
S1132850882F90E0880F991F2E813F81820F931F4C
S11328602A81222F30E0220F331F4E815F81240FF3
S1132870351FF90120813181FC01318320838A8154
S1132880882F90E0880F991F2E813F81820F931F1C
S11328902C813D81FC013183208399818A819817A1
S11328A008F485CF8B81882F90E0880F991F2E81A3
S11328B03F81820F931FFC01808191819D838C83D2
S11328C08B81882F90E0880F991F2E813F81820F82
S11328D0931F2A81222F30E0220F331F4E815F8104
S11328E0240F351FF90120813181FC0131832083BC
S11328F08A81882F90E0880F991F2E813F81820F53
S1132900931F2C813D81FC01318320838A81815076
S1132910282F8E819F81422F68852CDF8A818F5FCB
S1132920282F8E819F814985622F24DF00002996FC
S11329300FB6F894DEBF0FBECDBFDF91CF910895DF
S1132940CF93DF9300D0CDB7DEB79A838983898193
S11329509A8145E060E00EDF00000F900F90DF9158
S1132960CF910895CF93DF93CDB7DEB786E0E5E04E
S1132970F1E0A2E3B2E001900D928A95E1F785ECD3
S113298090E0FC01108284EC90E027E6FC012083B7
S113299081EC90E028E1FC01208381EC90E021ECC3
S11329A030E0F90120812068FC01208380EC90E074
S11329B020EC30E0F90120812068FC01208382ECC6
S11329C090E026E0FC0120838AE290E02AE230E0F5
S11329D0F90120812E7FFC0120838AE290E02AE223
S11329E030E0F90120812260FC0120830000DF91A6
S11329F0CF910895CF93DF93CDB7DEB7000080EC7D
S1132A0090E0FC0180818823D4F786EC90E0FC01FF
S1132A108081DF91CF9108951F920F9200905F0003
S1132A200F9211242F933F934F935F936F937F9350
S1132A308F939F93AF93BF93EF93FF93CF93DF93C2
S1132A40CDB7DEB780911801882379F4D3DF809362
S1132A5039023AD080914302873038F081E0809384
S1132A603A0281E08093180189D00000DF91CF9170
S1132A70FF91EF91BF91AF919F918F917F916F9152
S1132A805F914F913F912F910F9000925F000F90B3
S1132A901F901895CF93DF93CDB7DEB780910401D3
S1132AA0DF91CF910895CF93DF931F92CDB7DEB717
S1132AB089838981882F90E08E5C9D4FFC01808101
S1132AC00F90DF91CF910895CF93DF93CDB7DEB709
S1132AD080914302882F90E020913902BC01822F1B
S1132AE01CD08093380280913802813081F4809127
S1132AF04302882F90E020913902855C9D4FFC01B0
S1132B002083809143028F5F8093430202C010921E
S1132B1043020000DF91CF910895CF93DF9300D05B
S1132B201F92CDB7DEB789837B836A838A819B81B9
S1132B30892B39F48981833511F481E019C080E04F
S1132B4017C08A819B811816190634F48A819B81E7
S1132B50079714F481E00CC08A819B81079739F4AC
S1132B608981853411F481E003C080E001C080E0F4
S1132B700F900F900F90DF91CF910895CF93DF9333
S1132B8000D0CDB7DEB780913A02813031F5109292
S1132B90040181E090E09A83898312C089819A813B
S1132BA0019729813A81255C3D4FF90120818E5C92
S1132BB09D4FFC01208389819A8101969A838983A0
S1132BC089819A81079754F31092430281E080939C
S1132BD0040110923A021092180100000F900F9015
S1132BE0DF91CF9108958F929F92AF92BF92CF922F
S1132BF0DF92EF92FF920F931F93CF93DF93CDB7A2
S1132C00DEB76E970FB6F894DEBF0FBECDBF9E87BA
S1132C108D878F86988AA98ABA8ACB8ADC8AED8ABC
S1132C20FE8A0F8B188F298F3A8F4B8F5C8F6D8F95
S1132C307E8F8B899C89AD89BE8989839A83AB8376
S1132C40BC838F89988DA98DBA8D8D839E83AF8324
S1132C50B8878B8D9C8DAD8DBE8D89879A87AB8708
S1132C60BC878D859E854CE09E012F5F3F4FF90107
S1132C70DC0101900D924A95E1F78D859E856E9653
S1132C800FB6F894DEBF0FBECDBFDF91CF911F9179
S1132C900F91FF90EF90DF90CF90BF90AF909F90F7
S1132CA08F9008958F929F92AF92BF92CF92DF92AE
S1132CB0EF92FF920F931F93CF93DF93CDB7DEB7BD
S1132CC06E970FB6F894DEBF0FBECDBF9E878D877B
S1132CD0CF86D88AE98AFA8A0B8B1C8B2D8B3E8B84
S1132CE04F8B588F698F7A8F8B8E9C8EAD8EBE8E54
S1132CF08F859889A989BA892B8D3C8D4D8D5E8DE0
S1132D00BC01CD010E94EF20DC01CB0189839A83B1
S1132D10AB83BC838B899C89AD89BE892B8D3C8D0B
S1132D204D8D5E8DBC01CD010E94EF20DC01CB01F5
S1132D308D839E83AF83B8878F89988DA98DBA8D33
S1132D402B8D3C8D4D8D5E8DBC01CD010E94EF20FD
S1132D50DC01CB0189879A87AB87BC878D859E85EB
S1132D604CE09E012F5F3F4FF901DC0101900D9271
S1132D704A95E1F78D859E856E960FB6F894DEBF71
S1132D800FBECDBFDF91CF911F910F91FF90EF90B8
S1132D90DF90CF90BF90AF909F908F900895CF9287
S1132DA0DF92EF92FF920F931F93CF93DF93CDB7F0
S1132DB0DEB76A970FB6F894DEBF0FBECDBF9E870D
S1132DC08D87CF86D88AE98AFA8A0B8B1C8B2D8B48
S1132DD03E8B4F8B588F698F7A8F8F859889A989FD
S1132DE0BA892DA13EA14FA158A5BC01CD0138D768
S1132DF0DC01CB0189839A83AB83BC838B899C8957
S1132E00AD89BE8929A53AA54BA55CA5BC01CD0118
S1132E1027D7DC01CB018D839E83AF83B8878F894D
S1132E20988DA98DBA8D2DA53EA54FA558A9BC0195
S1132E30CD0116D7DC01CB0189879A87AB87BC8784
S1132E408D859E854CE09E012F5F3F4FF901DC018B
S1132E5001900D924A95E1F78D859E856A960FB68D
S1132E60F894DEBF0FBECDBFDF91CF911F910F91BC
S1132E70FF90EF90DF90CF9008958F929F92AF9242
S1132E80BF92CF92DF92EF92FF920F931F93CF9353
S1132E90DF93CDB7DEB76A970FB6F894DEBF0FBEE7
S1132EA0CDBF9E878D87CF86D88AE98AFA8A0B8B15
S1132EB01C8B2D8B3E8B4F8B588F698F7A8F0F2EE7
S1132EC0812C912CF0E8AF2EFFEBBF2EF02DC9A47E
S1132ED0DAA4EBA4FCA40DA51EA52FA538A949A925
S1132EE05AA96BA97CA9CE010196DCDEAD84BE840F
S1132EF08DB79EB70C970FB6F8949EBF0FBE8DBFCB
S1132F008DB79EB701964CE09E012F5F3F4FF901AC
S1132F10DC0101900D924A95E1F7CF84D888E988C5
S1132F20FA880B891C892D893E894F89588D698DB2
S1132F307A8DC50134DF8DB79EB70C960FB6F89421
S1132F40DEBF0FBECDBF8D859E856A960FB6F89401
S1132F50DEBF0FBECDBFDF91CF911F910F91FF90C8
S1132F60EF90DF90CF90BF90AF909F908F90089597
S1132F70CF92DF92EF92FF920F931F93CF93DF9341
S1132F80CDB7DEB72C970FB6F894DEBF0FBECDBF1A
S1132F90E982FA820B831C832D833E834F835887F7
S1132FA069877A878B879C8789819A81AB81BC8169
S1132FB02F89388D498D5A8DBC01CD010E94EF2097
S1132FC0DC01CB016C017D018D819E81AF81B885CF
S1132FD02B8D3C8D4D8D5E8DBC01CD010E94EF206B
S1132FE0DC01CB019C01AD01C701B60139D6DC017E
S1132FF0CB016C017D0189859A85AB85BC852F8DBC
S113300038A149A15AA1BC01CD010E94EF20DC01E5
S1133010CB019C01AD01C701B60122D6DC01CB0175
S1133020BC01CD012C960FB6F894DEBF0FBECDBF08
S1133030DF91CF911F910F91FF90EF90DF90CF9090
S11330400895EF92FF920F931F93CF93DF93CDB721
S1133050DEB72C970FB6F894DEBF0FBECDBFE98262
S1133060FA820B831C832D833E834F8358876987A1
S11330707A878B879C872DB73EB72C5031090FB6C2
S1133080F8943EBF0FBE2DBF8DB79EB701964CE09E
S11330909E012F5F3F4FF901DC0101900D924A958B
S11330A0E1F7E980FA800B811C812D813E814F81FB
S11330B0588569857A858B859C855ADF2DB73EB7FF
S11330C0245F3F4F0FB6F894DEBF0FBECDBFDC01C7
S11330D0CB01BC01CD010E945C21DC01CB01BC0110
S11330E0CD012C960FB6F894DEBF0FBECDBFDF9195
S11330F0CF911F910F91FF90EF9008956F927F925F
S11331008F929F92AF92BF92CF92DF92EF92FF92F3
S11331100F931F93CF93DF93CDB7DEB7CE54D1096E
S11331200FB6F894DEBF0FBECDBFFE01EF5BFF4FBD
S113313091838083CE018D5B9F4FDC01CC92FC0197
S1133140D182DC011296EC92FC01F382DC0114962C
S11331500C93FC011583DC0116962C93FC01378338
S1133160DC0118964C93FC015187DC011A966C9390
S1133170FC017387FE01B196CE018D5B9F4FDC018C
S1133180CC90DC011196DC90DC011296EC90DC0111
S11331901396FC90DC0114960C91DC0115961C919D
S11331A0DC0116962C91DC0117963C91DC011896F3
S11331B04C91DC0119965C91DC011A966C91DC014E
S11331C01B967C91CF010E949B10CE014196A09644
S11331D08FACA097A1969FACA197A296AFACA297F3
S11331E0A396BFACA397A496CFACA497A596DFAC47
S11331F0A597A696EFACA697A796FFACA797A89617
S11332000FADA897A9961FADA997AA962FADAA9717
S1133210AB963FADAB97AC964FADAC97AD965FAD6B
S1133220AD97AE966FADAE97AF967FADAF9781D8A1
S1133230EDB7FEB770970FB6F894FEBF0FBEEDBFA3
S11332408DB79EB7019620E1FE01B196DC01019095
S11332500D922A95E1F7A0968FACA097A1969FAC0A
S1133260A197A296AFACA297A396BFACA397A4963E
S1133270CFACA497A596DFACA597A696EFACA6977E
S1133280A796FFACA797A8960FADA897A9961FADD0
S1133290A997AA962FADAA97AB963FADAB97AC96DC
S11332A04FADAC97AD965FADAD97AE966FADAE97A3
S11332B0AF967FADAF97CE010196A5D88DB79EB7D7
S11332C040960FB6F894DEBF0FBECDBF3E0191E32A
S11332D0690E711CADB7BEB750970FB6F894BEBF58
S11332E00FBEADBF8DB79EB7019620E1FE0171966A
S11332F0DC0101900D922A95E1F789809A80AB80D8
S1133300BC80CD80DE80EF80F88409851A852B850A
S11333103C854D855E856F857889C30174D8EDB78A
S1133320FEB770960FB6F894DEBF0FBECDBFCE01C8
S11333308F5B9F4FDC01ED91FC9189A89AA8ABA803
S1133340BCA8CDA8DEA8EFA8F8AC09AD1AAD2BAD8A
S11333503CAD4DAD5EAD6FADCE01805C9F4FDC01E9
S11333607C91CF0140DCCE018F5B9F4FFC018081BB
S11333709181C25BDF4F0FB6F894DEBF0FBECDBFA5
S1133380DF91CF911F910F91FF90EF90DF90CF903D
S1133390BF90AF909F908F907F906F900895AF9261
S11333A0BF92CF92DF92EF92FF920F931F93CF932E
S11333B0DF93CDB7DEB7E6970FB6F894DEBF0FBE46
S11333C0CDBF80E090E0A8ECB2E489879A87AB8710
S11333D0BC8720E030E04AE755E469857A858B852F
S11333E09C85FDD6DC01CB018D879E87AF87B88B8A
S11333F020E030E040E85FE36D857E858F85988925
S11334000CD588232CF481E090E09A8B898B3BC007
S113341020E03FEF4FE757E46D857E858F859889DF
S1133420D3D618163CF520E030E040E251E469853B
S11334307A858B859C85D3D6DC01CB01BC01CD017B
S11334405BD5DC01CB019A8B898B0FC080E991E0BD
S11334509C8B8B8B8B899C890197F1F79C8B8B8B35
S113346089899A8901979A8B898B89899A89892B69
S113347069F713C06D857E858F8598893DD5DC01FC
S1133480CB019A8B898B89899A899E8B8D8B8D89A7
S11334909E890197F1F79E8B8D8BF89463DA81E214
S11334A090E02FEFFC01208380EB90E022E0FC0110
S11334B0208381EB90E024E0FC01208380E790E00E
S11334C020E730E0F90120812260FC01208383EBB6
S11334D090E029EFFC01208384E490E022E0FC01E9
S11334E0208385E490E0FC0110828EE690E02EE6D5
S11334F030E0F90120812260FC01208387E490E020
S11335002FEFFC01208378948EE38F9386EE8F93C4
S113351086E68F9386E68F938EE38F9386EE8F9362
S113352086E68F9386E68F930F2EFEEAAF2EF7E49E
S1133530BF2EF1E6CF2EFDE3DF2EF02D16EFE12EA8
S113354018E2F12E0CE51EE32FE832EC45E75EE3CA
S11335506DEC7CEC8CE09FE30E9456028DB79EB725
S113356008960FB6F894DEBF0FBECDBF80E090E0A2
S1133570A0E8BFE38FA398A7A9A7BAA71BA61CA678
S11335801DA61EA61FA618AA19AA1AAA1BAA1CAA17
S11335901DAA1EAAAFA0B8A4C9A4DAA4EBA4FCA4D3
S11335A00DA51EA52FA538A949A95AA96BA97CA9BF
S11335B08DA99EA9B4D16EDA8130E9F783E073DA7C
S11335C0F4D2DC01CB0189839A83AB83BC8384E08E
S11335D06ADAEBD2DC01CB018D839E83AF83B8879B
S11335E0FE0177962D813E814F81588589819A818C
S11335F0AB81BC8189019A01AC01BD01CF010E945C
S11336009A00AF88B88CC98CDA8CEB8CFC8C0D8D4D
S11336101E8D2F8D38A149A15AA16BA17CA18DA12A
S11336209EA17DD1C8CF1F920F9200905F000F9290
S113363011242F933F938F939F93EF93FF93CF93F3
S1133640DF93CDB7DEB780911B0190911C010196E9
S113365090931C0180931B0183EB90E029EFFC0104
S1133660208380911B0190911C01C29790F085E406
S113367090E025E430E0F90120812160FC01208301
S113368010921C0110921B0182E290E02FEFFC01CA
S113369020830000DF91CF91FF91EF919F918F9153
S11336A03F912F910F9000925F000F901F901895FB
S11336B01F920F9200905F000F9211242F933F935B
S11336C04F935F938F939F93EF93FF93CF93DF93E6
S11336D0CDB7DEB78091190190911A0101969093AC
S11336E01A018093190187E490E02FEFFC012083F5
S11336F080911D01882F90E0880F991F880F991FD2
S11337008C5B9D4FFC012081318180911901909146
S11337101A012817390708F097C087E490E0209130
S11337201D01222F30E0220F331F220F331F2A5B8B
S11337303D4FF9012081FC01208380911D01882FD8
S113374090E0880F991F880F991F895B9D4FFC019A
S11337508081282F30E081E090E002C0880F991F1B
S11337602A95E2F7AC014095509582E290E022E27E
S113377030E0F9012081322F242F2323FC01208300
S113378010921A011092190129C080911D01882FED
S113379090E00196880F991F880F991F895B9D4FB0
S11337A0FC018081282F30E081E090E002C0880F86
S11337B0991F2A95E2F7AC014095509582E290E07A
S11337C022E230E0F9012081322F242F2323FC014F
S11337D0208380911D018F5F80931D0180911D01C5
S11337E0882F90E0880F991F880F991F8C5B9D4F3D
S11337F0FC012081318180911D01882F90E0019688
S1133800880F991F880F991F8C5B9D4FFC01808145
S113381091812817390729F480911D01853008F416
S1133820B4CF80911D018F5F80931D0180911D0194
S1133830853050F010921D0182E290E0FC0110826C
S113384085E490E0FC0110820000DF91CF91FF91AC
S1133850EF919F918F915F914F913F912F910F9095
S113386000925F000F901F901895CF93DF93CDB710
S1133870DEB72C970FB6F894DEBF0FBECDBF8B8793
S11338806C871A8219828B85882F90E024E6289F02
S1133890A001299F500D11242FEF30E0CA01B90176
S11338A061D5CB019A8389838C85882331F0898102
S11338B09A818C599F4F9A83898329813A8140EA5E
S11338C0429FC001439F900D11249C838B838B8165
S11338D09C81992314F481509F4F892F990F990B40
S11338E09E838D838B819C81907899231CF401970E
S11338F09F6F01968F838D819E81998788878F81A1
S11339008A8788859985AA85BC018A2F2C960FB64B
S1133910F894DEBF0FBECDBFDF91CF910895AF9273
S1133920BF92CF92DF92EF92FF920F931F93CF93A8
S1133930DF93CDB7DEB7E2970FB6F894DEBF0FBEC4
S1133940CDBFABA2BCA2CDA2DEA2EFA2F8A609A76E
S11339501AA72BA73CA74DA75EA76FA778AB89AB87
S11339609AAB5E012BE0A20EB11C8DB79EB74097B7
S11339700FB6F8949EBF0FBE8DBF8DB79EB701964C
S113398020E1FE01B396DC0101900D922A95E1F746
S1133990C0900B01D0900C01E0900D01F0900E014D
S11339A000910F0110911001209111013091120129
S11339B04091130150911401609115017091160109
S11339C0C5010E94270CEDB7FEB770960FB6F894A8
S11339D0DEBF0FBECDBF19824EC08981882F90E013
S11339E0880F991F880F991F9E012F5F3F4F820FE9
S11339F0931F0A96FC0180819181A281B3818D83FA
S1133A009E83AF83B8872BED3FE049E450E46D819A
S1133A107E818F81988524D1DC01CB012BED3FE0A1
S1133A2049EC50E4BC01CD01FFD1DC01CB0120E025
S1133A3030E04FE753E4BC01CD01D1D3DC01CB012D
S1133A40BC01CD0159D2DC01CB0189878981882F42
S1133A5090E09C01220F331F225E3E4F4985F901FD
S1133A604083880F991F815E9E4F2981FC0120832A
S1133A7089818F5F89838981863008F4AECF81E0A4
S1133A8090E09B838A8317C08A819B81880F991F4A
S1133A90825E9E4FFC018081282F20958A819B8124
S1133AA0880F991F825E9E4FFC0120838A819B812F
S1133AB002969B838A838A819B8106972CF38EE1ED
S1133AC091E00E94A0141C825AC08C81882F90E03F
S1133AD0880F991F825E9E4FFC0180818A878C81AA
S1133AE0882319F18C81882F90E00197880F991F02
S1133AF0825E9E4FFC0180819A85F92FF81B8F2FDF
S1133B008A878C81882F90E0880F991F880F991FCE
S1133B108C010C5B1D4F60E08A85A7DEA82FCB01CA
S1133B20F80180839183A28313C08C81882F90E055
S1133B30880F991F880F991F8C010C5B1D4F61E042
S1133B408A8593DEA82FCB01F80180839183A28319
S1133B508C81882F90E02C81222F30E0220F331F9C
S1133B60215E3E4FF9012081880F991F880F991F0C
S1133B70895B9D4FFC0120838C818F5F8C838C81BA
S1133B80863008F4A2CF0000E2960FB6F894DEBFA8
S1133B900FBECDBFDF91CF911F910F91FF90EF909A
S1133BA0DF90CF90BF90AF900895CF93DF93CDB7C0
S1133BB0DEB72D970FB6F894DEBF0FBECDBF8D874D
S1133BC08D85882F90E0092E000CAA0BBB0BBC013D
S1133BD0CD01C0D1DC01CB0120E030E04EEF52E456
S1133BE0BC01CD013CD0DC01CB0120E030E040E859
S1133BF053E4BC01CD0118D1DC01CB0189839A8344
S1133C00AB83BC8389819A81AB81BC819C01AD016A
S1133C10BC01CD0125D0DC01CB018D839E83AF8314
S1133C20B88728E037EC47EC50E46D817E818F81C2
S1133C309885D5D2DC01CB0189879A87AB87BC876D
S1133C4089859A85AB85BC85BC01CD012D960FB6BF
S1133C50F894DEBF0FBECDBFDF91CF9108955058C9
S1133C60BB27AA270ED065C22ED230F033D220F063
S1133C7031F49F3F11F41EF4EDC10EF4E095E7FB1F
S1133C80E3C1E92F78D280F3BA1762077307840778
S1133C90950718F071F49EF590C20EF4E0950B2E82
S1133CA0BA2FA02D0B01B90190010C01CA01A0018A
S1133CB01124FF27591B99F0593F50F4503E68F1E5
S1133CC01A16F040A22F232F342F4427585FF3CF26
S1133CD0469537952795A795F0405395C9F77EF4F7
S1133CE01F16BA0B620B730B840BBAF09150A1F040
S1133CF0FF0FBB1F661F771F881FC2F70EC0BA0FC6
S1133D00621F731F841F48F4879577956795B7954D
S1133D10F7959E3F08F0B3CF9395880F08F0992745
S1133D20EE0F9795879508959F939F77EEE38937D4
S1133D309E0720F4E0E7F0E0B5D109C046D19058E1
S1133D40A2EA2AED3FE049EC5FE39BDFF2D10F905A
S1133D5007FC90580895B7D158F080E891E009F431
S1133D609EEFB8D128F040E851E059F45EEF09C065
S1133D7071C123C2E92FE078FED168F3092E052A28
S1133D80C1F3261737074807590738F00E2E07F8EE
S1133D90E02569F0E025E0640AC0EF6307F80094C9
S1133DA007FADB01B9019D01DC01CA01AD01EF9302
S1133DB04AD0BFD10AD05F91552331F02BED3FE0BB
S1133DC049E450FD49EC4CCF0895DF93DD27B92F2A
S1133DD0BF7740E85FE31616170648075B0710F441
S1133DE0D92FF6D19F938F937F936F93A3D2E4E857
S1133DF0F0E033D19ED12F913F914F915F91FBD150
S1133E00DD2349F09058A2EA2AED3FE049EC5FE354
S1133E10D0785D2736DFDF918CC1F2D008F481E0E1
S1133E20089560D1E39596C10CD083C153D140F07D
S1133E304AD130F021F45F3F19F006C15111BEC1DF
S1133E4009C199D198F39923C9F35523B1F3951B6B
S1133E50550BBB27AA2762177307840738F09F5FA7
S1133E605F4F220F331F441FAA1FA9F333D00E2E16
S1133E703AF0E0E830D091505040E695001CCAF783
S1133E8029D0FE2F27D0660F771F881FBB1F261748
S1133E9037074807AB07B0E809F0BB0B802DBF011B
S1133EA0FF2793585F4F2AF09E3F510568F0CCC01E
S1133EB085C15F3FECF3983EDCF386957795679573
S1133EC0B795F7959F5FC9F7880F911D96958795CC
S1133ED097F90895E1E0660F771F881FBB1F6217EB
S1133EE073078407BA0720F0621B730B840BBA0BA9
S1133EF0EE1F88F7E095089546D188F09F5790F01B
S1133F00B92F9927B751A0F0D1F0660F771F881FFA
S1133F10991F1AF0BA95C9F712C0B13081F04DD18A
S1133F20B1E008954AC1672F782F8827B85F39F028
S1133F30B93FCCF3869577956795B395D9F73EF459
S1133F4090958095709561957F4F8F4F9F4F089501
S1133F50E89409C097FB3EF490958095709561951F
S1133F607F4F8F4F9F4F9923A9F0F92F96E9BB27D5
S1133F709395F695879577956795B795F111F8CF51
S1133F80FAF4BB0F11F460FF1BC06F5F7F4F8F4FBC
S1133F909F4F16C0882311F096E911C0772321F0B2
S1133FA09EE8872F762F05C0662371F096E8862F4A
S1133FB070E060E02AF09A95660F771F881FDAF7A1
S1133FC0880F9695879597F90895DF93CF931F935C
S1133FD00F938B01EC01E1EBF0E03FD0AAD0980104
S1133FE0AE018B01EC0160E070E080E89FE337DE16
S1133FF063D19801AE010F911F91CF91DF91FBC066
S1134000990F0008550FAA0BE0E8FEEF16161706E5
S1134010E807F907C0F012161306E407F50798F04D
S1134020621B730B840B950B39F40A2661F0232B66
S1134030242B252B21F408950A2609F4A140A695E2
S11340408FEF811D811D089597F99F6780E870E0C7
S113405060E008959FEF80EC0895DF93CF931F9362
S11340600F93FF92EF92DF927B018C01689405C05D
S1134070DA2EEF01C0D0FE01E894A5912591359187
S113408045915591AEF3EF01FCDDFE019701A801C6
S1134090DA9479F7DF90EF90FF900F911F91CF9111
S11340A0DF9108959F938F937F936F93FF93EF9383
S11340B09B01AC0194D0EF91FF91CFDF2F913F9101
S11340C04F915F918CC000240A94161617061806A7
S11340D00906089500240A94121613061406050608
S11340E00895B8CF50D0E8F3E894E0E0BB279F5799
S11340F0F0F02AED3FE049EC06C0EE0FBB0F661F5F
S1134100771F881F28F0B23A62077307840728F0E4
S1134110B25A620B730B840BE3959A9572F780384D
S113412030F49A95BB0F661F771F881FD2F790480B
S113413006C1092E0394000C11F4882352F0BB0F1E
S113414040F4BF2B11F460FF04C06F5F7F4F8F4FAB
S11341509F4F0895EF93E0FF06C0A2EA2AED3FE0E7
S113416049EC5FEB8EDDE5DF0F90039401FC905882
S1134170E9EDF0E097CF57FD9058440F551F59F0E3
S11341805F3F71F04795880F97FB991F61F09F3F40
S113419079F087950895121613061406551FF2CF69
S11341A04695F1DF08C0161617061806991FF1CFB9
S11341B086957105610508940895E894BB276627E0
S11341C07727CB0197F908951BDF08F48FEF089543
S11341D09B01AC0160E070E080E89FE325CE0BD04A
S11341E0A8CF71DF28F076DF18F0952309F02CCFE3
S11341F031CF1124E3CFBFDFA0F3959FD1F3950F07
S113420050E0551F629FF001729FBB27F00DB11D56
S1134210639FAA27F00DB11DAA1F649F6627B00DE6
S1134220A11D661F829F2227B00DA11D621F739FCF
S1134230B00DA11D621F839FA00D611D221F749FDD
S11342403327A00D611D231F849F600D211D822F24
S1134250762F6A2F11249F5750408AF0E1F088236B
S11342604AF0EE0FFF1FBB1F661F771F881F915078
S11342705040A9F79E3F510570F0E6CE9FCF5F3FB7
S1134280ECF3983EDCF3869577956795B795F795AB
S1134290E7959F5FC1F7FE2B880F911D9695879533
S11342A097F908959F931EDF0F9007FCEE5F52CF9E
S11342B011F40EF4CFCE41C066DFD0F39923D9F3C5
S11342C0CEF39F57550B87FF46D00024A0E640EA63
S11342D0900180585695979528F4805C660F771F57
S11342E0881F20F026173707480730F4621B730B2A
S11342F0840B202931294A2BA6951794079420254D
S113430031254A2758F7660F771F881F20F0261794
S11343103707480730F4620B730B840B200D311DF3
S1134320411DA09581F7B901842F9158880F969566
S1134330879508959B01AC0152CF9F3F31F0915076
S113434020F4879577956795B795880F911D969575
S1134350879597F9089591505040660F771F881FED
S1134360D2F7089597FB072E16F4009406D077FD34
S113437008D00BD007FC05D03EF4909581959F4F53
S11343800895709561957F4F0895AA1BBB1B51E159
S113439007C0AA1FBB1FA617B70710F0A61BB70BB1
S11343A0881F991F5A95A9F780959095BC01CD0156
S10943B00895F894FFCF0C
S11343B6D7B3DD3F017F7F7F7F7F7F000000000052
S10B43C600000079E9263E0025
S9030000FC
