S0180000476363426F61726450726F6A656374312E737265630F
S11300007BC0000096C0000094C0000092C00000B5
S113001090C000008EC000008CC000008AC00000A8
S113002088C000000C94661984C0000082C00000DF
S113003080C000007EC000007CC000007AC00000C8
S11300400C94AC1976C0000074C0000072C00000AB
S113005070C000006EC000006CC000006AC00000E8
S113006068C0000066C0000064C0000062C00000F8
S1130070036EDB363D9A9999993DABAAAA2A3E00B4
S11300800000803F084AD73B3BCE016E84BCBFFDD5
S1130090C12F3D6C74319ABD56833DDA3D00C77F54
S11300A011BED9E4BB4C3E916BAAAABE00000080ED
S11300B03F072C7AA5BA6CC590DA3B9365FC8BBCE0
S11300C053F810FD3C5692834DBD879D3AB63DCB07
S11300D0C9BF5BBE73DA0FC93F05A84CCDB2D44E7D
S11300E0B93836A9020C50B9918688083CA6AAAA48
S11300F02ABE000000803F0011241FBECFEFD0E1D4
S1130100DEBFCDBF11E0A0E0B1E0E8E5FFE302C04F
S113011005900D92A031B107D9F722E0A0E1B1E03A
S113012001C01D92A137B207E1F70E94F7170C94A2
S1130130AA1F66CF6F927F928F929F92AF92BF92C7
S1130140CF92DF92EF92FF920F931F93CF93DF939F
S1130150CDB7DEB7CA54D1090FB6F894DEBF0FBECF
S1130160CDBFFE01EF5BFF4F91838083CE018D5B9A
S11301709F4FFC014083518362837383CE01895B6B
S11301809F4FFC010083118322833383CE018D5B57
S11301909F4FFC0180819181A281B381BC01CD017B
S11301A0B5D0DC01CB0189839A83AB83BC83CE01B8
S11301B08D5B9F4FFC0180819181A281B381BC0141
S11301C0CD01A4D0DC01CB018D839E83AF83B8879E
S11301D080E090E0A0E8BFE38D8B9E8BAF8BB88F5F
S11301E0198E1A8E1B8E1C8E1D8E1E8E1F8E18A2AB
S11301F0FE01B19689819A81AB81BC814C015D017C
S1130200CD88DE88EF88F88C098D1A8D2B8D3C8D76
S11302104D8D5E8D6F8D78A1CF010E94621019867D
S11302201A861B861C8680E090E0A0E8BFE38D87D9
S11302309E87AF87B88B198A1A8A1B8A1C8AFE018B
S1130240F1968D819E81AF81B8854C015D01C98491
S1130250DA84EB84FC840D851E852F8538894989D1
S11302605A896B897C89CF010E946210CE018F5B11
S11302709F4FFC01608071808DB79EB740970FB689
S1130280F8949EBF0FBE8DBF8DB79EB7019620E137
S1130290FE01F196DC0101900D922A95E1F789A007
S11302A09AA0ABA0BCA0CDA0DEA0EFA0F8A409A5A5
S11302B01AA52BA53CA54DA55EA56FA578A9C301DC
S11302C00E947311EDB7FEB770960FB6F894DEBFB7
S11302D00FBECDBFCE018F5B9F4FFC01808191810A
S11302E0C65BDF4F0FB6F894DEBF0FBECDBFDF9104
S11302F0CF911F910F91FF90EF90DF90CF90BF901F
S1130300AF909F908F907F906F900895CF93DF93DD
S1130310CDB7DEB728970FB6F894DEBF0FBECDBFBA
S11303206D837E838F83988787E999EFADEDB0E481
S11303309C01AD016D817E818F8198850E94911E03
S1130340181644F487E999EFADEDB0E48D839E83EC
S1130350AF83B88783EC95EFACE1B1E49C01AD01C8
S11303606D817E818F8198850E94221DDC01CB01E5
S113037089839A83AB83BC8389819A81AB81BC8155
S1130380BC01CD010E94A61CDC01CB01BC01CD0146
S113039028960FB6F894DEBF0FBECDBFDF91CF9184
S11303A00895AF92BF92CF92DF92EF92FF920F9394
S11303B01F93CF93DF93CDB7DEB760970FB6F89452
S11303C0DEBF0FBECDBF69837A838B839C832D836D
S11303D03E834F835887E986FA860B871C87AD8650
S11303E0BE86CF86D88A89819A81AB81BC8180936D
S11303F0750190937601A0937701B09378018D8174
S11304009E81AF81B8858093FD019093FE01A093F6
S1130410FF01B093000289859A85AB85BC858093E2
S1130420550290935602A0935702B09358028D85BB
S11304309E85AF85B8898093510190935201A09312
S11304405301B09354018D8D9E8DAF8DB8A18093CF
S1130450550190935601A0935701B093580189A177
S11304609AA1ABA1BCA18093590190935A01A09386
S11304705B01B0935C01E1D720D45FD012D00000BF
S113048060960FB6F894DEBF0FBECDBFDF91CF915B
S11304901F910F91FF90EF90DF90CF90BF90AF909E
S11304A00895CF93DF93CDB7DEB78BED9FE0A9E43A
S11304B0B0E480935D0190935E01A0935F01B093DB
S11304C06001109261011092620110926301109216
S11304D0640182E99AE0A6E8BFE380936501909302
S11304E06601A0936701B093680182E99AE0A6E0EF
S11304F0B0EC8093690190936A01A0936B01B0936F
S11305006C0182E99AE0A6E8BFEB80936D019093B9
S11305106E01A0936F01B093700182E99AE0A6E0A6
S1130520B0E48093710190937201A0937301B0932E
S113053074010000DF91CF9108958F929F92AF9242
S1130540BF92CF92DF92EF92FF920F931F93CF93BC
S1130550DF93CDB7DEB7CC57D1090FB6F894DEBF21
S11305600FBECDBF8091590190915A01A0915B01BA
S1130570B0915C019C01AD0160E070E080E89FE314
S11305800E94411CDC01CB0189839A83AB83BC8329
S11305905E018DE4A80EB11CADB7BEB71C970FB6B3
S11305A0F894BEBF0FBEADBF8DB79EB701962CE0C9
S11305B0E1E9F1E0DC0101900D922A95E1F7C090A8
S11305C0E501D090E601E090E701F090E8010091A8
S11305D0E9011091EA012091EB013091EC01409185
S11305E0ED015091EE016091EF017091F001C501B0
S11305F00E9466158DB79EB70C960FB6F894DEBFB1
S11306000FBECDBF5E0199E5A90EB11CADB7BEB753
S11306101C970FB6F894BEBF0FBEADBF8DB79EB783
S113062001962CE0E5EEF1E0DC0101900D922A95B3
S1130630E1F7C0900102D0900202E0900302F09032
S113064004020091050210910602209107023091E4
S113065008024091090250910A0260910B027091C4
S11306600C02C5010E9466158DB79EB70C960FB695
S1130670F894DEBF0FBECDBF5E0195E6A90EB11C96
S1130680ADB7BEB71C970FB6F894BEBF0FBEADBFD3
S11306908DB79EB701962CE0E1E0F2E0DC01019019
S11306A00D922A95E1F7C0909101D0909201E090CB
S11306B09301F0909401009195011091960120917D
S11306C09701309198014091990150919A0160915C
S11306D09B0170919C01C5010E9466158DB79EB760
S11306E00C960FB6F894DEBF0FBECDBF2091590112
S11306F030915A0140915B0150915C01FE01EF5B26
S1130700FF4FCE01835B9F4F49015A01DC01CC901E
S1130710DC011196DC90DC011296EC90DC0113965E
S1130720FC90DC0114960C91DC0115961C91DC0103
S113073016962C91DC0117963C91DC0118964C918D
S1130740DC0119965C91DC011A966C91DC011B9614
S11307507C91CF010E947B145E01B1E7AB0EB11C0A
S11307608DB79EB70C970FB6F8949EBF0FBE8DBF82
S11307708DB79EB701962CE0FE01EF5BFF4FDC01C5
S113078001900D922A95E1F7C0909101D0909201C9
S1130790E0909301F09094010091950110919601DD
S11307A020919701309198014091990150919A01BB
S11307B060919B0170919C01C5010E94F814ADB732
S11307C0BEB71C960FB6F894DEBF0FBECDBFCE01E8
S11307D08F589F4F2CE0FC01ADE0B2E001900D92E8
S11307E02A95E1F7FE01F59629813A814B815C81D6
S11307F0CE018B599F4F49015A01DC01CC90DC0199
S11308001196DC90DC011296EC90DC011396FC90BE
S1130810DC0114960C91DC0115961C91DC011696F2
S11308202C91DC0117963C91DC0118964C91DC016B
S113083019965C91DC011A966C91DC011B967C91F3
S1130840CF010E947B145E01B1E7AB0EB11C8DB7E2
S11308509EB70C970FB6F8949EBF0FBE8DBF8DB791
S11308609EB701962CE0FE01F596DC0101900D92F5
S11308702A95E1F7C0900102D0900202E0900302B1
S1130880F0900402009105021091060220910702E3
S1130890309108024091090250910A0260910B02C2
S11308A070910C02C5010E94F814ADB7BEB71C9636
S11308B00FB6F894DEBF0FBECDBFCE018F589F4F49
S11308C02CE0FC01A9E1B2E001900D922A95E1F738
S11308D02091590130915A0140915B0150915C0182
S11308E0FE01B996CE018B599F4F49015A01DC0193
S11308F0CC90DC011196DC90DC011296EC90DC01CA
S11309001396FC90DC0114960C91DC0115961C9155
S1130910DC0116962C91DC0117963C91DC011896AB
S11309204C91DC0119965C91DC011A966C91DC0106
S11309301B967C91CF010E947B145E01B1E7AB0E44
S1130940B11C8DB79EB70C970FB6F8949EBF0FBE1F
S11309508DBF8DB79EB701962CE0FE01B996DC01E0
S113096001900D922A95E1F7C0900102D090020205
S1130970E0900302F0900402009105021091060237
S113098020910702309108024091090250910A0215
S113099060910B0270910C02C5010E94F814ADB76E
S11309A0BEB71C960FB6F894DEBF0FBECDBFCE0106
S11309B08F589F4F2CE0FC01A5E2B2E001900D920C
S11309C02A95E1F7FE017D9629813A814B815C816C
S11309D0CE01875A9F4F49015A01DC01CC90DC01BA
S11309E01196DC90DC011296EC90DC011396FC90DD
S11309F0DC0114960C91DC0115961C91DC01169611
S1130A002C91DC0117963C91DC0118964C91DC0189
S1130A1019965C91DC011A966C91DC011B967C9111
S1130A20CF010E947B145E01B1E7AB0EB11C8DB700
S1130A309EB70C970FB6F8949EBF0FBE8DBF8DB7AF
S1130A409EB701962CE0FE017D96DC0101900D928B
S1130A502A95E1F7C090E501D090E601E090E70126
S1130A60F090E8010091E9011091EA012091EB0175
S1130A703091EC014091ED015091EE016091EF0154
S1130A807091F001C5010E94F814ADB7BEB71C9671
S1130A900FB6F894DEBF0FBECDBFCE018F589F4F67
S1130AA02CE0FC01A1E3B2E001900D922A95E1F75C
S1130AB02091590130915A0140915B0150915C01A0
S1130AC0FE017196CE01875A9F4F49015A01DC01FC
S1130AD0CC90DC011196DC90DC011296EC90DC01E8
S1130AE01396FC90DC0114960C91DC0115961C9174
S1130AF0DC0116962C91DC0117963C91DC011896CA
S1130B004C91DC0119965C91DC011A966C91DC0124
S1130B101B967C91CF010E947B145E01B1E7AB0E62
S1130B20B11C8DB79EB70C970FB6F8949EBF0FBE3D
S1130B308DBF8DB79EB701962CE0FE017196DC0146
S1130B4001900D922A95E1F7C090E501D090E6015D
S1130B50E090E701F090E8010091E9011091EA01C9
S1130B602091EB013091EC014091ED015091EE01A7
S1130B706091EF017091F001C5010E94F814ADB7C6
S1130B80BEB71C960FB6F894DEBF0FBECDBFCE0124
S1130B908F589F4F2CE0FC01ADE3B2E001900D9221
S1130BA02A95E1F7FE01359629813A814B815C81D2
S1130BB0CE01835B9F4F49015A01DC01CC90DC01DB
S1130BC01196DC90DC011296EC90DC011396FC90FB
S1130BD0DC0114960C91DC0115961C91DC0116962F
S1130BE02C91DC0117963C91DC0118964C91DC01A8
S1130BF019965C91DC011A966C91DC011B967C9130
S1130C00CF010E947B145E01B1E7AB0EB11C8DB71E
S1130C109EB70C970FB6F8949EBF0FBE8DBF8DB7CD
S1130C209EB701962CE0FE013596DC0101900D92F1
S1130C302A95E1F7C0909101D0909201E090930140
S1130C40F0909401009195011091960120919701E3
S1130C50309198014091990150919A0160919B01C2
S1130C6070919C01C5010E94F814ADB7BEB71C96E3
S1130C700FB6F894DEBF0FBECDBFCE018F589F4F85
S1130C802CE0FC01A9E4B2E001900D922A95E1F771
S1130C900000C458DF4F0FB6F894DEBF0FBECDBFBF
S1130CA0DF91CF911F910F91FF90EF90DF90CF9044
S1130CB0BF90AF909F908F9008958F929F92AF9224
S1130CC0BF92CF92DF92EF92FF920F931F93CF9335
S1130CD0DF93CDB7DEB7CC57D1090FB6F894DEBF9A
S1130CE00FBECDBF8091550190915601A09157013F
S1130CF0B09158019C01AD0160E070E080E89FE391
S1130D000E94411CDC01CB0189839A83AB83BC83A1
S1130D105E018DE4A80EB11CADB7BEB71C970FB62B
S1130D20F894BEBF0FBEADBF8DB79EB701962CE041
S1130D30E1EFF1E0DC0101900D922A95E1F7C0901A
S1130D407901D0907A01E0907B01F0907C010091D0
S1130D507D0110917E0120917F01309180014091AD
S1130D608101509182016091830170918401C501D8
S1130D700E9466158DB79EB70C960FB6F894DEBF29
S1130D800FBECDBF5E0199E5A90EB11CADB7BEB7CC
S1130D901C970FB6F894BEBF0FBEADBF8DB79EB7FC
S1130DA001962CE0E9E7F1E0DC0101900D922A952F
S1130DB0E1F7C0908501D0908601E0908701F09022
S1130DC088010091890110918A0120918B01309151
S1130DD08C0140918D0150918E0160918F01709131
S1130DE09001C5010E9466158DB79EB70C960FB68B
S1130DF0F894DEBF0FBECDBF5E0195E6A90EB11C0F
S1130E00ADB7BEB71C970FB6F894BEBF0FBEADBF4B
S1130E108DB79EB701962CE0E5E8F1E0DC01019086
S1130E200D922A95E1F7C090F101D090F201E09083
S1130E30F301F090F4010091F5011091F601209175
S1130E40F7013091F8014091F9015091FA01609154
S1130E50FB017091FC01C5010E9466158DB79EB718
S1130E600C960FB6F894DEBF0FBECDBFFE01EF5B4C
S1130E70FF4F29813A814B815C81CE01835B9F4F77
S1130E8049015A01DC01CC90DC011196DC90DC01B3
S1130E901296EC90DC011396FC90DC0114960C91F4
S1130EA0DC0115961C91DC0116962C91DC01179639
S1130EB03C91DC0118964C91DC0119965C91DC01A3
S1130EC01A966C91DC011B967C91CF010E947B14D5
S1130ED05E01B1E7AB0EB11C8DB79EB70C970FB690
S1130EE0F8949EBF0FBE8DBF8DB79EB701962CE0C0
S1130EF0FE01EF5BFF4FDC0101900D922A95E1F7B3
S1130F00C090F101D090F201E090F301F090F4016F
S1130F100091F5011091F6012091F7013091F8014B
S1130F204091F9015091FA016091FB017091FC012B
S1130F30C5010E94F814ADB7BEB71C960FB6F8945D
S1130F40DEBF0FBECDBFCE018F589F4F2CE0FC01FA
S1130F50ADE9B1E001900D922A95E1F72091550198
S1130F60309156014091570150915801FE01F59678
S1130F70CE01835B9F4F49015A01DC01CC90DC0117
S1130F801196DC90DC011296EC90DC011396FC9037
S1130F90DC0114960C91DC0115961C91DC0116966B
S1130FA02C91DC0117963C91DC0118964C91DC01E4
S1130FB019965C91DC011A966C91DC011B967C916C
S1130FC0CF010E947B145E01B1E7AB0EB11C8DB75B
S1130FD09EB70C970FB6F8949EBF0FBE8DBF8DB70A
S1130FE09EB701962CE0FE01F596DC0101900D926E
S1130FF02A95E1F7C090F101D090F201E090F3015D
S1131000F090F4010091F5011091F6012091F7019F
S11310103091F8014091F9015091FA016091FB017E
S11310207091FC01C5010E94F814ADB7BEB71C96BF
S11310300FB6F894DEBF0FBECDBFCE018F589F4FC1
S11310402CE0FC01A9EAB1E001900D922A95E1F7A8
S1131050FE01B99629813A814B815C81CE018B597D
S11310609F4F49015A01DC01CC90DC011196DC90C0
S1131070DC011296EC90DC011396FC90DC011496D2
S11310800C91DC0115961C91DC0116962C91DC0167
S113109017963C91DC0118964C91DC0119965C91F1
S11310A0DC011A966C91DC011B967C91CF010E94A5
S11310B07B145E01B1E7AB0EB11C8DB79EB70C97E4
S11310C00FB6F8949EBF0FBE8DBF8DB79EB7019625
S11310D02CE0FE01B996DC0101900D922A95E1F70E
S11310E0C0908501D0908601E0908701F09088013E
S11310F00091890110918A0120918B0130918C011A
S113110040918D0150918E0160918F0170919001F9
S1131110C5010E94F814ADB7BEB71C960FB6F8947B
S1131120DEBF0FBECDBFCE018F589F4F2CE0FC0118
S1131130A5EBB1E001900D922A95E1F720915501BC
S1131140309156014091570150915801FE017D960E
S1131150CE018B599F4F49015A01DC01CC90DC012F
S11311601196DC90DC011296EC90DC011396FC9055
S1131170DC0114960C91DC0115961C91DC01169689
S11311802C91DC0117963C91DC0118964C91DC0102
S113119019965C91DC011A966C91DC011B967C918A
S11311A0CF010E947B145E01B1E7AB0EB11C8DB779
S11311B09EB70C970FB6F8949EBF0FBE8DBF8DB728
S11311C09EB701962CE0FE017D96DC0101900D9204
S11311D02A95E1F7C0908501D0908601E0908701BF
S11311E0F09088010091890110918A0120918B016E
S11311F030918C0140918D0150918E0160918F014D
S113120070919001C5010E94F814ADB7BEB71C9649
S11312100FB6F894DEBF0FBECDBFCE018F589F4FDF
S11312202CE0FC01A1ECB1E001900D922A95E1F7CC
S1131230FE01719629813A814B815C81CE01875AE6
S11312409F4F49015A01DC01CC90DC011196DC90DE
S1131250DC011296EC90DC011396FC90DC011496F0
S11312600C91DC0115961C91DC0116962C91DC0185
S113127017963C91DC0118964C91DC0119965C910F
S1131280DC011A966C91DC011B967C91CF010E94C3
S11312907B145E01B1E7AB0EB11C8DB79EB70C9702
S11312A00FB6F8949EBF0FBE8DBF8DB79EB7019643
S11312B02CE0FE017196DC0101900D922A95E1F774
S11312C0C0907901D0907A01E0907B01F0907C018C
S11312D000917D0110917E0120917F013091800168
S11312E04091810150918201609183017091840148
S11312F0C5010E94F814ADB7BEB71C960FB6F8949A
S1131300DEBF0FBECDBFCE018F589F4F2CE0FC0136
S1131310ADECB1E001900D922A95E1F720915501D1
S1131320309156014091570150915801FE01359674
S1131330CE01875A9F4F49015A01DC01CC90DC0150
S11313401196DC90DC011296EC90DC011396FC9073
S1131350DC0114960C91DC0115961C91DC011696A7
S11313602C91DC0117963C91DC0118964C91DC0120
S113137019965C91DC011A966C91DC011B967C91A8
S1131380CF010E947B145E01B1E7AB0EB11C8DB797
S11313909EB70C970FB6F8949EBF0FBE8DBF8DB746
S11313A09EB701962CE0FE013596DC0101900D926A
S11313B02A95E1F7C0907901D0907A01E0907B0101
S11313C0F0907C0100917D0110917E0120917F01BC
S11313D0309180014091810150918201609183019B
S11313E070918401C5010E94F814ADB7BEB71C9674
S11313F00FB6F894DEBF0FBECDBFCE018F589F4FFE
S11314002CE0FC01A9EDB1E001900D922A95E1F7E1
S11314100000C458DF4F0FB6F894DEBF0FBECDBF37
S1131420DF91CF911F910F91FF90EF90DF90CF90BC
S1131430BF90AF909F908F900895EF92FF920F937B
S11314401F93CF93DF93CDB7DEB760970FB6F894B1
S1131450DEBF0FBECDBF8091000190910101A0912C
S11314600201B091030120E030E040EC50E4BC0103
S1131470CD010E94221DDC01CB017C018D018091F4
S1131480750190917601A0917701B09178019C014A
S1131490AD01C801B7010E949C1EDC01CB01898308
S11314A09A83AB83BC8389819A81AB81BC819C0183
S11314B0AD01BC01CD010E94421CDC01CB018D8336
S11314C09E83AF83B8878091750190917601A09136
S11314D07701B0917801B05820E030E040E050E46A
S11314E0BC01CD010E94221DDC01CB019C01AD0198
S11314F089819A81AB81BC81B0582093F1013093EA
S1131500F2014093F3015093F4018093F501909319
S1131510F601A093F701B093F8011092F90110922B
S1131520FA011092FB011092FC01809175019091D7
S11315307601A0917701B091780120E030E040E09D
S113154050E4BC01CD010E94221DDC01CB019C01B1
S1131550AD0189819A81AB81BC81B0582093790116
S113156030937A0140937B0150937C0180937D01F9
S113157090937E01A0937F01B0938001109281012A
S113158010928201109283011092840110928501BD
S11315901092860110928701109288018D819E819C
S11315A0AF81B8858093890190938A01A0938B01C0
S11315B0B0938C0110928D0110928E0110928F01C4
S11315C0109290018091000190910101A09102017B
S11315D0B091030120E030E040EC50E4BC01CD01C7
S11315E00E94221DDC01CB017C018D018091FD0153
S11315F09091FE01A091FF01B09100029C01AD0108
S1131600C801B7010E949C1EDC01CB0189879A871F
S1131610AB87BC8789859A85AB85BC859C01AD0168
S1131620BC01CD010E94421CDC01CB018D879E8749
S1131630AF87B88B8D859E85AF85B889B0581092D9
S1131640910110929201109293011092940180934F
S1131650950190939601A0939701B09398011092ED
S1131660990110929A0110929B0110929C01809111
S1131670FD019091FE01A091FF01B091000220E0D4
S113168030E040E050E4BC01CD010E94221DDC01A9
S1131690CB018093E5019093E601A093E701B09319
S11316A0E80189859A85AB85BC858093E90190938F
S11316B0EA01A093EB01B093EC011092ED011092BA
S11316C0EE011092EF011092F0018091FD019091D2
S11316D0FE01A091FF01B0910002B05820E030E07B
S11316E040E050E4BC01CD010E94221DDC01CB018D
S11316F08093010290930202A0930302B093040228
S113170089859A85AB85BC858093050290930602F2
S1131710A0930702B09308021092090210920A02E1
S113172010920B0210920C02000060960FB6F8940F
S1131730DEBF0FBECDBFDF91CF911F910F91FF9000
S1131740EF900895AF92BF92CF92DF92EF92FF9203
S11317500F931F93CF93DF93CDB7DEB76A970FB67E
S1131760F894DEBF0FBECDBFEF86F88A098B1A8BC3
S11317702B8B3C8B4D8B5E8B6F8B788F898F9A8FE5
S11317801A821982C5C05E0123E0A20EB11C298110
S11317903A81C901880F991F820F931F880F991FDF
S11317A0880F991F9C01235F3D4F8DB79EB70C97FF
S11317B00FB6F8949EBF0FBE8DBF8DB79EB701962E
S11317C04CE0F901DC0101900D924A95E1F7298181
S11317D03A81C901880F991F820F931F880F991F9F
S11317E0880F991F9C0123563E4FEDB7FEB73C97D7
S11317F00FB6F894FEBF0FBEEDBF8DB79EB701962E
S11318004CE0F901DC0101900D924A95E1F72DB706
S11318103EB7205131090FB6F8943EBF0FBE2DBF1D
S11318208DB79EB7019620E1FE01B796DC010190C9
S11318300D922A95E1F7CF84D888E988FA880B8934
S11318401C892D893E894F89588D698D7A8DC501F2
S113185014D38DB79EB788960FB6F894DEBF0FBE2B
S1131860CDBF89819A81880F991F880F991F835A48
S11318709E4FFC012081318142815381809151012D
S113188090915201A0915301B0915401E0905502FE
S1131890F09056020091570210915802652F6F93F1
S11318A0642F6F93632F6F932F932B2F2F932A2FD4
S11318B02F93292F2F938F9357016801EB80FC807E
S11318C00D811E812F81388549855A856B857C85DC
S11318D08D859E8535D02DB73EB7285F3F4F0FB617
S11318E0F894DEBF0FBECDBFDC01CB0129813A8164
S11318F0220F331F220F331F205F3E4FF9018083D5
S11319009183A283B38389819A8101969A8389837F
S113191089819A8106970CF436CF80E191E06A962A
S11319200FB6F894DEBF0FBECDBFDF91CF911F91EC
S11319300F91FF90EF90DF90CF90BF90AF900895FC
S1131940AF92BF92CF92DF92EF92FF920F931F93C9
S1131950CF93DF93CDB7DEB76C970FB6F894DEBFA5
S11319600FBECDBFED86FE860F87188B298B3A8B71
S11319704B8B5C8B6D8B7E8B8F8B988FA98EBA8EE5
S1131980CB8EDC8E89A59AA5ABA5BCA5AD84BE84FF
S1131990CF84D888E988FA880B891C892D893E89E7
S11319A04F89588DBC01CD0174D0DC01CB018983F2
S11319B09A83AB83BC8389A59AA5ABA5BCA528A9AA
S11319C02F932FA52F932EA52F932DA52F93AD8461
S11319D0BE84CF84D888E988FA880B891C892D892C
S11319E03E894F89588DBC01CD01A2D00F900F9034
S11319F00F900F90DC01CB018D839E83AF83B8875A
S1131A0089A59AA5ABA5BCA52C8D2F932B8D2F93BF
S1131A102A8D2F93298D2F93AD84BE84CF84D888AB
S1131A20E988FA880B891C892D893E894F89588D4C
S1131A30BC01CD010AD10F900F900F900F90DC01E3
S1131A40CB0189879A87AB87BC87E984FA840B85A5
S1131A501C852D813E814F81588589819A81AB8176
S1131A60BC81BC01CD0186D1DC01CB01BC01CD011F
S1131A706C960FB6F894DEBF0FBECDBFDF91CF9149
S1131A801F910F91FF90EF90DF90CF90BF90AF9098
S1131A900895AF92BF92CF92DF92EF92FF920F938D
S1131AA01F93CF93DF93CDB7DEB760970FB6F8944B
S1131AB0DEBF0FBECDBF69837A838B839C83AD82E7
S1131AC0BE82CF82D886E986FA860B871C872D874B
S1131AD03E874F87588B89819A81AB81BC819C0159
S1131AE0AD01BC01CD010E94421CDC01CB017C0193
S1131AF08D018D859E85AF85B8899C01AD01C80196
S1131B00B7010E949C1EDC01CB01BC01CD01609693
S1131B100FB6F894DEBF0FBECDBFDF91CF911F91FA
S1131B200F91FF90EF90DF90CF90BF90AF9008950A
S1131B304F925F926F927F928F929F92AF92BF92D9
S1131B40CF92DF92EF92FF920F931F93CF93DF9385
S1131B50CDB7DEB760970FB6F894DEBF0FBECDBF2A
S1131B6069837A838B839C83AD82BE82CF82D8863D
S1131B70E986FA860B871C872D873E874F87588B0B
S1131B8089819A81AB81BC819C01AD01BC01CD01ED
S1131B900E94421CDC01CB016C017D018BA19CA144
S1131BA0ADA1BEA1BC01CD010E941F1D4B015C0172
S1131BB08D819E81AF81B8859C01AD01C501B401C1
S1131BC00E949C1EDC01CB014C015D018BA19CA1F8
S1131BD0ADA1BEA1BC01CD010E94FF1E2B013C01A1
S1131BE089859A85AB85BC859C01AD01C301B20191
S1131BF00E949C1EDC01CB019C01AD01C501B40116
S1131C000E94421CDC01CB019C01AD01C701B6015D
S1131C100E949C1EDC01CB01BC01CD0160960FB675
S1131C20F894DEBF0FBECDBFDF91CF911F910F910E
S1131C30FF90EF90DF90CF90BF90AF909F908F90E8
S1131C407F906F905F904F900895AF92BF92CF9224
S1131C50DF92EF92FF920F931F93CF93DF93CDB751
S1131C60DEB76C970FB6F894DEBF0FBECDBF6D879D
S1131C707E878F87988BA98ABA8ACB8ADC8AED8A79
S1131C80FE8A0F8B188F298F3A8F4B8F5C8FE988D0
S1131C90FA880B891C892D893E894F89588D698D55
S1131CA07A8D8B8D9C8DF6D75B016C01E988FA885F
S1131CB00B891C892D893E894F89588D698D7A8DB0
S1131CC08B8D9C8DE7D7DC01CB019C01AD01C60156
S1131CD0B5010E949C1EDC01CB0189839A83AB83EE
S1131CE0BC8329A53AA54BA55CA569A57AA58BA5B6
S1131CF09CA50E949C1EDC01CB018D839E83AF8337
S1131D00B8872D853E854F8558896D857E858F855D
S1131D1098890E949C1EDC01CB0189879A87AB8736
S1131D20BC8729853A854B855C856D817E818F8151
S1131D3098850E94411CDC01CB019C01AD016981A5
S1131D407A818B819C810E94411CDC01CB01BC0106
S1131D50CD016C960FB6F894DEBF0FBECDBFDF91F8
S1131D60CF911F910F91FF90EF90DF90CF90BF9094
S1131D70AF900895CF92DF92EF92FF920F931F934B
S1131D80CF93DF93CDB7DEB760970FB6F894DEBF7D
S1131D900FBECDBF6D837E838F83988729873A8753
S1131DA04B875C87ED86FE860F87188B2D813E81DD
S1131DB04F8158856D817E818F8198850E949C1EFC
S1131DC0DC01CB016C017D0129853A854B855C855D
S1131DD069857A858B859C850E949C1EDC01CB01DC
S1131DE09C01AD01C701B6010E94421CDC01CB017C
S1131DF0BC01CD010E94091FDC01CB019C01AD0196
S1131E006D857E858F8598890E94221DDC01CB011A
S1131E10BC01CD010E94A61C6B017C012D813E8179
S1131E204F81588589859A85AB85BC85BC01CD01D8
S1131E300E94CC1CDC01CB019C01AD01C701B601A1
S1131E400E94411CDC01CB0189839A83AB83BC8350
S1131E5089819A81AB81BC81BC01CD0160960FB6AA
S1131E60F894DEBF0FBECDBFDF91CF911F910F91CC
S1131E70FF90EF90DF90CF900895AF92BF92CF92F2
S1131E80DF92EF92FF920F931F93CF93DF93CDB71F
S1131E90DEB7A6970FB6F894DEBF0FBECDBF9A8FFC
S1131EA0898FCB8EDC8EED8EFE8E0F8F18A329A327
S1131EB03AA34BA35CA36DA37EA35E018DE0A80EA1
S1131EC0B11C8DB79EB740970FB6F8949EBF0FBE56
S1131ED08DBF8DB79EB7019620E1FE01F396DC011C
S1131EE001900D922A95E1F76096CFAC60976196C8
S1131EF0DFAC61976296EFAC62976396FFAC639731
S1131F0064960FAD649765961FAD659766962FAD81
S1131F10669767963FAD679768964FAD68976996E1
S1131F205FAD69976A966FAD6A976B967FAD6B9755
S1131F30C5010DD78DB79EB740960FB6F894DEBF96
S1131F400FBECDBF8DB79EB70C970FB6F8949EBF4A
S1131F500FBE8DBF8DB79EB701962CE0FE013D9656
S1131F60DC0101900D922A95E1F7CB8CDC8CED8C91
S1131F70FE8C0F8D18A129A13AA14BA15CA16DA1E2
S1131F807EA1CE01019634D58DB79EB70C960FB6BF
S1131F90F894DEBF0FBECDBFA98CBA8C8DB79EB7A7
S1131FA00C970FB6F8949EBF0FBE8DBF8DB79EB72A
S1131FB001962CE0FE01ED5BFF4FDC0101900D92D8
S1131FC02A95E1F7C980DA80EB80FC800D811E81BF
S1131FD02F81388549855A856B857C85C50176D5E1
S1131FE08DB79EB70C960FB6F894DEBF0FBECDBF6B
S1131FF0898D9A8DA6960FB6F894DEBF0FBECDBF1D
S1132000DF91CF911F910F91FF90EF90DF90CF90D0
S1132010BF90AF900895CF92DF92EF92FF920F930B
S11320201F93CF93DF93CDB7DEB76E970FB6F894B7
S1132030DEBF0FBECDBF9A8B898BCB8ADC8AED8A3B
S1132040FE8A0F8B188F298F3A8F4B8F5C8F6D8F81
S11320507E8F19821A821B821C828B899C89AD898E
S1132060BE898D839E83AF83B8878F89988DA98D10
S1132070BA8D89879A87AB87BC878B8D9C8DAD8DF4
S1132080BE8D8D879E87AF87B88B89899A8940E1F9
S11320909E012F5F3F4FF901DC0101900D924A959B
S11320A0E1F789899A896E960FB6F894DEBF0FBE60
S11320B0CDBFDF91CF911F910F91FF90EF90DF90F3
S11320C0CF9008958F929F92AF92BF92CF92DF925A
S11320D0EF92FF920F931F93CF93DF93CDB7DEB7A9
S11320E0AA970FB6F894DEBF0FBECDBF9A8F898F23
S11320F0CB8EDC8EED8EFE8E0F8F18A329A33AA310
S11321004BA35CA36DA37EA38FA298A6A9A6BAA68F
S113211020E030E040E050E46FA178A589A59AA5BD
S11321200E94221DDC01CB0189839A83AB83BC838B
S113213089819A81AB81BC81BC01CD010E94FF1EC3
S1132140DC01CB018D839E83AF83B88789819A811B
S1132150AB81BC81BC01CD010E941F1DDC01CB0100
S113216089879A87AB87BC878B8D9C8DAD8DBE8DFF
S11321702D813E814F815885BC01CD010E949C1E5A
S1132180DC01CB018D879E87AF87B88B8F8D98A19B
S1132190A9A1BAA12D813E814F815885BC01CD01F1
S11321A00E949C1EDC01CB01898B9A8BAB8BBC8B70
S11321B08BA19CA1ADA1BEA12D813E814F815885EB
S11321C0BC01CD010E949C1EDC01CB018D8B9E8B3A
S11321D0AF8BB88F898D9A8D20E1FE013996DC0191
S11321E001900D922A95E1F7898D9A8DAA960FB6E2
S11321F0F894DEBF0FBECDBFDF91CF911F910F9139
S1132200FF90EF90DF90CF90BF90AF909F908F9012
S113221008958F929F92AF92BF92CF92DF92EF92E6
S1132220FF920F931F93CF93DF93CDB7DEB7A2979F
S11322300FB6F894DEBF0FBECDBF9A8B898B8B8A05
S11322409C8AAD8ABE8ACF8AD88EE98EFA8E0B8F8D
S11322501C8F2D8F3E8F4F8F58A369A37AA38B8930
S11322609C89AD89BE8989839A83AB83BC838F891A
S1132270988DA98DBA8DB0588D839E83AF83B8870E
S11322808B8D9C8DAD8DBE8DB05889879A87AB8719
S1132290BC878F8D98A1A9A1BAA1B0588D879E87BC
S11322A0AF87B88B89899A8940E19E012F5F3F4FA0
S11322B0F901DC0101900D924A95E1F789899A8927
S11322C0A2960FB6F894DEBF0FBECDBFDF91CF91BB
S11322D01F910F91FF90EF90DF90CF90BF90AF9040
S11322E09F908F9008958F929F92AF92BF92CF92BA
S11322F0DF92EF92FF920F931F93CF93DF93CDB7AB
S1132300DEB7A2970FB6F894DEBF0FBECDBF9A8B8F
S1132310898B8B8A9C8AAD8ABE8ACF8AD88EE98EB5
S1132320FA8E0B8F1C8F2D8F3E8F4F8F58A369A36E
S11323307AA38B899C89AD89BE8929A93AA94BA91D
S11323405CA9BC01CD010E949C1EDC01CB016C0187
S11323507D018F89988DA98DBA8D2DA93EA94FA98C
S113236058ADBC01CD010E949C1EDC01CB019C0137
S1132370AD01C701B6010E94411CDC01CB016C0117
S11323807D018B8D9C8DAD8DBE8D29AD3AAD4BAD50
S11323905CADBC01CD010E949C1EDC01CB019C0103
S11323A0AD01C701B6010E94411CDC01CB016C01E7
S11323B07D018F8D98A1A9A1BAA121962CAD3DAD27
S11323C04EAD5FAD2197BC01CD010E949C1EDC0186
S11323D0CB019C01AD01C701B6010E94411CDC0187
S11323E0CB0189839A83AB83BC838B899C89AD8918
S11323F0BE892DA93EA94FA958ADBC01CD010E94AB
S11324009C1EDC01CB016C017D018F89988DA98D07
S1132410BA8D29A93AA94BA95CA9BC01CD010E9496
S11324209C1EDC01CB019C01AD01C701B6010E94D9
S1132430421CDC01CB016C017D018B8D9C8DAD8D2B
S1132440BE8D21962CAD3DAD4EAD5FAD2197BC0147
S1132450CD010E949C1EDC01CB019C01AD01C70192
S1132460B6010E94421CDC01CB016C017D018F8D01
S113247098A1A9A1BAA129AD3AAD4BAD5CADBC01FF
S1132480CD010E949C1EDC01CB019C01AD01C70162
S1132490B6010E94411CDC01CB018D839E83AF8376
S11324A0B8878B899C89AD89BE8929AD3AAD4BAD7E
S11324B05CADBC01CD010E949C1EDC01CB016C0112
S11324C07D018F89988DA98DBA8D21962CAD3DAD56
S11324D04EAD5FAD2197BC01CD010E949C1EDC0175
S11324E0CB019C01AD01C701B6010E94411CDC0176
S11324F0CB016C017D018B8D9C8DAD8DBE8D29A989
S11325003AA94BA95CA9BC01CD010E949C1EDC0127
S1132510CB019C01AD01C701B6010E94421CDC0144
S1132520CB016C017D018F8D98A1A9A1BAA12DA920
S11325303EA94FA958ADBC01CD010E949C1EDC01EF
S1132540CB019C01AD01C701B6010E94421CDC0114
S1132550CB0189879A87AB87BC878B899C89AD8996
S1132560BE8921962CAD3DAD4EAD5FAD2197BC012A
S1132570CD010E949C1EDC01CB016C017D018F8981
S1132580988DA98DBA8D29AD3AAD4BAD5CADBC012A
S1132590CD010E949C1EDC01CB019C01AD01C70151
S11325A0B6010E94421CDC01CB016C017D018B8DC4
S11325B09C8DAD8DBE8D2DA93EA94FA958ADBC01F2
S11325C0CD010E949C1EDC01CB019C01AD01C70121
S11325D0B6010E94411CDC01CB016C017D018F8D91
S11325E098A1A9A1BAA129A93AA94BA95CA9BC019E
S11325F0CD010E949C1EDC01CB019C01AD01C701F1
S1132600B6010E94421CDC01CB018D879E87AF87F7
S1132610B88B89899A8940E19E012F5F3F4FF90168
S1132620DC0101900D924A95E1F789899A89A29675
S11326300FB6F894DEBF0FBECDBFDF91CF911F91CF
S11326400F91FF90EF90DF90CF90BF90AF909F904D
S11326508F900895CF93DF93CDB7DEB729970FB648
S1132660F894DEBF0FBECDBF9F838E8368874987F2
S113267098858985981708F0C3C088858B838885D9
S1132680898389858A8373C089818F5F89838981DE
S1132690882F90E0880F991F2E813F81820F931F0E
S11326A0FC0140818B81882F90E0880F991F2E8137
S11326B03F81820F931FFC018081841740F0998130
S11326C08985981708F303C08A8181508A838A8197
S11326D0882F90E0880F991F2E813F81820F931FCE
S11326E0FC0140818B81882F90E0880F991F2E81F7
S11326F03F81820F931FFC018081841728F3998105
S11327008A819817A0F58981882F90E0880F991FF6
S11327102E813F81820F931FFC01808191819D83D3
S11327208C838981882F90E0880F991F2E813F81A7
S1132730820F931F2A81222F30E0220F331F4E81F4
S11327405F81240F351FF90120813181FC01318320
S113275020838A81882F90E0880F991F2E813F81E2
S1132760820F931F2C813D81FC0131832083998149
S11327708A81981708F48BCF8B81882F90E0880F7B
S1132780991F2E813F81820F931FFC0180819181CB
S11327909D838C838B81882F90E0880F991F2E81D5
S11327A03F81820F931F2A81222F30E0220F331F93
S11327B04E815F81240F351FF90120813181FC0195
S11327C0318320838A81882F90E0880F991F2E817E
S11327D03F81820F931F2C813D81FC013183208333
S11327E08A812FEF280F8E819F81422F688532DFE7
S11327F08A8121E0280F8E819F814985622F2ADFFB
S11328008E819F8129960FB6F894DEBF0FBECDBF8F
S1132810DF91CF910895CF93DF9300D0CDB7DEB78A
S11328209A83898389819A8145E060E013DF0F9060
S11328300F90DF91CF9108958F929F92AF92BF92A4
S1132840CF92DF92EF92FF920F931F93CF93DF9378
S1132850CDB7DEB76E970FB6F894DEBF0FBECDBF0F
S11328609E878D878F86988AA98ABA8ACB8ADC8AC2
S1132870ED8AFE8A0F8B188F298F3A8F4B8F5C8FCE
S11328806D8F7E8F8B899C89AD89BE8989839A835C
S1132890AB83BC838F89988DA98DBA8D8D839E83DC
S11328A0AF83B8878B8D9C8DAD8DBE8D89879A87BC
S11328B0AB87BC878D859E854CE09E012F5F3F4F83
S11328C0F901DC0101900D924A95E1F78D859E8511
S11328D06E960FB6F894DEBF0FBECDBFDF91CF91D9
S11328E01F910F91FF90EF90DF90CF90BF90AF902A
S11328F09F908F9008958F929F92AF92BF92CF92A4
S1132900DF92EF92FF920F931F93CF93DF93CDB794
S1132910DEB76E970FB6F894DEBF0FBECDBF9E87AD
S11329208D87CF86D88AE98AFA8A0B8B1C8B2D8BEC
S11329303E8B4F8B588F698F7A8F8B8E9C8EAD8E8A
S1132940BE8E8F859889A989BA892B8D3C8D4D8D32
S11329505E8DBC01CD010E949C1EDC01CB018983EC
S11329609A83AB83BC838B899C89AD89BE892B8D6B
S11329703C8D4D8D5E8DBC01CD010E949C1EDC0101
S1132980CB018D839E83AF83B8878F89988DA98D62
S1132990BA8D2B8D3C8D4D8D5E8DBC01CD010E9479
S11329A09C1EDC01CB0189879A87AB87BC878D8508
S11329B09E854CE09E012F5F3F4FF901DC010190A1
S11329C00D924A95E1F78D859E856E960FB6F89423
S11329D0DEBF0FBECDBFDF91CF911F910F91FF904E
S11329E0EF90DF90CF90BF90AF909F908F9008951D
S11329F0CF92DF92EF92FF920F931F93CF93DF93C7
S1132A00CDB7DEB76A970FB6F894DEBF0FBECDBF61
S1132A109E878D87CF86D88AE98AFA8A0B8B1C8B8E
S1132A202D8B3E8B4F8B588F698F7A8F8F8598892A
S1132A30A989BA892DA13EA14FA158A5BC01CD01F8
S1132A4021D7DC01CB0189839A83AB83BC838B8937
S1132A509C89AD89BE8929A53AA54BA55CA5BC0175
S1132A60CD0110D7DC01CB018D839E83AF83B88762
S1132A708F89988DA98DBA8D2DA53EA54FA558A9EE
S1132A80BC01CD01FFD6DC01CB0189879A87AB87D6
S1132A90BC878D859E854CE09E012F5F3F4FF901D9
S1132AA0DC0101900D924A95E1F78D859E856A9629
S1132AB00FB6F894DEBF0FBECDBFDF91CF911F914B
S1132AC00F91FF90EF90DF90CF9008958F929F9297
S1132AD0AF92BF92CF92DF92EF92FF920F931F9328
S1132AE0CF93DF93CDB7DEB76A970FB6F894DEBF06
S1132AF00FBECDBF9E878D87CF86D88AE98AFA8A92
S1132B000B8B1C8B2D8B3E8B4F8B588F698F7A8F41
S1132B100F2E812C912CF0E8AF2EFFEBBF2EF02D61
S1132B20C9A4DAA4EBA4FCA40DA51EA52FA538A95D
S1132B3049A95AA96BA97CA9CE010196DCDEAD8412
S1132B40BE848DB79EB70C970FB6F8949EBF0FBE88
S1132B508DBF8DB79EB701964CE09E012F5F3F4F0E
S1132B60F901DC0101900D924A95E1F7CF84D888F0
S1132B70E988FA880B891C892D893E894F89588DEB
S1132B80698D7A8DC50134DF8DB79EB70C960FB66B
S1132B90F894DEBF0FBECDBF8D859E856A960FB6B5
S1132BA0F894DEBF0FBECDBFDF91CF911F910F917F
S1132BB0FF90EF90DF90CF90BF90AF909F908F9059
S1132BC00895CF92DF92EF92FF920F931F93CF93CA
S1132BD0DF93CDB7DEB72C970FB6F894DEBF0FBEE8
S1132BE0CDBFE982FA820B831C832D833E834F83FE
S1132BF0588769877A878B879C8789819A81AB817B
S1132C00BC812F89388D498D5A8DBC01CD010E941C
S1132C109C1EDC01CB016C017D018D819E81AF8105
S1132C20B8852B8D3C8D4D8D5E8DBC01CD010E94F0
S1132C309C1EDC01CB019C01AD01C701B60122D66B
S1132C40DC01CB016C017D0189859A85AB85BC854E
S1132C502F8D38A149A15AA1BC01CD010E949C1E0F
S1132C60DC01CB019C01AD01C701B6010BD6DC012F
S1132C70CB01BC01CD012C960FB6F894DEBF0FBE7C
S1132C80CDBFDF91CF911F910F91FF90EF90DF9017
S1132C90CF900895EF92FF920F931F93CF93DF93FA
S1132CA0CDB7DEB72C970FB6F894DEBF0FBECDBFFD
S1132CB0E982FA820B831C832D833E834F835887DA
S1132CC069877A878B879C872DB73EB72C5031094B
S1132CD00FB6F8943EBF0FBE2DBF8DB79EB70196B9
S1132CE04CE09E012F5F3F4FF901DC0101900D92F2
S1132CF04A95E1F7E980FA800B811C812D813E81A0
S1132D004F81588569857A858B859C855ADF2DB7D7
S1132D103EB7245F3F4F0FB6F894DEBF0FBECDBF62
S1132D20DC01CB01BC01CD010E94091FDC01CB01F8
S1132D30BC01CD012C960FB6F894DEBF0FBECDBFFB
S1132D40DF91CF911F910F91FF90EF9008956F92B3
S1132D507F928F929F92AF92BF92CF92DF92EF9227
S1132D60FF920F931F93CF93DF93CDB7DEB7CE546B
S1132D70D1090FB6F894DEBF0FBECDBFFE01EF5BE5
S1132D80FF4F91838083CE018D5B9F4FDC01CC92FA
S1132D90FC01D182DC011296EC92FC01F382DC018D
S1132DA014960C93FC011583DC0116962C93FC01FC
S1132DB03783DC0118964C93FC015187DC011A9689
S1132DC06C93FC017387FE01B196CE018D5B9F4F1E
S1132DD0DC01CC90DC011196DC90DC011296EC90C5
S1132DE0DC011396FC90DC0114960C91DC01159621
S1132DF01C91DC0116962C91DC0117963C91DC01A8
S1132E0018964C91DC0119965C91DC011A966C9130
S1132E10DC011B967C91CF01FED8CE014196A09691
S1132E208FACA097A1969FACA197A296AFACA297A6
S1132E30A396BFACA397A496CFACA497A596DFACFA
S1132E40A597A696EFACA697A796FFACA797A896CA
S1132E500FADA897A9961FADA997AA962FADAA97CB
S1132E60AB963FADAB97AC964FADAC97AD965FAD1F
S1132E70AD97AE966FADAE97AF967FADAF97C9D90C
S1132E80EDB7FEB770970FB6F894FEBF0FBEEDBF57
S1132E908DB79EB7019620E1FE01B196DC01019049
S1132EA00D922A95E1F7A0968FACA097A1969FACBE
S1132EB0A197A296AFACA297A396BFACA397A496F2
S1132EC0CFACA497A596DFACA597A696EFACA69732
S1132ED0A796FFACA797A8960FADA897A9961FAD84
S1132EE0A997AA962FADAA97AB963FADAB97AC9690
S1132EF04FADAC97AD965FADAD97AE966FADAE9757
S1132F00AF967FADAF97CE010196EDD98DB79EB741
S1132F1040960FB6F894DEBF0FBECDBF3E0191E3DD
S1132F20690E711CADB7BEB750970FB6F894BEBF0B
S1132F300FBEADBF8DB79EB7019620E1FE0171961D
S1132F40DC0101900D922A95E1F789809A80AB808B
S1132F50BC80CD80DE80EF80F88409851A852B85BE
S1132F603C854D855E856F857889C301BCD9EDB7F5
S1132F70FEB770960FB6F894DEBF0FBECDBFCE017C
S1132F808F5B9F4FDC01ED91FC9189A89AA8ABA8B7
S1132F90BCA8CDA8DEA8EFA8F8AC09AD1AAD2BAD3E
S1132FA03CAD4DAD5EAD6FADCE01805C9F4FDC019D
S1132FB07C91CF0141DCCE018F5B9F4FFC0180816E
S1132FC09181C25BDF4F0FB6F894DEBF0FBECDBF59
S1132FD0DF91CF911F910F91FF90EF90DF90CF90F1
S1132FE0BF90AF909F908F907F906F9008956F9255
S1132FF07F928F929F92AF92BF92CF92DF92EF9285
S1133000FF920F931F93CF93DF93CDB7DEB7AA97A9
S11330100FB6F894DEBF0FBECDBF81E290E02FEF74
S1133020FC01208382E290E02FEFFC01208380EBFF
S113303090E022E0FC01208381EB90E021E0FC01A0
S1133040208380E790E020E730E0F90120812260CE
S1133050FC01208383EB90E02FEFFC01208384E4C8
S113306090E022E0FC01208385E490E0FC011082E2
S11330708EE690E02EE630E0F90120812260FC012A
S1133080208387E490E02FEFFC01208378948EE383
S11330908F9387EC8F938EEA8F9384E18F938EE3E3
S11330A08F9389ED8F9389E98F938AE98F930F2EFC
S11330B0FFE8AF2EF2ECBF2EF5E7CF2EFCE3DF2EB8
S11330C0F02D1DECE12E1CECF12E0CEC1DE32FE198
S11330D035E84BE65EE360E070E080E89EE30E9442
S11330E0D1018DB79EB708960FB6F894DEBF0FBE18
S11330F0CDBF69D298878F83198221C08981282FF7
S113310030E08981882F90E0880F991F880F991FDC
S11331104F815885840F951F220F331F220F331FB1
S1133120275A3D4FFC0180819181A281B381F9012D
S113313080839183A283B38389818F5F898389810B
S11331408630E0F21B821A821D821C82CE010B960D
S113315000E010E028EC32E440E050E0BA010E94C4
S11331609A003E01FBE16F0E711C8DB79EB740972C
S11331700FB6F8949EBF0FBE8DBF8DB79EB7019654
S113318020E1FE013B96DC0101900D922A95E1F7C6
S11331908B849C84AD84BE84CF84D888E988FA88E3
S11331A00B891C892D893E894F89588D698D7A8DAB
S11331B0C30199D8EDB7FEB770960FB6F894DEBF89
S11331C00FBECDBF00D29A8789871E8221C08E810F
S11331D0282F30E08E81882F90E0880F991F880F68
S11331E0991F49855A85840F951F220F331F220F7B
S11331F0331F275A3D4FFC0180819181A281B38105
S1133200F90180839183A283B3838E818F5F8E8340
S11332108E818630E0F28A819B8101969B838A832A
S11332208A819B8122E330E0B9016DD6892B09F0B4
S11332308DCF8C819D8101969D838C838C819D8112
S113324023E030E0B9015FD6892B69F48FE892EC72
S1133250A5EFBCEB8093080190930901A0930A01A8
S1133260B0930B0173CF8C819D8123E030E0B901D1
S11332704AD6019749F4109208011092090110925C
S11332800A0110920B0162CF8C819D8123E030E012
S1133290B90139D6029769F48FE892ECA5EFBCE343
S11332A08093080190930901A0930A01B0930B0144
S11332B04DCF109208011092090110920A01109248
S11332C00B018FEF9FEF9D838C8340CF1F920F9252
S11332D000905F000F9211242F933F938F939F933D
S11332E0EF93FF93CF93DF93CDB7DEB780912A019D
S11332F090912B01019690932B0180932A0183EBEB
S113330090E02FEFFC01208380912A0190912B0102
S113331085339C4090F085E490E025E430E0F901A9
S113332020812160FC01208310922B0110922A013C
S113333082E290E02FE3FC0120830000DF91CF9133
S1133340FF91EF919F918F913F912F910F90009258
S11333505F000F901F9018951F920F9200905F00CE
S11333600F9211242F933F934F935F938F939F93C7
S1133370EF93FF93CF93DF93CDB7DEB7809128010E
S1133380909129010196909329018093280187E463
S113339090E02FEFFC01208380912C01882F90E096
S11333A0880F991F880F991F875A9D4FFC01208110
S11333B0318180912801909129012817390708F05B
S11333C097C087E490E020912C01222F30E0220F57
S11333D0331F220F331F255A3D4FF9012081FC0171
S11333E0208380912C01882F90E0880F991F880FEB
S11333F0991F845A9D4FFC018081282F30E081E081
S113340090E002C0880F991F2A95E2F7AC0140951D
S1133410509582E290E022E230E0F9012081322FDF
S1133420242F2323FC0120831092290110922801C8
S113343029C080912C01882F90E00196880F991F54
S1133440880F991F845A9D4FFC018081282F30E0FA
S113345081E090E002C0880F991F2A95E2F7AC0141
S11334604095509582E290E022E230E0F90120811B
S1133470322F242F2323FC01208380912C018F5F82
S113348080932C0180912C01882F90E0880F991F44
S1133490880F991F875A9D4FFC01208131818091AB
S11334A02C01882F90E00196880F991F880F991F8F
S11334B0875A9D4FFC01808191812817390729F48F
S11334C080912C01853008F4B4CF80912C018F5F5A
S11334D080932C0180912C01863051F410922C01A0
S11334E082E290E0FC01108285E490E0FC0110820D
S11334F00000DF91CF91FF91EF919F918F915F91A8
S11335004F913F912F910F9000925F000F901F9069
S11335101895CF93DF93CDB7DEB72C970FB6F894F9
S1133520DEBF0FBECDBF8B876C871A8219828B8555
S1133530882F90E024E6289FA001299F500D112494
S11335402FEF30E0CA01B901DED4CB019A8389831D
S11335508C85882331F089819A818C599F4F9A8375
S1133560898329813A8140EA429FC001439F900D9B
S113357011249C838B838B819C81992314F4815027
S11335809F4F892F990F990B9E838D838B819C81EB
S1133590907899231CF401979F6F01968F838D81F6
S11335A09E81998788878F818A8788859985AA854E
S11335B0BC018A2F2C960FB6F894DEBF0FBECDBF88
S11335C0DF91CF910895EF92FF920F931F93CF93C2
S11335D0DF93CDB7DEB76F970FB6F894DEBF0FBE9B
S11335E0CDBF80E090E0A0E8BFE3888B998BAA8BE5
S11335F0BB8B1C8A1D8A1E8A1F8A188E198E1A8EEE
S11336001B8E1C8E1D8E1E8E1F8E2DB73EB7205115
S113361031090FB6F8943EBF0FBE2DBF8DB79EB7CC
S1133620019620E1FE017096DC0101900D922A952D
S1133630E1F7E0900401F09005010091060110917A
S11336400701209108013091090140910A0150912C
S11336500B0160910C0170910D0180910E0190910C
S11336600F010E94A20BEDB7FEB770960FB6F89447
S1133670DEBF0FBECDBF9F838E8319824CC089816C
S1133680882F90E0880F991F880F991F2E813F8102
S1133690820F931FFC0180819181A281B38188876D
S11336A09987AA87BB872BED3FE049E450E46885FE
S11336B079858A859B85E6D0DC01CB012BED3FE043
S11336C049EC50E4BC01CD01BDD1DC01CB0120E0CB
S11336D030E04FE753E4BC01CD012ED3DC01CB0134
S11336E0BC01CD0117D2DC01CB018C878981882FE5
S11336F090E09C01220F331F235D3E4F4C85F9015E
S11337004083880F991F825D9E4F2981FC0120838D
S113371089818F5F89838981863008F4B0CF81E005
S113372090E09B838A8317C08A819B81880F991FAD
S1133730835D9E4FFC018081282F20958A819B8187
S1133740880F991F835D9E4FFC0120838A819B8192
S113375002969B838A838A819B8106972CF38DE250
S113376091E059D89E878D871C8219C08C81882F3F
S113377090E02C81222F30E0220F331F4D855E858F
S1133780240F351F880F991F835D9E4FF9012081F7
S11337903181FC01318320838C818F5F8C838C8108
S11337A0863020F31D825AC08D81882F90E0880FC7
S11337B0991F835D9E4FFC0180818F878D818823B3
S11337C019F18D81882F90E00197880F991F835DEF
S11337D09E4FFC0180819F85F92FF81B8F2F8F87C7
S11337E08D81882F90E0880F991F880F991F8C0175
S11337F0075C1E4F60E08F858CDEA82FCB01F8019B
S113380080839183A28313C08D81882F90E0880FD9
S1133810991F880F991F8C01075C1E4F61E08F85EB
S113382078DEA82FCB01F80180839183A2838D8158
S1133830882F90E02D81222F30E0220F331F225D4C
S11338403E4FF9012081880F991F880F991F845CCE
S11338509E4FFC0120838D818F5F8D838D81863007
S113386008F4A2CF89E391E06F960FB6F894DEBF17
S11338700FBECDBFDF91CF911F910F91FF90EF90BD
S113388008955058BB27AA270ED000C2C9D130F0E2
S1133890CED120F031F49F3F11F41EF488C10EF410
S11338A0E095E7FB7EC1E92F13D280F3BA176207D4
S11338B073078407950718F071F49EF52BC20EF474
S11338C0E0950B2EBA2FA02D0B01B90190010C012C
S11338D0CA01A0011124FF27591B99F0593F50F444
S11338E0503E68F11A16F040A22F232F342F44279C
S11338F0585FF3CF469537952795A795F040539594
S1133900C9F77EF41F16BA0B620B730B840BBAF063
S11339109150A1F0FF0FBB1F661F771F881FC2F7CE
S11339200EC0BA0F621F731F841F48F487957795E2
S11339306795B795F7959E3F08F0B3CF9395880F99
S113394008F09927EE0F9795879508959F939F7791
S1133950EEE389379E0720F4E0E7F0E050D109C098
S113396005D19058A2EA2AED3FE049EC5FE39BDFE2
S11339708DD10F9007FC9058089552D158F080E8EB
S113398091E009F49EEF53D128F040E851E059F456
S11339905EEF09C00CC1BEC1E92FE07899D168F38C
S11339A0092E052AC1F3261737074807590738F0A7
S11339B00E2E07F8E02569F0E025E0640AC0EF6305
S11339C007F8009407FADB01B9019D01DC01CA0183
S11339D0AD01EF9346D05AD10AD05F91552331F00F
S11339E02BED3FE049E450FD49EC4CCF0895DF93C3
S11339F0DD27B92FBF7740E85FE31616170648079F
S1133A005B0710F4D92F91D19F938F937F936F937A
S1133A103ED2E4E8F0E0CED039D12F913F914F91DE
S1133A205F9196D1DD2349F09058A2EA2AED3FE058
S1133A3049EC5FE3D0785D2736DFDF9127C1FFD003
S1133A40E39535C10CD022C1F2D040F0E9D030F07A
S1133A5021F45F3F19F0A5C051115DC1A8C038D150
S1133A6098F39923C9F35523B1F3951B550BBB2741
S1133A70AA2762177307840738F09F5F5F4F220FEE
S1133A80331F441FAA1FA9F333D00E2E3AF0E0E8E7
S1133A9030D091505040E695001CCAF729D0FE2F33
S1133AA027D0660F771F881FBB1F261737074807C5
S1133AB0AB07B0E809F0BB0B802DBF01FF2793587B
S1133AC05F4F2AF09E3F510568F06BC024C15F3FF1
S1133AD0ECF3983EDCF3869577956795B795F79563
S1133AE09F5FC9F7880F911D9695879597F908955B
S1133AF0E1E0660F771F881FBB1F621773078407F7
S1133B00BA0720F0621B730B840BBA0BEE1F88F705
S1133B10E0950895E5D088F09F5790F0B92F992744
S1133B20B751A0F0D1F0660F771F881F991F1AF0C4
S1133B30BA95C9F712C0B13081F0ECD0B1E0089564
S1133B40E9C0672F782F8827B85F39F0B93FCCF3E5
S1133B50869577956795B395D9F73EF490958095BA
S1133B60709561957F4F8F4F9F4F0895DF93CF934B
S1133B701F930F938B01EC01E1EBF0E01BD086D097
S1133B809801AE018B01EC0160E070E080E89FE3F6
S1133B9078DE3FD19801AE010F911F91CF91DF9153
S1133BA0D7C097F99F6780E870E060E008959FEFC1
S1133BB080EC0895DF93CF931F930F93FF92EF92BE
S1133BC0DF927B018C01689405C0DA2EEF01C0D02E
S1133BD0FE01E894A5912591359145915591AEF357
S1133BE0EF0161DEFE019701A801DA9479F7DF9015
S1133BF0EF90FF900F911F91CF91DF9108959F93C4
S1133C008F937F936F93FF93EF939B01AC0194D0B9
S1133C10EF91FF91CFDF2F913F914F915F918CC036
S1133C2000240A9416161706180609060895002497
S1133C300A9412161306140605060895B8CF50D038
S1133C40E8F3E894E0E0BB279F57F0F02AED3FE06B
S1133C5049EC06C0EE0FBB0F661F771F881F28F0C4
S1133C60B23A62077307840728F0B25A620B730BE7
S1133C70840BE3959A9572F7803830F49A95BB0FCC
S1133C80661F771F881FD2F790482AC1092E039414
S1133C90000C11F4882352F0BB0F40F4BF2B11F435
S1133CA060FF04C06F5F7F4F8F4F9F4F0895EF9366
S1133CB0E0FF06C0A2EA2AED3FE049EC5FEBF3DD4A
S1133CC0E5DF0F90039401FC9058E9EDF0E097CF05
S1133CD057FD9058440F551F59F05F3F71F04795B9
S1133CE0880F97FB991F61F09F3F79F0879508959E
S1133CF0121613061406551FF2CF4695F1DF08C0BD
S1133D00161617061806991FF1CF869571056105D9
S1133D1008940895E894BB2766277727CB0197F981
S1133D200895B8D008F48FEF08959B01AC0160E0CA
S1133D3070E080E89FE386CE0BD0A8CF71DF28F037
S1133D4076DF18F0952309F02CCF31CF1124E3CF7F
S1133D50BFDFA0F3959FD1F3950F50E0551F629FED
S1133D60F001729FBB27F00DB11D639FAA27F00DD0
S1133D70B11DAA1F649F6627B00DA11D661F829FF7
S1133D802227B00DA11D621F739FB00DA11D621FDC
S1133D90839FA00D611D221F749F3327A00D611DF9
S1133DA0231F849F600D211D822F762F6A2F1124DB
S1133DB09F5750408AF0E1F088234AF0EE0FFF1F2E
S1133DC0BB1F661F771F881F91505040A9F79E3F65
S1133DD0510570F0E6CE9FCF5F3FECF3983EDCF3E5
S1133DE0869577956795B795F795E7959F5FC1F7A2
S1133DF0FE2B880F911D9695879597F908959F93AB
S1133E001EDF0F9007FCEE5F52CF11F40EF4CFCEFD
S1133E1065C066DFD0F39923D9F3CEF39F57550BD2
S1133E2087FF6AD00024A0E640EA900180585695A6
S1133E30979528F4805C660F771F881F20F026175B
S1133E403707480730F4621B730B840B2029312990
S1133E504A2BA69517940794202531254A2758F70D
S1133E60660F771F881F20F026173707480730F49E
S1133E70620B730B840B200D311D411DA09581F73E
S1133E80B901842F9158880F9695879508959B01C1
S1133E90AC0152CF990F0008550FAA0BE0E8FEEFD2
S1133EA016161706E807F907C0F012161306E407FA
S1133EB0F50798F0621B730B840B950B39F40A26F3
S1133EC061F0232B242B252B21F408950A2609F4D1
S1133ED0A140A6958FEF811D811D08959F3F31F06C
S1133EE0915020F4879577956795B795880F911D24
S1133EF09695879597F9089591505040660F771FCE
S1133F00881FD2F7089597FB072E16F4009406D065
S1133F1077FD08D00BD007FC05D03EF49095819531
S1133F209F4F0895709561957F4F0895AA1BBB1B01
S1133F3051E107C0AA1FBB1FA617B70710F0A61BA5
S1133F40B70B881F991F5A95A9F780959095BC01C6
S10B3F50CD010895F894FFCFA0
S1133F58D7B3DD3F00000000000000003480B73D07
S9030000FC
