S0180000476363426F61726450726F6A656374312E737265630F
S11300007BC0000096C0000094C0000092C00000B5
S113001090C000008EC000008CC000008AC00000A8
S113002088C000000C94EB1284C0000082C0000061
S113003080C000007EC000007CC000007AC00000C8
S11300400C942F1176C0000074C0000072C0000030
S113005070C000006EC000006CC000006AC00000E8
S113006068C0000066C0000064C0000062C00000F8
S1130070036EDB363D9A9999993DABAAAA2A3E00B4
S11300800000803F084AD73B3BCE016E84BCBFFDD5
S1130090C12F3D6C74319ABD56833DDA3D00C77F54
S11300A011BED9E4BB4C3E916BAAAABE00000080ED
S11300B03F072C7AA5BA6CC590DA3B9365FC8BBCE0
S11300C053F810FD3C5692834DBD879D3AB63DCB07
S11300D0C9BF5BBE73DA0FC93F05A84CCDB2D44E7D
S11300E0B93836A9020C50B9918688083CA6AAAA48
S11300F02ABE000000803F0011241FBECFEFD0E1D4
S1130100DEBFCDBF11E0A0E0B1E0EAE0FDE202C055
S113011005900D92A430B107D9F722E0A4E0B1E034
S113012001C01D92A935B207E1F70E9485120C9413
S1130130831666CFE5E4F1E08BED9FE0A9E4B0E43B
S113014080839183A283B3831482158216821782DB
S113015082E99AE0A6E8BFE380879187A287B38704
S113016082E99AE0A6E0B0EC84879587A687B787F2
S113017082E99AE0A6E8BFEB808B918BA28BB38BCC
S113018082E99AE0A6E0B0E4848B958BA68BB78BCA
S113019008954F925F926F927F928F929F92AF9247
S11301A0BF92CF92DF92EF92FF920F931F93CF9360
S11301B0DF93CDB7DEB7C857D1090FB6F894DEBFC9
S11301C00FBECDBF209141013091420140914301C6
S11301D05091440160E070E080E89FE30E94421384
S11301E02B013C018DB79EB70C970FB6F8949EBFB8
S11301F00FBE8DBFADB7BEB711968CE0E9E7F1E055
S113020001900D928A95E1F7C090CD01D090CE0176
S1130210E090CF01F090D0010091D1011091D20172
S11302202091D3013091D4014091D5015091D60150
S11302306091D7017091D801CE018F599F4F0E94D0
S11302404A0F8DB79EB70C970FB6F8949EBF0FBE9A
S11302508DBFADB7BEB711968CE0EDECF1E0019027
S11302600D928A95E1F7C090E901D090EA01E090FF
S1130270EB01F090EC010091ED011091EE01209161
S1130280EF013091F0014091F1015091F201609140
S1130290F3017091F401CE018B5A9F4F0E944A0FD3
S11302A08DB79EB70C970FB6F8949EBF0FBE8DBF47
S11302B0ADB7BEB711968CE0E9EEF1E001900D9276
S11302C08A95E1F7C0907901D0907A01E0907B01A2
S11302D0F0907C0100917D0110917E0120917F01BD
S11302E0309180014091810150918201609183019C
S11302F070918401CE01875B9F4F0E944A0F0FB615
S1130300F894DEBF0FBECDBF8090410190904201B2
S1130310A0904301B0904401A296CFACA297A396BB
S1130320DFACA397A496EFACA497A596FFACA597D2
S1130330A6960FADA697A7961FADA797A8962FAD23
S1130340A897A9963FADA997AA964FADAA97AB9641
S11303505FADAB97AC966FADAC97AD967FADAD97F7
S1130360CE01CD960E947E0E8DB79EB70C970FB628
S1130370F8949EBF0FBE8DBFADB7BEB711968CE08B
S1130380FE01FD9601900D928A95E1F7C0907901E6
S1130390D0907A01E0907B01F0907C0100917D0186
S11303A010917E0120917F01309180014091810163
S11303B0509182016091830170918401CE0183592F
S11303C09F4F0E94E50E8CE0FE01E359FF4FA5EF1D
S11303D0B1E001900D928A95E1F7530142012A960A
S11303E0CFAC2A972B96DFAC2B972C96EFAC2C979F
S11303F02D96FFAC2D972E960FAD2E972F961FADF1
S11304002F9760962FAD609761963FAD6197629686
S11304104FAD629763965FAD639764966FAD6497D3
S113042065967FAD6597CE01C1960E947E0E8DB70D
S11304309EB70C970FB6F8949EBF0FBE8DBFADB795
S1130440BEB711968CE0FE01F19601900D928A954B
S1130450E1F7C090E901D090EA01E090EB01F0905F
S1130460EC010091ED011091EE012091EF0130912A
S1130470F0014091F1015091F2016091F30170910A
S1130480F401CE0183599F4F0E94E50E8CE0FE01DA
S1130490E359FF4FA1E0B2E001900D928A95E1F794
S11304A08090410190904201A0904301B09044019A
S11304B02A96CFAC2A972B96DFAC2B972C96EFACD1
S11304C02C972D96FFAC2D972E960FAD2E972F9629
S11304D01FAD2F9760962FAD609761963FAD6197E2
S11304E062964FAD629763965FAD639764966FAD06
S11304F0649765967FAD6597CE0185960E947E0EC2
S11305008DB79EB70C970FB6F8949EBF0FBE8DBFE4
S1130510ADB7BEB711968CE0FE01B59601900D9271
S11305208A95E1F7C090E901D090EA01E090EB01EF
S1130530F090EC010091ED011091EE012091EF019A
S11305403091F0014091F1015091F2016091F30179
S11305507091F401CE0183599F4F0E94E50E8CE007
S1130560FE01E359FF4FADE0B2E001900D928A9590
S1130570E1F70FB6F894DEBF0FBECDBF53014201C1
S11305806696CFAC66976796DFAC67976896EFACD4
S113059068976996FFAC69976A960FAD6A976B96F0
S11305A01FAD6B976C962FAD6C976D963FAD6D97A5
S11305B06E964FAD6E976F965FAD6F97A0966FADC9
S11305C0A097A1967FADA197CE0149960E947E0E79
S11305D08DB79EB70C970FB6F8949EBF0FBE8DBF14
S11305E0ADB7BEB711968CE0FE01799601900D92DD
S11305F08A95E1F7C090CD01D090CE01E090CF0173
S1130600F090D0010091D1011091D2012091D30139
S11306103091D4014091D5015091D6016091D70118
S11306207091D801CE0183599F4F0E94E50E8CE052
S1130630FE01E359FF4FA9E1B2E001900D928A95C2
S1130640E1F78090410190904201A0904301B09065
S113065044016696CFAC66976796DFAC6797689659
S1130660EFAC68976996FFAC69976A960FAD6A9785
S11306706B961FAD6B976C962FAD6C976D963FADD7
S11306806D976E964FAD6E976F965FAD6F97A09610
S11306906FADA097A1967FADA197CE010D960E9454
S11306A07E0E8DB79EB70C970FB6F8949EBF0FBE03
S11306B08DBFADB7BEB711968CE0FE013D9601909B
S11306C00D928A95E1F7C090CD01D090CE01E090D3
S11306D0CF01F090D0010091D1011091D20120916D
S11306E0D3013091D4014091D5015091D60160914C
S11306F0D7017091D801CE0183599F4F0E94E50E16
S11307008CE0FE01E359FF4FA5E2B2E001900D92A7
S11307108A95E1F753014201C090D901D090DA01E2
S1130720E090DB01F090DC010091DD011091DE012D
S11307302091DF013091E0014091E1015091E2010B
S11307406091E3017091E401CE0101960E947E0E56
S11307508DB79EB70C970FB6F8949EBF0FBE8DBF92
S1130760ADB7BEB711968CE0FE01319601900D92A3
S11307708A95E1F7C0907901D0907A01E0907B01ED
S1130780F0907C0100917D0110917E0120917F0108
S113079030918001409181015091820160918301E7
S11307A070918401CE0183599F4F0E94E50E8CE025
S11307B0FE01E359FF4FA1E3B2E001900D928A9547
S11307C0E1F70FB6F894DEBF0FBECDBFC858DF4FB8
S11307D00FB6F894DEBF0FBECDBFDF91CF911F914E
S11307E00F91FF90EF90DF90CF90BF90AF909F90CC
S11307F08F907F906F905F904F9008954F925F928B
S11308006F927F928F929F92AF92BF92CF92DF921C
S1130810EF92FF920F931F93CF93DF93CDB7DEB781
S1130820C857D1090FB6F894DEBF0FBECDBF2091D3
S11308303D0130913E0140913F015091400160E003
S113084070E080E89FE30E9442132B013C018DB7C6
S11308509EB70C970FB6F8949EBF0FBE8DBFADB771
S1130860BEB711968CE0E9EDF1E001900D928A9506
S1130870E1F7C0906101D0906201E0906301F090D3
S11308806401009165011091660120916701309126
S113089068014091690150916A0160916B01709106
S11308A06C01CE018F599F4F0E944A0F8DB79EB79E
S11308B00C970FB6F8949EBF0FBE8DBFADB7BEB7F1
S11308C011968CE0E1E6F1E001900D928A95E1F752
S11308D0C0906D01D0906E01E0906F01F0907001B6
S11308E00091710110917201209173013091740192
S11308F04091750150917601609177017091780172
S1130900CE018B5A9F4F0E944A0F8DB79EB70C970A
S11309100FB6F8949EBF0FBE8DBFADB7BEB711968C
S11309208CE0EDE6F1E001900D928A95E1F7C0903C
S1130930D901D090DA01E090DB01F090DC01009164
S1130940DD011091DE012091DF013091E001409141
S1130950E1015091E2016091E3017091E401CE0163
S1130960875B9F4F0E944A0F0FB6F894DEBF0FBEFD
S1130970CDBF53014201A296CFACA297A396DFACA0
S1130980A397A496EFACA497A596FFACA597A696BB
S11309900FADA697A7961FADA797A8962FADA897BA
S11309A0A9963FADA997AA964FADAA97AB965FAD0E
S11309B0AB97AC966FADAC97AD967FADAD97CE01CE
S11309C0CD960E947E0E8DB79EB70C970FB6F89405
S11309D09EBF0FBE8DBFADB7BEB711968CE0FE01B2
S11309E0FD9601900D928A95E1F7C090D901D090BF
S11309F0DA01E090DB01F090DC010091DD0110915F
S1130A00DE012091DF013091E0014091E10150913C
S1130A10E2016091E3017091E401CE0183599F4F9B
S1130A200E94E50E8CE0FE01E359FF4FA5E8B1E01A
S1130A3001900D928A95E1F780903D0190903E01DE
S1130A40A0903F01B0904001A296CFACA297A3968C
S1130A50DFACA397A496EFACA497A596FFACA5979B
S1130A60A6960FADA697A7961FADA797A8962FADEC
S1130A70A897A9963FADA997AA964FADAA97AB960A
S1130A805FADAB97AC966FADAC97AD967FADAD97C0
S1130A90CE01C1960E947E0E8DB79EB70C970FB6FD
S1130AA0F8949EBF0FBE8DBFADB7BEB711968CE054
S1130AB0FE01F19601900D928A95E1F7C090D9015B
S1130AC0D090DA01E090DB01F090DC010091DD01CF
S1130AD01091DE012091DF013091E0014091E101AC
S1130AE05091E2016091E3017091E401CE018359D8
S1130AF09F4F0E94E50E8CE0FE01E359FF4FA1E9F0
S1130B00B1E001900D928A95E1F7530142012A96D2
S1130B10CFAC2A972B96DFAC2B972C96EFAC2C9767
S1130B202D96FFAC2D972E960FAD2E972F961FADB9
S1130B302F9760962FAD609761963FAD619762964F
S1130B404FAD629763965FAD639764966FAD64979C
S1130B5065967FAD6597CE0185960E947E0E8DB712
S1130B609EB70C970FB6F8949EBF0FBE8DBFADB75E
S1130B70BEB711968CE0FE01B59601900D928A9550
S1130B80E1F7C0906D01D0906E01E0906F01F0909C
S1130B9070010091710110917201209173013091E3
S1130BA074014091750150917601609177017091C3
S1130BB07801CE0183599F4F0E94E50E8CE0FE011F
S1130BC0E359FF4FADE9B1E001900D928A95E1F749
S1130BD00FB6F894DEBF0FBECDBF80903D0190905C
S1130BE03E01A0903F01B09040012A96CFAC2A97D5
S1130BF02B96DFAC2B972C96EFAC2C972D96FFAC55
S1130C002D972E960FAD2E972F961FAD2F9760968A
S1130C102FAD609761963FAD619762964FAD629735
S1130C2063965FAD639764966FAD649765967FAD89
S1130C306597CE0149960E947E0E8DB79EB70C979C
S1130C400FB6F8949EBF0FBE8DBFADB7BEB7119659
S1130C508CE0FE01799601900D928A95E1F7C0909F
S1130C606D01D0906E01E0906F01F09070010091E1
S1130C7071011091720120917301309174014091BE
S1130C807501509176016091770170917801CE01E0
S1130C9083599F4F0E94E50E8CE0FE01E359FF4FFC
S1130CA0A9EAB1E001900D928A95E1F7530142015E
S1130CB06696CFAC66976796DFAC67976896EFAC9D
S1130CC068976996FFAC69976A960FAD6A976B96B9
S1130CD01FAD6B976C962FAD6C976D963FAD6D976E
S1130CE06E964FAD6E976F965FAD6F97A0966FAD92
S1130CF0A097A1967FADA197CE010D96FFD78DB792
S1130D009EB70C970FB6F8949EBF0FBE8DBFADB7BC
S1130D10BEB711968CE0FE013D9601900D928A9526
S1130D20E1F7C0906101D0906201E0906301F0901E
S1130D306401009165011091660120916701309171
S1130D4068014091690150916A0160916B01709151
S1130D506C01CE0183599F4F0E94E50E8CE0FE0189
S1130D60E359FF4FA5EBB1E001900D928A95E1F7AD
S1130D7080903D0190903E01A0903F01B0904001D1
S1130D806696CFAC66976796DFAC67976896EFACCC
S1130D9068976996FFAC69976A960FAD6A976B96E8
S1130DA01FAD6B976C962FAD6C976D963FAD6D979D
S1130DB06E964FAD6E976F965FAD6F97A0966FADC1
S1130DC0A097A1967FADA197CE01019697D78DB735
S1130DD09EB70C970FB6F8949EBF0FBE8DBFADB7EC
S1130DE0BEB711968CE0FE01319601900D928A9562
S1130DF0E1F7C0906101D0906201E0906301F0904E
S1130E0064010091650110916601209167013091A0
S1130E1068014091690150916A0160916B01709180
S1130E206C01CE0183599F4FD0D78CE0FE01E3596A
S1130E30FF4FA1ECB1E001900D928A95E1F70FB656
S1130E40F894DEBF0FBECDBFC858DF4F0FB6F8947D
S1130E50DEBF0FBECDBFDF91CF911F910F91FF90E9
S1130E60EF90DF90CF90BF90AF909F908F907F9046
S1130E706F905F904F9008954F925F926F927F9220
S1130E808F929F92AF92BF92CF92DF92EF92FF9296
S1130E90CF93DF9300D000D0CDB7DEB720E030E0B1
S1130EA040EC50E4609100017091010180910201D5
S1130EB0909103010E9423142B013C0180905D0159
S1130EC090905E01A0905F01B0906001A501940133
S1130ED00E9499156B017C01DC01CB01B058898318
S1130EE09A83AB83BC83C501B401905820E030E001
S1130EF040E05FE30E949915A9EDB1E06D937D9305
S1130F008D939C93139789819A81AB81BC81809343
S1130F10DD019093DE01A093DF01B093E001109214
S1130F20E1011092E2011092E3011092E40120E049
S1130F3030E040E05FE3C501B4010E949915A1E6E9
S1130F40B1E06D937D938D939C93139789819A81DE
S1130F50AB81BC818093650190936601A093670186
S1130F60B09368011092690110926A0110926B01AA
S1130F7010926C01ADE6B1E01D921D921D921C927F
S1130F801397A7019601C701B6010E94431360930A
S1130F9071017093720180937301909374011092A4
S1130FA07501109276011092770110927801C09029
S1130FB0E501D090E601E090E701F090E801A70197
S1130FC09601C301B2010E9499154B015C018CE0AA
S1130FD0E9E7F1E011928A95E9F7A5019401C501C9
S1130FE0B4010E9443139B01AC0160E070E0CB01AB
S1130FF00E944213A9E7B1E06D937D938D939C9376
S1131000139720E030E040E05FE3C701B6010E949F
S11310109915EDECF1E06083718382839383809270
S1131020D1019092D201A092D301B092D401109236
S1131030D5011092D6011092D7011092D801C701A0
S1131040B601905820E030E040E05FE30E9499153B
S1131050A9EEB1E06D937D938D939C931397809249
S1131060ED019092EE01A092EF01B092F001109286
S1131070F1011092F2011092F3011092F4010F9019
S11310800F900F900F90DF91CF91FF90EF90DF9032
S1131090CF90BF90AF909F908F907F906F905F9014
S11310A04F9008954F925F926F927F928F929F928A
S11310B0AF92BF92CF92DF92EF92FF920F931F9362
S11310C0CF93DF9300D000D0CDB7DEB76F88788C94
S11310D0898C9A8C69827A828B829C824B8C5C8C00
S11310E06D8C7E8C60935D0170935E0180935F01D3
S11310F0909360012093E5013093E6014093E7016A
S11311005093E801E0923D02F0923E0200933F02C8
S113111010934002A0923901B0923A01C0923B016F
S1131120D0923C0189819A81AB81BC8180933D013D
S113113090933E01A0933F01B0934001409241013E
S113114050924201609243017092440195DE56DB55
S113115020D80F900F900F900F90DF91CF911F9197
S11311600F91FF90EF90DF90CF90BF90AF909F9042
S11311708F907F906F905F904F900C949A004F9255
S11311805F926F927F928F929F92AF92BF92CF9213
S1131190DF92EF92FF920F931F93CF93DF93CDB71C
S11311A0DEB72C970FB6F894DEBF0FBECDBF2B0170
S11311B03C01A982BA82CB82DC82ED82FE820F835B
S11311C018876F8D78A189A19AA10E9420146B01C0
S11311D07C016F8D78A189A19AA10E94FC154B0115
S11311E05C0129813A814B815C81C701B6010E946F
S11311F099156B017C012D813E814F815885C50174
S1131200B4010E9499159B01AC01C701B6010E946B
S113121043136B017C01A3019201C301B2010E943B
S113122043139B01AC01C701B6010E9499152C968A
S11312300FB6F894DEBF0FBECDBFDF91CF911F91E3
S11312400F91FF90EF90DF90CF90BF90AF909F9061
S11312508F907F906F905F904F9008954F925F9220
S11312606F927F92AF92BF92CF92DF92EF92FF92F2
S11312700F931F93CF93DF93CDB7DEB72C970FB6A1
S1131280F894DEBF0FBECDBF2B013C01BE2DAF2DA8
S1131290F02FE12FB901CA01750186012B2F3A2FD6
S11312A04F2F5E2F5CD69B01AC010E9499156B01F8
S11312B07C012D8D3E8D4F8D58A1CA01B9010E942C
S11312C099159B01AC01C701B6010E9442136B0141
S11312D07C01A3019201C301B2010E9499159B01F3
S11312E0AC01C701B6010E9442132C960FB6F894C4
S11312F0DEBF0FBECDBFDF91CF911F910F91FF9045
S1131300EF90DF90CF90BF90AF907F906F905F9001
S11313104F9008954F925F926F927F928F929F9217
S1131320AF92BF92CF92DF92EF92FF920F931F93EF
S1131330CF93DF9300D000D0CDB7DEB72B013C01B3
S113134049015A01E982FA820B831C839B01AC0197
S11313500E9499156B017C01A5019401C501B4019A
S11313600E9499159B01AC01C701B6010E9442136A
S11313700E9406169B01AC0169817A818B819C8154
S11313800E9423140E94A7136B017C01A301920104
S1131390C501B4010E94CD139B01AC01C701B60184
S11313A00E9442130F900F900F900F90DF91CF91F6
S11313B01F910F91FF90EF90DF90CF90BF90AF906F
S11313C09F908F907F906F905F904F9008952F9291
S11313D03F924F925F926F927F928F929F92AF92C1
S11313E0BF92CF92DF92EF92FF920F931F93CF930E
S11313F0DF93CDB7DEB760970FB6F894DEBF0FBEAC
S1131400CDBFE982FA820B831C832D833E834F83F5
S1131410588769877A878B879C871501460119A5A8
S11314200AA5FBA4ECA42DA13EA14FA158A5CA0175
S1131430B9010E94431329853A854B855C850E9436
S113144099152B013C01EF92FF920F931F93A980F2
S1131450BA80CB80DC80ED80FE800F8118852985E1
S11314603A854B855C856DA17EA18FA198A587DE09
S11314700F900F900F900F906D877E878F87988BBA
S11314809F928F923F922F92A980BA80CB80DC806A
S1131490ED80FE800F81188529853A854B855C8512
S11314A06DA17EA18FA198A5D9DE7B018C012D852C
S11314B03E854F855889C301B2012CDF0F900F90F0
S11314C00F900F9060960FB6F894DEBF0FBECDBF9D
S11314D0DF91CF911F910F91FF90EF90DF90CF900C
S11314E0BF90AF909F908F907F906F905F904F9040
S11314F03F902F900895AF92BF92CF92DF92EF92D8
S1131500FF920F931F93CF93DF93CDB7DEB7A497CA
S11315100FB6F894DEBF0FBECDBF5C01C98EDA8E64
S1131520EB8EFC8E0D8F1E8F2F8F38A349A35AA3E9
S11315306BA37CA38DB79EB740970FB6F8949EBF5C
S11315400FBE8DBFADB7BEB7119680E1FE01F19617
S113155001900D928A95E1F72E96CFAC2E972F9697
S1131560DFAC2F976096EFAC60976196FFAC619704
S113157062960FAD629763961FAD639764962FAD25
S1131580649765963FAD659766964FAD6697679687
S11315905FAD679768966FAD689769967FAD6997F9
S11315A0CE010D963ED58DB79EB70C970FB6F89425
S11315B09EBF0FBE8DBFADB7BEB711968CE0FE01C6
S11315C03D9601900D928A95E1F7C98CDA8CEB8CEB
S11315D0FC8C0D8D1E8D2F8D38A149A15AA16BA1B4
S11315E07CA1CE010196F1D38DB79EB70C970FB6AF
S11315F0F8949EBF0FBE8DBFADB7BEB711968CE0F9
S1131600FE01EF5BFF4F01900D928A95E1F7C980CF
S1131610DA80EB80FC800D811E812F81388549851D
S11316205A856B857C85C50135D40FB6F894DEBF29
S11316300FBECDBFC501A4960FB6F894DEBF0FBE92
S1131640CDBFDF91CF911F910F91FF90EF90DF906D
S1131650CF90BF90AF9008955F926F927F928F92D8
S11316609F92AF92BF92CF92DF92EF92FF920F932D
S11316701F93CF93DF93CDB7DEB768970FB6F89477
S1131680DEBF0FBECDBFED86FE860F87188B298B7C
S11316903A8B4B8B5C8B6D8B7E8B8F8B988F85E419
S11316A0882E81E0982E612C712C9CE0592E569C3A
S11316B0C001579C900D1124FC01EB50FE4F2DB737
S11316C03EB72C5031090FB6F8943EBF0FBE2DBF64
S11316D0ADB7BEB71196252D01900D922A95E1F76D
S11316E0FC01EB57FE4F4DB75EB74C5051090FB696
S11316F0F8945EBF0FBE4DBFADB7BEB71196852D32
S113170001900D928A95E1F78DB79EB740970FB679
S1131710F8949EBF0FBE8DBFADB7BEB7119680E1E2
S1131720FE01BA9601900D928A95E1F7CD84DE848C
S1131730EF84F88809891A892B893C894D895E8947
S11317406F89788DCE010196D6DEF4018081918176
S113175022813381F4E08F0E911C0FB6F894DEBF22
S11317600FBECDBFA0903D02B0903E02C0903F029C
S1131770D09040023F932F939F938F9380913C018D
S11317808F9380913B018F9380913A018F93809145
S113179039018F93E980FA800B811C812D813E8170
S11317A04F81588569857A858B859C8510DE5FEF2E
S11317B0651A750A0FB6F894DEBF0FBECDBF96E06A
S11317C06916710409F073CF80E090E068960FB653
S11317D0F894DEBF0FBECDBFDF91CF911F910F9163
S11317E0FF90EF90DF90CF90BF90AF909F908F903D
S11317F07F906F905F900895CF92DF92EF92FF9267
S11318000F931F93CF93DF93CDB7DEB72C970FB60B
S1131810F894DEBF0FBECDBFC982DA82EB82FC82B0
S11318200D831E832F83388749875A876B877C876C
S1131830C980DA80EB80FC800D811E812F81388580
S113184049855A856B857C85FC0110821182128240
S11318501382C482D582E682F782008711872287A9
S1131860338744875587668777872C960FB6F89415
S1131870DEBF0FBECDBFDF91CF911F910F91FF90BF
S1131880EF90DF90CF9008958F929F92AF92BF9286
S1131890CF92DF92EF92FF920F931F93CF93DF9338
S11318A0CDB7DEB760970FB6F894DEBF0FBECDBFDD
S11318B089829A82AB82BC82CD82DE82EF82F886F4
S11318C009871A872B873C874D875E876F87788BBC
S11318D0CD80DE80EF80F884F7FAF094F7F8F09486
S11318E009851A852B853C8530584D855E856F8525
S11318F07889705889809A80AB80BC80FC01808292
S11319009182A282B382C482D582E682F782008762
S11319101187228733874487558766877787609640
S11319200FB6F894DEBF0FBECDBFDF91CF911F91EC
S11319300F91FF90EF90DF90CF90BF90AF909F906A
S11319408F9008952F923F924F925F926F927F9261
S11319508F929F92AF92BF92CF92DF92EF92FF92BB
S11319600F931F93CF93DF93CDB7DEB7A8970FB62E
S1131970F894DEBF0FBECDBF1C0189829A82AB8270
S1131980BC82CD82DE82EF82F88609871A872B8794
S11319903C874D875E876F87788B89819A81AB817D
S11319A0BC818DA39EA3AFA3B8A78D819E81AF8177
S11319B0B88589A39AA3ABA3BCA389859A85AB8573
S11319C0BC858D8F9E8FAF8FB8A38D859E85AF8587
S11319D0B889898F9A8FAB8FBC8F21968CAD9DADC2
S11319E0AEADBFAD21978D8B9E8BAF8BB88F2596F7
S11319F08CAD9DADAEADBFAD2597898B9A8BAB8B6E
S1131A00BC8B2996CCACDDACEEACFFAC29972D9603
S1131A108CAC9DACAEACBFAC2D972DA13EA14FA11B
S1131A2058A56D897E898F89988D0E9499152B01FF
S1131A303C0129A13AA14BA15CA169897A898B89CE
S1131A409C890E9499159B01AC01C301B2011AD66D
S1131A502B013C01A70196016D8D7E8D8F8D98A180
S1131A600E9499159B01AC01C301B2010BD62B0155
S1131A703C01A5019401698D7A8D8B8D9C8D0E940A
S1131A8099159B01AC01C301B201FCD5D1016D9341
S1131A907D938D939C9313972DA13EA14FA158A59F
S1131AA069897A898B899C890E9499152B013C014B
S1131AB029A13AA14BA15CA16D897E898F89988D5A
S1131AC00E9499159B01AC01C301B201DCD52B0125
S1131AD03C01A50194016D8D7E8D8F8D98A10E948E
S1131AE099159B01AC01C301B201CDD52B013C0179
S1131AF0A7019601698D7A8D8B8D9C8D0E94991515
S1131B009B01AC01C301B201BDD5F10164837583AE
S1131B1086839783A70196016DA17EA18FA198A5C5
S1131B200E9499152B013C01A501940169A17AA198
S1131B308BA19CA1FED79B01AC01C301B201A2D52C
S1131B402B013C012D8D3E8D4F8D58A16D897E89D1
S1131B508F89988DEED79B01AC01C301B20193D557
S1131B602B013C01298D3A8D4B8D5C8D69897A89D5
S1131B708B899C89DED79B01AC01C301B20183D55B
S1131B80D10118966D937D938D939C931B97A5011A
S1131B9094016DA17EA18FA198A5CBD74B015C01C7
S1131BA0A701960169A17AA18BA19CA1C2D79B012F
S1131BB0AC01C501B40167D56B017C012D8D3E8D4F
S1131BC04F8D58A169897A898B899C89B2D79B01E9
S1131BD0AC01C701B60156D56B017C01298D3A8D44
S1131BE04B8D5C8D6D897E898F89988DA2D79B01E1
S1131BF0AC01C701B60147D5F101648775878687B3
S1131C009787C101A8960FB6F894DEBF0FBECDBF6B
S1131C10DF91CF911F910F91FF90EF90DF90CF90C4
S1131C20BF90AF909F908F907F906F905F904F90F8
S1131C303F902F900895CF93DF93EC01641708F43D
S1131C4004D0CE01DF91CF910895EF92FF920F93CC
S1131C501F93CF93DF93182FD92F042FA82FB92FB9
S1131C60A60FB11DA60FB11DC42F262F3C912C1712
S1131C7008F5812F9D2F820F911D820F911DFC016C
S1131C804081341720F0201710F42F5FF2CFE12E9B
S1131C90FD2EEC0EF11CEC0EF11CF70150813517F2
S1131CA010F4C150F4CF2C1708F7FC015083F7014E
S1131CB04083DCCFE12FFD2FEC0FF11DEC0FF11D64
S1131CC080818C9330834FEF4C0F812F9D2FB3DF96
S1131CD061E06C0F402F812F9D2FDF91CF911F91D9
S1131CE00F91FF90EF90A7CFCF93DF93EC0145E0E6
S1131CF060E0ABDFCE01DF91CF9108952F923F9248
S1131D004F925F926F927F928F929F92AF92BF9207
S1131D10CF92DF92EF92FF920F931F93CF93DF93B3
S1131D20CDB7DEB72C970FB6F894DEBF0FBECDBF8C
S1131D303C01C982DA82EB82FC820D831E832F83ED
S1131D40388749875A876B877C872D813E814F81ED
S1131D505885C501B401EDD61B012C0129853A85AE
S1131D604B855C85C501B401E4D66B017C01A501FA
S1131D70940169817A818B819C81DBD6F301608334
S1131D807183828393832482358246825782C086FC
S1131D90D186E286F386C3012C960FB6F894DEBF93
S1131DA00FBECDBFDF91CF911F910F91FF90EF90A8
S1131DB0DF90CF90BF90AF909F908F907F906F9067
S1131DC05F904F903F902F9008954F925F926F9243
S1131DD07F92AF92BF92CF92DF92EF92FF920F93D6
S1131DE01F93CF93DF93CDB7DEB72C970FB6F8943C
S1131DF0DEBF0FBECDBF5C01C982DA82EB82FC82FA
S1131E000D831E832F83388749875A876B877C8786
S1131E1029A13AA14BA15CA16D817E818F81988516
S1131E2032D42B013C012DA13EA14FA158A56985B7
S1131E307A858B859C8527D46B017C012D8D3E8D05
S1131E404F8D58A169817A818B819C811CD4F501C5
S1131E50608371838283938344825582668277820E
S1131E60C086D186E286F386C5012C960FB6F89417
S1131E70DEBF0FBECDBFDF91CF911F910F91FF90B9
S1131E80EF90DF90CF90BF90AF907F906F905F9076
S1131E904F9008954F925F926F927F92AF92BF924C
S1131EA0CF92DF92EF92FF920F931F93CF93DF9322
S1131EB0CDB7DEB72C970FB6F894DEBF0FBECDBFFB
S1131EC05C01C982DA82EB82FC820D831E832F833C
S1131ED0388749875A876B877C8729A13AA14BA108
S1131EE05CA16D817E818F819885CCD32B013C01CF
S1131EF02DA13EA14FA158A569857A858B859C8526
S1131F00C1D36B017C012D8D3E8D4F8D58A169810C
S1131F107A818B819C81B6D3F5016083718382833E
S1131F2093834482558266827782C086D186E28614
S1131F30F386C5012C960FB6F894DEBF0FBECDBF55
S1131F40DF91CF911F910F91FF90EF90DF90CF9091
S1131F50BF90AF907F906F905F904F9008954F9295
S1131F605F926F927F928F929F92AF92BF92CF9225
S1131F70DF92EF92FF920F931F93CF93DF93CDB72E
S1131F80DEB72C970FB6F894DEBF0FBECDBFE98243
S1131F90FA820B831C832D833E834F835887698782
S1131FA07A878B879C8769817A818B819C818D80DC
S1131FB09E80AF80B884C984DA84EB84FC849B015E
S1131FC0AC01B7D52B013C01A5019401C501B401B5
S1131FD0B0D59B01AC01C301B20155D34B015C01E7
S1131FE0A7019601C701B601A4D59B01AC01C501A7
S1131FF0B40149D32C960FB6F894DEBF0FBECDBF03
S1132000DF91CF911F910F91FF90EF90DF90CF90D0
S1132010BF90AF909F908F907F906F905F904F9004
S1132020F5C54F925F926F927F928F929F92AF927B
S1132030BF92CF92DF92EF92FF920F931F93CF93B1
S1132040DF93CDB7DEB7CC54D1090FB6F894DEBF19
S11320500FBECDBF3C014C2C2296CFAE22975D2CF7
S11320602396DFAE23978E2C2496EFAE24979F2CD5
S11320702596FFAE2597A02E26960FAF2697B12E54
S113208027961FAF279728962FAF289729963FAFFB
S113209029972A964FAF2A972B965FAF2B972C96AA
S11320A06FAF2C972D967FAF2D9762017401850138
S11320B0CE01C196A1DBA0968FACA097A1969FAC50
S11320C0A197A296AFACA297A396BFACA397A496F0
S11320D0CFACA497A596DFACA597A696EFACA69730
S11320E0A796FFACA797A8960FADA897A9961FAD82
S11320F0A997AA962FADAA97AB963FADAB97AC968E
S11321004FADAC97AD965FADAD97AE966FADAE9754
S1132110AF967FADAF97CE014196B6DB8DB79EB734
S113212040970FB6F8949EBF0FBE8DBFADB7BEB734
S1132130119680E1FE01F19601900D928A95E1F7E6
S1132140A0968FACA097A1969FACA197A296AFAC96
S1132150A297A396BFACA397A496CFACA497A59639
S1132160DFACA597A696EFACA697A796FFACA7976A
S1132170A8960FADA897A9961FADA997AA962FADBB
S1132180AA97AB963FADAB97AC964FADAC97AD96D7
S11321905FADAD97AE966FADAE97AF967FADAF978F
S11321A0CE010196CFDBEDB7FEB770970FB6F8946A
S11321B0FEBF0FBEEDBFADB7BEB7119680E1FE0105
S11321C0719601900D928A95E1F789809A80AB808F
S11321D0BC80CD80DE80EF80F88409851A852B854C
S11321E03C854D855E856F857889CE018196AADB15
S11321F049A55AA56BA57CA58DA59EA5AFA5B8A993
S11322000DA11EA12FA138A5F30100831183228300
S11322103383448355836683778380879187A2873A
S1132220B3870FB6F894DEBF0FBECDBFC301C45B46
S1132230DF4F0FB6F894DEBF0FBECDBFDF91CF9155
S11322401F910F91FF90EF90DF90CF90BF90AF90D0
S11322509F908F907F906F905F904F9008951F9202
S11322600F920FB60F9211242F933F938F939F9346
S1132270EF93FF93809137019091380101969093E9
S11322803801809337018FEF87BDE091340184E0FA
S1132290E89FF0011124EF5BFD4F20813181809193
S11322A03701909138012817390778F5E091340106
S11322B084E0E89FF0011124EF5BFD4F828187BD2C
S11322C0E091340184E0E89FF0011124EF5BFD4FBD
S11322D0338128B181E090E002C0880F991F3A95BC
S11322E0E2F780959095822388B910923801109274
S11322F0370180913401853018F01092340105C003
S1132300809134018F5F8093340188B1811101C0C1
S113231015BCFF91EF919F918F913F912F910F9059
S11323200FBE0F901F90189524E6829FC0011124C0
S11323306FEF70E0C1D46C597F4F20EA269FC00133
S1132340279F900D1124692F70E00895AF92BF92DA
S1132350CF92DF92EF92FF920F931F93CF93DF936D
S1132360CDB7DEB760970FB6F894DEBF0FBECDBF12
S1132370609130017091310180913201909133016B
S11323802AE037ED43E25CE37ED160933001709341
S11323903101809332019093330180E090E0A0E812
S11323A0BFE389839A83AB83BC831D821E821F8211
S11323B0188619861A861B861C861D861E861F860D
S11323C0188A4DB75EB7405151090FB6F8945EBFF5
S11323D00FBE4DBFADB7BEB7119680E1FE01319679
S11323E001900D928A95E1F7E0902801F09029017F
S11323F000912A0110912B0120912C0130912D0183
S113240040912E0150912F01609130017091310162
S113241080913201909133011FD95C013CE1E32E9C
S113242031E0F32E0FB6F894DEBF0FBECDBF6701C7
S113243010E0D5016D917D918D919D915D012BED04
S11324403FE049E450E41FD12BED3FE049EC50E478
S1132450FAD120E030E04FE753E46BD35CD2F601CD
S113246060831183F2E0CF0ED11C1F5F163009F791
S11324708CE191E039DCECE1F1E0DC012D913D915E
S1132480CD0121933193B1E0E832FB07B1F724E0A9
S1132490C22E21E0D22E00E010E0F701808100235B
S11324A019F032979081891B9801220F331F220F54
S11324B0331FA9014C5F5E4F5A0136DFD5016D937E
S11324C07D938C93F7018181D60113968C930F5FD2
S11324D01F4FB2E0EB0EF11CE4E0CE0ED11C06302F
S11324E01105D9F684E091E060960FB6F894DEBF4A
S11324F00FBECDBFDF91CF911F910F91FF90EF9051
S1132500DF90CF90BF90AF9008958FEF84B985B9D5
S113251011B810B887B922E02093B00091E09093ED
S1132520B100909170009260909370008093B3001A
S113253024BD15BC90916E00926090936E0087BD8F
S113254078948EE38F9397EC9F939EEA9F9394E104
S11325509F938F9389ED8F9389E98F938AE98F9362
S11325605FE8A52E52ECB52E55E7C52E5CE3D52EBB
S113257014EAE12E10E7F12E0DEB1DE32FE135E80F
S11325804BE65EE360E070E080E89EE30E94520860
S1132590DDDE2DB73EB7285F3F4F0FB6F8943EBF40
S11325A00FBE2DBF20E030E0F901EE0FFF1FEE0F4C
S11325B0FF1FEF5BFD4FDC014D915D916D917D91AE
S11325C0CD0140835183628373832F5F3F4F263055
S11325D0310551F7FFCF1F920F920FB60F921124BE
S11325E02F933F934F935F936F937F938F939F9317
S11325F0AF93BF93EF93FF93809135019091360190
S1132600019690933601809335018FEF8093B30048
S11326108091350190913601823E944010F185B548
S1132620816085BD10923601109235018FE388B91F
S11326308DDE20E030E0F901EE0FFF1FEE0FFF1FEB
S1132640EF5BFD4FDC014D915D916D917D91CD016D
S113265040835183628373832F5F3F4F263031055C
S113266051F7FF91EF91BF91AF919F918F917F911E
S11326706F915F914F913F912F910F900FBE0F90EB
S11326801F9018955058BB27AA270ED000C2C9D155
S113269030F0CED120F031F49F3F11F41EF488C104
S11326A00EF4E095E7FB7EC1E92F13D280F3BA174D
S11326B0620773078407950718F071F49EF52BC21F
S11326C00EF4E0950B2EBA2FA02D0B01B901900149
S11326D00C01CA01A0011124FF27591B99F0593F8D
S11326E050F4503E68F11A16F040A22F232F342FD5
S11326F04427585FF3CF469537952795A795F04023
S11327005395C9F77EF41F16BA0B620B730B840B37
S1132710BAF09150A1F0FF0FBB1F661F771F881FEF
S1132720C2F70EC0BA0F621F731F841F48F4879547
S113273077956795B795F7959E3F08F0B3CF939536
S1132740880F08F09927EE0F9795879508959F9322
S11327509F77EEE389379E0720F4E0E7F0E050D15D
S113276009C005D19058A2EA2AED3FE049EC5FE3A5
S11327709BDF8DD10F9007FC9058089552D158F0EB
S113278080E891E009F49EEF53D128F040E851E04D
S113279059F45EEF09C00CC1BEC1E92FE07899D1AC
S11327A068F3092E052AC1F3261737074807590786
S11327B038F00E2E07F8E02569F0E025E0640AC041
S11327C0EF6307F8009407FADB01B9019D01DC010E
S11327D0CA01AD01EF9346D05AD10AD05F91552377
S11327E031F02BED3FE049E450FD49EC4CCF089526
S11327F0DF93DD27B92FBF7740E85FE3161617068E
S113280048075B0710F4D92F8DD19F938F937F9343
S11328106F933AD2E4E8F0E0CED039D12F913F91D2
S11328204F915F9192D1DD2349F09058A2EA2AEDAD
S11328303FE049EC5FE3D0785D2736DFDF9127C1C5
S1132840FFD0E39535C10CD022C1F2D040F0E9D0DD
S113285030F021F45F3F19F0A5C051115DC1A8C04B
S113286038D198F39923C9F35523B1F3951B550B2C
S1132870BB27AA2762177307840738F09F5F5F4F4F
S1132880220F331F441FAA1FA9F333D00E2E3AF090
S1132890E0E830D091505040E695001CCAF729D0AA
S11328A0FE2F27D0660F771F881FBB1F26173707F9
S11328B04807AB07B0E809F0BB0B802DBF01FF2729
S11328C093585F4F2AF09E3F510568F06BC024C1B6
S11328D05F3FECF3983EDCF3869577956795B79563
S11328E0F7959F5FC9F7880F911D9695879597F97E
S11328F00895E1E0660F771F881FBB1F62177307F7
S11329008407BA0720F0621B730B840BBA0BEE1F0B
S113291088F7E0950895E5D088F09F5790F0B92F97
S11329209927B751A0F0D1F0660F771F881F991F20
S11329301AF0BA95C9F712C0B13081F0ECD0B1E009
S11329400895E9C0672F782F8827B85F39F0B93F19
S1132950CCF3869577956795B395D9F73EF4909522
S11329608095709561957F4F8F4F9F4F0895DF93AA
S1132970CF931F930F938B01EC01E1EBF0E01BD09D
S113298086D09801AE018B01EC0160E070E080E834
S11329909FE378DE3BD19801AE010F911F91CF9157
S11329A0DF91D3C097F99F6780E870E060E00895F5
S11329B09FEF80EC0895DF93CF931F930F93FF92C3
S11329C0EF92DF927B018C01689405C0DA2EEF014F
S11329D0BCD0FE01E894A59125913591459155917E
S11329E0AEF3EF0161DEFE019701A801DA9479F7F5
S11329F0DF90EF90FF900F911F91CF91DF91089599
S1132A009F938F937F936F93FF93EF939B01AC01FD
S1132A1090D0EF91FF91CFDF2F913F914F915F9134
S1132A2088C000240A941616170618060906089585
S1132A3000240A9412161306140605060895B8CF46
S1132A4050D0E8F3E894E0E0BB279F57F0F02AED7C
S1132A503FE049EC06C0EE0FBB0F661F771F881FCF
S1132A6028F0B23A62077307840728F0B25A620B5F
S1132A70730B840BE3959A9572F7803830F49A952A
S1132A80BB0F661F771F881FD2F7904802C1092E1B
S1132A900394000C11F4882352F0BB0F40F4BF2BB5
S1132AA011F460FF04C06F5F7F4F8F4F9F4F0895F5
S1132AB0EF93E0FF06C0A2EA2AED3FE049EC5FEBAA
S1132AC0F3DDE5DF0F90039401FC9058E9EDF0E0AD
S1132AD097CF57FD9058440F551F59F05F3F71F041
S1132AE04795880F97FB991F61F09F3F79F0879571
S1132AF00895121613061406551FF2CF4695F1DFFA
S1132B0008C0161617061806991FF1CF8695710589
S1132B10610508940895E894BB2766277727CB01BD
S1132B2097F908959B01AC0160E070E080E89FE3B1
S1132B308ACE0BD0ACCF75DF28F07ADF18F095235E
S1132B4009F030CF35CF1124E7CFC3DFA0F3959F31
S1132B50D1F3950F50E0551F629FF001729FBB2780
S1132B60F00DB11D639FAA27F00DB11DAA1F649F2C
S1132B706627B00DA11D661F829F2227B00DA11DDF
S1132B80621F739FB00DA11D621F839FA00D611D65
S1132B90221F749F3327A00D611D231F849F600D86
S1132BA0211D822F762F6A2F11249F5750408AF0BF
S1132BB0E1F088234AF0EE0FFF1FBB1F661F771F4B
S1132BC0881F91505040A9F79E3F510570F0EACEFE
S1132BD0A3CF5F3FECF3983EDCF38695779567953A
S1132BE0B795F795E7959F5FC1F7FE2B880F911D69
S1132BF09695879597F908959F9322DF0F9007FC88
S1132C00EE5F56CF11F40EF4D3CE41C06ADFD0F399
S1132C109923D9F3CEF39F57550B87FF46D0002451
S1132C20A0E640EA900180585695979528F4805C78
S1132C30660F771F881F20F026173707480730F4E0
S1132C40621B730B840B202931294A2BA6951794F8
S1132C500794202531254A2758F7660F771F881FC8
S1132C6020F026173707480730F4620B730B840BE8
S1132C70200D311D411DA09581F7B901842F915874
S1132C80880F9695879508959B01AC0152CF9F3F7D
S1132C9031F0915020F4879577956795B795880F13
S1132CA0911D9695879597F9089591505040660F18
S1132CB0771F881FD2F7089597FB072E16F4009408
S1132CC006D077FD08D00BD007FC05D03EF49095D4
S1132CD081959F4F0895709561957F4F0895AA1B24
S1132CE0BB1B51E107C0AA1FBB1FA617B70710F0F3
S1132CF0A61BB70B881F991F5A95A9F78095909525
S10D2D00BC01CD010895F894FFCF43
S1072D0AD7B3DD3F1B
S9030000FC
