S0180000476363426F61726450726F6A656374312E737265630F
S113000037C0000050C000004EC000004CC00000CB
S11300104AC0000048C0000046C0000044C00000C0
S113002042C00000C0C100003EC000003CC000004F
S11300303AC0000038C0000036C0000034C00000E0
S113004096C0000030C000002EC000002CC000008C
S11300502AC0000028C0000026C0000024C0000000
S113006022C0000020C000001EC000001CC0000010
S113007011241FBECFEFD0E1DEBFCDBF11E0A0E061
S1130080B1E0E6EAF4E002C005900D92AC30B107AD
S1130090D9F721E0ACE0B1E001C01D92A134B20770
S11300A0E1F74BD1FEC1ACCFCF93DF93EC016417E2
S11300B008F404D0CE01DF91CF910895EF92FF921E
S11300C00F931F93CF93DF93182FD92F042FA82FAB
S11300D0B92FA60FB11DA60FB11DC42F262F3C9119
S11300E02C1708F5812F9D2F820F911D820F911DD2
S11300F0FC014081341720F0201710F42F5FF2CF59
S1130100E12EFD2EEC0EF11CEC0EF11CF7015081DA
S1130110351710F4C150F4CF2C1708F7FC015083A5
S1130120F7014083DCCFE12FFD2FEC0FF11DEC0F25
S1130130F11D80818C9330834FEF4C0F812F9D2FC5
S1130140B3DF61E06C0F402F812F9D2FDF91CF91A2
S11301501F910F91FF90EF90A7CFCF93DF93EC0106
S113016045E060E0ABDFCE01DF91CF9108951F92AF
S11301700F920FB60F9211242F933F938F939F9357
S1130180EF93FF938091270190912801019690931A
S11301902801809327018FEF87BDE091240184E03B
S11301A0E89FF0011124E75DFE4F208131818091A9
S11301B02701909128012817390778F5E091240147
S11301C084E0E89FF0011124E75DFE4F828187BD42
S11301D0E091240184E0E89FF0011124E75DFE4FE3
S11301E0338128B181E090E002C0880F991F3A95CD
S11301F0E2F780959095822388B910922801109295
S1130200270180912401853018F01092240105C043
S1130210809124018F5F8093240188B1811103C0F0
S113022085B58E7F85BDFF91EF919F918F913F9111
S11302302F910F900FBE0F901F90189524E6829F68
S1130240C00111246FEF70E005D16C597F4F20EA93
S1130250269FC001279F900D1124692F70E00895F7
S1130260AF92BF92CF92DF92EF92FF920F931F93C0
S1130270CF93DF93CDB7DEB72C970FB6F894DEBFDC
S11302800FBECDBF8CE0E0E0F1E0DE0111960190FD
S11302900D928A95E1F7CE0101965FDF8E010F5F23
S11302A01F4F9E01235F3F4FF801DC014D915D918B
S11302B0CD0141935193E217F307B9F72CE0C22E15
S11302C021E0D22EE12CF12CF8018081EE2019F0EE
S11302D032979081891B9701220F331F220F331FFE
S11302E0A901445F5E4F5A01A9DFD5016D937D9347
S11302F08C93F8018181D60113968C93BFEFEB1A8E
S1130300FB0A0E5F1F4FE4E0CE0ED11CF6E0EF16A1
S1130310F104D1F68CE091E02C960FB6F894DEBF90
S11303200FBECDBFDF91CF911F910F91FF90EF9042
S1130330DF90CF90BF90AF9008958FEF84B985B9C7
S113034011B810B887B922E02093B00091E09093DF
S1130350B100909170009260909370008093B3000C
S113036024BD15BC90916E00926090936E0087BD81
S1130370789476DF20E030E0F901EE0FFF1FEE0FF6
S1130380FF1FE75DFE4FDC014D915D916D917D9105
S1130390CD0140835183628373832F5F3F4F2630A7
S11303A0310551F7FFCF1F920F920FB60F92112410
S11303B02F933F934F935F936F937F938F939F9369
S11303C0AF93BF93EF93FF93809125019091260102
S11303D0019690932601809325018FEF8093B300BB
S11303E08091250190912601823E944010F185B5BB
S11303F0816085BD10922601109225018FE388B992
S11304002FDF20E030E0F901EE0FFF1FEE0FFF1F9A
S1130410E75DFE4FDC014D915D916D917D91CD01C4
S113042040835183628373832F5F3F4F26303105AE
S113043051F7FF91EF91BF91AF919F918F917F9170
S11304406F915F914F913F912F910F900FBE0F903D
S11304501F90189597FB072E16F4009406D077FD8D
S113046008D00BD007FC05D03EF4909581959F4FA2
S11304700895709561957F4F0895AA1BBB1B51E1A8
S113048007C0AA1FBB1FA617B70710F0A61BB70B00
S1130490881F991F5A95A9F780959095BC01CD01A5
S10904A00895F894FFCF5B
S10F04A6F0003701500264030A046405EE
S9030000FC
