S0180000476363426F61726450726F6A656374312E737265630F
S11300007BC0000096C0000094C0000092C00000B5
S113001090C000008EC000008CC000008AC00000A8
S113002088C000000C945B1784C0000082C00000EC
S113003080C000007EC000007CC000007AC00000C8
S11300400C94A11776C0000074C0000072C00000B8
S11300500C943B126EC000006CC000006AC000002B
S113006068C0000066C0000064C0000062C00000F8
S1130070036EDB363D9A9999993DABAAAA2A3E00B4
S11300800000803F084AD73B3BCE016E84BCBFFDD5
S1130090C12F3D6C74319ABD56833DDA3D00C77F54
S11300A011BED9E4BB4C3E916BAAAABE00000080ED
S11300B03F072C7AA5BA6CC590DA3B9365FC8BBCE0
S11300C053F810FD3C5692834DBD879D3AB63DCB07
S11300D0C9BF5BBE73DA0FC93F05A84CCDB2D44E7D
S11300E0B93836A9020C50B9918688083CA6AAAA48
S11300F02ABE000000803F0011241FBECFEFD0E1D4
S1130100DEBFCDBF11E0A0E0B1E0EAE4FBE302C052
S113011005900D92A831B107D9F722E0A8E1B1E02A
S113012001C01D92A437B207E1F70E94C0150C94D8
S1130130A31D66CFAF92BF92CF92DF92EF92FF9250
S11301400F931F93CF93DF93CDB7DEB760970FB6AE
S1130150F894DEBF0FBECDBF69837A838B839C8303
S11301602D833E834F835887E986FA860B871C8745
S1130170AD86BE86CF86D88A89819A81AB81BC81BF
S11301808093660190936701A0936801B09369011D
S11301908D819E81AF81B8858093EE019093EF01AC
S11301A0A093F001B093F10189859A85AB85BC8554
S11301B08093460290934702A0934802B093490269
S11301C08D859E85AF85B8898093420190934301C4
S11301D0A0934401B09345018D8D9E8DAF8DB8A140
S11301E08093460190934701A0934801B09349013D
S11301F089A19AA1ABA1BCA180934A0190934B0120
S1130200A0934C01B0934D01D3D712D45FD012D038
S1130210000060960FB6F894DEBF0FBECDBFDF912D
S1130220CF911F910F91FF90EF90DF90CF90BF90EF
S1130230AF900895CF93DF93CDB7DEB78BED9FE0FA
S1130240A9E4B0E480934E0190934F01A093500130
S1130250B093510110925201109253011092540123
S11302601092550182E99AE0A6E8BFE38093560113
S113027090935701A0935801B093590182E99AE0F1
S1130280A6E0B0EC80935A0190935B01A0935C01CB
S1130290B0935D0182E99AE0A6E8BFEB80935E012A
S11302A090935F01A0936001B093610182E99AE0A9
S11302B0A6E0B0E48093620190936301A09364018B
S11302C0B09365010000DF91CF9108958F929F92C2
S11302D0AF92BF92CF92DF92EF92FF920F931F9350
S11302E0CF93DF93CDB7DEB7CC57D1090FB6F894CF
S11302F0DEBF0FBECDBF80914A0190914B01A0910A
S11303004C01B0914D019C01AD0160E070E080E8CA
S11303109FE30E94361ADC01CB0189839A83AB8365
S1130320BC835E018DE4A80EB11CADB7BEB71C97AB
S11303300FB6F894BEBF0FBEADBF8DB79EB7019682
S11303402CE0E2E8F1E0DC0101900D922A95E1F75E
S1130350C090D601D090D701E090D801F090D90197
S11303600091DA011091DB012091DC013091DD0173
S11303704091DE015091DF016091E0017091E10153
S1130380C5010E94D7138DB79EB70C960FB6F8948B
S1130390DEBF0FBECDBF5E0199E5A90EB11CADB79E
S11303A0BEB71C970FB6F894BEBF0FBEADBF8DB7D6
S11303B09EB701962CE0E6EDF1E0DC0101900D9290
S11303C02A95E1F7C090F201D090F301E090F40196
S11303D0F090F5010091F6011091F7012091F801D8
S11303E03091F9014091FA015091FB016091FC01B7
S11303F07091FD01C5010E94D7138DB79EB70C966D
S11304000FB6F894DEBF0FBECDBF5E0195E6A90E10
S1130410B11CADB7BEB71C970FB6F894BEBF0FBEE4
S1130420ADBF8DB79EB701962CE0E2EFF1E0DC01A1
S113043001900D922A95E1F7C0908201D09083013A
S1130440E0908401F090850100918601109187016C
S1130450209188013091890140918A0150918B014A
S113046060918C0170918D01C5010E94D7138DB7E5
S11304709EB70C960FB6F894DEBF0FBECDBF209189
S11304804A0130914B0140914C0150914D01FE01C4
S1130490EF5BFF4FCE01835B9F4F49015A01DC01A3
S11304A0CC90DC011196DC90DC011296EC90DC011E
S11304B01396FC90DC0114960C91DC0115961C91AA
S11304C0DC0116962C91DC0117963C91DC01189600
S11304D04C91DC0119965C91DC011A966C91DC015B
S11304E01B967C91CF010E9408135E01B1E7AB0E0D
S11304F0B11C8DB79EB70C970FB6F8949EBF0FBE74
S11305008DBF8DB79EB701962CE0FE01EF5BFF4FC8
S1130510DC0101900D922A95E1F7C0908201D09000
S11305208301E0908401F09085010091860110918F
S11305308701209188013091890140918A0150916D
S11305408B0160918C0170918D01C5010E94721321
S1130550ADB7BEB71C960FB6F894DEBF0FBECDBFC5
S1130560CE018F589F4F2CE0FC01AEEFB1E001901B
S11305700D922A95E1F7FE01F59629813A814B8186
S11305805C81CE018B599F4F49015A01DC01CC900B
S1130590DC011196DC90DC011296EC90DC011396E0
S11305A0FC90DC0114960C91DC0115961C91DC0185
S11305B016962C91DC0117963C91DC0118964C910F
S11305C0DC0119965C91DC011A966C91DC011B9696
S11305D07C91CF010E9408135E01B1E7AB0EB11C00
S11305E08DB79EB70C970FB6F8949EBF0FBE8DBF04
S11305F08DB79EB701962CE0FE01F596DC010190C3
S11306000D922A95E1F7C090F201D090F301E090A9
S1130610F401F090F5010091F6011091F701209199
S1130620F8013091F9014091FA015091FB01609178
S1130630FC017091FD01C5010E947213ADB7BEB7F4
S11306401C960FB6F894DEBF0FBECDBFCE018F58F7
S11306509F4F2CE0FC01AAE0B2E001900D922A9594
S1130660E1F720914A0130914B0140914C015091A6
S11306704D01FE01B996CE018B599F4F49015A0194
S1130680DC01CC90DC011196DC90DC011296EC903C
S1130690DC011396FC90DC0114960C91DC01159698
S11306A01C91DC0116962C91DC0117963C91DC011F
S11306B018964C91DC0119965C91DC011A966C91A8
S11306C0DC011B967C91CF010E9408135E01B1E707
S11306D0AB0EB11C8DB79EB70C970FB6F8949EBFA6
S11306E00FBE8DBF8DB79EB701962CE0FE01B99663
S11306F0DC0101900D922A95E1F7C090F201D090AF
S1130700F301E090F401F090F5010091F6011091ED
S1130710F7012091F8013091F9014091FA015091CB
S1130720FB016091FC017091FD01C5010E947213EF
S1130730ADB7BEB71C960FB6F894DEBF0FBECDBFE3
S1130740CE018F589F4F2CE0FC01A6E1B2E001904E
S11307500D922A95E1F7FE017D9629813A814B811C
S11307605C81CE01875A9F4F49015A01DC01CC902C
S1130770DC011196DC90DC011296EC90DC011396FE
S1130780FC90DC0114960C91DC0115961C91DC01A3
S113079016962C91DC0117963C91DC0118964C912D
S11307A0DC0119965C91DC011A966C91DC011B96B4
S11307B07C91CF010E9408135E01B1E7AB0EB11C1E
S11307C08DB79EB70C970FB6F8949EBF0FBE8DBF22
S11307D08DB79EB701962CE0FE017D96DC01019059
S11307E00D922A95E1F7C090D601D090D701E09000
S11307F0D801F090D9010091DA011091DB01209128
S1130800DC013091DD014091DE015091DF01609106
S1130810E0017091E101C5010E947213ADB7BEB74A
S11308201C960FB6F894DEBF0FBECDBFCE018F5815
S11308309F4F2CE0FC01A2E2B2E001900D922A95B8
S1130840E1F720914A0130914B0140914C015091C4
S11308504D01FE017196CE01875A9F4F49015A01FD
S1130860DC01CC90DC011196DC90DC011296EC905A
S1130870DC011396FC90DC0114960C91DC011596B6
S11308801C91DC0116962C91DC0117963C91DC013D
S113089018964C91DC0119965C91DC011A966C91C6
S11308A0DC011B967C91CF010E9408135E01B1E725
S11308B0AB0EB11C8DB79EB70C970FB6F8949EBFC4
S11308C00FBE8DBF8DB79EB701962CE0FE017196C9
S11308D0DC0101900D922A95E1F7C090D601D090E9
S11308E0D701E090D801F090D9010091DA0110917C
S11308F0DB012091DC013091DD014091DE0150915A
S1130900DF016091E0017091E101C5010E94721361
S1130910ADB7BEB71C960FB6F894DEBF0FBECDBF01
S1130920CE018F589F4F2CE0FC01AEE2B2E0019063
S11309300D922A95E1F7FE01359689819A81AB8162
S1130940BC814C015D01C090E201D090E301E090D4
S1130950E401F090E5010091E6011091E701209196
S1130960E8013091E9014091EA015091EB01609175
S1130970EC017091ED01CF010E9408135E01B1E713
S1130980AB0EB11C8DB79EB70C970FB6F8949EBFF3
S11309900FBE8DBF8DB79EB701962CE0FE01359634
S11309A0DC0101900D922A95E1F7C0908201D0906C
S11309B08301E0908401F0908501009186011091FB
S11309C08701209188013091890140918A015091D9
S11309D08B0160918C0170918D01C5010E9472138D
S11309E0ADB7BEB71C960FB6F894DEBF0FBECDBF31
S11309F0CE018F589F4F2CE0FC01AAE3B2E0019096
S1130A000D922A95E1F70000C458DF4F0FB6F89411
S1130A10DEBF0FBECDBFDF91CF911F910F91FF902D
S1130A20EF90DF90CF90BF90AF909F908F900895FC
S1130A308F929F92AF92BF92CF92DF92EF92FF92EA
S1130A400F931F93CF93DF93CDB7DEB7CC57D10964
S1130A500FB6F894DEBF0FBECDBF809146019091D2
S1130A604701A0914801B09149019C01AD0160E0AA
S1130A7070E080E89FE30E94361ADC01CB01898391
S1130A809A83AB83BC835E018DE4A80EB11CADB721
S1130A90BEB71C970FB6F894BEBF0FBEADBF8DB7DF
S1130AA09EB701962CE0E2EEF1E0DC0101900D929C
S1130AB02A95E1F7C0906A01D0906B01E0906C0137
S1130AC0F0906D0100916E0110916F012091700101
S1130AD030917101409172015091730160917401E0
S1130AE070917501C5010E94D7138DB79EB70C96FE
S1130AF00FB6F894DEBF0FBECDBF5E0199E5A90E17
S1130B00B11CADB7BEB71C970FB6F894BEBF0FBEED
S1130B10ADBF8DB79EB701962CE0EAE6F1E0DC01AB
S1130B2001900D922A95E1F7C0907601D09077015B
S1130B30E0907801F090790100917A0110917B01A5
S1130B4020917C0130917D0140917E0150917F0183
S1130B506091800170918101C5010E94D7138DB706
S1130B609EB70C960FB6F894DEBF0FBECDBF5E01E4
S1130B7095E6A90EB11CADB7BEB71C970FB6F89495
S1130B80BEBF0FBEADBF8DB79EB701962CE0E6E7A2
S1130B90F1E0DC0101900D922A95E1F7C090E201A9
S1130BA0D090E301E090E401F090E5010091E601CA
S1130BB01091E7012091E8013091E9014091EA01A7
S1130BC05091EB016091EC017091ED01C5010E941F
S1130BD0D7138DB79EB70C960FB6F894DEBF0FBE31
S1130BE0CDBFFE01EF5BFF4F29813A814B815C81D0
S1130BF0CE01835B9F4F49015A01DC01CC90DC019B
S1130C001196DC90DC011296EC90DC011396FC90BA
S1130C10DC0114960C91DC0115961C91DC011696EE
S1130C202C91DC0117963C91DC0118964C91DC0167
S1130C3019965C91DC011A966C91DC011B967C91EF
S1130C40CF010E9408135E01B1E7AB0EB11C8DB752
S1130C509EB70C970FB6F8949EBF0FBE8DBF8DB78D
S1130C609EB701962CE0FE01EF5BFF4FDC01019083
S1130C700D922A95E1F7C090E201D090E301E09053
S1130C80E401F090E5010091E6011091E701209163
S1130C90E8013091E9014091EA015091EB01609142
S1130CA0EC017091ED01C5010E947213ADB7BEB79E
S1130CB01C960FB6F894DEBF0FBECDBFCE018F5881
S1130CC09F4F2CE0FC01AEE8B1E001900D922A9513
S1130CD0E1F720914601309147014091480150913C
S1130CE04901FE01F596CE01835B9F4F49015A01EC
S1130CF0DC01CC90DC011196DC90DC011296EC90C6
S1130D00DC011396FC90DC0114960C91DC01159621
S1130D101C91DC0116962C91DC0117963C91DC01A8
S1130D2018964C91DC0119965C91DC011A966C9131
S1130D30DC011B967C91CF010E9408135E01B1E790
S1130D40AB0EB11C8DB79EB70C970FB6F8949EBF2F
S1130D500FBE8DBF8DB79EB701962CE0FE01F596B0
S1130D60DC0101900D922A95E1F7C090E201D09048
S1130D70E301E090E401F090E5010091E6011091B7
S1130D80E7012091E8013091E9014091EA01509195
S1130D90EB016091EC017091ED01C5010E947213A9
S1130DA0ADB7BEB71C960FB6F894DEBF0FBECDBF6D
S1130DB0CE018F589F4F2CE0FC01AAE9B1E00190CD
S1130DC00D922A95E1F7FE01B99629813A814B816A
S1130DD05C81CE018B599F4F49015A01DC01CC90B3
S1130DE0DC011196DC90DC011296EC90DC01139688
S1130DF0FC90DC0114960C91DC0115961C91DC012D
S1130E0016962C91DC0117963C91DC0118964C91B6
S1130E10DC0119965C91DC011A966C91DC011B963D
S1130E207C91CF010E9408135E01B1E7AB0EB11CA7
S1130E308DB79EB70C970FB6F8949EBF0FBE8DBFAB
S1130E408DB79EB701962CE0FE01B996DC010190A6
S1130E500D922A95E1F7C0907601D0907701E09049
S1130E607801F090790100917A0110917B01209131
S1130E707C0130917D0140917E0150917F01609110
S1130E80800170918101C5010E947213ADB7BEB794
S1130E901C960FB6F894DEBF0FBECDBFCE018F589F
S1130EA09F4F2CE0FC01A6EAB1E001900D922A9537
S1130EB0E1F720914601309147014091480150915A
S1130EC04901FE017D96CE018B599F4F49015A017C
S1130ED0DC01CC90DC011196DC90DC011296EC90E4
S1130EE0DC011396FC90DC0114960C91DC01159640
S1130EF01C91DC0116962C91DC0117963C91DC01C7
S1130F0018964C91DC0119965C91DC011A966C914F
S1130F10DC011B967C91CF010E9408135E01B1E7AE
S1130F20AB0EB11C8DB79EB70C970FB6F8949EBF4D
S1130F300FBE8DBF8DB79EB701962CE0FE017D9646
S1130F40DC0101900D922A95E1F7C0907601D090D2
S1130F507701E0907801F090790100917A01109185
S1130F607B0120917C0130917D0140917E01509163
S1130F707F016091800170918101C5010E9472130B
S1130F80ADB7BEB71C960FB6F894DEBF0FBECDBF8B
S1130F90CE018F589F4F2CE0FC01A2EBB1E00190F1
S1130FA00D922A95E1F7FE01719629813A814B81D0
S1130FB05C81CE01875A9F4F49015A01DC01CC90D4
S1130FC0DC011196DC90DC011296EC90DC011396A6
S1130FD0FC90DC0114960C91DC0115961C91DC014B
S1130FE016962C91DC0117963C91DC0118964C91D5
S1130FF0DC0119965C91DC011A966C91DC011B965C
S11310007C91CF010E9408135E01B1E7AB0EB11CC5
S11310108DB79EB70C970FB6F8949EBF0FBE8DBFC9
S11310208DB79EB701962CE0FE017196DC0101900C
S11310300D922A95E1F7C0906A01D0906B01E0907F
S11310406C01F0906D0100916E0110916F0120917F
S1131050700130917101409172015091730160915E
S1131060740170917501C5010E947213ADB7BEB7CA
S11310701C960FB6F894DEBF0FBECDBFCE018F58BD
S11310809F4F2CE0FC01AEEBB1E001900D922A954C
S1131090E1F7209146013091470140914801509178
S11310A04901FE013596CE01875A9F4F49015A01E5
S11310B0DC01CC90DC011196DC90DC011296EC9002
S11310C0DC011396FC90DC0114960C91DC0115965E
S11310D01C91DC0116962C91DC0117963C91DC01E5
S11310E018964C91DC0119965C91DC011A966C916E
S11310F0DC011B967C91CF010E9408135E01B1E7CD
S1131100AB0EB11C8DB79EB70C970FB6F8949EBF6B
S11311100FBE8DBF8DB79EB701962CE0FE013596AC
S1131120DC0101900D922A95E1F7C0906A01D090FC
S11311306B01E0906C01F0906D0100916E011091D3
S11311406F012091700130917101409172015091B1
S113115073016091740170917501C5010E9472134D
S1131160ADB7BEB71C960FB6F894DEBF0FBECDBFA9
S1131170CE018F589F4F2CE0FC01AAECB1E0019006
S11311800D922A95E1F70000C458DF4F0FB6F8948A
S1131190DEBF0FBECDBFDF91CF911F910F91FF90A6
S11311A0EF90DF90CF90BF90AF909F908F90089575
S11311B0EF92FF920F931F93CF93DF93CDB7DEB7D8
S11311C060970FB6F894DEBF0FBECDBF80910001CB
S11311D090910101A0910201B091030120E030E05F
S11311E040EC50E4BC01CD010E941B1BDC01CB018F
S11311F07C018D018091660190916701A091680145
S1131200B09169019C01AD01C801B7010E94B91CEC
S1131210DC01CB0189839A83AB83BC8389819A8166
S1131220AB81BC819C01AD01BC01CD010E94371A88
S1131230DC01CB018D839E83AF83B88780916601E7
S113124090916701A0916801B0916901B05820E0C4
S113125030E040E050E4BC01CD010E941B1BDC01E6
S1131260CB019C01AD0189819A81AB81BC81B058CD
S11312702093E2013093E3014093E4015093E501AC
S11312808093E6019093E701A093E801B093E9010C
S11312901092EA011092EB011092EC011092ED0110
S11312A08091660190916701A0916801B0916901F4
S11312B020E030E040E050E4BC01CD010E941B1B63
S11312C0DC01CB019C01AD0189819A81AB81BC8198
S11312D0B05820936A0130936B0140936C01509392
S11312E06D0180936E0190936F01A0937001B09390
S11312F07101109272011092730110927401109294
S11313007501109276011092770110927801109273
S113131079018D819E81AF81B88580937A01909304
S11313207B01A0937C01B0937D0110927E01109209
S11313307F011092800110928101809100019091AF
S11313400101A0910201B091030120E030E040ECE2
S113135050E4BC01CD010E941B1BDC01CB017C01CC
S11313608D018091EE019091EF01A091F001B09177
S1131370F1019C01AD01C801B7010E94B91CDC0157
S1131380CB0189879A87AB87BC8789859A85AB858A
S1131390BC859C01AD01BC01CD010E94371ADC0162
S11313A0CB018D879E87AF87B88B2D853E854F8572
S11313B0588960E070E0CB010E94361ADC01CB0151
S11313C04CE022E831E0F901542F11925A95E9F7E3
S11313D08093820190938301A0938401B09385014B
S11313E08091EE019091EF01A091F001B091F10193
S11313F020E030E040E050E4BC01CD010E941B1B22
S1131400DC01CB018093D6019093D701A093D8013E
S1131410B093D90189859A85AB85BC858093DA011F
S11314209093DB01A093DC01B093DD011092DE0107
S11314301092DF011092E0011092E1018091EE011F
S11314409091EF01A091F001B091F101B05820E02A
S113145030E040E050E4BC01CD010E941B1BDC01E4
S1131460CB018093F2019093F301A093F401B09324
S1131470F50189859A85AB85BC858093F6019093A7
S1131480F701A093F801B093F9011092FA011092B8
S1131490FB011092FC011092FD01000060960FB652
S11314A0F894DEBF0FBECDBFDF91CF911F910F9196
S11314B0FF90EF900895AF92BF92CF92DF92EF9298
S11314C0FF920F931F93CF93DF93CDB7DEB7E297CD
S11314D00FB6F894DEBF0FBECDBFEFA2F8A609A7E2
S11314E01AA72BA73CA74DA75EA76FA778AB89AB1C
S11314F09AAB1A821982CAC05E012BE1A20EB11CFA
S113150029813A81C901880F991F820F931F880F7F
S1131510991F880F991F9C0122503E4F8DB79EB78B
S11315200C970FB6F8949EBF0FBE8DBF8DB79EB7B4
S113153001964CE0F901DC0101900D924A95E1F726
S113154029813A81C901880F991F820F931F880F3F
S1131550991F880F991F9C0122573E4FEDB7FEB784
S11315603C970FB6F894FEBF0FBEEDBF8DB79EB784
S113157001964CE0F901DC0101900D924A95E1F7E6
S11315802DB73EB7205131090FB6F8943EBF0FBEB8
S11315902DBF8DB79EB7019620E1FE01FF96DC01B9
S11315A001900D922A95E1F7CFA0D8A4E9A4FAA45A
S11315B00BA51CA52DA53EA54FA558A969A97AA9D7
S11315C0C50119D38DB79EB788960FB6F894DEBFC0
S11315D00FBECDBF89819A81880F991F880F991FEB
S11315E0825B9E4FFC012081318142815381809135
S11315F0420190914301A0914401B0914501E090D2
S11316004602F09047020091480210914902652F6A
S11316106F93642F6F93632F6F932F932B2F2F93BD
S11316202A2F2F93292F2F938F9357016801EB8C27
S1131630FC8C0D8D1E8D2F8D38A149A15AA16BA153
S11316407CA18DA19EA13AD02DB73EB7285F3F4F14
S11316500FB6F894DEBF0FBECDBFDC01CB012981EC
S11316603A81220F331F220F331FAE014F5F5F4FAA
S1131670240F351F2E5F3F4FF90180839183A2838E
S1131680B38389819A8101969A83898389819A8116
S113169006970CF431CF80E090E0E2960FB6F89410
S11316A0DEBF0FBECDBFDF91CF911F910F91FF9091
S11316B0EF90DF90CF90BF90AF900895AF92BF921C
S11316C0CF92DF92EF92FF920F931F93CF93DF930A
S11316D0CDB7DEB76C970FB6F894DEBF0FBECDBFA3
S11316E0ED86FE860F87188B298B3A8B4B8B5C8B90
S11316F06D8B7E8B8F8B988FA98EBA8ECB8EDC8E62
S113170089A59AA5ABA5BCA5AD84BE84CF84D88891
S1131710E988FA880B891C892D893E894F89588D5F
S1131720BC01CD0174D0DC01CB0189839A83AB83E6
S1131730BC8389A59AA5ABA5BCA528A92F932FA5E1
S11317402F932EA52F932DA52F93AD84BE84CF84E4
S1131750D888E988FA880B891C892D893E894F89A4
S1131760588DBC01CD01A2D00F900F900F900F9017
S1131770DC01CB018D839E83AF83B88789A59AA5AD
S1131780ABA5BCA52C8D2F932B8D2F932A8D2F9336
S1131790298D2F93AD84BE84CF84D888E988FA88B4
S11317A00B891C892D893E894F89588DBC01CD0137
S11317B00AD10F900F900F900F90DC01CB01898715
S11317C09A87AB87BC87E984FA840B851C852D81B5
S11317D03E814F81588589819A81AB81BC81BC014E
S11317E0CD0186D1DC01CB01BC01CD016C960FB6D5
S11317F0F894DEBF0FBECDBFDF91CF911F910F9143
S1131800FF90EF90DF90CF90BF90AF900895AF928C
S1131810BF92CF92DF92EF92FF920F931F93CF93D9
S1131820DF93CDB7DEB760970FB6F894DEBF0FBE77
S1131830CDBF69837A838B839C83AD82BE82CF8242
S1131840D886E986FA860B871C872D873E874F87C3
S1131850588B89819A81AB81BC819C01AD01BC010B
S1131860CD010E94371ADC01CB017C018D018D85ED
S11318709E85AF85B8899C01AD01C801B7010E945E
S1131880B91CDC01CB01BC01CD0160960FB6F89404
S1131890DEBF0FBECDBFDF91CF911F910F91FF909F
S11318A0EF90DF90CF90BF90AF9008954F925F92EA
S11318B06F927F928F929F92AF92BF92CF92DF925C
S11318C0EF92FF920F931F93CF93DF93CDB7DEB7C1
S11318D060970FB6F894DEBF0FBECDBF69837A83DD
S11318E08B839C83AD82BE82CF82D886E986FA86BA
S11318F00B871C872D873E874F87588B89819A8158
S1131900AB81BC819C01AD01BC01CD010E94371AA1
S1131910DC01CB016C017D018BA19CA1ADA1BEA119
S1131920BC01CD010E94181B4B015C018D819E817D
S1131930AF81B8859C01AD01C501B4010E94B91CF9
S1131940DC01CB014C015D018BA19CA1ADA1BEA129
S1131950BC01CD010E941C1D2B013C0189859A8587
S1131960AB85BC859C01AD01C301B2010E94B91CC9
S1131970DC01CB019C01AD01C501B4010E94371A01
S1131980DC01CB019C01AD01C701B6010E94B91C69
S1131990DC01CB01BC01CD0160960FB6F894DEBF2B
S11319A00FBECDBFDF91CF911F910F91FF90EF90AC
S11319B0DF90CF90BF90AF909F908F907F906F906B
S11319C05F904F900895AF92BF92CF92DF92EF92C3
S11319D0FF920F931F93CF93DF93CDB7DEB76C972E
S11319E00FB6F894DEBF0FBECDBF6D877E878F879D
S11319F0988BA98ABA8ACB8ADC8AED8AFE8A0F8BF5
S1131A00188F298F3A8F4B8F5C8FE988FA880B895E
S1131A101C892D893E894F89588D698D7A8D8B8DCE
S1131A209C8D2AD75B016C01E988FA880B891C8993
S1131A302D893E894F89588D698D7A8D8B8D9C8D2A
S1131A401BD7DC01CB019C01AD01C601B5010E948D
S1131A50B91CDC01CB0189839A83AB83BC8329A5A0
S1131A603AA54BA55CA569A57AA58BA59CA50E9462
S1131A70B91CDC01CB018D839E83AF83B8872D8590
S1131A803E854F8558896D857E858F8598890E940E
S1131A90B91CDC01CB0189879A87AB87BC87298570
S1131AA03A854B855C856D817E818F8198850E9406
S1131AB0361ADC01CB019C01AD0169817A818B81ED
S1131AC09C810E94361ADC01CB01BC01CD016C96CD
S1131AD00FB6F894DEBF0FBECDBFDF91CF911F913B
S1131AE00F91FF90EF90DF90CF90BF90AF9008954B
S1131AF0CF92DF92EF92FF920F931F93CF93DF93D6
S1131B00CDB7DEB760970FB6F894DEBF0FBECDBF7A
S1131B106D837E838F83988729873A874B875C8779
S1131B20ED86FE860F87188B2D813E814F81588567
S1131B306D817E818F8198850E94B91CDC01CB0167
S1131B406C017D0129853A854B855C8569857A859B
S1131B508B859C850E94B91CDC01CB019C01AD01E5
S1131B60C701B6010E94371ADC01CB01BC01CD01CB
S1131B700E94261DDC01CB019C01AD016D857E8593
S1131B808F8598890E941B1BDC01CB01BC01CD0110
S1131B900E949B1A6B017C012D813E814F815885E7
S1131BA089859A85AB85BC85BC01CD010E94C11A8B
S1131BB0DC01CB019C01AD01C701B6010E94361ABC
S1131BC0DC01CB0189839A83AB83BC8389819A81AD
S1131BD0AB81BC81BC01CD0160960FB6F894DEBF29
S1131BE00FBECDBFDF91CF911F910F91FF90EF906A
S1131BF0DF90CF900895AF92BF92CF92DF92EF9291
S1131C00FF920F931F93CF93DF93CDB7DEB7A697C1
S1131C100FB6F894DEBF0FBECDBF9A8F898FCB8EDF
S1131C20DC8EED8EFE8E0F8F18A329A33AA34BA34F
S1131C305CA36DA37EA35E018DE0A80EB11C8DB7DD
S1131C409EB740970FB6F8949EBF0FBE8DBF8DB759
S1131C509EB7019620E1FE01F396DC0101900D92FE
S1131C602A95E1F76096CFAC60976196DFAC6197F7
S1131C706296EFAC62976396FFAC639764960FAD80
S1131C80649765961FAD659766962FAD66976796C0
S1131C903FAD679768964FAD689769965FAD699752
S1131CA06A966FAD6A976B967FAD6B97C5014AD6FE
S1131CB08DB79EB740960FB6F894DEBF0FBECDBF6A
S1131CC08DB79EB70C970FB6F8949EBF0FBE8DBF0D
S1131CD08DB79EB701962CE0FE013D96DC01019084
S1131CE00D922A95E1F7CB8CDC8CED8CFE8C0F8D5C
S1131CF018A129A13AA14BA15CA16DA17EA1CE019D
S1131D000196F0D48DB79EB70C960FB6F894DEBF4B
S1131D100FBECDBFA98CBA8C8DB79EB70C970FB6EA
S1131D20F8949EBF0FBE8DBF8DB79EB701962CE071
S1131D30FE01ED5BFF4FDC0101900D922A95E1F766
S1131D40C980DA80EB80FC800D811E812F8138856B
S1131D5049855A856B857C85C50129D58DB79EB784
S1131D600C960FB6F894DEBF0FBECDBF898D9A8D49
S1131D70A6960FB6F894DEBF0FBECDBFDF91CF910C
S1131D801F910F91FF90EF90DF90CF90BF90AF9095
S1131D900895CF92DF92EF92FF920F931F93CF9308
S1131DA0DF93CDB7DEB72C970FB6F894DEBF0FBE26
S1131DB0CDBFC982DA82EB82FC820D831E832F831E
S1131DC0388749875A876B877C87C980DA80EB809C
S1131DD0FC800D811E812F81388549855A856B854C
S1131DE07C85FC011082118212821382C482D58206
S1131DF0E682F782008711872287338744875587D5
S1131E00668777872C960FB6F894DEBF0FBECDBFDA
S1131E10DF91CF911F910F91FF90EF90DF90CF90C2
S1131E2008958F929F92AF92BF92CF92DF92EF92DA
S1131E30FF920F931F93CF93DF93CDB7DEB76097D5
S1131E400FB6F894DEBF0FBECDBF89829A82AB82F3
S1131E50BC82CD82DE82EF82F88609871A872B87BF
S1131E603C874D875E876F87788BCD80DE80EF80DF
S1131E70F884F7FAF094F7F8F09409851A852B851D
S1131E803C8530584D855E856F857889705889808A
S1131E909A80AB80BC80FC0180829182A282B38252
S1131EA0C482D582E682F78200871187228733872E
S1131EB0448755876687778760960FB6F894DEBFA8
S1131EC00FBECDBFDF91CF911F910F91FF90EF9087
S1131ED0DF90CF90BF90AF909F908F9008952F92F6
S1131EE03F924F925F926F927F928F929F92AF92A6
S1131EF0BF92CF92DF92EF92FF920F931F93CF93F3
S1131F00DF93CDB7DEB7A8970FB6F894DEBF0FBE48
S1131F10CDBF1C0189829A82AB82BC82CD82DE82D3
S1131F20EF82F88609871A872B873C874D875E875F
S1131F306F87788B89819A81AB81BC818DA39EA3A5
S1131F40AFA3B8A78D819E81AF81B88589A39AA3D9
S1131F50ABA3BCA389859A85AB85BC858D8F9E8FE9
S1131F60AF8FB8A38D859E85AF85B889898F9A8FE9
S1131F70AB8FBC8F21968CAD9DADAEADBFAD21971F
S1131F808D8B9E8BAF8BB88F25968CAD9DADAEADF2
S1131F90BFAD2597898B9A8BAB8BBC8B2996CCAC28
S1131FA0DDACEEACFFAC29972D968CAC9DACAEAC01
S1131FB0BFAC2D972DA13EA14FA158A56D897E8957
S1131FC08F89988D0E94B91C2B013C0129A13AA14B
S1131FD04BA15CA169897A898B899C890E94B91C6F
S1131FE09B01AC01C301B2010E94361A2B013C01D2
S1131FF0A70196016D8D7E8D8F8D98A10E94B91CCD
S11320009B01AC01C301B2010E94361A2B013C01B1
S1132010A5019401698D7A8D8B8D9C8D0E94B91CCC
S11320209B01AC01C301B2010E94361AD1016D9328
S11320307D938D939C9313972DA13EA14FA158A5F9
S113204069897A898B899C890E94B91C2B013C017E
S113205029A13AA14BA15CA16D897E898F89988DB4
S11320600E94B91C9B01AC01C301B2010E94371A42
S11320702B013C01A50194016D8D7E8D8F8D98A15E
S11320800E94B91C9B01AC01C301B2010E94371A22
S11320902B013C01A7019601698D7A8D8B8D9C8D56
S11320A00E94B91C9B01AC01C301B2010E94361A03
S11320B0F1016483758386839783A70196016DA1DB
S11320C07EA18FA198A50E94B91C2B013C01A501FA
S11320D0940169A17AA18BA19CA10E94B91C9B01C6
S11320E0AC01C301B2010E94361A2B013C012D8DB3
S11320F03E8D4F8D58A16D897E898F89988D0E9460
S1132100B91C9B01AC01C301B2010E94371A2B0117
S11321103C01298D3A8D4B8D5C8D69897A898B8937
S11321209C890E94B91C9B01AC01C301B2010E94AD
S1132130371AD10118966D937D938D939C931B97B9
S1132140A50194016DA17EA18FA198A50E94B91C3F
S11321504B015C01A701960169A17AA18BA19CA105
S11321600E94B91C9B01AC01C501B4010E94371A3D
S11321706B017C012D8D3E8D4F8D58A169897A8923
S11321808B899C890E94B91C9B01AC01C701B601D3
S11321900E94361A6B017C01298D3A8D4B8D5C8D22
S11321A06D897E898F89988D0E94B91C9B01AC0131
S11321B0C701B6010E94371AF101648775878687C3
S11321C09787C101A8960FB6F894DEBF0FBECDBFA6
S11321D0DF91CF911F910F91FF90EF90DF90CF90FF
S11321E0BF90AF909F908F907F906F905F904F9033
S11321F03F902F900895CF93DF93CDB7DEB7289704
S11322000FB6F894DEBF0FBECDBF9E838D836F8360
S113221048879F818885981708F0B7C08F818B8382
S11322208F81898388858A836DC089818F5F898343
S11322308981882F90E0880F991F2D813E81820F1C
S1132240931FFC0140818B81882F90E0880F991F98
S11322502D813E81820F931FFC018081841740F001
S113226099818885981708F303C08A8181508A83ED
S11322708A81882F90E0880F991F2D813E81820FDB
S1132280931FFC0140818B81882F90E0880F991F58
S11322902D813E81820F931FFC018081841728F3D6
S11322A099818A81981770F58981882F90E0880F29
S11322B0991F2D813E81820F931FFC0180818C83A5
S11322C08981882F90E0880F991F2D813E81820F8C
S11322D0931F2A81222F30E0220F331F4D815E810C
S11322E0240F351FF9012081FC0120838A81882F66
S11322F090E0880F991F2D813E81820F931F2C81BE
S1132300FC01208399818A81981708F491CF8B81ED
S1132310882F90E0880F991F2D813E81820F931F93
S1132320FC0180818C838B81882F90E0880F991F1A
S11323302D813E81820F931F2A81222F30E0220FAC
S1132340331F4D815E81240F351FF9012081FC016B
S113235020838A81882F90E0880F991F2D813E81E8
S1132360820F931F2C81FC0120838A812FEF280F79
S11323708D819E81422F6F813EDF8A8121E0280F6B
S11323808D819E814885622F36DF8D819E812896BE
S11323900FB6F894DEBF0FBECDBFDF91CF91089585
S11323A0CF93DF9300D0CDB7DEB79A838983898139
S11323B09A8145E060E01FDF0F900F90DF91CF918D
S11323C00895CF93DF93CDB7DEB786E0E5E0F1E083
S11323D0AAE4B2E001900D928A95E1F785EC90E0D1
S11323E0FC01108284EC90E027E6FC01208381EC60
S11323F090E028E1FC01208381EC90E021EC30E0C6
S1132400F90120812068FC01208380EC90E020EC1D
S113241030E0F90120812068FC01208382EC90E007
S113242026E0FC0120838AE290E02AE230E0F90110
S113243020812E7FFC0120838AE290E02AE230E0B2
S1132440F90120812260FC0120830000DF91CF91FB
S11324500895CF93DF93CDB7DEB7000080EC90E012
S1132460FC0180818823D4F786EC90E0FC01808114
S1132470DF91CF9108951F920F9200905F000F9209
S113248011242F933F934F935F936F937F938F9375
S11324909F93AF93BF93EF93FF93CF93DF93CDB706
S11324A0DEB780911801882379F4D3DF8093510239
S11324B020D080915B02873038F081E08093520213
S11324C081E0809318016FD00000DF91CF91FF91DC
S11324D0EF91BF91AF919F918F917F916F915F9198
S11324E04F913F912F910F9000925F000F901F909A
S11324F01895CF93DF93CDB7DEB780915B02882F19
S113250090E020915102BC01822F1CD08093500294
S113251080915002813081F480915B02882F90E099
S1132520209151028D5A9D4FFC01208380915B02C2
S11325308F5F80935B0202C010925B020000DF9108
S1132540CF910895CF93DF9300D01F92CDB7DEB71C
S113255089837B836A838A819B81892B39F489816E
S1132560833511F481E019C080E017C08A819B8112
S11325701816190634F48A819B81079714F481E0B4
S11325800CC08A819B81079739F48981853411F4C1
S113259081E003C080E001C080E00F900F900F90B5
S11325A0DF91CF910895CF93DF9300D0CDB7DEB7FD
S11325B080915202813031F51092040181E090E063
S11325C09A83898312C089819A81019729813A81EA
S11325D02D5A3D4FF9012081865B9D4FFC012083DC
S11325E089819A8101969A83898389819A8107973F
S11325F054F310925B0281E0809304011092520222
S11326001092180100000F900F90DF91CF91089560
S11326102F923F924F925F926F927F928F929F92EE
S1132620AF92BF92CF92DF92EF92FF920F931F93DC
S1132630CF93DF93CDB7DEB72C970FB6F894DEBFF8
S11326400FBECDBF3C01C982DA82EB82FC820D83CE
S11326501E832F83388749875A876B877C872D8110
S11326603E814F815885C501B4010E94B91C1B01EC
S11326702C0129853A854B855C85C501B4010E94EE
S1132680B91C6B017C01A501940169817A818B815C
S11326909C810E94B91CF3016083718382839383BC
S11326A02482358246825782C086D186E286F386AA
S11326B0C3012C960FB6F894DEBF0FBECDBFDF91D9
S11326C0CF911F910F91FF90EF90DF90CF90BF902B
S11326D0AF909F908F907F906F905F904F903F90BE
S11326E02F9008954F925F926F927F92AF92BF9214
S11326F0CF92DF92EF92FF920F931F93CF93DF93CA
S1132700CDB7DEB72C970FB6F894DEBF0FBECDBFA2
S11327105C01C982DA82EB82FC820D831E832F83E3
S1132720388749875A876B877C8729A13AA14BA1AF
S11327305CA16D817E818F81988599D62B013C01A6
S11327402DA13EA14FA158A569857A858B859C85CD
S11327508ED66B017C012D8D3E8D4F8D58A16981E4
S11327607A818B819C8183D6F50160837183828316
S113277093834482558266827782C086D186E286BC
S1132780F386C5012C960FB6F894DEBF0FBECDBFFD
S1132790DF91CF911F910F91FF90EF90DF90CF9039
S11327A0BF90AF907F906F905F904F9008954F923D
S11327B05F926F927F92AF92BF92CF92DF92EF922D
S11327C0FF920F931F93CF93DF93CDB7DEB72C9770
S11327D00FB6F894DEBF0FBECDBF5C01C982DA82AA
S11327E0EB82FC820D831E832F83388749875A87A7
S11327F06B877C8729A13AA14BA15CA16D817E8165
S11328008F81988533D62B013C012DA13EA14FA188
S113281058A569857A858B859C8528D66B017C01B2
S11328202D8D3E8D4F8D58A169817A818B819C813C
S11328301DD6F5016083718382839383448255821C
S113284066827782C086D186E286F386C5012C969D
S11328500FB6F894DEBF0FBECDBFDF91CF911F91AD
S11328600F91FF90EF90DF90CF90BF90AF907F904B
S11328706F905F904F9008954F925F926F927F9206
S11328808F929F92AF92BF92CF92DF92EF92FF927C
S11328900F931F93CF93DF93CDB7DEB72C970FB66B
S11328A0F894DEBF0FBECDBFE982FA820B831C838E
S11328B02D833E834F83588769877A878B879C87CC
S11328C069817A818B819C818D809E80AF80B88460
S11328D0C984DA84EB84FC849B01AC010E94B91C9A
S11328E02B013C01A5019401C501B4010E94B91C4E
S11328F09B01AC01C301B201BAD54B015C01A70134
S11329009601C701B6010E94B91C9B01AC01C50127
S1132910B401ADD52C960FB6F894DEBF0FBECDBF73
S1132920DF91CF911F910F91FF90EF90DF90CF90A7
S1132930BF90AF909F908F907F906F905F904F90DB
S11329400C94261D4F925F926F927F928F929F926A
S1132950AF92BF92CF92DF92EF92FF920F931F93A9
S1132960CF93DF93CDB7DEB7CC54D1090FB6F8942B
S1132970DEBF0FBECDBF3C014C2C2296CFAE2297BA
S11329805D2C2396DFAE23978E2C2496EFAE2497EE
S11329909F2C2596FFAE2597A02E26960FAF26973F
S11329A0B12E27961FAF279728962FAF28972996E1
S11329B03FAF29972A964FAF2A972B965FAF2B9755
S11329C02C966FAF2C972D967FAF2D9762017401D3
S11329D08501CE01C196DDD9A0968FACA097A196B2
S11329E09FACA197A296AFACA297A396BFACA397B6
S11329F0A496CFACA497A596DFACA597A696EFAC0A
S1132A00A697A796FFACA797A8960FADA897A996E7
S1132A101FADA997AA962FADAA97AB963FADAB97DA
S1132A20AC964FADAC97AD965FADAD97AE966FAD2E
S1132A30AE97AF967FADAF97CE014196F2D98DB7E1
S1132A409EB740970FB6F8949EBF0FBE8DBFADB72B
S1132A50BEB7119680E1FE01F19601900D928A9520
S1132A60E1F7A0968FACA097A1969FACA197A296F0
S1132A70AFACA297A396BFACA397A496CFACA497F0
S1132A80A596DFACA597A696EFACA697A796FFAC44
S1132A90A797A8960FADA897A9961FADA997AA9630
S1132AA02FADAA97AB963FADAB97AC964FADAC9715
S1132AB0AD965FADAD97AE966FADAE97AF967FAD69
S1132AC0AF97CE0101960BDAEDB7FEB770970FB64C
S1132AD0F894FEBF0FBEEDBFADB7BEB7119680E14F
S1132AE0FE01719601900D928A95E1F789809A8092
S1132AF0AB80BC80CD80DE80EF80F88409851A85A8
S1132B002B853C854D855E856F857889CE018196C0
S1132B10E6D949A55AA56BA57CA58DA59EA5AFA50B
S1132B20B8A90DA11EA12FA138A5F301008311831B
S1132B302283338344835583668377838087918795
S1132B40A287B3870FB6F894DEBF0FBECDBFC30113
S1132B50C45BDF4F0FB6F894DEBF0FBECDBFDF916D
S1132B60CF911F910F91FF90EF90DF90CF90BF9086
S1132B70AF909F908F907F906F905F904F9008954B
S1132B80AF92BF92CF92DF92EF92FF920F931F9377
S1132B90CF93DF93CDB7DEB768970FB6F894DEBF57
S1132BA00FBECDBF80E090E0A8ECB2E48B879C8799
S1132BB0AD87BE8720E030E04AE755E46B857C852D
S1132BC08D859E85D6D6DC01CB018F87988BA98B0A
S1132BD0BA8B20E030E040E85FE36F85788989892B
S1132BE09A8922D588232CF481E090E09C8B8B8BEE
S1132BF03BC020E03FEF4FE757E46F857889898930
S1132C009A89ACD618163CF520E030E040E251E455
S1132C106B857C858D859E85ACD6DC01CB01BC01A2
S1132C20CD0171D5DC01CB019C8B8B8B0FC080E96E
S1132C3091E09E8B8D8B8D899E890197F1F79E8BF8
S1132C408D8B8B899C8901979C8B8B8B8B899C8921
S1132C50892B69F713C06F85788989899A8953D537
S1132C60DC01CB019C8B8B8B8B899C89988F8F8B00
S1132C708F89988D0197F1F7988F8F8BA2DB84E26F
S1132C8090E02FEFFC01208385E290E02FEFFC0120
S1132C90208380EB90E022E0FC01208381EB90E034
S1132CA021E0FC01208380E790E020E730E0F90197
S1132CB020812260FC01208383EB90E02FEFFC0154
S1132CC0208384E490E022E0FC01208385E490E00A
S1132CD0FC0110828EE690E02EE630E0F9012081BE
S1132CE02260FC01208387E490E02FEFFC01208325
S1132CF078948EE38F9387EC8F938EEA8F9384E19D
S1132D008F938EE38F9389ED8F9389E98F938AE96B
S1132D108F930F2EFFE8AF2EF2ECBF2EF5E7CF2EE8
S1132D20FCE3DF2EF02D1DECE12E1CECF12E0CEC5F
S1132D301DE32FE135E84BE65EE360E070E080E8F8
S1132D409EE30E949A008DB79EB708960FB6F8943A
S1132D50DEBF0FBECDBF2CD298878F83198221C0CE
S1132D608981282F30E08981882F90E0880F991F6E
S1132D70880F991F4F815885840F951F220F331F89
S1132D80220F331F245A3D4FFC0180819181A2817F
S1132D90B381F90180839183A283B38389818F5F97
S1132DA0898389818630E0F21B821A821D821C820B
S1132DB0FFD19A8789871E8221C08E81282F30E017
S1132DC08E81882F90E0880F991F880F991F49855D
S1132DD05A85840F951F220F331F220F331F245A45
S1132DE03D4FFC0180819181A281B381F9018083EF
S1132DF09183A283B3838E818F5F8E838E8186308D
S1132E00E0F28A819B8101969B838A838A819B81DC
S1132E1022E330E0B90170D6892B51F68C819D8173
S1132E2001969D838C838C819D8123E030E0B901E0
S1132E3063D6892B69F48FE892ECA5EFBCEB809301
S1132E400F0190931001A0931101B0931201B0CF20
S1132E508C819D8123E030E0B9014ED6019749F47D
S1132E6010920F0110921001109211011092120190
S1132E709FCF8C819D8123E030E0B9013DD602973C
S1132E8069F48FE892ECA5EFBCE380930F01909373
S1132E901001A0931101B09312018ACF10920F0177
S1132EA01092100110921101109212018FEF9FEFF6
S1132EB09D838C837DCF1F920F9200905F000F92B1
S1132EC011242F933F938F939F93EF93FF93CF936B
S1132ED0DF93CDB7DEB780911B0190911C01019661
S1132EE090931C0180931B0183EB90E02FEFFC0176
S1132EF0208380911B0190911C0185339C4090F0AC
S1132F0085E490E025E430E0F90120812160FC01B2
S1132F10208310921C0110921B0182E290E02FE3A7
S1132F20FC0120830000DF91CF91FF91EF919F91ED
S1132F308F913F912F910F9000925F000F901F90FF
S1132F4018951F920F9200905F000F9211242F93F7
S1132F503F934F935F938F939F93EF93FF93CF93FD
S1132F60DF93CDB7DEB78091190190911A010196D4
S1132F7090931A018093190187E490E02FEFFC01EC
S1132F80208380911D01882F90E0880F991F880F5E
S1132F90991F845A9D4FFC01208131818091190130
S1132FA090911A012817390708F097C087E490E038
S1132FB020911D01222F30E0220F331F220F331FD7
S1132FC0225A3D4FF9012081FC01208380911D018B
S1132FD0882F90E0880F991F880F991F815A9D4F61
S1132FE0FC018081282F30E081E090E002C0880F4E
S1132FF0991F2A95E2F7AC014095509582E290E042
S113300022E230E0F9012081322F242F2323FC0116
S1133010208310921A011092190129C080911D0178
S1133020882F90E00196880F991F880F991F815A65
S11330309D4FFC018081282F30E081E090E002C0A8
S1133040880F991F2A95E2F7AC014095509582E2CA
S113305090E022E230E0F9012081322F242F232353
S1133060FC01208380911D018F5F80931D0180915D
S11330701D01882F90E0880F991F880F991F845A8B
S11330809D4FFC012081318180911D01882F90E0AA
S11330900196880F991F880F991F845A9D4FFC0130
S11330A0808191812817390729F480911D01853089
S11330B008F4B4CF80911D018F5F80931D0180912E
S11330C01D01863051F410921D0182E290E0FC0152
S11330D0108285E490E0FC0110820000DF91CF9122
S11330E0FF91EF919F918F915F914F913F912F911C
S11330F00F9000925F000F901F901895CF93DF936D
S1133100CDB7DEB72C970FB6F894DEBF0FBECDBF98
S11331108B876C871A8219828B85882F90E024E62E
S1133120289FA001299F500D11242FEF30E0CA01E0
S1133130B901E2D4CB019A8389838C85882331F049
S113314089819A818C599F4F9A83898329813A81F5
S113315040EA429FC001439F900D11249C838B83BE
S11331608B819C81992314F481509F4F892F990F4F
S1133170990B9E838D838B819C81907899231CF479
S113318001979F6F01968F838D819E819987888790
S11331908F818A8788859985AA85BC018A2F2C9678
S11331A00FB6F894DEBF0FBECDBFDF91CF91089567
S11331B0EF92FF920F931F93CF93DF93CDB7DEB7B8
S11331C06F970FB6F894DEBF0FBECDBF80E090E0DE
S11331D0A0E8BFE3888B998BAA8BBB8B1C8A1D8AC2
S11331E01E8A1F8A188E198E1A8E1B8E1C8E1D8E97
S11331F01E8E1F8E2DB73EB7205131090FB6F8949D
S11332003EBF0FBE2DBF8DB79EB7019620E1FE01D4
S11332107096DC0101900D922A95E1F7E0900B0184
S1133220F0900C0100910D0110910E0120910F01FD
S113323030911001409111015091120160911301DC
S11332407091140180911501909116010E945B0AFE
S1133250EDB7FEB770960FB6F894DEBF0FBECDBFC4
S11332609F838E8319824CC08981882F90E0880FB8
S1133270991F880F991F2E813F81820F931FFC0194
S113328080819181A281B38188879987AA87BB872E
S11332902BED3FE049E450E4688579858A859B8578
S11332A0E6D0DC01CB012BED3FE049EC50E4BC015E
S11332B0CD01C1D1DC01CB0120E030E04FE753E484
S11332C0BC01CD0156D3DC01CB01BC01CD011BD225
S11332D0DC01CB018C878981882F90E09C01220F2F
S11332E0331F225E3E4F4C85F9014083880F991F9E
S11332F0815E9E4F2981FC01208389818F5F8983B0
S11333008981863008F4B0CF81E090E09B838A8382
S113331017C08A819B81880F991F825E9E4FFC0192
S11333208081282F20958A819B81880F991F825E36
S11333309E4FFC0120838A819B8102969B838A8312
S11333408A819B8106972CF38EE191E029D89E8790
S11333508D871C8219C08C81882F90E02C81222FAC
S113336030E0220F331F4D855E85240F351F880FF3
S1133370991F825E9E4FF90120813181FC013183C6
S113338020838C818F5F8C838C81863020F31D8217
S11333905AC08D81882F90E0880F991F825E9E4FBE
S11333A0FC0180818F878D81882319F18D81882F7D
S11333B090E00197880F991F825E9E4FFC018081E7
S11333C09F85F92FF81B8F2F8F878D81882F90E091
S11333D0880F991F880F991F8C01065D1E4F60E0AE
S11333E08F858CDEA82FCB01F80180839183A28383
S11333F013C08D81882F90E0880F991F880F991F23
S11334008C01065D1E4F61E08F8578DEA82FCB010D
S1133410F80180839183A2838D81882F90E02D8190
S1133420222F30E0220F331F215E3E4FF90120810D
S1133430880F991F880F991F835D9E4FFC0120837D
S11334408D818F5F8D838D81863008F4A2CF8AE2CF
S113345091E06F960FB6F894DEBF0FBECDBFDF913B
S1133460CF911F910F91FF90EF9008955058BB2773
S1133470AA270ED028C2F1D130F0F6D120F031F4D1
S11334809F3F11F41EF4B0C10EF4E095E7FBA6C112
S1133490E92F3BD280F3BA176207730784079507B5
S11334A018F071F49EF553C20EF4E0950B2EBA2F6A
S11334B0A02D0B01B90190010C01CA01A001112436
S11334C0FF27591B99F0593F50F4503E68F11A16E2
S11334D0F040A22F232F342F4427585FF3CF469573
S11334E037952795A795F0405395C9F77EF41F1695
S11334F0BA0B620B730B840BBAF09150A1F0FF0F5F
S1133500BB1F661F771F881FC2F70EC0BA0F621F4A
S1133510731F841F48F4879577956795B795F7953A
S11335209E3F08F0B3CF9395880F08F09927EE0FCC
S11335309795879508959F939F77EEE389379E0724
S113354020F4E0E7F0E078D109C009D19058A2EA6C
S11335502AED3FE049EC5FE39BDFB5D10F9007FC18
S1133560905808957AD158F080E891E009F49EEFDC
S11335707BD128F040E851E059F45EEF09C034C132
S1133580E6C1E92FE078C1D168F3092E052AC1F319
S1133590261737074807590738F00E2E07F8E02595
S11335A069F0E025E0640AC0EF6307F8009407FAC5
S11335B0DB01B9019D01DC01CA01AD01EF934AD0E1
S11335C082D10AD05F91552331F02BED3FE049E4DD
S11335D050FD49EC4CCF0895DF93DD27B92FBF7719
S11335E040E85FE31616170648075B0710F4D92F67
S11335F0B9D19F938F937F936F9366D2E4E8F0E001
S1133600F6D061D12F913F914F915F91BED1DD23CF
S113361049F09058A2EA2AED3FE049EC5FE3D07804
S11336205D2736DFDF914FC1B5D008F481E00895FE
S113363023D1E39559C10CD046C116D140F00DD128
S113364030F021F45F3F19F0C9C0511181C1CCC0E1
S11336505CD198F39923C9F35523B1F3951B550B0A
S1133660BB27AA2762177307840738F09F5F5F4F51
S1133670220F331F441FAA1FA9F333D00E2E3AF092
S1133680E0E830D091505040E695001CCAF729D0AC
S1133690FE2F27D0660F771F881FBB1F26173707FB
S11336A04807AB07B0E809F0BB0B802DBF01FF272B
S11336B093585F4F2AF09E3F510568F08FC048C170
S11336C05F3FECF3983EDCF3869577956795B79565
S11336D0F7959F5FC9F7880F911D9695879597F980
S11336E00895E1E0660F771F881FBB1F62177307F9
S11336F08407BA0720F0621B730B840BBA0BEE1F0E
S113370088F7E095089509D188F09F5790F0B92F74
S11337109927B751A0F0D1F0660F771F881F991F22
S11337201AF0BA95C9F712C0B13081F010D1B1E0E6
S113373008950DC1672F782F8827B85F39F0B93FF6
S1133740CCF3869577956795B395D9F73EF4909524
S11337508095709561957F4F8F4F9F4F0895DF93AC
S1133760CF931F930F938B01EC01E1EBF0E03FD07B
S1133770AAD09801AE018B01EC0160E070E080E812
S11337809FE374DE63D19801AE010F911F91CF9135
S1133790DF91FBC0990F0008550FAA0BE0E8FEEF7C
S11337A016161706E807F907C0F012161306E40701
S11337B0F50798F0621B730B840B950B39F40A26FA
S11337C061F0232B242B252B21F408950A2609F4D8
S11337D0A140A6958FEF811D811D089597F99F67DC
S11337E080E870E060E008959FEF80EC0895DF9337
S11337F0CF931F930F93FF92EF92DF927B018C0183
S1133800689405C0DA2EEF01C0D0FE01E894A591BA
S11338102591359145915591AEF3EF0139DEFE01C5
S11338209701A801DA9479F7DF90EF90FF900F9158
S11338301F91CF91DF9108959F938F937F936F93FF
S1133840FF93EF939B01AC0194D0EF91FF91CFDFF5
S11338502F913F914F915F918CC000240A941616CA
S1133860170618060906089500240A94121613066A
S1133870140605060895B8CF50D0E8F3E894E0E0C4
S1133880BB279F57F0F02AED3FE049EC06C0EE0F4E
S1133890BB0F661F771F881F28F0B23A62077307B1
S11338A0840728F0B25A620B730B840BE3959A9544
S11338B072F7803830F49A95BB0F661F771F881F04
S11338C0D2F7904806C1092E0394000C11F4882302
S11338D052F0BB0F40F4BF2B11F460FF04C06F5FC4
S11338E07F4F8F4F9F4F0895EF93E0FF06C0A2EAEA
S11338F02AED3FE049EC5FEBCBDDE5DF0F9003946D
S113390001FC9058E9EDF0E097CF57FD9058440F33
S1133910551F59F05F3F71F04795880F97FB991F2A
S113392061F09F3F79F087950895121613061406E7
S1133930551FF2CF4695F1DF08C016161706180674
S1133940991FF1CF86957105610508940895E8944F
S1133950BB2766277727CB0197F908951BDF08F467
S11339608FEF08959B01AC0160E070E080E89FE375
S113397062CE0BD0A8CF71DF28F076DF18F0952344
S113398009F02CCF31CF1124E3CFBFDFA0F3959FF3
S1133990D1F3950F50E0551F629FF001729FBB2732
S11339A0F00DB11D639FAA27F00DB11DAA1F649FDE
S11339B06627B00DA11D661F829F2227B00DA11D91
S11339C0621F739FB00DA11D621F839FA00D611D17
S11339D0221F749F3327A00D611D231F849F600D38
S11339E0211D822F762F6A2F11249F5750408AF071
S11339F0E1F088234AF0EE0FFF1FBB1F661F771FFD
S1133A00881F91505040A9F79E3F510570F0E6CEB3
S1133A109FCF5F3FECF3983EDCF3869577956795EF
S1133A20B795F795E7959F5FC1F7FE2B880F911D1A
S1133A309695879597F908959F931EDF0F9007FC3D
S1133A40EE5F52CF11F40EF4CFCE41C066DFD0F357
S1133A509923D9F3CEF39F57550B87FF46D0002403
S1133A60A0E640EA900180585695979528F4805C2A
S1133A70660F771F881F20F026173707480730F492
S1133A80621B730B840B202931294A2BA6951794AA
S1133A900794202531254A2758F7660F771F881F7A
S1133AA020F026173707480730F4620B730B840B9A
S1133AB0200D311D411DA09581F7B901842F915826
S1133AC0880F9695879508959B01AC0152CF9F3F2F
S1133AD031F0915020F4879577956795B795880FC5
S1133AE0911D9695879597F9089591505040660FCA
S1133AF0771F881FD2F7089597FB072E16F40094BA
S1133B0006D077FD08D00BD007FC05D03EF4909585
S1133B1081959F4F0895709561957F4F0895AA1BD5
S1133B20BB1B51E107C0AA1FBB1FA617B70710F0A4
S1133B30A61BB70B881F991F5A95A9F780959095D6
S10D3B40BC01CD010895F894FFCFF5
S1133B4AD7B3DD3F01B1B1B1B1B1B100000000009A
S10B3B5A0000003480B73D00B7
S9030000FC
