S0180000476363426F61726450726F6A656374312E737265630F
S11300007BC0000096C0000094C0000092C00000B5
S113001090C000008EC000008CC000008AC00000A8
S113002088C000000C948F1184C0000082C00000BE
S113003080C000007EC000007CC000007AC00000C8
S11300400C94BB1176C0000074C0000072C00000A4
S113005070C000006EC000006CC000006AC00000E8
S113006068C0000066C0000064C0000062C00000F8
S1130070036EDB363D9A9999993DABAAAA2A3E00B4
S11300800000803F084AD73B3BCE016E84BCBFFDD5
S1130090C12F3D6C74319ABD56833DDA3D00C77F54
S11300A011BED9E4BB4C3E916BAAAABE00000080ED
S11300B03F072C7AA5BA6CC590DA3B9365FC8BBCE0
S11300C053F810FD3C5692834DBD879D3AB63DCB07
S11300D0C9BF5BBE73DA0FC93F05A84CCDB2D44E7D
S11300E0B93836A9020C50B9918688083CA6AAAA48
S11300F02ABE000000803F0011241FBECFEFD0E1D4
S1130100DEBFCDBF11E0A0E0B1E0E2EBFEE202C051
S113011005900D92A031B107D9F722E0A0E1B1E03A
S113012001C01D92A137B207E1F70E9457130C9446
S1130130571766CFEDE5F1E08BED9FE0A9E4B0E45D
S113014080839183A283B3831482158216821782DB
S113015082E99AE0A6E8BFE380879187A287B38704
S113016082E99AE0A6E0B0EC84879587A687B787F2
S113017082E99AE0A6E8BFEB808B918BA28BB38BCC
S113018082E99AE0A6E0B0E4848B958BA68BB78BCA
S113019008954F925F926F927F928F929F92AF9247
S11301A0BF92CF92DF92EF92FF920F931F93CF9360
S11301B0DF93CDB7DEB7C857D1090FB6F894DEBFC9
S11301C00FBECDBF2091590130915A0140915B017E
S11301D050915C0160E070E080E89FE30E94161497
S11301E02B013C018DB79EB70C970FB6F8949EBFB8
S11301F00FBE8DBFADB7BEB711968CE0E1E9F1E05B
S113020001900D928A95E1F7C090E501D090E60146
S1130210E090E701F090E8010091E9011091EA0112
S11302202091EB013091EC014091ED015091EE01F0
S11302306091EF017091F001CE018F599F4F0E94A0
S1130240AA0F8DB79EB70C970FB6F8949EBF0FBE3A
S11302508DBFADB7BEB711968CE0E5EEF1E001902D
S11302600D928A95E1F7C0900102D0900202E090CD
S11302700302F090040200910502109106022091FD
S11302800702309108024091090250910A026091DC
S11302900B0270910C02CE018B5A9F4F0E94AA0F41
S11302A08DB79EB70C970FB6F8949EBF0FBE8DBF47
S11302B0ADB7BEB711968CE0E1E0F2E001900D928B
S11302C08A95E1F7C0909101D0909201E09093015A
S11302D0F09094010091950110919601209197015D
S11302E0309198014091990150919A0160919B013C
S11302F070919C01CE01875B9F4F0E94AA0F0FB69D
S1130300F894DEBF0FBECDBF8090590190905A0182
S1130310A0905B01B0905C01A296CFACA297A3968B
S1130320DFACA397A496EFACA497A596FFACA597D2
S1130330A6960FADA697A7961FADA797A8962FAD23
S1130340A897A9963FADA997AA964FADAA97AB9641
S11303505FADAB97AC966FADAC97AD967FADAD97F7
S1130360CE01CD960E94DE0E8DB79EB70C970FB6C8
S1130370F8949EBF0FBE8DBFADB7BEB711968CE08B
S1130380FE01FD9601900D928A95E1F7C0909101CE
S1130390D0909201E0909301F09094010091950126
S11303A01091960120919701309198014091990103
S11303B050919A0160919B0170919C01CE018359E7
S11303C09F4F0E94450F8CE0FE01E359FF4FADE0C3
S11303D0B2E001900D928A95E1F7530142012A9609
S11303E0CFAC2A972B96DFAC2B972C96EFAC2C979F
S11303F02D96FFAC2D972E960FAD2E972F961FADF1
S11304002F9760962FAD609761963FAD6197629686
S11304104FAD629763965FAD639764966FAD6497D3
S113042065967FAD6597CE01C1960E94DE0E8DB7AD
S11304309EB70C970FB6F8949EBF0FBE8DBFADB795
S1130440BEB711968CE0FE01F19601900D928A954B
S1130450E1F7C0900102D0900202E0900302F09014
S113046004020091050210910602209107023091C6
S113047008024091090250910A0260910B027091A6
S11304800C02CE0183599F4F0E94450F8CE0FE0160
S1130490E359FF4FA9E1B2E001900D928A95E1F78B
S11304A08090590190905A01A0905B01B0905C013A
S11304B02A96CFAC2A972B96DFAC2B972C96EFACD1
S11304C02C972D96FFAC2D972E960FAD2E972F9629
S11304D01FAD2F9760962FAD609761963FAD6197E2
S11304E062964FAD629763965FAD639764966FAD06
S11304F0649765967FAD6597CE0185960E94DE0E62
S11305008DB79EB70C970FB6F8949EBF0FBE8DBFE4
S1130510ADB7BEB711968CE0FE01B59601900D9271
S11305208A95E1F7C0900102D0900202E0900302A4
S1130530F090040200910502109106022091070236
S1130540309108024091090250910A0260910B0215
S113055070910C02CE0183599F4F0E94450F8CE08D
S1130560FE01E359FF4FA5E2B2E001900D928A9596
S1130570E1F70FB6F894DEBF0FBECDBF53014201C1
S11305806696CFAC66976796DFAC67976896EFACD4
S113059068976996FFAC69976A960FAD6A976B96F0
S11305A01FAD6B976C962FAD6C976D963FAD6D97A5
S11305B06E964FAD6E976F965FAD6F97A0966FADC9
S11305C0A097A1967FADA197CE0149960E94DE0E19
S11305D08DB79EB70C970FB6F8949EBF0FBE8DBF14
S11305E0ADB7BEB711968CE0FE01799601900D92DD
S11305F08A95E1F7C090E501D090E601E090E7012B
S1130600F090E8010091E9011091EA012091EB01D9
S11306103091EC014091ED015091EE016091EF01B8
S11306207091F001CE0183599F4F0E94450F8CE0D9
S1130630FE01E359FF4FA1E3B2E001900D928A95C8
S1130640E1F78090590190905A01A0905B01B0901D
S11306505C016696CFAC66976796DFAC6797689641
S1130660EFAC68976996FFAC69976A960FAD6A9785
S11306706B961FAD6B976C962FAD6C976D963FADD7
S11306806D976E964FAD6E976F965FAD6F97A09610
S11306906FADA097A1967FADA197CE010D960E9454
S11306A0DE0E8DB79EB70C970FB6F8949EBF0FBEA3
S11306B08DBFADB7BEB711968CE0FE013D9601909B
S11306C00D928A95E1F7C090E501D090E601E090A3
S11306D0E701F090E8010091E9011091EA0120910D
S11306E0EB013091EC014091ED015091EE016091EC
S11306F0EF017091F001CE0183599F4F0E94450F85
S11307008CE0FE01E359FF4FADE3B2E001900D929E
S11307108A95E1F753014201A296CFACA297A39622
S1130720DFACA397A496EFACA497A596FFACA597CE
S1130730A6960FADA697A7961FADA797A8962FAD1F
S1130740A897A9963FADA997AA964FADAA97AB963D
S11307505FADAB97AC966FADAC97AD967FADAD97F3
S1130760CE0101960E94DE0E8DB79EB70C970FB690
S1130770F8949EBF0FBE8DBFADB7BEB711968CE087
S1130780FE01319601900D928A95E1F7C090910196
S1130790D0909201E0909301F09094010091950122
S11307A010919601209197013091980140919901FF
S11307B050919A0160919B0170919C01CE018359E3
S11307C09F4F0E94450F8CE0FE01E359FF4FA9E4BF
S11307D0B2E001900D928A95E1F70FB6F894DEBF6E
S11307E00FBECDBFC858DF4F0FB6F894DEBF0FBEA3
S11307F0CDBFDF91CF911F910F91FF90EF90DF90CC
S1130800CF90BF90AF909F908F907F906F905F90AC
S11308104F9008954F925F926F927F928F929F9222
S1130820AF92BF92CF92DF92EF92FF920F931F93FA
S1130830CF93DF93CDB7DEB7C857D1090FB6F8947D
S1130840DEBF0FBECDBF20915501309156014091BE
S113085057015091580160E070E080E89FE30E94E6
S113086016142B013C018DB79EB70C970FB6F89464
S11308709EBF0FBE8DBFADB7BEB711968CE0E1EF42
S1130880F1E001900D928A95E1F7C0907901D09042
S11308907A01E0907B01F0907C0100917D01109140
S11308A07E0120917F01309180014091810150911E
S11308B082016091830170918401CE018F599F4F11
S11308C00E94AA0F8DB79EB70C970FB6F8949EBFDF
S11308D00FBE8DBFADB7BEB711968CE0E9E7F1E06E
S11308E001900D928A95E1F7C0908501D090860120
S11308F0E0908701F09088010091890110918A01AC
S113090020918B0130918C0140918D0150918E0189
S113091060918F0170919001CE018B5A9F4F0E947C
S1130920AA0F8DB79EB70C970FB6F8949EBF0FBE53
S11309308DBFADB7BEB711968CE0E5E8F1E001904C
S11309400D928A95E1F7C090F101D090F201E09008
S1130950F301F090F4010091F5011091F60120915A
S1130960F7013091F8014091F9015091FA01609139
S1130970FB017091FC01CE01875B9F4F0E94AA0F7F
S11309800FB6F894DEBF0FBECDBF53014201A2964D
S1130990CFACA297A396DFACA397A496EFACA49791
S11309A0A596FFACA597A6960FADA697A7961FADE3
S11309B0A797A8962FADA897A9963FADA997AA96F1
S11309C04FADAA97AB965FADAB97AC966FADAC97B6
S11309D0AD967FADAD97CE01CD960E94DE0E8DB75C
S11309E09EB70C970FB6F8949EBF0FBE8DBFADB7E0
S11309F0BEB711968CE0FE01FD9601900D928A958A
S1130A00E1F7C090F101D090F201E090F301F09091
S1130A10F4010091F5011091F6012091F701309154
S1130A20F8014091F9015091FA016091FB01709134
S1130A30FC01CE0183599F4F0E94450F8CE0FE01BB
S1130A40E359FF4FADE9B1E001900D928A95E1F7CA
S1130A508090550190905601A0905701B090580194
S1130A60A296CFACA297A396DFACA397A496EFACC3
S1130A70A497A596FFACA597A6960FADA697A796A3
S1130A801FADA797A8962FADA897A9963FADA99794
S1130A90AA964FADAA97AB965FADAB97AC966FADE8
S1130AA0AC97AD967FADAD97CE01C1960E94DE0E98
S1130AB08DB79EB70C970FB6F8949EBF0FBE8DBF2F
S1130AC0ADB7BEB711968CE0FE01F19601900D9280
S1130AD08A95E1F7C090F101D090F201E090F30122
S1130AE0F090F4010091F5011091F6012091F701C5
S1130AF03091F8014091F9015091FA016091FB01A4
S1130B007091FC01CE0183599F4F0E94450F8CE0E8
S1130B10FE01E359FF4FA9EAB1E001900D928A95D5
S1130B20E1F7530142012A96CFAC2A972B96DFAC0A
S1130B302B972C96EFAC2C972D96FFAC2D972E96D9
S1130B400FAD2E972F961FAD2F9760962FAD609700
S1130B5061963FAD619762964FAD629763965FADC4
S1130B60639764966FAD649765967FAD6597CE0184
S1130B7085960E94DE0E8DB79EB70C970FB6F8943B
S1130B809EBF0FBE8DBFADB7BEB711968CE0FE0100
S1130B90B59601900D928A95E1F7C0908501D090A9
S1130BA08601E0908701F0908801009189011091FD
S1130BB08A0120918B0130918C0140918D015091DB
S1130BC08E0160918F0170919001CE0183599F4FE6
S1130BD00E94450F8CE0FE01E359FF4FA5EBB1E005
S1130BE001900D928A95E1F70FB6F894DEBF0FBE1F
S1130BF0CDBF8090550190905601A0905701B090C0
S1130C0058012A96CFAC2A972B96DFAC2B972C96BB
S1130C10EFAC2C972D96FFAC2D972E960FAD2E97FB
S1130C202F961FAD2F9760962FAD609761963FADBD
S1130C30619762964FAD629763965FAD63976496D2
S1130C406FAD649765967FAD6597CE0149960E9416
S1130C50DE0E8DB79EB70C970FB6F8949EBF0FBEED
S1130C608DBFADB7BEB711968CE0FE0179960190A9
S1130C700D928A95E1F7C0908501D0908601E090AD
S1130C808701F09088010091890110918A012091D7
S1130C908B0130918C0140918D0150918E016091B6
S1130CA08F0170919001CE0183599F4F0E94450F8F
S1130CB08CE0FE01E359FF4FA1ECB1E001900D92ED
S1130CC08A95E1F7530142016696CFAC6697679621
S1130CD0DFAC67976896EFAC68976996FFAC699745
S1130CE06A960FAD6A976B961FAD6B976C962FAD96
S1130CF06C976D963FAD6D976E964FAD6E976F96F0
S1130D005FAD6F97A0966FADA097A1967FADA197A9
S1130D10CE010D960E94DE0E8DB79EB70C970FB6CE
S1130D20F8949EBF0FBE8DBFADB7BEB711968CE0D1
S1130D30FE013D9601900D928A95E1F7C0907901EC
S1130D40D0907A01E0907B01F0907C0100917D01CC
S1130D5010917E0120917F013091800140918101A9
S1130D60509182016091830170918401CE01835975
S1130D709F4F0E94450F8CE0FE01E359FF4FADECFD
S1130D80B1E001900D928A95E1F780905501909021
S1130D905601A0905701B09058016696CFAC669763
S1130DA06796DFAC67976896EFAC68976996FFAC77
S1130DB069976A960FAD6A976B961FAD6B976C96A1
S1130DC02FAD6C976D963FAD6D976E964FAD6E9748
S1130DD06F965FAD6F97A0966FADA097A1967FAD0C
S1130DE0A197CE010196EAD78DB79EB70C970FB69F
S1130DF0F8949EBF0FBE8DBFADB7BEB711968CE001
S1130E00FE01319601900D928A95E1F7C090790127
S1130E10D0907A01E0907B01F0907C0100917D01FB
S1130E2010917E0120917F013091800140918101D8
S1130E30509182016091830170918401CE018359A4
S1130E409F4F0E94450F8CE0FE01E359FF4FA9ED2F
S1130E50B1E001900D928A95E1F70FB6F894DEBFE8
S1130E600FBECDBFC858DF4F0FB6F894DEBF0FBE1C
S1130E70CDBFDF91CF911F910F91FF90EF90DF9045
S1130E80CF90BF90AF909F908F907F906F905F9026
S1130E904F9008954F925F926F927F928F929F929C
S1130EA0AF92BF92CF92DF92EF92FF92CF93DF93F4
S1130EB000D000D0CDB7DEB720E030E040EC50E405
S1130EC060910001709101018091020190910301F0
S1130ED00E94F7142B013C018090750190907601DB
S1130EE0A0907701B0907801A50194010E946D163D
S1130EF06B017C01DC01CB01B05889839A83AB83FD
S1130F00BC83C501B401905820E030E040E05FE3C9
S1130F100E946D16A1EFB1E06D937D938D939C9328
S1130F20139789819A81AB81BC818093F501909359
S1130F30F601A093F701B093F8011092F901109211
S1130F40FA011092FB011092FC0120E030E040E035
S1130F505FE3C501B4010E946D16A9E7B1E06D938A
S1130F607D938D939C93139789819A81AB81BC81E6
S1130F7080937D0190937E01A0937F01B0938001C3
S1130F8010928101109282011092830110928401C7
S1130F90A5E8B1E01D921D921D921C921397A70122
S1130FA09601C701B6010E941714609389017093DA
S1130FB08A0180938B0190938C0110928D01109281
S1130FC08E0110928F0110929001C090FD01D0907B
S1130FD0FE01E090FF01F0900002A7019601C30119
S1130FE0B2010E946D164B015C01E1E9F1E010824F
S1130FF01182128213829B01AC010E941714DC013E
S1131000CB01B0588093950190939601A0939701DA
S1131010B09398011092990110929A0110929B0139
S113102010929C0120E030E040E05FE3C701B6018C
S11310300E946D16A5EEB1E06D937D938D939C9304
S113104013978092E9019092EA01A092EB01B09289
S1131050EC011092ED011092EE011092EF0110924A
S1131060F001C701B601905820E030E040E05FE3B2
S11310700E946D16E1E0F2E06083718382839383C2
S11310808092050290920602A0920702B092080292
S11310901092090210920A0210920B0210920C0292
S11310A00F900F900F900F90DF91CF91FF90EF90E2
S11310B0DF90CF90BF90AF909F908F907F906F9074
S11310C05F904F9008954F925F926F927F928F92AC
S11310D09F92AF92BF92CF92DF92EF92FF920F93C3
S11310E01F93CF93DF9300D000D0CDB7DEB76F88C6
S11310F0788C898C9A8C69827A828B829C824B8CC4
S11311005C8C6D8C7E8C60937501709376018093FA
S11311107701909378012093FD013093FE01409371
S1131120FF0150930002E0925502F09256020093A0
S1131130570210935802A0925101B0925201C092EA
S11311405301D092540189819A81AB81BC818093EF
S1131150550190935601A0935701B09358014092C2
S1131160590150925A0160925B0170925C0192DEC7
S113117051DB0FD80F900F900F900F90DF91CF910C
S11311801F910F91FF90EF90DF90CF90BF90AF90A1
S11311909F908F907F906F905F904F900C949A00E7
S11311A04F925F926F927F928F929F92AF92BF9273
S11311B0CF92DF92EF92FF920F931F93CF93DF931F
S11311C0CDB7DEB72C970FB6F894DEBF0FBECDBFF8
S11311D02B013C01A982BA82CB82DC82ED82FE82A1
S11311E00F8318876F8D78A189A19AA10E94F414A6
S11311F06B017C016F8D78A189A19AA10E94D01600
S11312004B015C0129813A814B815C81C701B601A4
S11312100E946D166B017C012D813E814F815885A2
S1131220C501B4010E946D169B01AC01C701B60152
S11312300E9417146B017C01A3019201C301B20146
S11312400E9417149B01AC01C701B6010E946D16E0
S11312502C960FB6F894DEBF0FBECDBFDF91CF91B1
S11312601F910F91FF90EF90DF90CF90BF90AF90C0
S11312709F908F907F906F905F904F9008954F92C2
S11312805F926F927F928F929F92AF92BF92CF9212
S1131290DF92EF92FF920F931F93CF93DF93CDB71B
S11312A0DEB72C970FB6F894DEBF0FBECDBF2B016F
S11312B03C019A2CA982AB2CBA82BC2CCB82DC8256
S11312C0BE2DED82AF2DFE82F02F0F83E12F188704
S11312D0622F2987732F3A87842F4B87952F5C873A
S11312E0E92CFA2C0B2D1D2D2B2F3A2F4F2F5E2F6F
S11312F096D64B015C01E980FA800B811C812D811B
S11313003E814F81588569857A858B859C8587D6F2
S11313109B01AC01C501B4010E946D166B017C01F7
S11313202F8D38A149A15AA1CA01B9010E946D1695
S11313304B015C01A3019201C301B2010E946D162D
S11313409B01AC01C501B4010E9416149B01AC01C0
S1131350C701B6010E9416142C960FB6F894DEBF8E
S11313600FBECDBFDF91CF911F910F91FF90EF90F2
S1131370DF90CF90BF90AF909F908F907F906F90B1
S11313805F904F9008954F925F926F927F928F92E9
S11313909F92AF92BF92CF92DF92EF92FF920F9300
S11313A01F93CF93DF9300D000D0CDB7DEB72B01CE
S11313B03C0149015A01E982FA820B831C839B0197
S11313C0AC010E946D166B017C01A5019401C5015D
S11313D0B4010E946D169B01AC01C701B6010E94C5
S11313E017140E94DA169B01AC0169817A818B8102
S11313F09C810E94F7140E947B146B017C01A30161
S11314009201C501B4010E94A1149B01AC01C70162
S1131410B6010E9416140F900F900F900F90DF9159
S1131420CF911F910F91FF90EF90DF90CF90BF90DD
S1131430AF909F908F907F906F905F904F900895A2
S11314402F923F924F925F926F927F928F929F92D0
S1131450AF92BF92CF92DF92EF92FF920F931F93BE
S1131460CF93DF93CDB7DEB760970FB6F894DEBFA6
S11314700FBECDBFE982FA820B831C832D833E838A
S11314804F83588769877A878B879C871501460124
S113149019A50AA5FBA4ECA42DA13EA14FA158A512
S11314A0CA01B9010E94171429853A854B855C85C8
S11314B00E946D162B013C01EF92FF920F931F9334
S11314C0A980BA80CB80DC80ED80FE800F811885F6
S11314D029853A854B855C856DA17EA18FA198A550
S11314E05FDE0F900F900F900F906D877E878F8730
S11314F0988B9F928F923F922F92A980BA80CB8033
S1131500DC80ED80FE800F81188529853A854B8526
S11315105C856DA17EA18FA198A5B1DE7B018C01B4
S11315202D853E854F855889C301B2012CDF0F906C
S11315300F900F900F9060960FB6F894DEBF0FBE19
S1131540CDBFDF91CF911F910F91FF90EF90DF906E
S1131550CF90BF90AF909F908F907F906F905F904F
S11315604F903F902F900895AF92BF92CF92DF9209
S1131570EF92FF920F931F93CF93DF93CDB7DEB714
S1131580A4970FB6F894DEBF0FBECDBF5C01C98E21
S1131590DA8EEB8EFC8E0D8F1E8F2F8F38A349A30E
S11315A05AA36BA37CA38DB79EB740970FB6F8944C
S11315B09EBF0FBE8DBFADB7BEB7119680E1FE01D1
S11315C0F19601900D928A95E1F72E96CFAC2E9765
S11315D02F96DFAC2F976096EFAC60976196FFACC7
S11315E0619762960FAD629763961FAD6397649699
S11315F02FAD649765963FAD659766964FAD669738
S113160067965FAD679768966FAD689769967FAD8B
S11316106997CE010D9665D58DB79EB70C970FB619
S1131620F8949EBF0FBE8DBFADB7BEB711968CE0C8
S1131630FE013D9601900D928A95E1F7C98CDA8CF2
S1131640EB8CFC8C0D8D1E8D2F8D38A149A15AA1D8
S11316506BA17CA1CE01019618D48DB79EB70C97CF
S11316600FB6F8949EBF0FBE8DBFADB7BEB711962F
S11316708CE0FE01EF5BFF4F01900D928A95E1F73C
S1131680C980DA80EB80FC800D811E812F81388532
S113169049855A856B857C85C5015CD40FB6F89461
S11316A0DEBF0FBECDBFC501A4960FB6F894DEBF52
S11316B00FBECDBFDF91CF911F910F91FF90EF909F
S11316C0DF90CF90BF90AF9008953F924F925F927A
S11316D06F927F928F929F92AF92BF92CF92DF923E
S11316E0EF92FF920F931F93CF93DF93CDB7DEB7A3
S11316F068970FB6F894DEBF0FBECDBFED86FE86A9
S11317000F87188B298B3A8B4B8B5C8B6D8B7E8B65
S11317108F8B988F8DE5882E81E0982E90E1492E4D
S113172091E0592E612C712C2CE0322E369CC00194
S1131730379C900D1124FC01E35FFD4F2DB73EB79C
S11317402C5031090FB6F8943EBF0FBE2DBFADB774
S1131750BEB71196232D01900D922A95E1F7FC0155
S1131760E356FE4F4DB75EB74C5051090FB6F8948F
S11317705EBF0FBE4DBFADB7BEB71196832D0190AE
S11317800D928A95E1F78DB79EB740970FB6F894FE
S11317909EBF0FBE8DBFADB7BEB7119680E1FE01EF
S11317A0BC9601900D928A95E1F7CD84DE84EF8496
S11317B0F88809891A892B893C894D895E896F8942
S11317C0788DCE010196D0DEF40180819181228151
S11317D03381F4E08F0E911C0FB6F894DEBF0FBE78
S11317E0CDBFA0905502B0905602C0905702D09041
S11317F058023F932F939F938F93809154018F931B
S1131800809153018F93809152018F938091510164
S11318108F93E980FA800B811C812D813E814F8159
S1131820588569857A858B859C850ADEF2016193EA
S11318307193819391932F01FFEF6F1A7F0A0FB673
S1131840F894DEBF0FBECDBF36E06316710409F015
S11318506DCF80E191E068960FB6F894DEBF0FBEBD
S1131860CDBFDF91CF911F910F91FF90EF90DF904B
S1131870CF90BF90AF909F908F907F906F905F902C
S11318804F903F900895CF92DF92EF92FF920F9383
S11318901F93CF93DF93CDB7DEB72C970FB6F89491
S11318A0DEBF0FBECDBFC982DA82EB82FC820D831C
S11318B01E832F83388749875A876B877C87C98023
S11318C0DA80EB80FC800D811E812F81388549856B
S11318D05A856B857C85FC011082118212821382E9
S11318E0C482D582E682F7820087118722873387F4
S11318F044875587668777872C960FB6F894DEBFA2
S11319000FBECDBFDF91CF911F910F91FF90EF904C
S1131910DF90CF9008958F929F92AF92BF92CF9213
S1131920DF92EF92FF920F931F93CF93DF93CDB784
S1131930DEB760970FB6F894DEBF0FBECDBF8982C5
S11319409A82AB82BC82CD82DE82EF82F8860987DE
S11319501A872B873C874D875E876F87788BCD806E
S1131960DE80EF80F884F7FAF094F7F8F0940985B4
S11319701A852B853C8530584D855E856F85788921
S1131980705889809A80AB80BC80FC0180829182EF
S1131990A282B382C482D582E682F782008711874D
S11319A022873387448755876687778760960FB683
S11319B0F894DEBF0FBECDBFDF91CF911F910F9181
S11319C0FF90EF90DF90CF90BF90AF909F908F905B
S11319D008952F923F924F925F926F927F928F92CF
S11319E09F92AF92BF92CF92DF92EF92FF920F93AA
S11319F01F93CF93DF93CDB7DEB7A8970FB6F894B4
S1131A00DEBF0FBECDBF1C0189829A82AB82BC822D
S1131A10CD82DE82EF82F88609871A872B873C877E
S1131A204D875E876F87788B89819A81AB81BC8172
S1131A308DA39EA3AFA3B8A78D819E81AF81B885E6
S1131A4089A39AA3ABA3BCA389859A85AB85BC85DE
S1131A508D8F9E8FAF8FB8A38D859E85AF85B889F6
S1131A60898F9A8FAB8FBC8F21968CAD9DADAEAD17
S1131A70BFAD21978D8B9E8BAF8BB88F25968CAD88
S1131A809DADAEADBFAD2597898B9A8BAB8BBC8BCF
S1131A902996CCACDDACEEACFFAC29972D968CAC82
S1131AA09DACAEACBFAC2D972DA13EA14FA158A5C6
S1131AB06D897E898F89988D0E946D162B013C015A
S1131AC029A13AA14BA15CA169897A898B899C8956
S1131AD00E946D169B01AC01C301B201A7D62B0174
S1131AE03C01A70196016D8D7E8D8F8D98A10E947A
S1131AF06D169B01AC01C301B20198D62B013C01C8
S1131B00A5019401698D7A8D8B8D9C8D0E946D1633
S1131B109B01AC01C301B20189D6D1016D937D93C0
S1131B208D939C9313972DA13EA14FA158A569892C
S1131B307A898B899C890E946D162B013C0129A10D
S1131B403AA14BA15CA16D897E898F89988D0E94F1
S1131B506D169B01AC01C301B20169D62B013C0196
S1131B60A50194016D8D7E8D8F8D98A10E946D16B7
S1131B709B01AC01C301B2015AD62B013C01A70160
S1131B809601698D7A8D8B8D9C8D0E946D169B01BB
S1131B90AC01C301B2014AD6F10164837583868323
S1131BA09783A70196016DA17EA18FA198A50E949C
S1131BB06D162B013C01A501940169A17AA18BA1A9
S1131BC09CA10E946D169B01AC01C301B2012ED6EB
S1131BD02B013C012D8D3E8D4F8D58A16D897E8941
S1131BE08F89988D0E946D169B01AC01C301B201CF
S1131BF01ED62B013C01298D3A8D4B8D5C8D698954
S1131C007A898B899C890E946D169B01AC01C30162
S1131C10B2010DD6D10118966D937D938D939C934B
S1131C201B97A50194016DA17EA18FA198A50E9487
S1131C306D164B015C01A701960169A17AA18BA1E4
S1131C409CA10E946D169B01AC01C501B401EFD5A6
S1131C506B017C012D8D3E8D4F8D58A169897A8948
S1131C608B899C890E946D169B01AC01C701B6014A
S1131C70DDD56B017C01298D3A8D4B8D5C8D6D8991
S1131C807E898F89988D0E946D169B01AC01C701D6
S1131C90B601CDD5F1016487758786879787C10121
S1131CA0A8960FB6F894DEBF0FBECDBFDF91CF91DB
S1131CB01F910F91FF90EF90DF90CF90BF90AF9066
S1131CC09F908F907F906F905F904F903F902F9058
S1131CD00895CF93DF93EC01641708F404D0CE0188
S1131CE0DF91CF910895CF92DF92EF92FF920F93FD
S1131CF01F93CF93DF93182FD92F042FC82ED92EDB
S1131D00C60ED11CC60ED11CC42F262F2C1740F58D
S1131D10D6013C91812F9D2F820F911D820F911D21
S1131D20DC014C91341720F0201710F42F5FF2CF10
S1131D30A12FBD2FAC0FB11DAC0FB11D5C91351798
S1131D4010F4C150F5CF2C1708F7FC013181ED9048
S1131D50FC901197F182E0824C9311963C93D6CF7C
S1131D60F60190818181A12FBD2FAC0FB11DAC0F65
S1131D70B11D2D913C911197318320839C93119631
S1131D808C934FEF4C0F812F9D2FA3DF61E06C0FDD
S1131D90402F812F9D2FDF91CF911F910F91FF90A5
S1131DA0EF90DF90CF9095CFCF93DF93EC0145E098
S1131DB060E099DFCE01DF91CF9108952F923F9299
S1131DC04F925F926F927F928F929F92AF92BF9247
S1131DD0CF92DF92EF92FF920F931F93CF93DF93F3
S1131DE0CDB7DEB72C970FB6F894DEBF0FBECDBFCC
S1131DF03C01C982DA82EB82FC820D831E832F832D
S1131E00388749875A876B877C872D813E814F812C
S1131E105885C501B40161D71B012C0129853A8578
S1131E204B855C85C501B40158D76B017C01A501C4
S1131E30940169817A818B819C814FD7F3016083FE
S1131E407183828393832482358246825782C0863B
S1131E50D186E286F386C3012C960FB6F894DEBFD2
S1131E600FBECDBFDF91CF911F910F91FF90EF90E7
S1131E70DF90CF90BF90AF909F908F907F906F90A6
S1131E805F904F903F902F9008954F925F926F9282
S1131E907F92AF92BF92CF92DF92EF92FF920F9315
S1131EA01F93CF93DF93CDB7DEB72C970FB6F8947B
S1131EB0DEBF0FBECDBF5C01C982DA82EB82FC8239
S1131EC00D831E832F83388749875A876B877C87C6
S1131ED029A13AA14BA15CA16D817E818F81988556
S1131EE0A6D42B013C012DA13EA14FA158A5698583
S1131EF07A858B859C859BD46B017C012D8D3E8DD1
S1131F004F8D58A169817A818B819C8190D4F50190
S1131F10608371838283938344825582668277824D
S1131F20C086D186E286F386C5012C960FB6F89456
S1131F30DEBF0FBECDBFDF91CF911F910F91FF90F8
S1131F40EF90DF90CF90BF90AF907F906F905F90B5
S1131F504F9008954F925F926F927F92AF92BF928B
S1131F60CF92DF92EF92FF920F931F93CF93DF9361
S1131F70CDB7DEB72C970FB6F894DEBF0FBECDBF3A
S1131F805C01C982DA82EB82FC820D831E832F837B
S1131F90388749875A876B877C8729A13AA14BA147
S1131FA05CA16D817E818F81988540D42B013C0199
S1131FB02DA13EA14FA158A569857A858B859C8565
S1131FC035D46B017C012D8D3E8D4F8D58A16981D7
S1131FD07A818B819C812AD4F50160837183828309
S1131FE093834482558266827782C086D186E28654
S1131FF0F386C5012C960FB6F894DEBF0FBECDBF95
S1132000DF91CF911F910F91FF90EF90DF90CF90D0
S1132010BF90AF907F906F905F904F9008954F92D4
S11320205F926F927F928F929F92AF92BF92CF9264
S1132030DF92EF92FF920F931F93CF93DF93CDB76D
S1132040DEB72C970FB6F894DEBF0FBECDBFE98282
S1132050FA820B831C832D833E834F8358876987C1
S11320607A878B879C8769817A818B819C818D801B
S11320709E80AF80B884C984DA84EB84FC849B019D
S1132080AC012BD62B013C01A5019401C501B4017F
S113209024D69B01AC01C301B201C9D34B015C013D
S11320A0A7019601C701B60118D69B01AC01C50171
S11320B0B401BDD32C960FB6F894DEBF0FBECDBFCE
S11320C0DF91CF911F910F91FF90EF90DF90CF9010
S11320D0BF90AF909F908F907F906F905F904F9044
S11320E069C64F925F926F927F928F929F92AF9246
S11320F0BF92CF92DF92EF92FF920F931F93CF93F1
S1132100DF93CDB7DEB7CC54D1090FB6F894DEBF58
S11321100FBECDBF3C014C2C2296CFAE22975D2C36
S11321202396DFAE23978E2C2496EFAE24979F2C14
S11321302596FFAE2597A02E26960FAF2697B12E93
S113214027961FAF279728962FAF289729963FAF3A
S113215029972A964FAF2A972B965FAF2B972C96E9
S11321606FAF2C972D967FAF2D9762017401850177
S1132170CE01C19688DBA0968FACA097A1969FACA8
S1132180A197A296AFACA297A396BFACA397A4962F
S1132190CFACA497A596DFACA597A696EFACA6976F
S11321A0A796FFACA797A8960FADA897A9961FADC1
S11321B0A997AA962FADAA97AB963FADAB97AC96CD
S11321C04FADAC97AD965FADAD97AE966FADAE9794
S11321D0AF967FADAF97CE0141969DDB8DB79EB78D
S11321E040970FB6F8949EBF0FBE8DBFADB7BEB774
S11321F0119680E1FE01F19601900D928A95E1F726
S1132200A0968FACA097A1969FACA197A296AFACD5
S1132210A297A396BFACA397A496CFACA497A59678
S1132220DFACA597A696EFACA697A796FFACA797A9
S1132230A8960FADA897A9961FADA997AA962FADFA
S1132240AA97AB963FADAB97AC964FADAC97AD9616
S11322505FADAD97AE966FADAE97AF967FADAF97CE
S1132260CE010196B6DBEDB7FEB770970FB6F894C2
S1132270FEBF0FBEEDBFADB7BEB7119680E1FE0144
S1132280719601900D928A95E1F789809A80AB80CE
S1132290BC80CD80DE80EF80F88409851A852B858B
S11322A03C854D855E856F857889CE01819691DB6D
S11322B049A55AA56BA57CA58DA59EA5AFA5B8A9D2
S11322C00DA11EA12FA138A5F30100831183228340
S11322D03383448355836683778380879187A2877A
S11322E0B3870FB6F894DEBF0FBECDBFC301C45B86
S11322F0DF4F0FB6F894DEBF0FBECDBFDF91CF9195
S11323001F910F91FF90EF90DF90CF90BF90AF900F
S11323109F908F907F906F905F904F9008951F9241
S11323200F920FB60F9211242F938F939F93809146
S11323304D0190914E01019690934E0180934D0171
S11323408FEF8093B30080914D0190914E018533BE
S11323509C4048F085B5816085BD10924E01109275
S11323604D018FE382B99F918F912F910F900FBEF2
S11323700F901F9018951F920F920FB60F92112471
S11323802F933F934F935F936F937F938F939F9379
S1132390EF93FF9380914F01909150010196909398
S11323A0500180934F018FEF87BDE0914C0164E0B1
S11323B0E69FF0011124E75AFD4F2081318180917D
S11323C04F01909150012817390708F068C0E09137
S11323D04C0174E0E79FF0011124E75AFD4F82811C
S11323E087BDE0914C0184E0E89FF0011124E75A95
S11323F0FD4F338122B181E090E002C0880F991F24
S11324003A95E2F780959095822382B91092500113
S113241010924F0121E030E0E0914C0174E0E79F1D
S1132420F0011124E75AFD4F40815181E0914C01A4
S113243084E0E89FF0011124E35AFD4F80819181EB
S113244048175907F9F480914C018530D8F4E0918C
S11324504C0164E0E69FF0011124E35AFD4F8381AF
S113246042B1B90102C0660F771F8A95E2F7CB012A
S113247080959095842382B980914C018F5F8093DD
S11324804C01CACF80914C018F5F80934C018091A5
S11324904C01863021F410924C0112B815BCFF9106
S11324A0EF919F918F917F916F915F914F913F91A8
S11324B02F910F900FBE0F901F901895262F34E682
S11324C0839FC00111246FEF70E0CAD4222311F05E
S11324D06C597F4F20EA269FC001279F900D11243D
S11324E0792F770F770B692F0895AF92BF92CF9210
S11324F0DF92EF92FF920F931F93CF93DF93CDB7A9
S1132500DEB760970FB6F894DEBF0FBECDBF80E094
S113251090E0A0E8BFE389839A83AB83BC831D82E8
S11325201E821F82188619861A861B861C861D86A3
S11325301E861F86188A8DB79EB740970FB6F894EB
S11325409EBF0FBE8DBFADB7BEB7119680E1FE0131
S1132550319601900D928A95E1F7E0900401F09094
S113256005010091060110910701209108013091A5
S1132570090140910A0150910B0160910C01709185
S11325800D0180910E0190910F019FD85C0130E400
S1132590C32E31E0D32E0FB6F894DEBF0FBECDBFED
S11325A0760110E0F50161917191819191915F0142
S11325B02BED3FE049E450E43AD12BED3FE049EC08
S11325C050E415D220E030E04FE753E486D377D2CD
S11325D0D7016C9311961C931F5FB2E0EB0EF11CB4
S11325E0163001F7809142018095809342018091D9
S11325F0460180958093460180914A01809580939D
S11326004A0180E491E0D0DBE0E4F1E0DC012D91CB
S11326103D91CD0121933193B1E0EC34FB07B1F747
S113262028E2A22E21E0B22EE12CF12CF6018081C9
S11326309701220F331F220F331F8901085D1E4F9C
S1132640EE2051F03297908160E0891B37DFD8018A
S11326506D937D938C9306C061E030DFF801608355
S113266071838283D60111968C91F5018383FFEFE8
S1132670EF1AFF0A22E0C20ED11C84E0A80EB11C9E
S113268096E0E916F10491F688E291E060960FB6BF
S1132690F894DEBF0FBECDBFDF91CF911F910F9194
S11326A0FF90EF90DF90CF90BF90AF9008958FEFA1
S11326B081B982B922E02093B00091E09093B100F7
S11326C0909170009260909370008093B30024BD49
S11326D015BC90916E00926090936E0087BD7894C3
S11326E08EE38F9397EC9F939EEA9F9394E19F933D
S11326F08F9389ED8F9389E98F938AE98F93BFE84C
S1132700AB2EB2ECBB2EB5E7CB2EBCE3DB2E1DEC1F
S1132710E12E1CECF12E0CEC1DE32FE135E84BE629
S11327205EE360E070E080E89EE30E946308DDDE23
S11327302DB73EB7285F3F4F0FB6F8943EBF0FBE8C
S11327402DBF20E030E0F901EE0FFF1FEE0FFF1F59
S1132750E75AFD4FDC014D915D916D917D91CD0165
S113276040835183628373832F5F3F4F263031054B
S113277051F700E010E0C0E0D0E052E3452E512CC8
S113278063E0662E712C7FE8C72E72ECD72E75EFAE
S1132790E72E7CE3F72EEFE88E2EE2EC9E2EE5EF9B
S11327A0AE2EECEBBE2EA1DE20E030E0F901EE0F00
S11327B0FF1FEE0FFF1FE75AFD4FDC014D915D91A6
S11327C06D917D91CD0140835183628373832F5F2B
S11327D03F4F2630310551F72196CE01B20140D347
S11327E0892B09F70F5F1F4FC801B30139D3009735
S11327F049F48092080190920901A0920A01B092D2
S11328000B01D1CF019749F41092080110920901EC
S113281010920A0110920B01C6CFC0920801D09207
S11328200901E0920A01F0920B01BDCF5058BB2779
S1132830AA270ED000C2C9D130F0CED120F031F495
S11328409F3F11F41EF488C10EF4E095E7FB7EC1AE
S1132850E92F13D280F3BA17620773078407950729
S113286018F071F49EF52BC20EF4E0950B2EBA2FDE
S1132870A02D0B01B90190010C01CA01A001112482
S1132880FF27591B99F0593F50F4503E68F11A162E
S1132890F040A22F232F342F4427585FF3CF4695BF
S11328A037952795A795F0405395C9F77EF41F16E1
S11328B0BA0B620B730B840BBAF09150A1F0FF0FAB
S11328C0BB1F661F771F881FC2F70EC0BA0F621F97
S11328D0731F841F48F4879577956795B795F79587
S11328E09E3F08F0B3CF9395880F08F09927EE0F19
S11328F09795879508959F939F77EEE389379E0771
S113290020F4E0E7F0E050D109C005D19058A2EAE4
S11329102AED3FE049EC5FE39BDF8DD10F9007FC8C
S11329209058089552D158F080E891E009F49EEF50
S113293053D128F040E851E059F45EEF09C00CC1CE
S1132940BEC1E92FE07899D168F3092E052AC1F3B5
S1132950261737074807590738F00E2E07F8E025E1
S113296069F0E025E0640AC0EF6307F8009407FA11
S1132970DB01B9019D01DC01CA01AD01EF9346D031
S11329805AD10AD05F91552331F02BED3FE049E451
S113299050FD49EC4CCF0895DF93DD27B92FBF7765
S11329A040E85FE31616170648075B0710F4D92FB3
S11329B08DD19F938F937F936F933AD2E4E8F0E0A5
S11329C0CED039D12F913F914F915F9192D1DD2398
S11329D049F09058A2EA2AED3FE049EC5FE3D07851
S11329E05D2736DFDF9127C1FFD0E39535C10CD0D9
S11329F022C1F2D040F0E9D030F021F45F3F19F069
S1132A00A5C051115DC1A8C038D198F39923C9F369
S1132A105523B1F3951B550BBB27AA2762177307E0
S1132A20840738F09F5F5F4F220F331F441FAA1F94
S1132A30A9F333D00E2E3AF0E0E830D09150504054
S1132A40E695001CCAF729D0FE2F27D0660F771F02
S1132A50881FBB1F261737074807AB07B0E809F0E4
S1132A60BB0B802DBF01FF2793585F4F2AF09E3F79
S1132A70510568F06BC024C15F3FECF3983EDCF372
S1132A80869577956795B795F7959F5FC9F7880FF2
S1132A90911D9695879597F90895E1E0660F771F44
S1132AA0881FBB1F621773078407BA0720F0621BD5
S1132AB0730B840BBA0BEE1F88F7E0950895E5D0ED
S1132AC088F09F5790F0B92F9927B751A0F0D1F013
S1132AD0660F771F881F991F1AF0BA95C9F712C09D
S1132AE0B13081F0ECD0B1E00895E9C0672F782FC0
S1132AF08827B85F39F0B93FCCF386957795679509
S1132B00B395D9F73EF490958095709561957F4F74
S1132B108F4F9F4F0895DF93CF931F930F938B0194
S1132B20EC01E1EBF0E01BD086D09801AE018B0103
S1132B30EC0160E070E080E89FE378DE3BD198012F
S1132B40AE010F911F91CF91DF91D3C097F99F6789
S1132B5080E870E060E008959FEF80EC0895DF93D3
S1132B60CF931F930F93FF92EF92DF927B018C011F
S1132B70689405C0DA2EEF01BCD0FE01E894A5915B
S1132B802591359145915591AEF3EF0161DEFE013A
S1132B909701A801DA9479F7DF90EF90FF900F91F5
S1132BA01F91CF91DF9108959F938F937F936F939C
S1132BB0FF93EF939B01AC0190D0EF91FF91CFDF96
S1132BC02F913F914F915F9188C000240A9416166B
S1132BD0170618060906089500240A941216130607
S1132BE0140605060895B8CF50D0E8F3E894E0E061
S1132BF0BB279F57F0F02AED3FE049EC06C0EE0FEB
S1132C00BB0F661F771F881F28F0B23A620773074D
S1132C10840728F0B25A620B730B840BE3959A95E0
S1132C2072F7803830F49A95BB0F661F771F881FA0
S1132C30D2F7904802C1092E0394000C11F48823A2
S1132C4052F0BB0F40F4BF2B11F460FF04C06F5F60
S1132C507F4F8F4F9F4F0895EF93E0FF06C0A2EA86
S1132C602AED3FE049EC5FEBF3DDE5DF0F900394E1
S1132C7001FC9058E9EDF0E097CF57FD9058440FD0
S1132C80551F59F05F3F71F04795880F97FB991FC7
S1132C9061F09F3F79F08795089512161306140684
S1132CA0551FF2CF4695F1DF08C016161706180611
S1132CB0991FF1CF86957105610508940895E894EC
S1132CC0BB2766277727CB0197F908959B01AC01B1
S1132CD060E070E080E89FE38ACE0BD0ACCF75DF74
S1132CE028F07ADF18F0952309F030CF35CF11247E
S1132CF0E7CFC3DFA0F3959FD1F3950F50E0551FA5
S1132D00629FF001729FBB27F00DB11D639FAA273C
S1132D10F00DB11DAA1F649F6627B00DA11D661F8B
S1132D20829F2227B00DA11D621F739FB00DA11DAC
S1132D30621F839FA00D611D221F749F3327A00D66
S1132D40611D231F849F600D211D822F762F6A2F02
S1132D5011249F5750408AF0E1F088234AF0EE0F87
S1132D60FF1FBB1F661F771F881F91505040A9F794
S1132D709E3F510570F0EACEA3CF5F3FECF3983E3F
S1132D80DCF3869577956795B795F795E7959F5FFB
S1132D90C1F7FE2B880F911D9695879597F9089595
S1132DA09F9322DF0F9007FCEE5F56CF11F40EF4D1
S1132DB0D3CE41C06ADFD0F39923D9F3CEF39F5722
S1132DC0550B87FF46D00024A0E640EA90018058C6
S1132DD05695979528F4805C660F771F881F20F01E
S1132DE026173707480730F4621B730B840B20291E
S1132DF031294A2BA69517940794202531254A2773
S1132E0058F7660F771F881F20F0261737074807E3
S1132E1030F4620B730B840B200D311D411DA09502
S1132E2081F7B901842F9158880F96958795089555
S1132E309B01AC0152CF9F3F31F0915020F4879514
S1132E4077956795B795880F911D9695879597F90E
S1132E50089591505040660F771F881FD2F7089548
S1132E6097FB072E16F4009406D077FD08D00BD0FC
S1132E7007FC05D03EF4909581959F4F0895709579
S1132E8061957F4F0895AA1BBB1B51E107C0AA1F80
S1132E90BB1FA617B70710F0A61BB70B881F991FF7
S1132EA05A95A9F780959095BC01CD010895F894A1
S1052EB0FFCF4E
S1132EB2D7B3DD3F00000000000000003480B73DBE
S9030000FC
