S0180000476363426F61726450726F6A656374312E737265630F
S113000037C0000052C0000050C000004EC00000C5
S11300104CC000004AC0000048C0000046C00000B8
S113002044C000000C94A30940C000003EC000007E
S11300303CC000003AC0000038C0000036C00000D8
S11300400C94CF0932C0000030C000002EC0000064
S11300502CC000002AC0000028C0000026C00000F8
S113006024C0000022C0000020C000001EC0000008
S113007011241FBECFEFD0E1DEBFCDBF11E0A0E061
S1130080B1E0EEE7F9E102C005900D92AC30B107A2
S1130090D9F722E0ACE0B1E001C01D92A934B20767
S11300A0E1F70E94000B0C94BD0CAACFE5E3F1E04C
S11300B08BED9FE0A9E4B0E480839183A283B383B2
S11300C0148215821682178282E99AE0A6E8BFE3B9
S11300D080879187A287B38782E99AE0A6E0B0EC93
S11300E084879587A687B78782E99AE0A6E8BFEB5D
S11300F0808B918BA28BB38B82E99AE0A6E0B0E46B
S1130100848B958BA68BB78B08954F925F926F92D9
S11301107F928F929F92AF92BF92CF92DF92EF9293
S1130120FF920F931F93CF93DF93CDB7DEB7C857DA
S1130130D1090FB6F894DEBF0FBECDBF20913101B7
S113014030913201409133015091340160E070E00C
S113015080E89FE30E947D0B2B013C018DB79EB785
S11301600C970FB6F8949EBF0FBE8DBFADB7BEB748
S113017011968CE0E9E6F1E001900D928A95E1F7A1
S1130180C090BD01D090BE01E090BF01F090C001CD
S11301900091C1011091C2012091C3013091C401A9
S11301A04091C5015091C6016091C7017091C80189
S11301B0CE018F599F4F0E943E098DB79EB70C9771
S11301C00FB6F8949EBF0FBE8DBFADB7BEB71196E4
S11301D08CE0EDEBF1E001900D928A95E1F7C0908F
S11301E0D901D090DA01E090DB01F090DC010091BC
S11301F0DD011091DE012091DF013091E001409199
S1130200E1015091E2016091E3017091E401CE01BA
S11302108B5A9F4F0E943E098DB79EB70C970FB61D
S1130220F8949EBF0FBE8DBFADB7BEB711968CE0DC
S1130230E9EDF1E001900D928A95E1F7C090690132
S1130240D0906A01E0906B01F0906C0100916D0117
S113025010916E0120916F013091700140917101F4
S1130260509172016091730170917401CE01875BAA
S11302709F4F0E943E090FB6F894DEBF0FBECDBF5C
S11302808090310190903201A0903301B0903401FC
S1130290A296CFACA297A396DFACA397A496EFAC9B
S11302A0A497A596FFACA597A6960FADA697A7967B
S11302B01FADA797A8962FADA897A9963FADA9976C
S11302C0AA964FADAA97AB965FADAB97AC966FADC0
S11302D0AC97AD967FADAD97CE01CD9603D78DB7D4
S11302E09EB70C970FB6F8949EBF0FBE8DBFADB7E7
S11302F0BEB711968CE0FE01FD9601900D928A9591
S1130300E1F7C0906901D0906A01E0906B01F09030
S11303106C0100916D0110916E0120916F0130917B
S1130320700140917101509172016091730170915B
S11303307401CE0183599F4F3CD78CE0FE01E359F1
S1130340FF4FA5EEB1E001900D928A95E1F75301BC
S113035042012A96CFAC2A972B96DFAC2B972C968A
S1130360EFAC2C972D96FFAC2D972E960FAD2E97B4
S11303702F961FAD2F9760962FAD609761963FAD76
S1130380619762964FAD629763965FAD639764968B
S11303906FAD649765967FAD6597CE01C196A2D681
S11303A08DB79EB70C970FB6F8949EBF0FBE8DBF46
S11303B0ADB7BEB711968CE0FE01F19601900D9297
S11303C08A95E1F7C090D901D090DA01E090DB0181
S11303D0F090DC010091DD011091DE012091DF013C
S11303E03091E0014091E1015091E2016091E3011B
S11303F07091E401CE0183599F4FDBD68CE0FE015E
S1130400E359FF4FA1EFB1E001900D928A95E1F716
S11304108090310190903201A0903301B09034016A
S11304202A96CFAC2A972B96DFAC2B972C96EFAC61
S11304302C972D96FFAC2D972E960FAD2E972F96B9
S11304401FAD2F9760962FAD609761963FAD619772
S113045062964FAD629763965FAD639764966FAD96
S1130460649765967FAD6597CE0185963BD68DB72B
S11304709EB70C970FB6F8949EBF0FBE8DBFADB755
S1130480BEB711968CE0FE01B59601900D928A9547
S1130490E1F7C090D901D090DA01E090DB01F0904F
S11304A0DC010091DD011091DE012091DF0130912A
S11304B0E0014091E1015091E2016091E30170910A
S11304C0E401CE0183599F4F74D68CE0FE01E359B9
S11304D0FF4FADEFB1E001900D928A95E1F70FB6B1
S11304E0F894DEBF0FBECDBF530142016696CFAC78
S11304F066976796DFAC67976896EFAC68976996DE
S1130500FFAC69976A960FAD6A976B961FAD6B97B0
S11305106C962FAD6C976D963FAD6D976E964FAD03
S11305206E976F965FAD6F97A0966FADA097A196EB
S11305307FADA197CE014996D5D58DB79EB70C97BF
S11305400FB6F8949EBF0FBE8DBFADB7BEB7119660
S11305508CE0FE01799601900D928A95E1F7C090A6
S1130560BD01D090BE01E090BF01F090C0010091A8
S1130570C1011091C2012091C3013091C401409185
S1130580C5015091C6016091C7017091C801CE01A7
S113059083599F4F0ED68CE0FE01E359FF4FA9E02B
S11305A0B2E001900D928A95E1F78090310190902C
S11305B03201A0903301B09034016696CFAC6697B7
S11305C06796DFAC67976896EFAC68976996FFAC5F
S11305D069976A960FAD6A976B961FAD6B976C9689
S11305E02FAD6C976D963FAD6D976E964FAD6E9730
S11305F06F965FAD6F97A0966FADA097A1967FADF4
S1130600A197CE010D966ED58DB79EB70C970FB6F8
S1130610F8949EBF0FBE8DBFADB7BEB711968CE0E8
S1130620FE013D9601900D928A95E1F7C090BD01BF
S1130630D090BE01E090BF01F090C0010091C101D3
S11306401091C2012091C3013091C4014091C501B0
S11306505091C6016091C7017091C801CE018359C0
S11306609F4FA7D58CE0FE01E359FF4FA5E1B2E00F
S113067001900D928A95E1F753014201C090C9019E
S1130680D090CA01E090CB01F090CC010091CD0153
S11306901091CE012091CF013091D0014091D10130
S11306A05091D2016091D3017091D401CE01019691
S11306B019D58DB79EB70C970FB6F8949EBF0FBE91
S11306C08DBFADB7BEB711968CE0FE013196019097
S11306D00D928A95E1F7C0906901D0906A01E0908B
S11306E06B01F0906C0100916D0110916E012091ED
S11306F06F013091700140917101509172016091CC
S1130700730170917401CE0183599F4F52D58CE0CF
S1130710FE01E359FF4FA1E2B2E001900D928A95E8
S1130720E1F70FB6F894DEBF0FBECDBFC858DF4F58
S11307300FB6F894DEBF0FBECDBFDF91CF911F91EE
S11307400F91FF90EF90DF90CF90BF90AF909F906C
S11307508F907F906F905F904F9008954F925F922B
S11307606F927F928F929F92AF92BF92CF92DF92BD
S1130770EF92FF920F931F93CF93DF93CDB7DEB722
S1130780C857D1090FB6F894DEBF0FBECDBF209174
S11307902D0130912E0140912F015091300160E0E4
S11307A070E080E89FE3A9D72B013C018DB79EB789
S11307B00C970FB6F8949EBF0FBE8DBFADB7BEB7F2
S11307C011968CE0E9ECF1E001900D928A95E1F745
S11307D0C0905101D0905201E0905301F090540127
S11307E00091550110915601209157013091580103
S11307F04091590150915A0160915B0170915C01E3
S1130800CE018F599F4F3AD58DB79EB70C970FB62F
S1130810F8949EBF0FBE8DBFADB7BEB711968CE0E6
S1130820E1E5F1E001900D928A95E1F7C0905D0158
S1130830D0905E01E0905F01F09060010091610151
S1130840109162012091630130916401409165012E
S1130850509166016091670170916801CE018B5AD5
S11308609F4F0CD58DB79EB70C970FB6F8949EBFCB
S11308700FBE8DBFADB7BEB711968CE0EDE5F1E0CC
S113088001900D928A95E1F7C090C901D090CA01F8
S1130890E090CB01F090CC010091CD011091CE01FC
S11308A02091CF013091D0014091D1015091D201DA
S11308B06091D3017091D401CE01875B9F4FDED448
S11308C00FB6F894DEBF0FBECDBF53014201A2960E
S11308D0CFACA297A396DFACA397A496EFACA49752
S11308E0A596FFACA597A6960FADA697A7961FADA4
S11308F0A797A8962FADA897A9963FADA997AA96B2
S11309004FADAA97AB965FADAB97AC966FADAC9776
S1130910AD967FADAD97CE01CD96E4D38DB79EB79E
S11309200C970FB6F8949EBF0FBE8DBFADB7BEB780
S113093011968CE0FE01FD9601900D928A95E1F7E7
S1130940C090C901D090CA01E090CB01F090CC01D5
S11309500091CD011091CE012091CF013091D001B1
S11309604091D1015091D2016091D3017091D40191
S1130970CE0183599F4F1DD48CE0FE01E359FF4FF4
S1130980A5E7B1E001900D928A95E1F780902D01E1
S113099090902E01A0902F01B0903001A296CFAC80
S11309A0A297A396DFACA397A496EFACA497A596C1
S11309B0FFACA597A6960FADA697A7961FADA797D0
S11309C0A8962FADA897A9963FADA997AA964FAD23
S11309D0AA97AB965FADAB97AC966FADAC97AD965F
S11309E07FADAD97CE01C1967DD38DB79EB70C97E1
S11309F00FB6F8949EBF0FBE8DBFADB7BEB71196AC
S1130A008CE0FE01F19601900D928A95E1F7C09079
S1130A10C901D090CA01E090CB01F090CC010091C3
S1130A20CD011091CE012091CF013091D0014091A0
S1130A30D1015091D2016091D3017091D401CE01C2
S1130A4083599F4FB6D38CE0FE01E359FF4FA1E8D1
S1130A50B1E001900D928A95E1F7530142012A9683
S1130A60CFAC2A972B96DFAC2B972C96EFAC2C9718
S1130A702D96FFAC2D972E960FAD2E972F961FAD6A
S1130A802F9760962FAD609761963FAD6197629600
S1130A904FAD629763965FAD639764966FAD64974D
S1130AA065967FAD6597CE0185961CD38DB79EB7AD
S1130AB00C970FB6F8949EBF0FBE8DBFADB7BEB7EF
S1130AC011968CE0FE01B59601900D928A95E1F79E
S1130AD0C0905D01D0905E01E0905F01F0906001F4
S1130AE000916101109162012091630130916401D0
S1130AF040916501509166016091670170916801B0
S1130B00CE0183599F4F55D38CE0FE01E359FF4F2B
S1130B10ADE8B1E001900D928A95E1F70FB6F89433
S1130B20DEBF0FBECDBF80902D0190902E01A0900E
S1130B302F01B09030012A96CFAC2A972B96DFACC8
S1130B402B972C96EFAC2C972D96FFAC2D972E96C9
S1130B500FAD2E972F961FAD2F9760962FAD6097F0
S1130B6061963FAD619762964FAD629763965FADB4
S1130B70639764966FAD649765967FAD6597CE0174
S1130B804996B0D28DB79EB70C970FB6F8949EBF16
S1130B900FBE8DBFADB7BEB711968CE0FE0179963E
S1130BA001900D928A95E1F7C0905D01D0905E01AD
S1130BB0E0905F01F0906001009161011091620189
S1130BC02091630130916401409165015091660167
S1130BD06091670170916801CE0183599F4FE9D2FA
S1130BE08CE0FE01E359FF4FA9E9B1E001900D92B9
S1130BF08A95E1F7530142016696CFAC66976796F2
S1130C00DFAC67976896EFAC68976996FFAC699715
S1130C106A960FAD6A976B961FAD6B976C962FAD66
S1130C206C976D963FAD6D976E964FAD6E976F96C0
S1130C305FAD6F97A0966FADA097A1967FADA1977A
S1130C40CE010D964FD28DB79EB70C970FB6F89480
S1130C509EBF0FBE8DBFADB7BEB711968CE0FE012F
S1130C603D9601900D928A95E1F7C0905101D09084
S1130C705201E0905301F0905401009155011091FC
S1130C8056012091570130915801409159015091DA
S1130C905A0160915B0170915C01CE0183599F4FB1
S1130CA088D28CE0FE01E359FF4FA5EAB1E0019040
S1130CB00D928A95E1F780902D0190902E01A090DD
S1130CC02F01B09030016696CFAC66976796DFAC83
S1130CD067976896EFAC68976996FFAC69976A96D0
S1130CE00FAD6A976B961FAD6B976C962FAD6C9793
S1130CF06D963FAD6D976E964FAD6E976F965FADE7
S1130D006F97A0966FADA097A1967FADA197CE01E6
S1130D100196E8D18DB79EB70C970FB6F8949EBF95
S1130D200FBE8DBFADB7BEB711968CE0FE013196F4
S1130D3001900D928A95E1F7C0905101D090520133
S1130D40E0905301F0905401009155011091560127
S1130D5020915701309158014091590150915A0105
S1130D6060915B0170915C01CE0183599F4F21D248
S1130D708CE0FE01E359FF4FA1EBB1E001900D922D
S1130D808A95E1F70FB6F894DEBF0FBECDBFC85801
S1130D90DF4F0FB6F894DEBF0FBECDBFDF91CF910A
S1130DA01F910F91FF90EF90DF90CF90BF90AF9085
S1130DB09F908F907F906F905F904F9008954F9287
S1130DC05F926F927F928F929F92AF92BF92CF92D7
S1130DD0DF92EF92FF92CF93DF9380904D0190903A
S1130DE04E01A0904F01B09050012AE33DEC43E93D
S1130DF05EE3C501B40137D56B017C012B013C01D5
S1130E0077FA709477F87094C9ECD1E0C501B40115
S1130E10905820E030E040E05FE325D56883798393
S1130E208A839B834C825D826E827F8218861986B8
S1130E301A861B86C1E5D1E020E030E040E05FE3A4
S1130E40C501B40110D5688379838A839B834C825E
S1130E505D826E827F82188619861A861B86CDE58E
S1130E60D1E0188219821A821B82A7019601C70158
S1130E70B60144D46C837D838E839F831886198640
S1130E801A861B86C090D501D090D601E090D70178
S1130E90F090D8012AE33DEC43E95EE3C701B601D3
S1130EA0E2D44B015C01C9E6D1E08CE0FE01119271
S1130EB08A95E9F7A5019401C501B4011FD49B01EA
S1130EC0AC0160E070E0CB0118D4688379838A8335
S1130ED09B83CDEBD1E020E030E040E05FE3C7014D
S1130EE0B601C1D4688379838A839B838C829D8273
S1130EF0AE82BF82188619861A861B86C9EDD1E098
S1130F00C701B601905820E030E040E05FE3ABD485
S1130F10688379838A839B838C829D82AE82BF821D
S1130F20188619861A861B86DF91CF91FF90EF9061
S1130F30DF90CF90BF90AF909F908F907F906F90F5
S1130F405F904F9008954F925F926F927F928F922D
S1130F509F92AF92BF92CF92DF92EF92FF920F9344
S1130F601F93CF93DF9300D000D0CDB7DEB76F8847
S1130F70788C898C9A8C69827A828B829C824B8C45
S1130F805C8C6D8C7E8C60934D0170934E018093CC
S1130F904F01909350012093D5013093D601409393
S1130FA0D7015093D801E0922D02F0922E020093C3
S1130FB02F0210933002A0922901B0922A01C0920C
S1130FC02B01D0922C0189819A81AB81BC818093C1
S1130FD02D0190932E01A0932F01B09330014092E4
S1130FE03101509232016092330170923401E7DE94
S1130FF0B5DB8BD80F900F900F900F90DF91CF91AE
S11310001F910F91FF90EF90DF90CF90BF90AF9022
S11310109F908F907F906F905F904F9047C8CF9331
S1131020DF93EC01641708F404D0CE01DF91CF9173
S11310300895EF92FF920F931F93CF93DF93182F8E
S1131040D92F042FA82FB92FA60FB11DA60FB11D9C
S1131050C42F262F3C912C1708F5812F9D2F820F2A
S1131060911D820F911DFC014081341720F020173F
S113107010F42F5FF2CFE12EFD2EEC0EF11CEC0EDE
S1131080F11CF7015081351710F4C150F4CF2C171F
S113109008F7FC015083F7014083DCCFE12FFD2FDB
S11310A0EC0FF11DEC0FF11D80818C9330834FEF19
S11310B04C0F812F9D2FB3DF61E06C0F402F812FE8
S11310C09D2FDF91CF911F910F91FF90EF90A7CFAC
S11310D0CF93DF93EC0145E060E0ABDFCE01DF911D
S11310E0CF9108952F923F924F925F926F927F9289
S11310F08F929F92AF92BF92CF92DF92EF92FF9224
S11311000F931F93CF93DF93CDB7DEB72C970FB612
S1131110F894DEBF0FBECDBF3C01C982DA82EB82F8
S1131120FC820D831E832F83388749875A876B87F8
S11311307C872D813E814F815885C501B40193D3AD
S11311401B012C0129853A854B855C85C501B401B9
S11311508AD36B017C01A501940169817A818B8119
S11311609C8181D3F301608371838283938324827E
S1131170358246825782C086D186E286F386C301D1
S11311802C960FB6F894DEBF0FBECDBFDF91CF9182
S11311901F910F91FF90EF90DF90CF90BF90AF9091
S11311A09F908F907F906F905F904F903F902F9083
S11311B008954F925F926F927F92AF92BF92CF92B7
S11311C0DF92EF92FF920F931F93CF93DF93CDB7EC
S11311D0DEB72C970FB6F894DEBF0FBECDBF5C010F
S11311E0C982DA82EB82FC820D831E832F833887C7
S11311F049875A876B877C8729A13AA14BA15CA1B7
S11312006D817E818F81988579D22B013C012DA13E
S11312103EA14FA158A569857A858B859C856ED2A0
S11312206B017C012D8D3E8D4F8D58A169817A8192
S11312308B819C8163D2F501608371838283938364
S11312404482558266827782C086D186E286F3869E
S1131250C5012C960FB6F894DEBF0FBECDBFDF914B
S1131260CF911F910F91FF90EF90DF90CF90BF909F
S1131270AF907F906F905F904F9008954F925F92E0
S11312806F927F92AF92BF92CF92DF92EF92FF92D2
S11312900F931F93CF93DF93CDB7DEB72C970FB681
S11312A0F894DEBF0FBECDBF5C01C982DA82EB8247
S11312B0FC820D831E832F83388749875A876B8767
S11312C07C8729A13AA14BA15CA16D817E818F818C
S11312D0988513D22B013C012DA13EA14FA158A505
S11312E069857A858B859C8508D26B017C012D8D5F
S11312F03E8D4F8D58A169817A818B819C81FDD16E
S1131300F50160837183828393834482558266826C
S11313107782C086D186E286F386C5012C960FB605
S1131320F894DEBF0FBECDBFDF91CF911F910F9117
S1131330FF90EF90DF90CF90BF90AF907F906F9031
S11313405F904F9008951F920F920FB60F92112441
S11313502F938F939F93809125019091260101965D
S113136090932601809325018FEF8093B3008091A1
S113137025019091260185339C4048F085B5816014
S113138085BD10922601109225018FE385B99F91A6
S11313908F912F910F900FBE0F901F9018951F9251
S11313A00F920FB60F9211242F933F934F935F9395
S11313B06F937F938F939F93EF93FF938091270174
S11313C090912801019690932801809327018FEF33
S11313D087BDE091240164E0E69FF0011124EF5CF5
S11313E0FD4F208131818091270190912801281798
S11313F0390708F068C0E091240174E0E79FF00128
S11314001124EF5CFD4F828187BDE091240184E0CB
S1131410E89FF0011124EF5CFD4F338125B181E099
S113142090E002C0880F991F3A95E2F78095909555
S1131430822385B9109228011092270121E030E01F
S1131440E091240174E0E79FF0011124EF5CFD4F6B
S113145040815181E091240184E0E89FF00111244E
S1131460EB5CFD4F8081918148175907F9F4809115
S113147024018530D8F4E091240164E0E69FF00172
S11314801124EB5CFD4F838145B1B90102C0660FA5
S1131490771F8A95E2F7CB0180959095842385B9CF
S11314A0809124018F5F80932401CACF809124010D
S11314B08F5F8093240180912401863021F410925F
S11314C0240115B815BCFF91EF919F918F917F91E5
S11314D06F915F914F913F912F910F900FBE0F909D
S11314E01F90189524E6829FC0011124611106C043
S11314F06FEF70E01BD26C597F4F03C06FEF70E049
S113150015D220EA269FC001279F900D1124792F20
S1131510770F770B692F0895AF92BF92CF92DF9226
S1131520EF92FF920F931F93CF93DF93CDB7DEB764
S11315302C970FB6F894DEBF0FBECDBF8CE0E0E071
S1131540F1E0DE01119601900D928A95E1F7CE014A
S11315500196BEDD8E010F5F1F4F9E01235F3F4F3B
S1131560F801DC014D915D91CD0141935193E21756
S1131570F307B9F72CE0A22E21E0B22EC12CD12C16
S1131580F80180819601220F331F220F331FCC20D4
S113159049F0A901445F5E4F7A013297908160E07F
S11315A0891B05C0F901E45FFE4F7F0161E09ADF0A
S11315B0D7016D937D938C93F8018181D5011396A6
S11315C08C93BFEFCB1ADB0A0E5F1F4FE4E0AE0E25
S11315D0B11CF6E0CF16D10499F68CE091E02C967C
S11315E00FB6F894DEBF0FBECDBFDF91CF911F9130
S11315F00F91FF90EF90DF90CF90BF90AF90089540
S11316008FEF84B985B911B810B822E02093B000E7
S113161091E09093B100909170009260909370006B
S11316208093B30024BD15BC90916E00926090939A
S11316306E0087BD78948EE38F9397EC9F939EEA18
S11316409F9394E19F938F9389ED8F9389E98F936F
S11316508AE98F936FE8A62E62ECB62E65E7C62E54
S11316606CE3D62E14EAE12E10E7F12E0DEB1DE308
S11316702FE135E84BE65EE360E070E080E89EE34E
S113168062DC4ADF2DB73EB7285F3F4F0FB6F894B0
S11316903EBF0FBE2DBF20E030E0F901EE0FFF1F6B
S11316A0EE0FFF1FEF5CFD4FDC014D915D916D91DD
S11316B07D91CD0140835183628373832F5F3F4FBC
S11316C02630310551F728DF20E030E0F901EE0F34
S11316D0FF1FEE0FFF1FEF5CFD4FDC014D915D918D
S11316E06D917D91CD0140835183628373832F5F1C
S11316F03F4F2630310551F7E6CF5058BB27AA2774
S11317000ED077C068D030F06DD020F031F49F3F18
S113171011F41EF45DC00EF4E095E7FB53C0E92F0D
S113172079D080F3BA17620773078407950718F016
S113173071F49EF591C00EF4E0950B2EBA2FA02DF6
S11317400B01B90190010C01CA01A0011124FF276A
S1131750591B99F0593F50F4503E68F11A16F04065
S1131760A22F232F342F4427585FF3CF4695379564
S11317702795A795F0405395C9F77EF41F16BA0B29
S1131780620B730B840BBAF09150A1F0FF0FBB1FD7
S1131790661F771F881FC2F70EC0BA0F621F731F20
S11317A0841F48F4879577956795B795F7959E3F7D
S11317B008F0B3CF9395880F08F09927EE0F97950B
S11317C08795089597F99F6780E870E060E0089531
S11317D09FEF80EC089500240A9416161706180645
S11317E00906089500240A94121613061406050621
S11317F00895092E0394000C11F4882352F0BB0FB2
S113180040F4BF2B11F460FF04C06F5F7F4F8F4F14
S11318109F4F089557FD9058440F551F59F05F3F4F
S113182071F04795880F97FB991F61F09F3F79F0FE
S113183087950895121613061406551FF2CF469580
S1131840F1DF08C0161617061806991FF1CF869502
S11318507105610508940895E894BB2766277727E6
S1131860CB0197F908950BD0C4CFB5DF28F0BADFC8
S113187018F0952309F0A6CFABCF1124EECFCADF21
S1131880A0F3959FD1F3950F50E0551F629FF0018F
S1131890729FBB27F00DB11D639FAA27F00DB11DE8
S11318A0AA1F649F6627B00DA11D661F829F222771
S11318B0B00DA11D621F739FB00DA11D621F839FF8
S11318C0A00D611D221F749F3327A00D611D231FCE
S11318D0849F600D211D822F762F6A2F11249F571C
S11318E050408AF0E1F088234AF0EE0FFF1FBB1F3F
S11318F0661F771F881F91505040A9F79E3F5105DE
S113190070F060CFAACF5F3FECF3983EDCF386958E
S113191077956795B795F795E7959F5FC1F7FE2B88
S1131920880F911D9695879597F9089597FB072E33
S113193016F4009406D077FD08D00BD007FC05D030
S11319403EF4909581959F4F0895709561957F4FD2
S11319500895AA1BBB1B51E107C0AA1FBB1FA617F2
S1131960B70710F0A61BB70B881F991F5A95A9F744
S111197080959095BC01CD010895F894FFCFA9
S10F197E8000800180028003800480054A
S9030000FC
