S0180000476363426F61726450726F6A656374312E737265630F
S11300007BC0000096C0000094C0000092C00000B5
S113001090C000008EC000008CC000008AC00000A8
S113002088C000000C94E01784C0000082C0000067
S113003080C000007EC000007CC000007AC00000C8
S11300400C942D1876C0000074C0000072C000002B
S11300500C944F120C949D126CC000006AC00000F6
S113006068C0000066C0000064C0000062C00000F8
S1130070036EDB363D9A9999993DABAAAA2A3E00B4
S11300800000803F084AD73B3BCE016E84BCBFFDD5
S1130090C12F3D6C74319ABD56833DDA3D00C77F54
S11300A011BED9E4BB4C3E916BAAAABE00000080ED
S11300B03F072C7AA5BA6CC590DA3B9365FC8BBCE0
S11300C053F810FD3C5692834DBD879D3AB63DCB07
S11300D0C9BF5BBE73DA0FC93F05A84CCDB2D44E7D
S11300E0B93836A9020C50B9918688083CA6AAAA48
S11300F02ABE000000803F0011241FBECFEFD0E1D4
S1130100DEBFCDBF11E0A0E0B1E0EEE7FEE302C048
S113011005900D92A031B107D9F722E0A0E1B1E03A
S113012001C01D92A73CB207E1F70E94AC1A0C94DF
S11301303D1F66CFAF92BF92CF92DF92EF92FF92B4
S11301400F931F93CF93DF93CDB7DEB760970FB6AE
S1130150F894DEBF0FBECDBF69837A838B839C8303
S11301602D833E834F835887E986FA860B871C8745
S1130170AD86BE86CF86D88A89819A81AB81BC81BF
S11301808093CB019093CC01A093CD01B093CE0189
S11301908D819E81AF81B8858093530290935402E0
S11301A0A0935502B093560289859A85AB85BC8588
S11301B08093AB029093AC02A093AD02B093AE02D5
S11301C08D859E85AF85B8898093A7019093A801FA
S11301D0A093A901B093AA018D8D9E8DAF8DB8A176
S11301E08093AB019093AC01A093AD01B093AE01A9
S11301F089A19AA1ABA1BCA18093AF019093B00156
S1130200A093B101B093B201E1D720D45FD012D052
S1130210000060960FB6F894DEBF0FBECDBFDF912D
S1130220CF911F910F91FF90EF90DF90CF90BF90EF
S1130230AF900895CF93DF93CDB7DEB78BED9FE0FA
S1130240A9E4B0E48093B3019093B401A093B50101
S1130250B093B6011092B7011092B8011092B9018F
S11302601092BA0182E99AE0A6E8BFE38093BB0149
S11302709093BC01A093BD01B093BE0182E99AE0C2
S1130280A6E0B0EC8093BF019093C001A093C1019C
S1130290B093C20182E99AE0A6E8BFEB8093C30160
S11302A09093C401A093C501B093C60182E99AE07A
S11302B0A6E0B0E48093C7019093C801A093C9015C
S11302C0B093CA010000DF91CF9108958F929F925D
S11302D0AF92BF92CF92DF92EF92FF920F931F9350
S11302E0CF93DF93CDB7DEB7CC57D1090FB6F894CF
S11302F0DEBF0FBECDBF8091AF019091B001A09140
S1130300B101B091B2019C01AD0160E070E080E800
S11303109FE30E94D01BDC01CB0189839A83AB83CA
S1130320BC835E018DE4A80EB11CADB7BEB71C97AB
S11303300FB6F894BEBF0FBEADBF8DB79EB7019682
S11303402CE0E7EEF1E0DC0101900D922A95E1F753
S1130350C0903B02D0903C02E0903D02F0903E02FF
S113036000913F02109140022091410230914202DB
S113037040914302509144026091450270914602BB
S1130380C5010E944E158DB79EB70C960FB6F89412
S1130390DEBF0FBECDBF5E0199E5A90EB11CADB79E
S11303A0BEB71C970FB6F894BEBF0FBEADBF8DB7D6
S11303B09EB701962CE0EBE3F2E0DC0101900D9294
S11303C02A95E1F7C0905702D0905802E090590264
S11303D0F0905A0200915B0210915C0220915D0240
S11303E030915E0240915F0250916002609161021F
S11303F070916202C5010E944E158DB79EB70C968E
S11304000FB6F894DEBF0FBECDBF5E0195E6A90E10
S1130410B11CADB7BEB71C970FB6F894BEBF0FBEE4
S1130420ADBF8DB79EB701962CE0E7E5F2E0DC01A5
S113043001900D922A95E1F7C090E701D090E80170
S1130440E090E901F090EA010091EB011091EC01D8
S11304502091ED013091EE014091EF015091F001B6
S11304606091F1017091F201C5010E944E158DB7A2
S11304709EB70C960FB6F894DEBF0FBECDBF209189
S1130480AF013091B0014091B1015091B201FE0130
S1130490EF5BFF4FCE01835B9F4F49015A01DC01A3
S11304A0CC90DC011196DC90DC011296EC90DC011E
S11304B01396FC90DC0114960C91DC0115961C91AA
S11304C0DC0116962C91DC0117963C91DC01189600
S11304D04C91DC0119965C91DC011A966C91DC015B
S11304E01B967C91CF010E9463145E01B1E7AB0EB1
S11304F0B11C8DB79EB70C970FB6F8949EBF0FBE74
S11305008DBF8DB79EB701962CE0FE01EF5BFF4FC8
S1130510DC0101900D922A95E1F7C090E701D0909B
S1130520E801E090E901F090EA010091EB011091FB
S1130530EC012091ED013091EE014091EF015091D9
S1130540F0016091F1017091F201C5010E94E01483
S1130550ADB7BEB71C960FB6F894DEBF0FBECDBFC5
S1130560CE018F589F4F2CE0FC01A3E6B2E001902E
S11305700D922A95E1F7FE01F59629813A814B8186
S11305805C81CE018B599F4F49015A01DC01CC900B
S1130590DC011196DC90DC011296EC90DC011396E0
S11305A0FC90DC0114960C91DC0115961C91DC0185
S11305B016962C91DC0117963C91DC0118964C910F
S11305C0DC0119965C91DC011A966C91DC011B9696
S11305D07C91CF010E9463145E01B1E7AB0EB11CA4
S11305E08DB79EB70C970FB6F8949EBF0FBE8DBF04
S11305F08DB79EB701962CE0FE01F596DC010190C3
S11306000D922A95E1F7C0905702D0905802E090DD
S11306105902F0905A0200915B0210915C02209101
S11306205D0230915E0240915F02509160026091E0
S1130630610270916202C5010E94E014ADB7BEB7B9
S11306401C960FB6F894DEBF0FBECDBFCE018F58F7
S11306509F4F2CE0FC01AFE6B2E001900D922A9589
S1130660E1F72091AF013091B0014091B101509177
S1130670B201FE01B996CE018B599F4F49015A012F
S1130680DC01CC90DC011196DC90DC011296EC903C
S1130690DC011396FC90DC0114960C91DC01159698
S11306A01C91DC0116962C91DC0117963C91DC011F
S11306B018964C91DC0119965C91DC011A966C91A8
S11306C0DC011B967C91CF010E9463145E01B1E7AB
S11306D0AB0EB11C8DB79EB70C970FB6F8949EBFA6
S11306E00FBE8DBF8DB79EB701962CE0FE01B99663
S11306F0DC0101900D922A95E1F7C0905702D09049
S11307005802E0905902F0905A0200915B02109155
S11307105C0220915D0230915E0240915F02509133
S113072060026091610270916202C5010E94E0144E
S1130730ADB7BEB71C960FB6F894DEBF0FBECDBFE3
S1130740CE018F589F4F2CE0FC01ABE7B2E0019043
S11307500D922A95E1F7FE017D9629813A814B811C
S11307605C81CE01875A9F4F49015A01DC01CC902C
S1130770DC011196DC90DC011296EC90DC011396FE
S1130780FC90DC0114960C91DC0115961C91DC01A3
S113079016962C91DC0117963C91DC0118964C912D
S11307A0DC0119965C91DC011A966C91DC011B96B4
S11307B07C91CF010E9463145E01B1E7AB0EB11CC2
S11307C08DB79EB70C970FB6F8949EBF0FBE8DBF22
S11307D08DB79EB701962CE0FE017D96DC01019059
S11307E00D922A95E1F7C0903B02D0903C02E09034
S11307F03D02F0903E0200913F0210914002209190
S1130800410230914202409143025091440260916E
S1130810450270914602C5010E94E014ADB7BEB70F
S11308201C960FB6F894DEBF0FBECDBFCE018F5815
S11308309F4F2CE0FC01A7E8B2E001900D922A95AD
S1130840E1F72091AF013091B0014091B101509195
S1130850B201FE017196CE01875A9F4F49015A0198
S1130860DC01CC90DC011196DC90DC011296EC905A
S1130870DC011396FC90DC0114960C91DC011596B6
S11308801C91DC0116962C91DC0117963C91DC013D
S113089018964C91DC0119965C91DC011A966C91C6
S11308A0DC011B967C91CF010E9463145E01B1E7C9
S11308B0AB0EB11C8DB79EB70C970FB6F8949EBFC4
S11308C00FBE8DBF8DB79EB701962CE0FE017196C9
S11308D0DC0101900D922A95E1F7C0903B02D09083
S11308E03C02E0903D02F0903E0200913F021091E4
S11308F040022091410230914202409143025091C2
S113090044026091450270914602C5010E94E014C0
S1130910ADB7BEB71C960FB6F894DEBF0FBECDBF01
S1130920CE018F589F4F2CE0FC01A3E9B2E0019067
S11309300D922A95E1F7FE01359629813A814B8182
S11309405C81CE01835B9F4F49015A01DC01CC904D
S1130950DC011196DC90DC011296EC90DC0113961C
S1130960FC90DC0114960C91DC0115961C91DC01C1
S113097016962C91DC0117963C91DC0118964C914B
S1130980DC0119965C91DC011A966C91DC011B96D2
S11309907C91CF010E9463145E01B1E7AB0EB11CE0
S11309A08DB79EB70C970FB6F8949EBF0FBE8DBF40
S11309B08DB79EB701962CE0FE013596DC010190BF
S11309C00D922A95E1F7C090E701D090E801E090FC
S11309D0E901F090EA010091EB011091EC01209102
S11309E0ED013091EE014091EF015091F0016091E1
S11309F0F1017091F201C5010E94E014ADB7BEB7D8
S1130A001C960FB6F894DEBF0FBECDBFCE018F5833
S1130A109F4F2CE0FC01AFE9B2E001900D922A95C2
S1130A20E1F70000C458DF4F0FB6F894DEBF0FBEE5
S1130A30CDBFDF91CF911F910F91FF90EF90DF9089
S1130A40CF90BF90AF909F908F9008958F929F9278
S1130A50AF92BF92CF92DF92EF92FF920F931F93C8
S1130A60CF93DF93CDB7DEB7CC57D1090FB6F89447
S1130A70DEBF0FBECDBF8091AB019091AC01A091C0
S1130A80AD01B091AE019C01AD0160E070E080E881
S1130A909FE30E94D01BDC01CB0189839A83AB8343
S1130AA0BC835E018DE4A80EB11CADB7BEB71C9724
S1130AB00FB6F894BEBF0FBEADBF8DB79EB70196FB
S1130AC02CE0E7E4F2E0DC0101900D922A95E1F7D5
S1130AD0C090CF01D090D001E090D101F090D2012C
S1130AE00091D3011091D4012091D5013091D60108
S1130AF04091D7015091D8016091D9017091DA01E8
S1130B00C5010E944E158DB79EB70C960FB6F8948A
S1130B10DEBF0FBECDBF5E0199E5A90EB11CADB716
S1130B20BEB71C970FB6F894BEBF0FBEADBF8DB74E
S1130B309EB701962CE0EFECF1E0DC0101900D9200
S1130B402A95E1F7C090DB01D090DC01E090DD0153
S1130B50F090DE010091DF011091E0012091E101AC
S1130B603091E2014091E3015091E4016091E5018B
S1130B707091E601C5010E944E158DB79EB70C9683
S1130B800FB6F894DEBF0FBECDBF5E0195E6A90E89
S1130B90B11CADB7BEB71C970FB6F894BEBF0FBE5D
S1130BA0ADBF8DB79EB701962CE0EBEDF1E0DC0113
S1130BB001900D922A95E1F7C0904702D090480227
S1130BC0E0904902F0904A0200914B0210914C02CD
S1130BD020914D0230914E0240914F0250915002AB
S1130BE06091510270915202C5010E944E158DB759
S1130BF09EB70C960FB6F894DEBF0FBECDBFFE01B4
S1130C00EF5BFF4F29813A814B815C81CE01835B8D
S1130C109F4F49015A01DC01CC90DC011196DC9014
S1130C20DC011296EC90DC011396FC90DC01149626
S1130C300C91DC0115961C91DC0116962C91DC01BB
S1130C4017963C91DC0118964C91DC0119965C9145
S1130C50DC011A966C91DC011B967C91CF010E94F9
S1130C6063145E01B1E7AB0EB11C8DB79EB70C9750
S1130C700FB6F8949EBF0FBE8DBF8DB79EB7019679
S1130C802CE0FE01EF5BFF4FDC0101900D922A95F1
S1130C90E1F7C0904702D0904802E0904902F090FA
S1130CA04A0200914B0210914C0220914D02309166
S1130CB04E0240914F025091500260915102709146
S1130CC05202C5010E94E014ADB7BEB71C960FB620
S1130CD0F894DEBF0FBECDBFCE018F589F4F2CE0DE
S1130CE0FC01A3EFB1E001900D922A95E1F7209168
S1130CF0AB013091AC014091AD015091AE01FE01C8
S1130D00F596CE01835B9F4F49015A01DC01CC90DB
S1130D10DC011196DC90DC011296EC90DC01139658
S1130D20FC90DC0114960C91DC0115961C91DC01FD
S1130D3016962C91DC0117963C91DC0118964C9187
S1130D40DC0119965C91DC011A966C91DC011B960E
S1130D507C91CF010E9463145E01B1E7AB0EB11C1C
S1130D608DB79EB70C970FB6F8949EBF0FBE8DBF7C
S1130D708DB79EB701962CE0FE01F596DC0101903B
S1130D800D922A95E1F7C0904702D0904802E09076
S1130D904902F0904A0200914B0210914C022091BA
S1130DA04D0230914E0240914F0250915002609199
S1130DB0510270915202C5010E94E014ADB7BEB752
S1130DC01C960FB6F894DEBF0FBECDBFCE018F5870
S1130DD09F4F2CE0FC01AFEFB1E001900D922A95FA
S1130DE0E1F7FE01B99629813A814B815C81CE01FC
S1130DF08B599F4F49015A01DC01CC90DC011196BB
S1130E00DC90DC011296EC90DC011396FC90DC0182
S1130E1014960C91DC0115961C91DC0116962C910C
S1130E20DC0117963C91DC0118964C91DC01199673
S1130E305C91DC011A966C91DC011B967C91CF01CC
S1130E400E9463145E01B1E7AB0EB11C8DB79EB76F
S1130E500C970FB6F8949EBF0FBE8DBF8DB79EB78B
S1130E6001962CE0FE01B996DC0101900D922A95C1
S1130E70E1F7C090DB01D090DC01E090DD01F0905F
S1130E80DE010091DF011091E0012091E101309138
S1130E90E2014091E3015091E4016091E501709118
S1130EA0E601C5010E94E014ADB7BEB71C960FB6AB
S1130EB0F894DEBF0FBECDBFCE018F589F4F2CE0FC
S1130EC0FC01ABE0B2E001900D922A95E1F720918C
S1130ED0AB013091AC014091AD015091AE01FE01E6
S1130EE07D96CE018B599F4F49015A01DC01CC906C
S1130EF0DC011196DC90DC011296EC90DC01139677
S1130F00FC90DC0114960C91DC0115961C91DC011B
S1130F1016962C91DC0117963C91DC0118964C91A5
S1130F20DC0119965C91DC011A966C91DC011B962C
S1130F307C91CF010E9463145E01B1E7AB0EB11C3A
S1130F408DB79EB70C970FB6F8949EBF0FBE8DBF9A
S1130F508DB79EB701962CE0FE017D96DC010190D1
S1130F600D922A95E1F7C090DB01D090DC01E0906E
S1130F70DD01F090DE010091DF011091E00120918C
S1130F80E1013091E2014091E3015091E40160916B
S1130F90E5017091E601C5010E94E014ADB7BEB74A
S1130FA01C960FB6F894DEBF0FBECDBFCE018F588E
S1130FB09F4F2CE0FC01A7E1B2E001900D922A952D
S1130FC0E1F7FE01719629813A814B815C81CE0162
S1130FD0875A9F4F49015A01DC01CC90DC011196DC
S1130FE0DC90DC011296EC90DC011396FC90DC01A1
S1130FF014960C91DC0115961C91DC0116962C912B
S1131000DC0117963C91DC0118964C91DC01199691
S11310105C91DC011A966C91DC011B967C91CF01EA
S11310200E9463145E01B1E7AB0EB11C8DB79EB78D
S11310300C970FB6F8949EBF0FBE8DBF8DB79EB7A9
S113104001962CE0FE017196DC0101900D922A9527
S1131050E1F7C090CF01D090D001E090D101F090A1
S1131060D2010091D3011091D4012091D501309186
S1131070D6014091D7015091D8016091D901709166
S1131080DA01C5010E94E014ADB7BEB71C960FB6D5
S1131090F894DEBF0FBECDBFCE018F589F4F2CE01A
S11310A0FC01A3E2B2E001900D922A95E1F72091B0
S11310B0AB013091AC014091AD015091AE01FE0104
S11310C03596CE01875A9F4F49015A01DC01CC90D5
S11310D0DC011196DC90DC011296EC90DC01139695
S11310E0FC90DC0114960C91DC0115961C91DC013A
S11310F016962C91DC0117963C91DC0118964C91C4
S1131100DC0119965C91DC011A966C91DC011B964A
S11311107C91CF010E9463145E01B1E7AB0EB11C58
S11311208DB79EB70C970FB6F8949EBF0FBE8DBFB8
S11311308DB79EB701962CE0FE013596DC01019037
S11311400D922A95E1F7C090CF01D090D001E090A4
S1131150D101F090D2010091D3011091D4012091DA
S1131160D5013091D6014091D7015091D8016091B9
S1131170D9017091DA01C5010E94E014ADB7BEB780
S11311801C960FB6F894DEBF0FBECDBFCE018F58AC
S11311909F4F2CE0FC01AFE2B2E001900D922A9542
S11311A0E1F70000C458DF4F0FB6F894DEBF0FBE5E
S11311B0CDBFDF91CF911F910F91FF90EF90DF9002
S11311C0CF90BF90AF909F908F900895EF92FF9231
S11311D00F931F93CF93DF93CDB7DEB760970FB60E
S11311E0F894DEBF0FBECDBF809100019091010144
S11311F0A0910201B091030120E030E040EC50E402
S1131200BC01CD010E94B51CDC01CB017C018D0128
S11312108091CB019091CC01A091CD01B091CE01F0
S11312209C01AD01C801B7010E94531EDC01CB0132
S113123089839A83AB83BC8389819A81AB81BC8186
S11312409C01AD01BC01CD010E94D11BDC01CB018D
S11312508D839E83AF83B8878091CB019091CC011D
S1131260A091CD01B091CE01B05820E030E040E033
S113127050E4BC01CD010E94B51CDC01CB019C01F2
S1131280AD0189819A81AB81BC81B058209347021A
S1131290309348024093490250934A0280934B0290
S11312A090934C02A0934D02B0934E0210924F02C1
S11312B01092500210925102109252028091CB016E
S11312C09091CC01A091CD01B091CE0120E030E00D
S11312D040E050E4BC01CD010E94B51CDC01CB010F
S11312E09C01AD0189819A81AB81BC81B058209366
S11312F0CF013093D0014093D1015093D201809318
S1131300D3019093D401A093D501B093D601109248
S1131310D7011092D8011092D9011092DA011092DB
S1131320DB011092DC011092DD011092DE018D814F
S11313309E81AF81B8858093DF019093E001A093F3
S1131340E101B093E2011092E3011092E4011092E2
S1131350E5011092E6018091000190910101A091B4
S11313600201B091030120E030E040EC50E4BC0104
S1131370CD010E94B51CDC01CB017C018D01809163
S1131380530290915402A0915502B09156029C01CF
S1131390AD01C801B7010E94531EDC01CB0189874E
S11313A09A87AB87BC8789859A85AB85BC859C0168
S11313B0AD01BC01CD010E94D11BDC01CB018D87A5
S11313C09E87AF87B88B8D859E85AF85B889B058C9
S11313D01092E7011092E8011092E9011092EA01DB
S11313E08093EB019093EC01A093ED01B093EE0197
S11313F01092EF011092F0011092F1011092F2019B
S11314008091530290915402A0915502B0915602DA
S113141020E030E040E050E4BC01CD010E94B51C66
S1131420DC01CB0180933B0290933C02A0933D02EC
S1131430B0933E0289859A85AB85BC8580933F0233
S113144090934002A0934102B0934202109243024F
S11314501092440210924502109246028091530267
S113146090915402A0915502B0915602B05820E0D8
S113147030E040E050E4BC01CD010E94B51CDC0129
S1131480CB018093570290935802A0935902B093D2
S11314905A0289859A85AB85BC8580935B029093BB
S11314A05C02A0935D02B0935E0210925F02109200
S11314B060021092610210926202000060960FB600
S11314C0F894DEBF0FBECDBFDF91CF911F910F9176
S11314D0FF90EF9008958F929F92AF92BF92CF9218
S11314E0DF92EF92FF920F931F93CF93DF93CDB7C9
S11314F0DEB76C970FB6F894DEBF0FBECDBF988BE6
S11315008F87C98ADA8AEB8AFC8A0D8B1E8B2F8B14
S1131510388F498F5A8F6B8F7C8F1A821982C8C07B
S11315205E0123E0A20EB11C29813A81C901880F12
S1131530991F820F931F880F991F880F991F9C0171
S11315402D593D4F8DB79EB70C970FB6F8949EBF9B
S11315500FBE8DBF8DB79EB701964CE0F901DC013B
S113156001900D924A95E1F729813A81C901880FCA
S1131570991F820F931F880F991F880F991F9C0131
S11315802D503E4FEDB7FEB73C970FB6F894FEBF13
S11315900FBEEDBF8DB79EB701964CE0F901DC019B
S11315A001900D924A95E1F72DB73EB720513109CC
S11315B00FB6F8943EBF0FBE2DBF8DB79EB70196F0
S11315C020E1FE01BB96DC0101900D922A95E1F722
S11315D0C988DA88EB88FC880D891E892F89388DA3
S11315E0498D5A8D6B8D7C8DC5011AD38DB79EB7ED
S11315F088960FB6F894DEBF0FBECDBF89819A815D
S1131600880F991F880F991F2F8538894901880EE3
S1131610991E89819A81880F991F880F991F8D546B
S11316209E4FFC0120813181428153818091A70129
S11316309091A801A091A901B091AA01E090AB02F8
S1131640F090AC020091AD021091AE02652F6F9341
S1131650642F6F93632F6F932F932B2F2F932A2F26
S11316602F93292F2F938F9357016801EB80FC80D0
S11316700D811E812F81388549855A856B857C852E
S11316808D859E852ED02DB73EB7285F3F4F0FB670
S1131690F894DEBF0FBECDBFDC01CB01F401808323
S11316A09183A283B38389819A8101969A838983E2
S11316B089819A8106970CF433CF00006C960FB69B
S11316C0F894DEBF0FBECDBFDF91CF911F910F9174
S11316D0FF90EF90DF90CF90BF90AF909F908F904E
S11316E00895AF92BF92CF92DF92EF92FF920F9341
S11316F01F93CF93DF93CDB7DEB76C970FB6F894F3
S1131700DEBF0FBECDBFED86FE860F87188B298BFB
S11317103A8B4B8B5C8B6D8B7E8B8F8B988FA98ECA
S1131720BA8ECB8EDC8E89A59AA5ABA5BCA5AD845B
S1131730BE84CF84D888E988FA880B891C892D89CE
S11317403E894F89588DBC01CD0174D0DC01CB0199
S113175089839A83AB83BC8389A59AA5ABA5BCA5D1
S113176028A92F932FA52F932EA52F932DA52F9323
S1131770AD84BE84CF84D888E988FA880B891C8913
S11317802D893E894F89588DBC01CD01A2D00F907F
S11317900F900F900F90DC01CB018D839E83AF835C
S11317A0B88789A59AA5ABA5BCA52C8D2F932B8DA5
S11317B02F932A8D2F93298D2F93AD84BE84CF84AC
S11317C0D888E988FA880B891C892D893E894F8934
S11317D0588DBC01CD010AD10F900F900F900F903E
S11317E0DC01CB0189879A87AB87BC87E984FA84BB
S11317F00B851C852D813E814F81588589819A8175
S1131800AB81BC81BC01CD0188D1DC01CB01BC0121
S1131810CD016C960FB6F894DEBF0FBECDBFDF913D
S1131820CF911F910F91FF90EF90DF90CF90BF90D9
S1131830AF900895AF92BF92CF92DF92EF92FF9252
S11318400F931F93CF93DF93CDB7DEB760970FB697
S1131850F894DEBF0FBECDBF69837A838B839C83EC
S1131860AD82BE82CF82D886E986FA860B871C8732
S11318702D873E874F87588B89819A81AB81BC81A4
S11318809C01AD01BC01CD010E94D11BDC01CB0147
S11318907C018D018D859E85AF85B8899C01AD0144
S11318A0C801B7010E94531EDC01CB01BC01CD016C
S11318B060960FB6F894DEBF0FBECDBFDF91CF9117
S11318C01F910F91FF90EF90DF90CF90BF90AF905A
S11318D008954F925F926F927F928F929F92AF92F0
S11318E0BF92CF92DF92EF92FF920F931F93CF9309
S11318F0DF93CDB7DEB760970FB6F894DEBF0FBEA7
S1131900CDBF69837A838B839C83AD82BE82CF8271
S1131910D886E986FA860B871C872D873E874F87F2
S1131920588B89819A81AB81BC819C01AD01BC013A
S1131930CD010E94D11BDC01CB016C017D018BA187
S11319409CA1ADA1BEA1BC01CD010E94B21C4B0162
S11319505C018D819E81AF81B8859C01AD01C5017B
S1131960B4010E94531EDC01CB014C015D018BA12B
S11319709CA1ADA1BEA1BC01CD010E94B61E2B014C
S11319803C0189859A85AB85BC859C01AD01C30169
S1131990B2010E94531EDC01CB019C01AD01C501C3
S11319A0B4010E94D11BDC01CB019C01AD01C70134
S11319B0B6010E94531EDC01CB01BC01CD0160962F
S11319C00FB6F894DEBF0FBECDBFDF91CF911F914C
S11319D00F91FF90EF90DF90CF90BF90AF909F90CA
S11319E08F907F906F905F904F900895AF92BF92C9
S11319F0CF92DF92EF92FF920F931F93CF93DF93D7
S1131A00CDB7DEB76C970FB6F894DEBF0FBECDBF6F
S1131A106D877E878F87988BA98ABA8ACB8ADC8A5E
S1131A20ED8AFE8A0F8B188F298F3A8F4B8F5C8F2C
S1131A30E988FA880B891C892D893E894F89588D3C
S1131A40698D7A8D8B8D9C8D0E9432165B016C01A1
S1131A50E988FA880B891C892D893E894F89588D1C
S1131A60698D7A8D8B8D9C8D0E943216DC01CB01A1
S1131A709C01AD01C601B5010E94531EDC01CB01DE
S1131A8089839A83AB83BC8329A53AA54BA55CA51E
S1131A9069A57AA58BA59CA50E94531EDC01CB01E8
S1131AA08D839E83AF83B8872D853E854F85588966
S1131AB06D857E858F8598890E94531EDC01CB013C
S1131AC089879A87AB87BC8729853A854B855C854E
S1131AD06D817E818F8198850E94D01BDC01CB01B2
S1131AE09C01AD0169817A818B819C810E94D01B0C
S1131AF0DC01CB01BC01CD016C960FB6F894DEBFBE
S1131B000FBECDBFDF91CF911F910F91FF90EF904A
S1131B10DF90CF90BF90AF900895CF92DF92EF9275
S1131B20FF920F931F93CF93DF93CDB7DEB76097E8
S1131B300FB6F894DEBF0FBECDBF6D837E838F8357
S1131B40988729873A874B875C87ED86FE860F87BF
S1131B50188B2D813E814F8158856D817E818F81C7
S1131B6098850E94531EDC01CB016C017D012985FF
S1131B703A854B855C8569857A858B859C850E9431
S1131B80531EDC01CB019C01AD01C701B6010E94CB
S1131B90D11BDC01CB01BC01CD010E94C01EDC01C4
S1131BA0CB019C01AD016D857E858F8598890E944E
S1131BB0B51CDC01CB01BC01CD010E94351C6B01BD
S1131BC07C012D813E814F81588589859A85AB851D
S1131BD0BC85BC01CD010E945B1CDC01CB019C01D6
S1131BE0AD01C701B6010E94D01BDC01CB01898382
S1131BF09A83AB83BC8389819A81AB81BC81BC010C
S1131C00CD0160960FB6F894DEBF0FBECDBFDF9155
S1131C10CF911F910F91FF90EF90DF90CF90089597
S1131C20AF92BF92CF92DF92EF92FF920F931F93E6
S1131C30CF93DF93CDB7DEB7A6970FB6F894DEBF88
S1131C400FBECDBF9A8F898FCB8EDC8EED8EFE8E2C
S1131C500F8F18A329A33AA34BA35CA36DA37EA360
S1131C605E018DE0A80EB11C8DB79EB740970FB6EC
S1131C70F8949EBF0FBE8DBF8DB79EB7019620E12D
S1131C80FE01F396DC0101900D922A95E1F760962E
S1131C90CFAC60976196DFAC61976296EFAC6297C8
S1131CA06396FFAC639764960FAD649765961FAD1A
S1131CB0659766962FAD669767963FAD679768966A
S1131CC04FAD689769965FAD69976A966FAD6A97ED
S1131CD06B967FAD6B97C5010E948F168DB79EB72B
S1131CE040960FB6F894DEBF0FBECDBF8DB79EB73A
S1131CF00C970FB6F8949EBF0FBE8DBF8DB79EB7DD
S1131D0001962CE0FE013D96DC0101900D922A958E
S1131D10E1F7CB8CDC8CED8CFE8C0F8D18A129A106
S1131D203AA14BA15CA16DA17EA1CE01019648D63A
S1131D308DB79EB70C960FB6F894DEBF0FBECDBF1D
S1131D40A98CBA8C8DB79EB70C970FB6F8949EBF2A
S1131D500FBE8DBF8DB79EB701962CE0FE01ED5BE3
S1131D60FF4FDC0101900D922A95E1F7C980DA80DA
S1131D70EB80FC800D811E812F81388549855A8531
S1131D806B857C85C5018AD68DB79EB70C960FB638
S1131D90F894DEBF0FBECDBF898D9A8DA6960FB67F
S1131DA0F894DEBF0FBECDBFDF91CF911F910F918D
S1131DB0FF90EF90DF90CF90BF90AF900895CF92B7
S1131DC0DF92EF92FF920F931F93CF93DF93CDB7E0
S1131DD0DEB76E970FB6F894DEBF0FBECDBF9A8BF9
S1131DE0898BCB8ADC8AED8AFE8A0F8B188F298F28
S1131DF03A8F4B8F5C8F6D8F7E8F19821A821B8274
S1131E001C828B899C89AD89BE898D839E83AF8317
S1131E10B8878F89988DA98DBA8D89879A87AB8762
S1131E20BC878B8D9C8DAD8DBE8D8D879E87AF8736
S1131E30B88B89899A8940E19E012F5F3F4FF90150
S1131E40DC0101900D924A95E1F789899A896E9691
S1131E500FB6F894DEBF0FBECDBFDF91CF911F91B7
S1131E600F91FF90EF90DF90CF9008958F929F9203
S1131E70AF92BF92CF92DF92EF92FF920F931F9394
S1131E80CF93DF93CDB7DEB7A2970FB6F894DEBF3A
S1131E900FBECDBF9A8B898B8B8A9C8AAD8ABE8AF2
S1131EA0CF8AD88EE98EFA8E0B8F1C8F2D8F3E8FA2
S1131EB04F8F58A369A37AA38B899C89AD89BE8966
S1131EC089839A83AB83BC838F89988DA98DBA8DBE
S1131ED0B0588D839E83AF83B8878B8D9C8DAD8DD9
S1131EE0BE8DB05889879A87AB87BC878F8D98A1A0
S1131EF0A9A1BAA1B0588D879E87AF87B88B89896D
S1131F009A8940E19E012F5F3F4FF901DC01019066
S1131F100D924A95E1F789899A89A2960FB6F894A9
S1131F20DEBF0FBECDBFDF91CF911F910F91FF9008
S1131F30EF90DF90CF90BF90AF909F908F900895D7
S1131F408F929F92AF92BF92CF92DF92EF92FF92C5
S1131F500F931F93CF93DF93CDB7DEB7A2970FB63E
S1131F60F894DEBF0FBECDBF9A8B898B8B8A9C8A77
S1131F70AD8ABE8ACF8AD88EE98EFA8E0B8F1C8FDB
S1131F802D8F3E8F4F8F58A369A37AA38B899C8989
S1131F90AD89BE8929A93AA94BA95CA9BC01CD0187
S1131FA00E94531EDC01CB016C017D018F89988D49
S1131FB0A98DBA8D2DA93EA94FA958ADBC01CD015B
S1131FC00E94531EDC01CB019C01AD01C701B60187
S1131FD00E94D01BDC01CB016C017D018B8D9C8D9B
S1131FE0AD8DBE8D29AD3AAD4BAD5CADBC01CD011F
S1131FF00E94531EDC01CB019C01AD01C701B60157
S11320000E94D01BDC01CB016C017D018F8D98A156
S1132010A9A1BAA121962CAD3DAD4EAD5FAD2197DE
S1132020BC01CD010E94531EDC01CB019C01AD011A
S1132030C701B6010E94D01BDC01CB0189839A83BE
S1132040AB83BC838B899C89AD89BE892DA93EA9AC
S11320504FA958ADBC01CD010E94531EDC01CB0138
S11320606C017D018F89988DA98DBA8D29A93AA912
S11320704BA95CA9BC01CD010E94531EDC01CB011C
S11320809C01AD01C701B6010E94D11BDC01CB014B
S11320906C017D018B8D9C8DAD8DBE8D21962CADFB
S11320A03DAD4EAD5FAD2197BC01CD010E94531EE5
S11320B0DC01CB019C01AD01C701B6010E94D11B1B
S11320C0DC01CB016C017D018F8D98A1A9A1BAA17E
S11320D029AD3AAD4BAD5CADBC01CD010E94531EA0
S11320E0DC01CB019C01AD01C701B6010E94D01BEC
S11320F0DC01CB018D839E83AF83B8878B899C8958
S1132100AD89BE8929AD3AAD4BAD5CADBC01CD0105
S11321100E94531EDC01CB016C017D018F89988DD7
S1132120A98DBA8D21962CAD3DAD4EAD5FAD2197F5
S1132130BC01CD010E94531EDC01CB019C01AD0109
S1132140C701B6010E94D01BDC01CB016C017D01EB
S11321508B8D9C8DAD8DBE8D29A93AA94BA95CA907
S1132160BC01CD010E94531EDC01CB019C01AD01D9
S1132170C701B6010E94D11BDC01CB016C017D01BA
S11321808F8D98A1A9A1BAA12DA93EA94FA958AD97
S1132190BC01CD010E94531EDC01CB019C01AD01A9
S11321A0C701B6010E94D11BDC01CB0189879A8744
S11321B0AB87BC878B899C89AD89BE8921962CAD60
S11321C03DAD4EAD5FAD2197BC01CD010E94531EC4
S11321D0DC01CB016C017D018F89988DA98DBA8DAD
S11321E029AD3AAD4BAD5CADBC01CD010E94531E8F
S11321F0DC01CB019C01AD01C701B6010E94D11BDA
S1132200DC01CB016C017D018B8D9C8DAD8DBE8D70
S11322102DA93EA94FA958ADBC01CD010E94531E62
S1132220DC01CB019C01AD01C701B6010E94D01BAA
S1132230DC01CB016C017D018F8D98A1A9A1BAA10C
S113224029A93AA94BA95CA9BC01CD010E94531E3E
S1132250DC01CB019C01AD01C701B6010E94D11B79
S1132260DC01CB018D879E87AF87B88B89899A89DA
S113227040E19E012F5F3F4FF901DC0101900D9277
S11322804A95E1F789899A89A2960FB6F894DEBF38
S11322900FBECDBFDF91CF911F910F91FF90EF90B3
S11322A0DF90CF90BF90AF909F908F900895CF9381
S11322B0DF93CDB7DEB729970FB6F894DEBF0FBE14
S11322C0CDBF9F838E8368874987988589859817B2
S11322D00CF0C9C088858B838885898389858A8326
S11322E079C089818F5F89838981882F90E0880FE5
S11322F0991F2E813F81820F931FFC0140818B81A6
S1132300882F90E0880F991F2E813F81820F931FA1
S1132310FC018081841770F08981282F30E0898541
S1132320082E000C990B28173907DCF203C08A81A8
S113233081508A838A81882F90E0880F991F2E818B
S11323403F81820F931FFC0140818B81882F90E095
S1132350880F991F2E813F81820F931FFC0180817A
S1132360841728F399818A819817A0F58981882F89
S113237090E0880F991F2E813F81820F931FFC01EB
S1132380808191819D838C838981882F90E0880F3F
S1132390991F2E813F81820F931F2A81222F30E0C3
S11323A0220F331F4E815F81240F351FF9012081D5
S11323B03181FC01318320838A81882F90E0880F4A
S11323C0991F2E813F81820F931F2C813D81FC0137
S11323D03183208399818A81981708F485CF8B8172
S11323E0882F90E0880F991F2E813F81820F931FC1
S11323F0FC01808191819D838C838B81882F90E067
S1132400880F991F2E813F81820F931F2A81222FCB
S113241030E0220F331F4E815F81240F351FF901F5
S113242020813181FC01318320838A81882F90E0CF
S1132430880F991F2E813F81820F931F2C813D812C
S1132440FC01318320838A818150282F8E819F81D2
S1132450422F68852CDF8A818F5F282F8E819F8190
S11324604985622F24DF000029960FB6F894DEBF59
S11324700FBECDBFDF91CF910895CF93DF9300D0EE
S1132480CDB7DEB79A83898389819A8145E060E07C
S11324900EDF00000F900F90DF91CF9108951F92EF
S11324A00F9200905F000F9211242F938F939F93AC
S11324B0EF93FF93CF93DF9300D000D0CDB7DEB777
S11324C080EC90E0FC0180818A8386EC90E0FC0142
S11324D080818B838A818C718983809192018F5F43
S11324E08F738C83809193019C81981719F482E0F7
S11324F089830BC08C81809392018C81882F90E01A
S1132500805B9E4F2B81FC012083909194018981F3
S1132510892B8093940100000F900F900F900F90DF
S1132520DF91CF91FF91EF919F918F912F910F9018
S113253000925F000F901F9018951F920F920090C9
S11325405F000F9211242F933F938F939F93EF93E8
S1132550FF93CF93DF931F92CDB7DEB79091900195
S1132560809191019817A1F0809191018F5F8F73F1
S1132570898389818093910186EC90E02981222FBF
S113258030E0205F3E4FF9012081FC01208309C027
S113259081EC90E021EC30E0F90120812F7DFC01F9
S11325A0208300000F90DF91CF91FF91EF919F91D5
S11325B08F913F912F910F9000925F000F901F9089
S11325C01895CF93DF9300D0CDB7DEB79A83898374
S11325D01092900110929101109292011092930125
S11325E089819A8199232CF480EC90E022E0FC010B
S11325F0208385EC90E029813A81232F33272078AA
S1132600FC01208384EC90E02981FC01208381EC8F
S113261090E028E9FC01208382EC90E026E0FC01B4
S1132620208300000F900F90DF91CF910895CF93F6
S1132630DF9300D01F92CDB7DEB7909192018091C5
S11326409301981719F480E091E01FC080919301E1
S11326508F5F8F7389838981882F90E0805B9E4F81
S1132660FC0180818A83809194018B83898180938A
S11326709301109294018B81882F90E0382F2227A8
S11326808A81882F90E0820F931F0F900F900F90F4
S1132690DF91CF910895CF93DF9300D0CDB7DEB70C
S11326A08A83809190018F5F8F738983000080916A
S11326B0910199819817D9F38981882F90E0805FDF
S11326C09E4F2A81FC01208389818093900181ECB3
S11326D090E021EC30E0F90120812062FC012083AC
S11326E000000F900F90DF91CF910895CF93DF9367
S11326F000D0CDB7DEB79A8389830AC089819A81D5
S11327009C012F5F3F4F3A832983FC018081C3DF03
S113271089819A81FC018081882381F700000F90D0
S11327200F90DF91CF910895CF93DF9300D0CDB771
S1132730DEB79A83898389819A81D8DF00000F905C
S11327400F90DF91CF910895CF93DF931F92CDB770
S1132750DEB719829091920180919301292F281B51
S1132760822F8F7389838981882329F088E290E0FE
S11327702981FC01208389810F90DF91CF910895F5
S11327800F931F93CF93DF9300D000D0CDB7DEB764
S11327909C838B831A8219821AC089819A81892B1E
S11327A021F089819A81079711F441DF0BC0898157
S11327B09A8101972B813C818901080F191F37DF0A
S11327C0F801808389819A8101969A83898389811A
S11327D09A81089714F300000F900F900F900F90B8
S11327E0DF91CF911F910F910895CF93DF93CDB7D0
S11327F0DEB7AADF813220F08091920180939301A9
S11328000000DF91CF9108958F929F92AF92BF9273
S1132810CF92DF92EF92FF920F931F93CF93DF93A8
S1132820CDB7DEB76E970FB6F894DEBF0FBECDBF3F
S11328309E878D878F86988AA98ABA8ACB8ADC8AF2
S1132840ED8AFE8A0F8B188F298F3A8F4B8F5C8FFE
S11328506D8F7E8F8B899C89AD89BE8989839A838C
S1132860AB83BC838F89988DA98DBA8D8D839E830C
S1132870AF83B8878B8D9C8DAD8DBE8D89879A87EC
S1132880AB87BC878D859E854CE09E012F5F3F4FB3
S1132890F901DC0101900D924A95E1F78D859E8541
S11328A06E960FB6F894DEBF0FBECDBFDF91CF9109
S11328B01F910F91FF90EF90DF90CF90BF90AF905A
S11328C09F908F9008958F929F92AF92BF92CF92D4
S11328D0DF92EF92FF920F931F93CF93DF93CDB7C5
S11328E0DEB76E970FB6F894DEBF0FBECDBF9E87DE
S11328F08D87CF86D88AE98AFA8A0B8B1C8B2D8B1D
S11329003E8B4F8B588F698F7A8F8B8E9C8EAD8EBA
S1132910BE8E8F859889A989BA892B8D3C8D4D8D62
S11329205E8DBC01CD010E94531EDC01CB01898365
S11329309A83AB83BC838B899C89AD89BE892B8D9B
S11329403C8D4D8D5E8DBC01CD010E94531EDC017A
S1132950CB018D839E83AF83B8878F89988DA98D92
S1132960BA8D2B8D3C8D4D8D5E8DBC01CD010E94A9
S1132970531EDC01CB0189879A87AB87BC878D8581
S11329809E854CE09E012F5F3F4FF901DC010190D1
S11329900D924A95E1F78D859E856E960FB6F89453
S11329A0DEBF0FBECDBFDF91CF911F910F91FF907E
S11329B0EF90DF90CF90BF90AF909F908F9008954D
S11329C0CF92DF92EF92FF920F931F93CF93DF93F7
S11329D0CDB7DEB76A970FB6F894DEBF0FBECDBF92
S11329E09E878D87CF86D88AE98AFA8A0B8B1C8BBF
S11329F02D8B3E8B4F8B588F698F7A8F8F8598895B
S1132A00A989BA892DA13EA14FA158A5BC01CD0128
S1132A10C8D6DC01CB0189839A83AB83BC838B89C1
S1132A209C89AD89BE8929A53AA54BA55CA5BC01A5
S1132A30CD01B7D6DC01CB018D839E83AF83B887EC
S1132A408F89988DA98DBA8D2DA53EA54FA558A91E
S1132A50BC01CD01A6D6DC01CB0189879A87AB875F
S1132A60BC878D859E854CE09E012F5F3F4FF90109
S1132A70DC0101900D924A95E1F78D859E856A9659
S1132A800FB6F894DEBF0FBECDBFDF91CF911F917B
S1132A900F91FF90EF90DF90CF9008958F929F92C7
S1132AA0AF92BF92CF92DF92EF92FF920F931F9358
S1132AB0CF93DF93CDB7DEB76A970FB6F894DEBF36
S1132AC00FBECDBF9E878D87CF86D88AE98AFA8AC2
S1132AD00B8B1C8B2D8B3E8B4F8B588F698F7A8F72
S1132AE00F2E812C912CF0E8AF2EFFEBBF2EF02D92
S1132AF0C9A4DAA4EBA4FCA40DA51EA52FA538A98E
S1132B0049A95AA96BA97CA9CE010196DCDEAD8442
S1132B10BE848DB79EB70C970FB6F8949EBF0FBEB8
S1132B208DBF8DB79EB701964CE09E012F5F3F4F3E
S1132B30F901DC0101900D924A95E1F7CF84D88820
S1132B40E988FA880B891C892D893E894F89588D1B
S1132B50698D7A8DC50134DF8DB79EB70C960FB69B
S1132B60F894DEBF0FBECDBF8D859E856A960FB6E5
S1132B70F894DEBF0FBECDBFDF91CF911F910F91AF
S1132B80FF90EF90DF90CF90BF90AF909F908F9089
S1132B900895CF92DF92EF92FF920F931F93CF93FA
S1132BA0DF93CDB7DEB72C970FB6F894DEBF0FBE18
S1132BB0CDBFE982FA820B831C832D833E834F832E
S1132BC0588769877A878B879C8789819A81AB81AB
S1132BD0BC812F89388D498D5A8DBC01CD010E944D
S1132BE0531EDC01CB016C017D018D819E81AF817F
S1132BF0B8852B8D3C8D4D8D5E8DBC01CD010E9421
S1132C00531EDC01CB019C01AD01C701B601C9D53E
S1132C10DC01CB016C017D0189859A85AB85BC857E
S1132C202F8D38A149A15AA1BC01CD010E94531E88
S1132C30DC01CB019C01AD01C701B601B2D5DC01B9
S1132C40CB01BC01CD012C960FB6F894DEBF0FBEAC
S1132C50CDBFDF91CF911F910F91FF90EF90DF9047
S1132C60CF900895EF92FF920F931F93CF93DF932A
S1132C70CDB7DEB72C970FB6F894DEBF0FBECDBF2D
S1132C80E982FA820B831C832D833E834F8358870A
S1132C9069877A878B879C872DB73EB72C5031097B
S1132CA00FB6F8943EBF0FBE2DBF8DB79EB70196E9
S1132CB04CE09E012F5F3F4FF901DC0101900D9222
S1132CC04A95E1F7E980FA800B811C812D813E81D0
S1132CD04F81588569857A858B859C855ADF2DB708
S1132CE03EB7245F3F4F0FB6F894DEBF0FBECDBF93
S1132CF0DC01CB01BC01CD010E94C01EDC01CB0173
S1132D00BC01CD012C960FB6F894DEBF0FBECDBF2B
S1132D10DF91CF911F910F91FF90EF9008956F92E3
S1132D207F928F929F92AF92BF92CF92DF92EF9257
S1132D30FF920F931F93CF93DF93CDB7DEB7CE549B
S1132D40D1090FB6F894DEBF0FBECDBFFE01EF5B15
S1132D50FF4F91838083CE018D5B9F4FDC01CC922A
S1132D60FC01D182DC011296EC92FC01F382DC01BD
S1132D7014960C93FC011583DC0116962C93FC012C
S1132D803783DC0118964C93FC015187DC011A96B9
S1132D906C93FC017387FE01B196CE018D5B9F4F4E
S1132DA0DC01CC90DC011196DC90DC011296EC90F5
S1132DB0DC011396FC90DC0114960C91DC01159651
S1132DC01C91DC0116962C91DC0117963C91DC01D8
S1132DD018964C91DC0119965C91DC011A966C9161
S1132DE0DC011B967C91CF010E94DF0ECE0141963F
S1132DF0A0968FACA097A1969FACA197A296AFACDA
S1132E00A297A396BFACA397A496CFACA497A5967C
S1132E10DFACA597A696EFACA697A796FFACA797AD
S1132E20A8960FADA897A9961FADA997AA962FADFE
S1132E30AA97AB963FADAB97AC964FADAC97AD961A
S1132E405FADAD97AE966FADAE97AF967FADAF97D2
S1132E500DD8EDB7FEB770970FB6F894FEBF0FBE4E
S1132E60EDBF8DB79EB7019620E1FE01B196DC015E
S1132E7001900D922A95E1F7A0968FACA097A196A8
S1132E809FACA197A296AFACA297A396BFACA39711
S1132E90A496CFACA497A596DFACA597A696EFAC65
S1132EA0A697A796FFACA797A8960FADA897A99643
S1132EB01FADA997AA962FADAA97AB963FADAB9736
S1132EC0AC964FADAC97AD965FADAD97AE966FAD8A
S1132ED0AE97AF967FADAF97CE01019631D88DB73F
S1132EE09EB740960FB6F894DEBF0FBECDBF3E012D
S1132EF091E3690E711CADB7BEB750970FB6F89445
S1132F00BEBF0FBEADBF8DB79EB7019620E1FE01D7
S1132F107196DC0101900D922A95E1F789809A80DF
S1132F20AB80BC80CD80DE80EF80F88409851A8573
S1132F302B853C854D855E856F857889C30100D8D6
S1132F40EDB7FEB770960FB6F894DEBF0FBECDBFD7
S1132F50CE018F5B9F4FDC01ED91FC9189A89AA86B
S1132F60ABA8BCA8CDA8DEA8EFA8F8AC09AD1AADF3
S1132F702BAD3CAD4DAD5EAD6FADCE01805C9F4FD2
S1132F80DC017C91CF0140DCCE018F5B9F4FFC01C3
S1132F9080819181C25BDF4F0FB6F894DEBF0FBE14
S1132FA0CDBFDF91CF911F910F91FF90EF90DF90F4
S1132FB0CF90BF90AF909F908F907F906F90089527
S1132FC01F920F9200905F000F9211242F933F9352
S1132FD08F939F93EF93FF93CF93DF93CDB7DEB798
S1132FE08091970190919801019690939801809314
S1132FF0970183EB90E029EFFC01208380919701F6
S1133000909198014E9711F410929A018091970132
S113301090919801C29790F085E490E025E430E027
S1133020F90120812160FC01208310929801109203
S1133030970182E290E02FEFFC0120830000DF91F2
S1133040CF91FF91EF919F918F913F912F910F908D
S113305000925F000F901F9018951F920F9200909E
S11330605F000F9211242F933F934F935F938F939D
S11330709F93EF93FF93CF93DF93CDB7DEB7809108
S113308095019091960101969093960180939501F4
S113309087E490E02FEFFC01208380919901882F31
S11330A090E0880F991F880F991F81559D4FFC014F
S11330B020813181809195019091960128173907DB
S11330C008F09AC087E490E020919901222F30E023
S11330D0220F331F220F331F2F543D4FF90120813C
S11330E0FC01208380919901882F90E0880F991F1B
S11330F0880F991F8E549D4FFC018081282F30E04A
S113310081E090E002C0880F991F2A95E2F7AC0194
S11331104095509582E290E022E230E0F90120816E
S1133120322F242F2323FC01208310929601109226
S1133130950129C080919901882F90E00196880F0C
S1133140991F880F991F8E549D4FFC018081282F51
S113315030E081E090E002C0880F991F2A95E2F7E1
S1133160AC014095509582E290E022E230E0F90112
S11331702081322F242F2323FC0120838091990165
S11331808F5F8093990180919901882F90E0880F37
S1133190991F880F991F81559D4FFC012081318112
S11331A080919901882F90E00196880F991F880FCC
S11331B0991F81559D4FFC01808191812817390702
S11331C029F480919901853008F4B4CF8091990154
S11331D08F5F8093990180919901853068F01092F6
S11331E0990182E290E0FC01108285E490E0FC0108
S11331F0108281E080939A010000DF91CF91FF91CA
S1133200EF919F918F915F914F913F912F910F90EB
S113321000925F000F901F901895CF93DF93CDB766
S1133220DEB72C970FB6F894DEBF0FBECDBF8B87E9
S11332306C871A8219828B85882F90E024E6289F58
S1133240A001299F500D11242FEF30E0CA01B901CC
S1133250EDD5CB019A8389838C85882331F08981CC
S11332609A818C599F4F9A83898329813A8140EAB4
S1133270429FC001439F900D11249C838B838B81BB
S11332809C81992314F481509F4F892F990F990B96
S11332909E838D838B819C81907899231CF4019764
S11332A09F6F01968F838D819E81998788878F81F7
S11332B08A8788859985AA85BC018A2F2C960FB6A2
S11332C0F894DEBF0FBECDBFDF91CF910895AF92CA
S11332D0BF92CF92DF92EF92FF920F931F93CF93FF
S11332E0DF93CDB7DEB7E2970FB6F894DEBF0FBE1B
S11332F0CDBFABA2BCA2CDA2DEA2EFA2F8A609A7C5
S11333001AA72BA73CA74DA75EA76FA778AB89ABDD
S11333109AAB5E012BE0A20EB11C8DB79EB740970D
S11333200FB6F8949EBF0FBE8DBF8DB79EB70196A2
S113333020E1FE01B396DC0101900D922A95E1F79C
S1133340C0900401D0900501E0900601F0900701BF
S1133350009108011091090120910A0130910B019B
S113336040910C0150910D0160910E0170910F017B
S1133370C5010E946B0AEDB7FEB770960FB6F894BC
S1133380DEBF0FBECDBF19824EC08981882F90E069
S1133390880F991F880F991F9E012F5F3F4F820F3F
S11333A0931F0A96FC0180819181A281B3818D8350
S11333B09E83AF83B8872BED3FE049E450E46D81F1
S11333C07E818F819885EDD1DC01CB012BED3FE02F
S11333D049EC50E4BC01CD01C8D2DC01CB0120E0B2
S11333E030E04FE753E4BC01CD015DD4DC01CB01F7
S11333F0BC01CD0122D3DC01CB0189878981882FCF
S113340090E09C01220F331F25563E4F4985F90158
S11334104083880F991F84569E4F2981FC01208385
S113342089818F5F89838981863008F4AECF81E0FA
S113343090E09B838A8317C08A819B81880F991FA0
S113344085569E4FFC018081282F20958A819B817F
S1133450880F991F85569E4FFC0120838A819B818A
S113346002969B838A838A819B8106972CF38BE93E
S113347091E003D81C825AC08C81882F90E0880F79
S1133480991F85569E4FFC0180818A878C818823F1
S113349019F18C81882F90E00197880F991F855628
S11334A09E4FFC0180819A85F92FF81B8F2F8A8704
S11334B08C81882F90E0880F991F880F991F8C01A9
S11334C001551D4F60E08A85A8DEA82FCB01F801C5
S11334D080839183A28313C08C81882F90E0880F0E
S11334E0991F880F991F8C0101551D4F61E08A8532
S11334F094DEA82FCB01F80180839183A2838C8171
S1133500882F90E02C81222F30E0220F331F245685
S11335103E4FF9012081880F991F880F991F8E54FF
S11335209D4FFC0120838C818F5F8C838C8186303E
S113353008F4A2CF0000E2960FB6F894DEBF0FBEE7
S1133540CDBFDF91CF911F910F91FF90EF90DF904E
S1133550CF90BF90AF900895AF92BF92CF92DF9279
S1133560EF92FF920F931F93CF93DF93CDB7DEB704
S1133570A4970FB6F894DEBF0FBECDBF80E090E0F5
S1133580A8ECB2E489839A83AB83BC8320E030E067
S11335904AE755E469817A818B819C8184D3DC017B
S11335A0CB018D839E83AF83B88720E030E040E871
S11335B05FE36D817E818F819885D0D188232CF43F
S11335C081E090E09A8789873BC020E03FEF4FE796
S11335D057E46D817E818F8198855AD318163CF506
S11335E020E030E040E251E469817A818B819C8162
S11335F05AD3DC01CB01BC01CD011FD2DC01CB01CC
S11336009A8789870FC080E991E09C878B878B8597
S11336109C850197F1F79C878B8789859A8501970B
S11336209A87898789859A85892B69F713C06D8163
S11336307E818F81988501D2DC01CB019A878987AD
S113364089859A859E878D878D859E850197F1F75B
S11336509E878D87F89487E690E00E94E11287E2C6
S113366090E02FEFFC01208388E290E0FC011082BF
S113367081E290E02FEFFC01208380EB90E022E0D8
S1133680FC01208381EB90E024E0FC01208380E7AF
S113369090E020E730E0F90120812260FC012083E2
S11336A083EB90E029EFFC01208384E490E022E0A6
S11336B0FC01208385E490E0FC0110828EE690E01A
S11336C02EE630E0F90120812260FC01208387E4AA
S11336D090E02FEFFC01208378948EE38F9386EEA5
S11336E08F9386E68F9386E68F938EE38F9386EE91
S11336F08F9386E68F9386E68F930F2EFEEAAF2E86
S1133700F7E4BF2EF1E6CF2EFDE3DF2EF02D16EF0A
S1133710E12E18E2F12E0CE51EE32FE832EC45E72A
S11337205EE36DEC7CEC8CE09FE30E949A008DB725
S11337309EB708960FB6F894DEBF0FBECDBF80E0EB
S113374090E0A0E8BFE38F87988BA98BBA8B1B8A84
S11337501C8A1D8A1E8A1F8A188E198E1A8E1B8E29
S11337601C8E1D8E1E8EAF84B888C988DA88EB88BB
S1133770FC880D891E892F89388D498D5A8D6B8D52
S11337807C8D8D8D9E8DA3DDCE014F960E94C0133E
S1133790CE014F960E94941328D810929A01F4CF28
S11337A05058BB27AA270ED028C2F1D130F0F6D149
S11337B020F031F49F3F11F41EF4B0C10EF4E095F3
S11337C0E7FBA6C1E92F3BD280F3BA176207730760
S11337D08407950718F071F49EF553C20EF4E09532
S11337E00B2EBA2FA02D0B01B90190010C01CA01B7
S11337F0A0011124FF27591B99F0593F50F4503E62
S113380068F11A16F040A22F232F342F4427585F53
S1133810F3CF469537952795A795F0405395C9F76B
S11338207EF41F16BA0B620B730B840BBAF0915023
S1133830A1F0FF0FBB1F661F771F881FC2F70EC0C2
S1133840BA0F621F731F841F48F487957795679595
S1133850B795F7959E3F08F0B3CF9395880F08F07E
S11338609927EE0F9795879508959F939F77EEE399
S113387089379E0720F4E0E7F0E078D109C009D148
S11338809058A2EA2AED3FE049EC5FE39BDFB5D113
S11338900F9007FC905808957AD158F080E891E091
S11338A009F49EEF7BD128F040E851E059F45EEF33
S11338B009C034C1E6C1E92FE078C1D168F3092E0B
S11338C0052AC1F3261737074807590738F00E2E83
S11338D007F8E02569F0E025E0640AC0EF6307F823
S11338E0009407FADB01B9019D01DC01CA01AD01B5
S11338F0EF934AD082D10AD05F91552331F02BED5A
S11339003FE049E450FD49EC4CCF0895DF93DD27B7
S1133910B92FBF7740E85FE31616170648075B0721
S113392010F4D92FB9D19F938F937F936F9366D25D
S1133930E4E8F0E0F6D061D12F913F914F915F918F
S1133940BED1DD2349F09058A2EA2AED3FE049ECCC
S11339505FE3D0785D2736DFDF914FC1B5D008F43F
S113396081E0089523D1E39559C10CD046C116D105
S113397040F00DD130F021F45F3F19F0C9C051116E
S113398081C1CCC05CD198F39923C9F35523B1F319
S1133990951B550BBB27AA2762177307840738F0BA
S11339A09F5F5F4F220F331F441FAA1FA9F333D019
S11339B00E2E3AF0E0E830D091505040E695001CCD
S11339C0CAF729D0FE2F27D0660F771F881FBB1F89
S11339D0261737074807AB07B0E809F0BB0B802D63
S11339E0BF01FF2793585F4F2AF09E3F510568F0AF
S11339F08FC048C15F3FECF3983EDCF38695779522
S1133A006795B795F7959F5FC9F7880F911D9695B0
S1133A10879597F90895E1E0660F771F881FBB1F0C
S1133A20621773078407BA0720F0621B730B840BB9
S1133A30BA0BEE1F88F7E095089509D188F09F57D7
S1133A4090F0B92F9927B751A0F0D1F0660F771FE6
S1133A50881F991F1AF0BA95C9F712C0B13081F0C6
S1133A6010D1B1E008950DC1672F782F8827B85F72
S1133A7039F0B93FCCF3869577956795B395D9F727
S1133A803EF490958095709561957F4F8F4F9F4F31
S1133A900895DF93CF931F930F938B01EC01E1EB18
S1133AA0F0E03FD0AAD09801AE018B01EC0160E0B8
S1133AB070E080E89FE374DE63D19801AE010F915A
S1133AC01F91CF91DF91FBC0990F0008550FAA0BEE
S1133AD0E0E8FEEF16161706E807F907C0F012161D
S1133AE01306E407F50798F0621B730B840B950B20
S1133AF039F40A2661F0232B242B252B21F4089575
S1133B000A2609F4A140A6958FEF811D811D089511
S1133B1097F99F6780E870E060E008959FEF80EC7C
S1133B200895DF93CF931F930F93FF92EF92DF9249
S1133B307B018C01689405C0DA2EEF01C0D0FE0130
S1133B40E894A5912591359145915591AEF3EF01F6
S1133B5039DEFE019701A801DA9479F7DF90EF903E
S1133B60FF900F911F91CF91DF9108959F938F93B1
S1133B707F936F93FF93EF939B01AC0194D0EF91EC
S1133B80FF91CFDF2F913F914F915F918CC0002423
S1133B900A941616170618060906089500240A94AE
S1133BA012161306140605060895B8CF50D0E8F38C
S1133BB0E894E0E0BB279F57F0F02AED3FE049ECA2
S1133BC006C0EE0FBB0F661F771F881F28F0B23A9E
S1133BD062077307840728F0B25A620B730B840BD5
S1133BE0E3959A9572F7803830F49A95BB0F661F67
S1133BF0771F881FD2F7904806C1092E0394000C42
S1133C0011F4882352F0BB0F40F4BF2B11F460FF72
S1133C1004C06F5F7F4F8F4F9F4F0895EF93E0FF76
S1133C2006C0A2EA2AED3FE049EC5FEBCBDDE5DF1D
S1133C300F90039401FC9058E9EDF0E097CF57FD05
S1133C409058440F551F59F05F3F71F04795880F06
S1133C5097FB991F61F09F3F79F08795089512169D
S1133C6013061406551FF2CF4695F1DF08C0161649
S1133C7017061806991FF1CF8695710561050894FA
S1133C800895E894BB2766277727CB0197F9089511
S1133C901BDF08F48FEF08959B01AC0160E070E036
S1133CA080E89FE362CE0BD0A8CF71DF28F076DFE7
S1133CB018F0952309F02CCF31CF1124E3CFBFDFC7
S1133CC0A0F3959FD1F3950F50E0551F629FF0012B
S1133CD0729FBB27F00DB11D639FAA27F00DB11D84
S1133CE0AA1F649F6627B00DA11D661F829F22270D
S1133CF0B00DA11D621F739FB00DA11D621F839F94
S1133D00A00D611D221F749F3327A00D611D231F69
S1133D10849F600D211D822F762F6A2F11249F57B7
S1133D2050408AF0E1F088234AF0EE0FFF1FBB1FDA
S1133D30661F771F881F91505040A9F79E3F510579
S1133D4070F0E6CE9FCF5F3FECF3983EDCF38695B0
S1133D5077956795B795F795E7959F5FC1F7FE2B24
S1133D60880F911D9695879597F908959F931EDF67
S1133D700F9007FCEE5F52CF11F40EF4CFCE41C08A
S1133D8066DFD0F39923D9F3CEF39F57550B87FF02
S1133D9046D00024A0E640EA9001805856959795B5
S1133DA028F4805C660F771F881F20F026173707DA
S1133DB0480730F4621B730B840B202931294A2BEA
S1133DC0A69517940794202531254A2758F7660F9E
S1133DD0771F881F20F026173707480730F4620B37
S1133DE0730B840B200D311D411DA09581F7B90182
S1133DF0842F9158880F9695879508959B01AC015F
S1133E0052CF9F3F31F0915020F487957795679575
S1133E10B795880F911D9695879597F908959150B8
S1133E205040660F771F881FD2F7089597FB072E1F
S1133E3016F4009406D077FD08D00BD007FC05D00B
S1133E403EF4909581959F4F0895709561957F4FAD
S1133E500895AA1BBB1B51E107C0AA1FBB1FA617CD
S1133E60B70710F0A61BB70B881F991F5A95A9F71F
S1113E7080959095BC01CD010895F894FFCF84
S1133E7ED7B3DD3F000000000000000079E9263EC4
S9030000FC
