S0180000476363426F61726450726F6A656374312E737265630F
S113000037C0000045C0000043C0000041C00000EC
S11300103FC000003DC000003BC0000039C00000EC
S113002037C0000071C0000033C0000031C00000C0
S11300302FC000002DC000002BC0000029C000000C
S11300408FC0000025C0000023C0000021C00000B4
S11300501FC000001DC000001BC0000019C000002C
S113006017C0000015C0000013C0000011C000003C
S113007011241FBECFEFD0E1DEBFCDBF21E0A0E051
S1130080B1E001C01D92A830B207E1F702D0C2C0AE
S1130090B7CF8FEF84B985B911B810B887B922E00A
S11300A02093B00091E09093B10090917000926021
S11300B0909370008093B30024BD15BC90916E00A2
S11300C0926090936E0087BD7894EFEFF0E040EA81
S11300D08091030124E6829FC0011124BF0173D0E3
S11300E06C597F4F469FC001479F900D1124292FC3
S11300F0332730930201209301018093000180B1E2
S1130100809580930301E4CF1F920F920FB60F9254
S113011011242F938F939F93809104019091050153
S1130120019690930501809304018FEF8093B300AF
S11301308091040190910501823E944048F081E051
S113014085BD109205011092040188B1809588B98B
S11301509F918F912F910F900FBE0F901F90189524
S11301601F920F920FB60F9211242F933F938F93E8
S11301709F93809106019091070101969093070146
S1130180809306018FEF87BD20910601309107010E
S113019080910101909102018217930758F4809194
S11301A0000187BD109207011092060188B1809565
S11301B088B915BC9F918F913F912F910F900FBEDD
S11301C00F901F90189597FB072E16F4009406D0F5
S11301D077FD08D00BD007FC05D03EF490958195AF
S11301E09F4F0895709561957F4F0895AA1BBB1B7F
S11301F051E107C0AA1FBB1FA617B70710F0A61B23
S1130200B70B881F991F5A95A9F780959095BC0143
S10B0210CD010895F894FFCF1D
S9030000FC
